{
	"MediTrack.sol": {
		"MediTrack": {
			"abi": [
				{
					"inputs": [],
					"stateMutability": "nonpayable",
					"type": "constructor"
				},
				{
					"anonymous": false,
					"inputs": [
						{
							"indexed": true,
							"internalType": "uint256",
							"name": "batchId",
							"type": "uint256"
						},
						{
							"indexed": false,
							"internalType": "string",
							"name": "name",
							"type": "string"
						},
						{
							"indexed": true,
							"internalType": "address",
							"name": "owner",
							"type": "address"
						}
					],
					"name": "BatchCreated",
					"type": "event"
				},
				{
					"anonymous": false,
					"inputs": [
						{
							"indexed": true,
							"internalType": "uint256",
							"name": "batchId",
							"type": "uint256"
						},
						{
							"indexed": false,
							"internalType": "address",
							"name": "from",
							"type": "address"
						},
						{
							"indexed": false,
							"internalType": "address",
							"name": "to",
							"type": "address"
						}
					],
					"name": "BatchTransferred",
					"type": "event"
				},
				{
					"anonymous": false,
					"inputs": [
						{
							"indexed": true,
							"internalType": "uint256",
							"name": "batchId",
							"type": "uint256"
						},
						{
							"indexed": false,
							"internalType": "string",
							"name": "uid",
							"type": "string"
						},
						{
							"indexed": false,
							"internalType": "bytes32",
							"name": "secretHash",
							"type": "bytes32"
						}
					],
					"name": "ProductAdded",
					"type": "event"
				},
				{
					"anonymous": false,
					"inputs": [
						{
							"indexed": true,
							"internalType": "string",
							"name": "uid",
							"type": "string"
						},
						{
							"indexed": true,
							"internalType": "address",
							"name": "dealer",
							"type": "address"
						},
						{
							"indexed": false,
							"internalType": "uint256",
							"name": "time",
							"type": "uint256"
						}
					],
					"name": "ProductSold",
					"type": "event"
				},
				{
					"inputs": [
						{
							"internalType": "address",
							"name": "_dealer",
							"type": "address"
						}
					],
					"name": "addDealer",
					"outputs": [],
					"stateMutability": "nonpayable",
					"type": "function"
				},
				{
					"inputs": [
						{
							"internalType": "uint256",
							"name": "_batchId",
							"type": "uint256"
						},
						{
							"internalType": "string[]",
							"name": "_uids",
							"type": "string[]"
						},
						{
							"internalType": "bytes32[]",
							"name": "_secretHashes",
							"type": "bytes32[]"
						}
					],
					"name": "addProductsToBatch",
					"outputs": [],
					"stateMutability": "nonpayable",
					"type": "function"
				},
				{
					"inputs": [],
					"name": "admin",
					"outputs": [
						{
							"internalType": "address",
							"name": "",
							"type": "address"
						}
					],
					"stateMutability": "view",
					"type": "function"
				},
				{
					"inputs": [
						{
							"internalType": "address",
							"name": "",
							"type": "address"
						}
					],
					"name": "authorizedDealers",
					"outputs": [
						{
							"internalType": "bool",
							"name": "",
							"type": "bool"
						}
					],
					"stateMutability": "view",
					"type": "function"
				},
				{
					"inputs": [],
					"name": "batchCount",
					"outputs": [
						{
							"internalType": "uint256",
							"name": "",
							"type": "uint256"
						}
					],
					"stateMutability": "view",
					"type": "function"
				},
				{
					"inputs": [
						{
							"internalType": "uint256",
							"name": "",
							"type": "uint256"
						},
						{
							"internalType": "uint256",
							"name": "",
							"type": "uint256"
						}
					],
					"name": "batchTimelines",
					"outputs": [
						{
							"internalType": "string",
							"name": "description",
							"type": "string"
						},
						{
							"internalType": "uint256",
							"name": "timestamp",
							"type": "uint256"
						},
						{
							"internalType": "address",
							"name": "actor",
							"type": "address"
						}
					],
					"stateMutability": "view",
					"type": "function"
				},
				{
					"inputs": [
						{
							"internalType": "uint256",
							"name": "",
							"type": "uint256"
						}
					],
					"name": "batches",
					"outputs": [
						{
							"internalType": "uint256",
							"name": "id",
							"type": "uint256"
						},
						{
							"internalType": "string",
							"name": "name",
							"type": "string"
						},
						{
							"internalType": "string",
							"name": "manufacturer",
							"type": "string"
						},
						{
							"internalType": "uint256",
							"name": "createdDate",
							"type": "uint256"
						},
						{
							"internalType": "address",
							"name": "currentOwner",
							"type": "address"
						},
						{
							"internalType": "uint256",
							"name": "status",
							"type": "uint256"
						},
						{
							"internalType": "bool",
							"name": "isExists",
							"type": "bool"
						}
					],
					"stateMutability": "view",
					"type": "function"
				},
				{
					"inputs": [
						{
							"internalType": "string",
							"name": "_uid",
							"type": "string"
						}
					],
					"name": "checkProductStatus",
					"outputs": [
						{
							"internalType": "bool",
							"name": "isValid",
							"type": "bool"
						},
						{
							"internalType": "string",
							"name": "batchName",
							"type": "string"
						},
						{
							"internalType": "bool",
							"name": "isSold",
							"type": "bool"
						},
						{
							"internalType": "uint256",
							"name": "soldAt",
							"type": "uint256"
						},
						{
							"internalType": "address",
							"name": "soldBy",
							"type": "address"
						}
					],
					"stateMutability": "view",
					"type": "function"
				},
				{
					"inputs": [
						{
							"internalType": "string",
							"name": "_name",
							"type": "string"
						},
						{
							"internalType": "string",
							"name": "_manufacturer",
							"type": "string"
						}
					],
					"name": "createBatch",
					"outputs": [
						{
							"internalType": "uint256",
							"name": "",
							"type": "uint256"
						}
					],
					"stateMutability": "nonpayable",
					"type": "function"
				},
				{
					"inputs": [
						{
							"internalType": "uint256",
							"name": "_batchId",
							"type": "uint256"
						}
					],
					"name": "getBatchDetails",
					"outputs": [
						{
							"internalType": "string",
							"name": "name",
							"type": "string"
						},
						{
							"internalType": "string",
							"name": "manufacturer",
							"type": "string"
						},
						{
							"internalType": "address",
							"name": "currentOwner",
							"type": "address"
						},
						{
							"internalType": "uint256",
							"name": "status",
							"type": "uint256"
						}
					],
					"stateMutability": "view",
					"type": "function"
				},
				{
					"inputs": [
						{
							"internalType": "uint256",
							"name": "_batchId",
							"type": "uint256"
						}
					],
					"name": "getBatchTimeline",
					"outputs": [
						{
							"components": [
								{
									"internalType": "string",
									"name": "description",
									"type": "string"
								},
								{
									"internalType": "uint256",
									"name": "timestamp",
									"type": "uint256"
								},
								{
									"internalType": "address",
									"name": "actor",
									"type": "address"
								}
							],
							"internalType": "struct MediTrack.TimelineEvent[]",
							"name": "",
							"type": "tuple[]"
						}
					],
					"stateMutability": "view",
					"type": "function"
				},
				{
					"inputs": [
						{
							"internalType": "string",
							"name": "",
							"type": "string"
						}
					],
					"name": "products",
					"outputs": [
						{
							"internalType": "string",
							"name": "uid",
							"type": "string"
						},
						{
							"internalType": "uint256",
							"name": "batchId",
							"type": "uint256"
						},
						{
							"internalType": "bytes32",
							"name": "secretHash",
							"type": "bytes32"
						},
						{
							"internalType": "bool",
							"name": "isSold",
							"type": "bool"
						},
						{
							"internalType": "address",
							"name": "soldBy",
							"type": "address"
						},
						{
							"internalType": "uint256",
							"name": "soldAt",
							"type": "uint256"
						},
						{
							"internalType": "string",
							"name": "customerInfoHash",
							"type": "string"
						}
					],
					"stateMutability": "view",
					"type": "function"
				},
				{
					"inputs": [
						{
							"internalType": "address",
							"name": "_dealer",
							"type": "address"
						}
					],
					"name": "removeDealer",
					"outputs": [],
					"stateMutability": "nonpayable",
					"type": "function"
				},
				{
					"inputs": [
						{
							"internalType": "string",
							"name": "_uid",
							"type": "string"
						},
						{
							"internalType": "string",
							"name": "_secretKey",
							"type": "string"
						},
						{
							"internalType": "string",
							"name": "_customerInfoHash",
							"type": "string"
						}
					],
					"name": "sellProduct",
					"outputs": [],
					"stateMutability": "nonpayable",
					"type": "function"
				},
				{
					"inputs": [
						{
							"internalType": "uint256",
							"name": "_batchId",
							"type": "uint256"
						},
						{
							"internalType": "address",
							"name": "_to",
							"type": "address"
						},
						{
							"internalType": "string",
							"name": "_note",
							"type": "string"
						}
					],
					"name": "transferBatch",
					"outputs": [],
					"stateMutability": "nonpayable",
					"type": "function"
				},
				{
					"inputs": [
						{
							"internalType": "uint256",
							"name": "_batchId",
							"type": "uint256"
						},
						{
							"internalType": "bool",
							"name": "_isPassed",
							"type": "bool"
						}
					],
					"name": "verifyQuality",
					"outputs": [],
					"stateMutability": "nonpayable",
					"type": "function"
				}
			],
			"devdoc": {
				"kind": "dev",
				"methods": {},
				"version": 1
			},
			"evm": {
				"assembly": "    /* \"MediTrack.sol\":57:9837  contract MediTrack {... */\n  mstore(0x40, 0x80)\n    /* \"MediTrack.sol\":2990:3150  constructor() {... */\n  callvalue\n  dup1\n  iszero\n  tag_1\n  jumpi\n  revert(0x00, 0x00)\ntag_1:\n  pop\n    /* \"MediTrack.sol\":3022:3032  msg.sender */\n  caller\n    /* \"MediTrack.sol\":3014:3019  admin */\n  0x05\n  0x00\n    /* \"MediTrack.sol\":3014:3032  admin = msg.sender */\n  0x0100\n  exp\n  dup2\n  sload\n  dup2\n  0xffffffffffffffffffffffffffffffffffffffff\n  mul\n  not\n  and\n  swap1\n  dup4\n  0xffffffffffffffffffffffffffffffffffffffff\n  and\n  mul\n  or\n  swap1\n  sstore\n  pop\n    /* \"MediTrack.sol\":3139:3143  true */\n  0x01\n    /* \"MediTrack.sol\":3107:3124  authorizedDealers */\n  0x04\n    /* \"MediTrack.sol\":3107:3136  authorizedDealers[msg.sender] */\n  0x00\n    /* \"MediTrack.sol\":3125:3135  msg.sender */\n  caller\n    /* \"MediTrack.sol\":3107:3136  authorizedDealers[msg.sender] */\n  0xffffffffffffffffffffffffffffffffffffffff\n  and\n  0xffffffffffffffffffffffffffffffffffffffff\n  and\n  dup2\n  mstore\n  0x20\n  add\n  swap1\n  dup2\n  mstore\n  0x20\n  add\n  0x00\n  keccak256\n  0x00\n    /* \"MediTrack.sol\":3107:3143  authorizedDealers[msg.sender] = true */\n  0x0100\n  exp\n  dup2\n  sload\n  dup2\n  0xff\n  mul\n  not\n  and\n  swap1\n  dup4\n  iszero\n  iszero\n  mul\n  or\n  swap1\n  sstore\n  pop\n    /* \"MediTrack.sol\":57:9837  contract MediTrack {... */\n  dataSize(sub_0)\n  dup1\n  dataOffset(sub_0)\n  0x00\n  codecopy\n  0x00\n  return\nstop\n\nsub_0: assembly {\n        /* \"MediTrack.sol\":57:9837  contract MediTrack {... */\n      mstore(0x40, 0x80)\n      callvalue\n      dup1\n      iszero\n      tag_1\n      jumpi\n      revert(0x00, 0x00)\n    tag_1:\n      pop\n      jumpi(tag_2, lt(calldatasize, 0x04))\n      shr(0xe0, calldataload(0x00))\n      dup1\n      0x9d47dcc0\n      gt\n      tag_19\n      jumpi\n      dup1\n      0xb32c4d8d\n      gt\n      tag_20\n      jumpi\n      dup1\n      0xb32c4d8d\n      eq\n      tag_15\n      jumpi\n      dup1\n      0xc12bcaec\n      eq\n      tag_16\n      jumpi\n      dup1\n      0xf851a440\n      eq\n      tag_17\n      jumpi\n      dup1\n      0xf9e903e8\n      eq\n      tag_18\n      jumpi\n      jump(tag_2)\n    tag_20:\n      dup1\n      0x9d47dcc0\n      eq\n      tag_11\n      jumpi\n      dup1\n      0xa1445e0a\n      eq\n      tag_12\n      jumpi\n      dup1\n      0xa2483a93\n      eq\n      tag_13\n      jumpi\n      dup1\n      0xa7c4af80\n      eq\n      tag_14\n      jumpi\n      jump(tag_2)\n    tag_19:\n      dup1\n      0x500c2557\n      gt\n      tag_21\n      jumpi\n      dup1\n      0x500c2557\n      eq\n      tag_7\n      jumpi\n      dup1\n      0x57a75c27\n      eq\n      tag_8\n      jumpi\n      dup1\n      0x8b142aeb\n      eq\n      tag_9\n      jumpi\n      dup1\n      0x92b8f021\n      eq\n      tag_10\n      jumpi\n      jump(tag_2)\n    tag_21:\n      dup1\n      0x0186a423\n      eq\n      tag_3\n      jumpi\n      dup1\n      0x06d6cb76\n      eq\n      tag_4\n      jumpi\n      dup1\n      0x06f13056\n      eq\n      tag_5\n      jumpi\n      dup1\n      0x21f9eeae\n      eq\n      tag_6\n      jumpi\n    tag_2:\n      revert(0x00, 0x00)\n        /* \"MediTrack.sol\":1813:1855  mapping(string => Product) public products */\n    tag_3:\n      tag_22\n      0x04\n      dup1\n      calldatasize\n      sub\n      dup2\n      add\n      swap1\n      tag_23\n      swap2\n      swap1\n      tag_24\n      jump\t// in\n    tag_23:\n      tag_25\n      jump\t// in\n    tag_22:\n      mload(0x40)\n      tag_26\n      swap8\n      swap7\n      swap6\n      swap5\n      swap4\n      swap3\n      swap2\n      swap1\n      tag_27\n      jump\t// in\n    tag_26:\n      mload(0x40)\n      dup1\n      swap2\n      sub\n      swap1\n      return\n        /* \"MediTrack.sol\":3227:3330  function addDealer(address _dealer) public onlyAdmin {... */\n    tag_4:\n      tag_28\n      0x04\n      dup1\n      calldatasize\n      sub\n      dup2\n      add\n      swap1\n      tag_29\n      swap2\n      swap1\n      tag_30\n      jump\t// in\n    tag_29:\n      tag_31\n      jump\t// in\n    tag_28:\n      stop\n        /* \"MediTrack.sol\":1604:1629  uint256 public batchCount */\n    tag_5:\n      tag_32\n      tag_33\n      jump\t// in\n    tag_32:\n      mload(0x40)\n      tag_34\n      swap2\n      swap1\n      tag_35\n      jump\t// in\n    tag_34:\n      mload(0x40)\n      dup1\n      swap2\n      sub\n      swap1\n      return\n        /* \"MediTrack.sol\":9342:9835  function checkProductStatus(string memory _uid) public view returns (... */\n    tag_6:\n      tag_36\n      0x04\n      dup1\n      calldatasize\n      sub\n      dup2\n      add\n      swap1\n      tag_37\n      swap2\n      swap1\n      tag_24\n      jump\t// in\n    tag_37:\n      tag_38\n      jump\t// in\n    tag_36:\n      mload(0x40)\n      tag_39\n      swap6\n      swap5\n      swap4\n      swap3\n      swap2\n      swap1\n      tag_40\n      jump\t// in\n    tag_39:\n      mload(0x40)\n      dup1\n      swap2\n      sub\n      swap1\n      return\n        /* \"MediTrack.sol\":9124:9261  function getBatchTimeline(uint256 _batchId) public view returns (TimelineEvent[] memory) {... */\n    tag_7:\n      tag_41\n      0x04\n      dup1\n      calldatasize\n      sub\n      dup2\n      add\n      swap1\n      tag_42\n      swap2\n      swap1\n      tag_43\n      jump\t// in\n    tag_42:\n      tag_44\n      jump\t// in\n    tag_41:\n      mload(0x40)\n      tag_45\n      swap2\n      swap1\n      tag_46\n      jump\t// in\n    tag_45:\n      mload(0x40)\n      dup1\n      swap2\n      sub\n      swap1\n      return\n        /* \"MediTrack.sol\":6768:7295  function verifyQuality(uint256 _batchId, bool _isPassed) public onlyAdmin {... */\n    tag_8:\n      tag_47\n      0x04\n      dup1\n      calldatasize\n      sub\n      dup2\n      add\n      swap1\n      tag_48\n      swap2\n      swap1\n      tag_49\n      jump\t// in\n    tag_48:\n      tag_50\n      jump\t// in\n    tag_47:\n      stop\n        /* \"MediTrack.sol\":4647:5832  function addProductsToBatch(... */\n    tag_9:\n      tag_51\n      0x04\n      dup1\n      calldatasize\n      sub\n      dup2\n      add\n      swap1\n      tag_52\n      swap2\n      swap1\n      tag_53\n      jump\t// in\n    tag_52:\n      tag_54\n      jump\t// in\n    tag_51:\n      stop\n        /* \"MediTrack.sol\":3585:4401  function createBatch(string memory _name, string memory _manufacturer) public returns (uint256) {... */\n    tag_10:\n      tag_55\n      0x04\n      dup1\n      calldatasize\n      sub\n      dup2\n      add\n      swap1\n      tag_56\n      swap2\n      swap1\n      tag_57\n      jump\t// in\n    tag_56:\n      tag_58\n      jump\t// in\n    tag_55:\n      mload(0x40)\n      tag_59\n      swap2\n      swap1\n      tag_35\n      jump\t// in\n    tag_59:\n      mload(0x40)\n      dup1\n      swap2\n      sub\n      swap1\n      return\n        /* \"MediTrack.sol\":8696:9070  function getBatchDetails(uint256 _batchId) public view returns (... */\n    tag_11:\n      tag_60\n      0x04\n      dup1\n      calldatasize\n      sub\n      dup2\n      add\n      swap1\n      tag_61\n      swap2\n      swap1\n      tag_43\n      jump\t// in\n    tag_61:\n      tag_62\n      jump\t// in\n    tag_60:\n      mload(0x40)\n      tag_63\n      swap5\n      swap4\n      swap3\n      swap2\n      swap1\n      tag_64\n      jump\t// in\n    tag_63:\n      mload(0x40)\n      dup1\n      swap2\n      sub\n      swap1\n      return\n        /* \"MediTrack.sol\":1690:1747  mapping(uint256 => TimelineEvent[]) public batchTimelines */\n    tag_12:\n      tag_65\n      0x04\n      dup1\n      calldatasize\n      sub\n      dup2\n      add\n      swap1\n      tag_66\n      swap2\n      swap1\n      tag_67\n      jump\t// in\n    tag_66:\n      tag_68\n      jump\t// in\n    tag_65:\n      mload(0x40)\n      tag_69\n      swap4\n      swap3\n      swap2\n      swap1\n      tag_70\n      jump\t// in\n    tag_69:\n      mload(0x40)\n      dup1\n      swap2\n      sub\n      swap1\n      return\n        /* \"MediTrack.sol\":3336:3443  function removeDealer(address _dealer) public onlyAdmin {... */\n    tag_13:\n      tag_71\n      0x04\n      dup1\n      calldatasize\n      sub\n      dup2\n      add\n      swap1\n      tag_72\n      swap2\n      swap1\n      tag_30\n      jump\t// in\n    tag_72:\n      tag_73\n      jump\t// in\n    tag_71:\n      stop\n        /* \"MediTrack.sol\":1974:2023  mapping(address => bool) public authorizedDealers */\n    tag_14:\n      tag_74\n      0x04\n      dup1\n      calldatasize\n      sub\n      dup2\n      add\n      swap1\n      tag_75\n      swap2\n      swap1\n      tag_30\n      jump\t// in\n    tag_75:\n      tag_76\n      jump\t// in\n    tag_74:\n      mload(0x40)\n      tag_77\n      swap2\n      swap1\n      tag_78\n      jump\t// in\n    tag_77:\n      mload(0x40)\n      dup1\n      swap2\n      sub\n      swap1\n      return\n        /* \"MediTrack.sol\":1558:1598  mapping(uint256 => Batch) public batches */\n    tag_15:\n      tag_79\n      0x04\n      dup1\n      calldatasize\n      sub\n      dup2\n      add\n      swap1\n      tag_80\n      swap2\n      swap1\n      tag_43\n      jump\t// in\n    tag_80:\n      tag_81\n      jump\t// in\n    tag_79:\n      mload(0x40)\n      tag_82\n      swap8\n      swap7\n      swap6\n      swap5\n      swap4\n      swap3\n      swap2\n      swap1\n      tag_83\n      jump\t// in\n    tag_82:\n      mload(0x40)\n      dup1\n      swap2\n      sub\n      swap1\n      return\n        /* \"MediTrack.sol\":6032:6708  function transferBatch(uint256 _batchId, address _to, string memory _note) public onlyBatchOwner(_batchId) {... */\n    tag_16:\n      tag_84\n      0x04\n      dup1\n      calldatasize\n      sub\n      dup2\n      add\n      swap1\n      tag_85\n      swap2\n      swap1\n      tag_86\n      jump\t// in\n    tag_85:\n      tag_87\n      jump\t// in\n    tag_84:\n      stop\n        /* \"MediTrack.sol\":2034:2054  address public admin */\n    tag_17:\n      tag_88\n      tag_89\n      jump\t// in\n    tag_88:\n      mload(0x40)\n      tag_90\n      swap2\n      swap1\n      tag_91\n      jump\t// in\n    tag_90:\n      mload(0x40)\n      dup1\n      swap2\n      sub\n      swap1\n      return\n        /* \"MediTrack.sol\":7522:8596  function sellProduct(string memory _uid, string memory _secretKey, string memory _customerInfoHash) public onlyDealer {... */\n    tag_18:\n      tag_92\n      0x04\n      dup1\n      calldatasize\n      sub\n      dup2\n      add\n      swap1\n      tag_93\n      swap2\n      swap1\n      tag_94\n      jump\t// in\n    tag_93:\n      tag_95\n      jump\t// in\n    tag_92:\n      stop\n        /* \"MediTrack.sol\":1813:1855  mapping(string => Product) public products */\n    tag_25:\n      0x03\n      dup2\n      dup1\n      mload\n      0x20\n      dup2\n      add\n      dup3\n      add\n      dup1\n      mload\n      dup5\n      dup3\n      mstore\n      0x20\n      dup4\n      add\n      0x20\n      dup6\n      add\n      keccak256\n      dup2\n      dup4\n      mstore\n      dup1\n      swap6\n      pop\n      pop\n      pop\n      pop\n      pop\n      pop\n      0x00\n      swap2\n      pop\n      swap1\n      pop\n      dup1\n      0x00\n      add\n      dup1\n      sload\n      tag_96\n      swap1\n      tag_97\n      jump\t// in\n    tag_96:\n      dup1\n      0x1f\n      add\n      0x20\n      dup1\n      swap2\n      div\n      mul\n      0x20\n      add\n      mload(0x40)\n      swap1\n      dup2\n      add\n      0x40\n      mstore\n      dup1\n      swap3\n      swap2\n      swap1\n      dup2\n      dup2\n      mstore\n      0x20\n      add\n      dup3\n      dup1\n      sload\n      tag_98\n      swap1\n      tag_97\n      jump\t// in\n    tag_98:\n      dup1\n      iszero\n      tag_99\n      jumpi\n      dup1\n      0x1f\n      lt\n      tag_100\n      jumpi\n      0x0100\n      dup1\n      dup4\n      sload\n      div\n      mul\n      dup4\n      mstore\n      swap2\n      0x20\n      add\n      swap2\n      jump(tag_99)\n    tag_100:\n      dup3\n      add\n      swap2\n      swap1\n      0x00\n      mstore\n      keccak256(0x00, 0x20)\n      swap1\n    tag_101:\n      dup2\n      sload\n      dup2\n      mstore\n      swap1\n      0x01\n      add\n      swap1\n      0x20\n      add\n      dup1\n      dup4\n      gt\n      tag_101\n      jumpi\n      dup3\n      swap1\n      sub\n      0x1f\n      and\n      dup3\n      add\n      swap2\n    tag_99:\n      pop\n      pop\n      pop\n      pop\n      pop\n      swap1\n      dup1\n      0x01\n      add\n      sload\n      swap1\n      dup1\n      0x02\n      add\n      sload\n      swap1\n      dup1\n      0x03\n      add\n      0x00\n      swap1\n      sload\n      swap1\n      0x0100\n      exp\n      swap1\n      div\n      0xff\n      and\n      swap1\n      dup1\n      0x03\n      add\n      0x01\n      swap1\n      sload\n      swap1\n      0x0100\n      exp\n      swap1\n      div\n      0xffffffffffffffffffffffffffffffffffffffff\n      and\n      swap1\n      dup1\n      0x04\n      add\n      sload\n      swap1\n      dup1\n      0x05\n      add\n      dup1\n      sload\n      tag_102\n      swap1\n      tag_97\n      jump\t// in\n    tag_102:\n      dup1\n      0x1f\n      add\n      0x20\n      dup1\n      swap2\n      div\n      mul\n      0x20\n      add\n      mload(0x40)\n      swap1\n      dup2\n      add\n      0x40\n      mstore\n      dup1\n      swap3\n      swap2\n      swap1\n      dup2\n      dup2\n      mstore\n      0x20\n      add\n      dup3\n      dup1\n      sload\n      tag_103\n      swap1\n      tag_97\n      jump\t// in\n    tag_103:\n      dup1\n      iszero\n      tag_104\n      jumpi\n      dup1\n      0x1f\n      lt\n      tag_105\n      jumpi\n      0x0100\n      dup1\n      dup4\n      sload\n      div\n      mul\n      dup4\n      mstore\n      swap2\n      0x20\n      add\n      swap2\n      jump(tag_104)\n    tag_105:\n      dup3\n      add\n      swap2\n      swap1\n      0x00\n      mstore\n      keccak256(0x00, 0x20)\n      swap1\n    tag_106:\n      dup2\n      sload\n      dup2\n      mstore\n      swap1\n      0x01\n      add\n      swap1\n      0x20\n      add\n      dup1\n      dup4\n      gt\n      tag_106\n      jumpi\n      dup3\n      swap1\n      sub\n      0x1f\n      and\n      dup3\n      add\n      swap2\n    tag_104:\n      pop\n      pop\n      pop\n      pop\n      pop\n      swap1\n      pop\n      dup8\n      jump\t// out\n        /* \"MediTrack.sol\":3227:3330  function addDealer(address _dealer) public onlyAdmin {... */\n    tag_31:\n        /* \"MediTrack.sol\":2570:2575  admin */\n      0x05\n      0x00\n      swap1\n      sload\n      swap1\n      0x0100\n      exp\n      swap1\n      div\n      0xffffffffffffffffffffffffffffffffffffffff\n      and\n        /* \"MediTrack.sol\":2556:2575  msg.sender == admin */\n      0xffffffffffffffffffffffffffffffffffffffff\n      and\n        /* \"MediTrack.sol\":2556:2566  msg.sender */\n      caller\n        /* \"MediTrack.sol\":2556:2575  msg.sender == admin */\n      0xffffffffffffffffffffffffffffffffffffffff\n      and\n      eq\n        /* \"MediTrack.sol\":2548:2627  require(msg.sender == admin, unicode\"Chỉ Admin mới được thực hiện\") */\n      tag_108\n      jumpi\n      mload(0x40)\n      0x08c379a000000000000000000000000000000000000000000000000000000000\n      dup2\n      mstore\n      0x04\n      add\n      tag_109\n      swap1\n      tag_110\n      jump\t// in\n    tag_109:\n      mload(0x40)\n      dup1\n      swap2\n      sub\n      swap1\n      revert\n    tag_108:\n        /* \"MediTrack.sol\":3319:3323  true */\n      0x01\n        /* \"MediTrack.sol\":3290:3307  authorizedDealers */\n      0x04\n        /* \"MediTrack.sol\":3290:3316  authorizedDealers[_dealer] */\n      0x00\n        /* \"MediTrack.sol\":3308:3315  _dealer */\n      dup4\n        /* \"MediTrack.sol\":3290:3316  authorizedDealers[_dealer] */\n      0xffffffffffffffffffffffffffffffffffffffff\n      and\n      0xffffffffffffffffffffffffffffffffffffffff\n      and\n      dup2\n      mstore\n      0x20\n      add\n      swap1\n      dup2\n      mstore\n      0x20\n      add\n      0x00\n      keccak256\n      0x00\n        /* \"MediTrack.sol\":3290:3323  authorizedDealers[_dealer] = true */\n      0x0100\n      exp\n      dup2\n      sload\n      dup2\n      0xff\n      mul\n      not\n      and\n      swap1\n      dup4\n      iszero\n      iszero\n      mul\n      or\n      swap1\n      sstore\n      pop\n        /* \"MediTrack.sol\":3227:3330  function addDealer(address _dealer) public onlyAdmin {... */\n      pop\n      jump\t// out\n        /* \"MediTrack.sol\":1604:1629  uint256 public batchCount */\n    tag_33:\n      sload(0x01)\n      dup2\n      jump\t// out\n        /* \"MediTrack.sol\":9342:9835  function checkProductStatus(string memory _uid) public view returns (... */\n    tag_38:\n        /* \"MediTrack.sol\":9420:9432  bool isValid */\n      0x00\n        /* \"MediTrack.sol\":9443:9466  string memory batchName */\n      0x60\n        /* \"MediTrack.sol\":9477:9488  bool isSold */\n      0x00\n        /* \"MediTrack.sol\":9499:9513  uint256 soldAt */\n      0x00\n        /* \"MediTrack.sol\":9524:9538  address soldBy */\n      0x00\n        /* \"MediTrack.sol\":9555:9571  Product memory p */\n      0x00\n        /* \"MediTrack.sol\":9574:9582  products */\n      0x03\n        /* \"MediTrack.sol\":9583:9587  _uid */\n      dup8\n        /* \"MediTrack.sol\":9574:9588  products[_uid] */\n      mload(0x40)\n      tag_113\n      swap2\n      swap1\n      tag_114\n      jump\t// in\n    tag_113:\n      swap1\n      dup2\n      mstore\n      0x20\n      add\n      mload(0x40)\n      dup1\n      swap2\n      sub\n      swap1\n      keccak256\n        /* \"MediTrack.sol\":9555:9588  Product memory p = products[_uid] */\n      mload(0x40)\n      dup1\n      0xe0\n      add\n      0x40\n      mstore\n      swap1\n      dup2\n      0x00\n      dup3\n      add\n      dup1\n      sload\n      tag_115\n      swap1\n      tag_97\n      jump\t// in\n    tag_115:\n      dup1\n      0x1f\n      add\n      0x20\n      dup1\n      swap2\n      div\n      mul\n      0x20\n      add\n      mload(0x40)\n      swap1\n      dup2\n      add\n      0x40\n      mstore\n      dup1\n      swap3\n      swap2\n      swap1\n      dup2\n      dup2\n      mstore\n      0x20\n      add\n      dup3\n      dup1\n      sload\n      tag_116\n      swap1\n      tag_97\n      jump\t// in\n    tag_116:\n      dup1\n      iszero\n      tag_117\n      jumpi\n      dup1\n      0x1f\n      lt\n      tag_118\n      jumpi\n      0x0100\n      dup1\n      dup4\n      sload\n      div\n      mul\n      dup4\n      mstore\n      swap2\n      0x20\n      add\n      swap2\n      jump(tag_117)\n    tag_118:\n      dup3\n      add\n      swap2\n      swap1\n      0x00\n      mstore\n      keccak256(0x00, 0x20)\n      swap1\n    tag_119:\n      dup2\n      sload\n      dup2\n      mstore\n      swap1\n      0x01\n      add\n      swap1\n      0x20\n      add\n      dup1\n      dup4\n      gt\n      tag_119\n      jumpi\n      dup3\n      swap1\n      sub\n      0x1f\n      and\n      dup3\n      add\n      swap2\n    tag_117:\n      pop\n      pop\n      pop\n      pop\n      pop\n      dup2\n      mstore\n      0x20\n      add\n      0x01\n      dup3\n      add\n      sload\n      dup2\n      mstore\n      0x20\n      add\n      0x02\n      dup3\n      add\n      sload\n      dup2\n      mstore\n      0x20\n      add\n      0x03\n      dup3\n      add\n      0x00\n      swap1\n      sload\n      swap1\n      0x0100\n      exp\n      swap1\n      div\n      0xff\n      and\n      iszero\n      iszero\n      iszero\n      iszero\n      dup2\n      mstore\n      0x20\n      add\n      0x03\n      dup3\n      add\n      0x01\n      swap1\n      sload\n      swap1\n      0x0100\n      exp\n      swap1\n      div\n      0xffffffffffffffffffffffffffffffffffffffff\n      and\n      0xffffffffffffffffffffffffffffffffffffffff\n      and\n      0xffffffffffffffffffffffffffffffffffffffff\n      and\n      dup2\n      mstore\n      0x20\n      add\n      0x04\n      dup3\n      add\n      sload\n      dup2\n      mstore\n      0x20\n      add\n      0x05\n      dup3\n      add\n      dup1\n      sload\n      tag_120\n      swap1\n      tag_97\n      jump\t// in\n    tag_120:\n      dup1\n      0x1f\n      add\n      0x20\n      dup1\n      swap2\n      div\n      mul\n      0x20\n      add\n      mload(0x40)\n      swap1\n      dup2\n      add\n      0x40\n      mstore\n      dup1\n      swap3\n      swap2\n      swap1\n      dup2\n      dup2\n      mstore\n      0x20\n      add\n      dup3\n      dup1\n      sload\n      tag_121\n      swap1\n      tag_97\n      jump\t// in\n    tag_121:\n      dup1\n      iszero\n      tag_122\n      jumpi\n      dup1\n      0x1f\n      lt\n      tag_123\n      jumpi\n      0x0100\n      dup1\n      dup4\n      sload\n      div\n      mul\n      dup4\n      mstore\n      swap2\n      0x20\n      add\n      swap2\n      jump(tag_122)\n    tag_123:\n      dup3\n      add\n      swap2\n      swap1\n      0x00\n      mstore\n      keccak256(0x00, 0x20)\n      swap1\n    tag_124:\n      dup2\n      sload\n      dup2\n      mstore\n      swap1\n      0x01\n      add\n      swap1\n      0x20\n      add\n      dup1\n      dup4\n      gt\n      tag_124\n      jumpi\n      dup3\n      swap1\n      sub\n      0x1f\n      and\n      dup3\n      add\n      swap2\n    tag_122:\n      pop\n      pop\n      pop\n      pop\n      pop\n      dup2\n      mstore\n      pop\n      pop\n      swap1\n      pop\n        /* \"MediTrack.sol\":9615:9616  0 */\n      0x00\n        /* \"MediTrack.sol\":9602:9603  p */\n      dup2\n        /* \"MediTrack.sol\":9602:9611  p.batchId */\n      0x20\n      add\n      mload\n        /* \"MediTrack.sol\":9602:9616  p.batchId == 0 */\n      sub\n        /* \"MediTrack.sol\":9598:9705  if (p.batchId == 0) {... */\n      tag_125\n      jumpi\n        /* \"MediTrack.sol\":9640:9645  false */\n      0x00\n        /* \"MediTrack.sol\":9651:9656  false */\n      0x00\n        /* \"MediTrack.sol\":9658:9659  0 */\n      0x00\n        /* \"MediTrack.sol\":9669:9670  0 */\n      0x00\n        /* \"MediTrack.sol\":9632:9672  return (false, \"\", false, 0, address(0)) */\n      mload(0x40)\n      dup1\n      0x20\n      add\n      0x40\n      mstore\n      dup1\n      0x00\n      dup2\n      mstore\n      pop\n      swap3\n      swap2\n      swap1\n      swap6\n      pop\n      swap6\n      pop\n      swap6\n      pop\n      swap6\n      pop\n      swap6\n      pop\n      pop\n      jump(tag_112)\n        /* \"MediTrack.sol\":9598:9705  if (p.batchId == 0) {... */\n    tag_125:\n        /* \"MediTrack.sol\":9723:9742  string memory bName */\n      0x00\n        /* \"MediTrack.sol\":9745:9752  batches */\n      0x00\n        /* \"MediTrack.sol\":9745:9763  batches[p.batchId] */\n      0x00\n        /* \"MediTrack.sol\":9753:9754  p */\n      dup4\n        /* \"MediTrack.sol\":9753:9762  p.batchId */\n      0x20\n      add\n      mload\n        /* \"MediTrack.sol\":9745:9763  batches[p.batchId] */\n      dup2\n      mstore\n      0x20\n      add\n      swap1\n      dup2\n      mstore\n      0x20\n      add\n      0x00\n      keccak256\n        /* \"MediTrack.sol\":9745:9768  batches[p.batchId].name */\n      0x01\n      add\n        /* \"MediTrack.sol\":9723:9768  string memory bName = batches[p.batchId].name */\n      dup1\n      sload\n      tag_126\n      swap1\n      tag_97\n      jump\t// in\n    tag_126:\n      dup1\n      0x1f\n      add\n      0x20\n      dup1\n      swap2\n      div\n      mul\n      0x20\n      add\n      mload(0x40)\n      swap1\n      dup2\n      add\n      0x40\n      mstore\n      dup1\n      swap3\n      swap2\n      swap1\n      dup2\n      dup2\n      mstore\n      0x20\n      add\n      dup3\n      dup1\n      sload\n      tag_127\n      swap1\n      tag_97\n      jump\t// in\n    tag_127:\n      dup1\n      iszero\n      tag_128\n      jumpi\n      dup1\n      0x1f\n      lt\n      tag_129\n      jumpi\n      0x0100\n      dup1\n      dup4\n      sload\n      div\n      mul\n      dup4\n      mstore\n      swap2\n      0x20\n      add\n      swap2\n      jump(tag_128)\n    tag_129:\n      dup3\n      add\n      swap2\n      swap1\n      0x00\n      mstore\n      keccak256(0x00, 0x20)\n      swap1\n    tag_130:\n      dup2\n      sload\n      dup2\n      mstore\n      swap1\n      0x01\n      add\n      swap1\n      0x20\n      add\n      dup1\n      dup4\n      gt\n      tag_130\n      jumpi\n      dup3\n      swap1\n      sub\n      0x1f\n      and\n      dup3\n      add\n      swap2\n    tag_128:\n      pop\n      pop\n      pop\n      pop\n      pop\n      swap1\n      pop\n        /* \"MediTrack.sol\":9786:9790  true */\n      0x01\n        /* \"MediTrack.sol\":9792:9797  bName */\n      dup2\n        /* \"MediTrack.sol\":9799:9800  p */\n      dup4\n        /* \"MediTrack.sol\":9799:9807  p.isSold */\n      0x60\n      add\n      mload\n        /* \"MediTrack.sol\":9809:9810  p */\n      dup5\n        /* \"MediTrack.sol\":9809:9817  p.soldAt */\n      0xa0\n      add\n      mload\n        /* \"MediTrack.sol\":9819:9820  p */\n      dup6\n        /* \"MediTrack.sol\":9819:9827  p.soldBy */\n      0x80\n      add\n      mload\n        /* \"MediTrack.sol\":9778:9828  return (true, bName, p.isSold, p.soldAt, p.soldBy) */\n      swap7\n      pop\n      swap7\n      pop\n      swap7\n      pop\n      swap7\n      pop\n      swap7\n      pop\n      pop\n      pop\n        /* \"MediTrack.sol\":9342:9835  function checkProductStatus(string memory _uid) public view returns (... */\n    tag_112:\n      swap2\n      swap4\n      swap6\n      swap1\n      swap3\n      swap5\n      pop\n      jump\t// out\n        /* \"MediTrack.sol\":9124:9261  function getBatchTimeline(uint256 _batchId) public view returns (TimelineEvent[] memory) {... */\n    tag_44:\n        /* \"MediTrack.sol\":9189:9211  TimelineEvent[] memory */\n      0x60\n        /* \"MediTrack.sol\":9230:9244  batchTimelines */\n      0x02\n        /* \"MediTrack.sol\":9230:9254  batchTimelines[_batchId] */\n      0x00\n        /* \"MediTrack.sol\":9245:9253  _batchId */\n      dup4\n        /* \"MediTrack.sol\":9230:9254  batchTimelines[_batchId] */\n      dup2\n      mstore\n      0x20\n      add\n      swap1\n      dup2\n      mstore\n      0x20\n      add\n      0x00\n      keccak256\n        /* \"MediTrack.sol\":9223:9254  return batchTimelines[_batchId] */\n      dup1\n      sload\n      dup1\n      0x20\n      mul\n      0x20\n      add\n      mload(0x40)\n      swap1\n      dup2\n      add\n      0x40\n      mstore\n      dup1\n      swap3\n      swap2\n      swap1\n      dup2\n      dup2\n      mstore\n      0x20\n      add\n      0x00\n      swap1\n    tag_132:\n      dup3\n      dup3\n      lt\n      iszero\n      tag_133\n      jumpi\n      dup4\n      dup3\n      swap1\n      0x00\n      mstore\n      keccak256(0x00, 0x20)\n      swap1\n      0x03\n      mul\n      add\n      mload(0x40)\n      dup1\n      0x60\n      add\n      0x40\n      mstore\n      swap1\n      dup2\n      0x00\n      dup3\n      add\n      dup1\n      sload\n      tag_135\n      swap1\n      tag_97\n      jump\t// in\n    tag_135:\n      dup1\n      0x1f\n      add\n      0x20\n      dup1\n      swap2\n      div\n      mul\n      0x20\n      add\n      mload(0x40)\n      swap1\n      dup2\n      add\n      0x40\n      mstore\n      dup1\n      swap3\n      swap2\n      swap1\n      dup2\n      dup2\n      mstore\n      0x20\n      add\n      dup3\n      dup1\n      sload\n      tag_136\n      swap1\n      tag_97\n      jump\t// in\n    tag_136:\n      dup1\n      iszero\n      tag_137\n      jumpi\n      dup1\n      0x1f\n      lt\n      tag_138\n      jumpi\n      0x0100\n      dup1\n      dup4\n      sload\n      div\n      mul\n      dup4\n      mstore\n      swap2\n      0x20\n      add\n      swap2\n      jump(tag_137)\n    tag_138:\n      dup3\n      add\n      swap2\n      swap1\n      0x00\n      mstore\n      keccak256(0x00, 0x20)\n      swap1\n    tag_139:\n      dup2\n      sload\n      dup2\n      mstore\n      swap1\n      0x01\n      add\n      swap1\n      0x20\n      add\n      dup1\n      dup4\n      gt\n      tag_139\n      jumpi\n      dup3\n      swap1\n      sub\n      0x1f\n      and\n      dup3\n      add\n      swap2\n    tag_137:\n      pop\n      pop\n      pop\n      pop\n      pop\n      dup2\n      mstore\n      0x20\n      add\n      0x01\n      dup3\n      add\n      sload\n      dup2\n      mstore\n      0x20\n      add\n      0x02\n      dup3\n      add\n      0x00\n      swap1\n      sload\n      swap1\n      0x0100\n      exp\n      swap1\n      div\n      0xffffffffffffffffffffffffffffffffffffffff\n      and\n      0xffffffffffffffffffffffffffffffffffffffff\n      and\n      0xffffffffffffffffffffffffffffffffffffffff\n      and\n      dup2\n      mstore\n      pop\n      pop\n      dup2\n      mstore\n      0x20\n      add\n      swap1\n      0x01\n      add\n      swap1\n      jump(tag_132)\n    tag_133:\n      pop\n      pop\n      pop\n      pop\n      swap1\n      pop\n        /* \"MediTrack.sol\":9124:9261  function getBatchTimeline(uint256 _batchId) public view returns (TimelineEvent[] memory) {... */\n      swap2\n      swap1\n      pop\n      jump\t// out\n        /* \"MediTrack.sol\":6768:7295  function verifyQuality(uint256 _batchId, bool _isPassed) public onlyAdmin {... */\n    tag_50:\n        /* \"MediTrack.sol\":2570:2575  admin */\n      0x05\n      0x00\n      swap1\n      sload\n      swap1\n      0x0100\n      exp\n      swap1\n      div\n      0xffffffffffffffffffffffffffffffffffffffff\n      and\n        /* \"MediTrack.sol\":2556:2575  msg.sender == admin */\n      0xffffffffffffffffffffffffffffffffffffffff\n      and\n        /* \"MediTrack.sol\":2556:2566  msg.sender */\n      caller\n        /* \"MediTrack.sol\":2556:2575  msg.sender == admin */\n      0xffffffffffffffffffffffffffffffffffffffff\n      and\n      eq\n        /* \"MediTrack.sol\":2548:2627  require(msg.sender == admin, unicode\"Chỉ Admin mới được thực hiện\") */\n      tag_141\n      jumpi\n      mload(0x40)\n      0x08c379a000000000000000000000000000000000000000000000000000000000\n      dup2\n      mstore\n      0x04\n      add\n      tag_142\n      swap1\n      tag_110\n      jump\t// in\n    tag_142:\n      mload(0x40)\n      dup1\n      swap2\n      sub\n      swap1\n      revert\n    tag_141:\n        /* \"MediTrack.sol\":6860:6867  batches */\n      0x00\n        /* \"MediTrack.sol\":6860:6877  batches[_batchId] */\n      0x00\n        /* \"MediTrack.sol\":6868:6876  _batchId */\n      dup4\n        /* \"MediTrack.sol\":6860:6877  batches[_batchId] */\n      dup2\n      mstore\n      0x20\n      add\n      swap1\n      dup2\n      mstore\n      0x20\n      add\n      0x00\n      keccak256\n        /* \"MediTrack.sol\":6860:6886  batches[_batchId].isExists */\n      0x07\n      add\n      0x00\n      swap1\n      sload\n      swap1\n      0x0100\n      exp\n      swap1\n      div\n      0xff\n      and\n        /* \"MediTrack.sol\":6852:6926  require(batches[_batchId].isExists, unicode\"Lô hàng không tồn tại\") */\n      tag_144\n      jumpi\n      mload(0x40)\n      0x08c379a000000000000000000000000000000000000000000000000000000000\n      dup2\n      mstore\n      0x04\n      add\n      tag_145\n      swap1\n      tag_146\n      jump\t// in\n    tag_145:\n      mload(0x40)\n      dup1\n      swap2\n      sub\n      swap1\n      revert\n    tag_144:\n        /* \"MediTrack.sol\":6949:6958  _isPassed */\n      dup1\n        /* \"MediTrack.sol\":6945:7289  if (_isPassed) {... */\n      iszero\n      tag_147\n      jumpi\n        /* \"MediTrack.sol\":7001:7002  1 */\n      0x01\n        /* \"MediTrack.sol\":6974:6981  batches */\n      0x00\n        /* \"MediTrack.sol\":6974:6991  batches[_batchId] */\n      0x00\n        /* \"MediTrack.sol\":6982:6990  _batchId */\n      dup5\n        /* \"MediTrack.sol\":6974:6991  batches[_batchId] */\n      dup2\n      mstore\n      0x20\n      add\n      swap1\n      dup2\n      mstore\n      0x20\n      add\n      0x00\n      keccak256\n        /* \"MediTrack.sol\":6974:6998  batches[_batchId].status */\n      0x06\n      add\n        /* \"MediTrack.sol\":6974:7002  batches[_batchId].status = 1 */\n      dup2\n      swap1\n      sstore\n      pop\n        /* \"MediTrack.sol\":7048:7062  batchTimelines */\n      0x02\n        /* \"MediTrack.sol\":7048:7072  batchTimelines[_batchId] */\n      0x00\n        /* \"MediTrack.sol\":7063:7071  _batchId */\n      dup4\n        /* \"MediTrack.sol\":7048:7072  batchTimelines[_batchId] */\n      dup2\n      mstore\n      0x20\n      add\n      swap1\n      dup2\n      mstore\n      0x20\n      add\n      0x00\n      keccak256\n        /* \"MediTrack.sol\":7078:7277  TimelineEvent({... */\n      mload(0x40)\n      dup1\n      0x60\n      add\n      0x40\n      mstore\n      dup1\n      mload(0x40)\n      dup1\n      0x60\n      add\n      0x40\n      mstore\n      dup1\n      0x33\n      dup2\n      mstore\n      0x20\n      add\n      data_653bd242e3a499943f5e2024d1f34bab2438d9e3dc5d6493c08bf86718581ade\n      0x33\n      swap2\n      codecopy\n      dup2\n      mstore\n      0x20\n      add\n        /* \"MediTrack.sol\":7212:7227  block.timestamp */\n      timestamp\n        /* \"MediTrack.sol\":7078:7277  TimelineEvent({... */\n      dup2\n      mstore\n      0x20\n      add\n        /* \"MediTrack.sol\":7252:7262  msg.sender */\n      caller\n        /* \"MediTrack.sol\":7078:7277  TimelineEvent({... */\n      0xffffffffffffffffffffffffffffffffffffffff\n      and\n      dup2\n      mstore\n      pop\n        /* \"MediTrack.sol\":7048:7278  batchTimelines[_batchId].push(TimelineEvent({... */\n      swap1\n      dup1\n      0x01\n      dup2\n      sload\n      add\n      dup1\n      dup3\n      sstore\n      dup1\n      swap2\n      pop\n      pop\n      0x01\n      swap1\n      sub\n      swap1\n      0x00\n      mstore\n      keccak256(0x00, 0x20)\n      swap1\n      0x03\n      mul\n      add\n      0x00\n      swap1\n      swap2\n      swap1\n      swap2\n      swap1\n      swap2\n      pop\n      0x00\n      dup3\n      add\n      mload\n      dup2\n      0x00\n      add\n      swap1\n      dup2\n      tag_149\n      swap2\n      swap1\n      tag_150\n      jump\t// in\n    tag_149:\n      pop\n      0x20\n      dup3\n      add\n      mload\n      dup2\n      0x01\n      add\n      sstore\n      0x40\n      dup3\n      add\n      mload\n      dup2\n      0x02\n      add\n      exp(0x0100, 0x00)\n      dup2\n      sload\n      dup2\n      0xffffffffffffffffffffffffffffffffffffffff\n      mul\n      not\n      and\n      swap1\n      dup4\n      0xffffffffffffffffffffffffffffffffffffffff\n      and\n      mul\n      or\n      swap1\n      sstore\n      pop\n      pop\n      pop\n        /* \"MediTrack.sol\":6945:7289  if (_isPassed) {... */\n    tag_147:\n        /* \"MediTrack.sol\":6768:7295  function verifyQuality(uint256 _batchId, bool _isPassed) public onlyAdmin {... */\n      pop\n      pop\n      jump\t// out\n        /* \"MediTrack.sol\":4647:5832  function addProductsToBatch(... */\n    tag_54:\n        /* \"MediTrack.sol\":4802:4810  _batchId */\n      dup3\n        /* \"MediTrack.sol\":2893:2903  msg.sender */\n      caller\n        /* \"MediTrack.sol\":2859:2903  batches[_batchId].currentOwner == msg.sender */\n      0xffffffffffffffffffffffffffffffffffffffff\n      and\n        /* \"MediTrack.sol\":2859:2866  batches */\n      0x00\n        /* \"MediTrack.sol\":2859:2876  batches[_batchId] */\n      0x00\n        /* \"MediTrack.sol\":2867:2875  _batchId */\n      dup4\n        /* \"MediTrack.sol\":2859:2876  batches[_batchId] */\n      dup2\n      mstore\n      0x20\n      add\n      swap1\n      dup2\n      mstore\n      0x20\n      add\n      0x00\n      keccak256\n        /* \"MediTrack.sol\":2859:2889  batches[_batchId].currentOwner */\n      0x04\n      add\n      0x00\n      swap1\n      sload\n      swap1\n      0x0100\n      exp\n      swap1\n      div\n      0xffffffffffffffffffffffffffffffffffffffff\n      and\n        /* \"MediTrack.sol\":2859:2903  batches[_batchId].currentOwner == msg.sender */\n      0xffffffffffffffffffffffffffffffffffffffff\n      and\n      eq\n        /* \"MediTrack.sol\":2851:2966  require(batches[_batchId].currentOwner == msg.sender, unicode\"Bạn không phải chủ sở hữu lô hàng này\") */\n      tag_152\n      jumpi\n      mload(0x40)\n      0x08c379a000000000000000000000000000000000000000000000000000000000\n      dup2\n      mstore\n      0x04\n      add\n      tag_153\n      swap1\n      tag_154\n      jump\t// in\n    tag_153:\n      mload(0x40)\n      dup1\n      swap2\n      sub\n      swap1\n      revert\n    tag_152:\n        /* \"MediTrack.sol\":4830:4837  batches */\n      0x00\n        /* \"MediTrack.sol\":4830:4847  batches[_batchId] */\n      0x00\n        /* \"MediTrack.sol\":4838:4846  _batchId */\n      dup6\n        /* \"MediTrack.sol\":4830:4847  batches[_batchId] */\n      dup2\n      mstore\n      0x20\n      add\n      swap1\n      dup2\n      mstore\n      0x20\n      add\n      0x00\n      keccak256\n        /* \"MediTrack.sol\":4830:4856  batches[_batchId].isExists */\n      0x07\n      add\n      0x00\n      swap1\n      sload\n      swap1\n      0x0100\n      exp\n      swap1\n      div\n      0xff\n      and\n        /* \"MediTrack.sol\":4822:4896  require(batches[_batchId].isExists, unicode\"Lô hàng không tồn tại\") */\n      tag_156\n      jumpi\n      mload(0x40)\n      0x08c379a000000000000000000000000000000000000000000000000000000000\n      dup2\n      mstore\n      0x04\n      add\n      tag_157\n      swap1\n      tag_146\n      jump\t// in\n    tag_157:\n      mload(0x40)\n      dup1\n      swap2\n      sub\n      swap1\n      revert\n    tag_156:\n        /* \"MediTrack.sol\":4930:4943  _secretHashes */\n      dup2\n        /* \"MediTrack.sol\":4930:4950  _secretHashes.length */\n      mload\n        /* \"MediTrack.sol\":4914:4919  _uids */\n      dup4\n        /* \"MediTrack.sol\":4914:4926  _uids.length */\n      mload\n        /* \"MediTrack.sol\":4914:4950  _uids.length == _secretHashes.length */\n      eq\n        /* \"MediTrack.sol\":4906:4987  require(_uids.length == _secretHashes.length, unicode\"Dữ liệu không khớp\") */\n      tag_158\n      jumpi\n      mload(0x40)\n      0x08c379a000000000000000000000000000000000000000000000000000000000\n      dup2\n      mstore\n      0x04\n      add\n      tag_159\n      swap1\n      tag_160\n      jump\t// in\n    tag_159:\n      mload(0x40)\n      dup1\n      swap2\n      sub\n      swap1\n      revert\n    tag_158:\n        /* \"MediTrack.sol\":5003:5012  uint256 i */\n      0x00\n        /* \"MediTrack.sol\":5015:5016  0 */\n      0x00\n        /* \"MediTrack.sol\":5003:5016  uint256 i = 0 */\n      swap1\n      pop\n        /* \"MediTrack.sol\":4998:5826  for (uint256 i = 0; i < _uids.length; i++) {... */\n    tag_161:\n        /* \"MediTrack.sol\":5022:5027  _uids */\n      dup4\n        /* \"MediTrack.sol\":5022:5034  _uids.length */\n      mload\n        /* \"MediTrack.sol\":5018:5019  i */\n      dup2\n        /* \"MediTrack.sol\":5018:5034  i < _uids.length */\n      lt\n        /* \"MediTrack.sol\":4998:5826  for (uint256 i = 0; i < _uids.length; i++) {... */\n      iszero\n      tag_162\n      jumpi\n        /* \"MediTrack.sol\":5055:5072  string memory uid */\n      0x00\n        /* \"MediTrack.sol\":5075:5080  _uids */\n      dup5\n        /* \"MediTrack.sol\":5081:5082  i */\n      dup3\n        /* \"MediTrack.sol\":5075:5083  _uids[i] */\n      dup2\n      mload\n      dup2\n      lt\n      tag_164\n      jumpi\n      tag_165\n      tag_166\n      jump\t// in\n    tag_165:\n    tag_164:\n      0x20\n      mul\n      0x20\n      add\n      add\n      mload\n        /* \"MediTrack.sol\":5055:5083  string memory uid = _uids[i] */\n      swap1\n      pop\n        /* \"MediTrack.sol\":5199:5200  0 */\n      0x00\n        /* \"MediTrack.sol\":5174:5182  products */\n      0x03\n        /* \"MediTrack.sol\":5183:5186  uid */\n      dup3\n        /* \"MediTrack.sol\":5174:5187  products[uid] */\n      mload(0x40)\n      tag_167\n      swap2\n      swap1\n      tag_114\n      jump\t// in\n    tag_167:\n      swap1\n      dup2\n      mstore\n      0x20\n      add\n      mload(0x40)\n      dup1\n      swap2\n      sub\n      swap1\n      keccak256\n        /* \"MediTrack.sol\":5174:5195  products[uid].batchId */\n      0x01\n      add\n      sload\n        /* \"MediTrack.sol\":5174:5200  products[uid].batchId == 0 */\n      eq\n        /* \"MediTrack.sol\":5166:5244  require(products[uid].batchId == 0, unicode\"ID sản phẩm đã tồn tại\") */\n      tag_168\n      jumpi\n      mload(0x40)\n      0x08c379a000000000000000000000000000000000000000000000000000000000\n      dup2\n      mstore\n      0x04\n      add\n      tag_169\n      swap1\n      tag_170\n      jump\t// in\n    tag_169:\n      mload(0x40)\n      dup1\n      swap2\n      sub\n      swap1\n      revert\n    tag_168:\n        /* \"MediTrack.sol\":5315:5636  Product({... */\n      mload(0x40)\n      dup1\n      0xe0\n      add\n      0x40\n      mstore\n      dup1\n        /* \"MediTrack.sol\":5346:5349  uid */\n      dup3\n        /* \"MediTrack.sol\":5315:5636  Product({... */\n      dup2\n      mstore\n      0x20\n      add\n        /* \"MediTrack.sol\":5376:5384  _batchId */\n      dup8\n        /* \"MediTrack.sol\":5315:5636  Product({... */\n      dup2\n      mstore\n      0x20\n      add\n        /* \"MediTrack.sol\":5459:5472  _secretHashes */\n      dup6\n        /* \"MediTrack.sol\":5473:5474  i */\n      dup5\n        /* \"MediTrack.sol\":5459:5475  _secretHashes[i] */\n      dup2\n      mload\n      dup2\n      lt\n      tag_171\n      jumpi\n      tag_172\n      tag_166\n      jump\t// in\n    tag_172:\n    tag_171:\n      0x20\n      mul\n      0x20\n      add\n      add\n      mload\n        /* \"MediTrack.sol\":5315:5636  Product({... */\n      dup2\n      mstore\n      0x20\n      add\n        /* \"MediTrack.sol\":5515:5520  false */\n      0x00\n        /* \"MediTrack.sol\":5315:5636  Product({... */\n      iszero\n      iszero\n      dup2\n      mstore\n      0x20\n      add\n        /* \"MediTrack.sol\":5554:5555  0 */\n      0x00\n        /* \"MediTrack.sol\":5315:5636  Product({... */\n      0xffffffffffffffffffffffffffffffffffffffff\n      and\n      dup2\n      mstore\n      0x20\n      add\n        /* \"MediTrack.sol\":5582:5583  0 */\n      0x00\n        /* \"MediTrack.sol\":5315:5636  Product({... */\n      dup2\n      mstore\n      0x20\n      add\n      mload(0x40)\n      dup1\n      0x20\n      add\n      0x40\n      mstore\n      dup1\n      0x00\n      dup2\n      mstore\n      pop\n      dup2\n      mstore\n      pop\n        /* \"MediTrack.sol\":5299:5307  products */\n      0x03\n        /* \"MediTrack.sol\":5308:5311  uid */\n      dup3\n        /* \"MediTrack.sol\":5299:5312  products[uid] */\n      mload(0x40)\n      tag_173\n      swap2\n      swap1\n      tag_114\n      jump\t// in\n    tag_173:\n      swap1\n      dup2\n      mstore\n      0x20\n      add\n      mload(0x40)\n      dup1\n      swap2\n      sub\n      swap1\n      keccak256\n        /* \"MediTrack.sol\":5299:5636  products[uid] = Product({... */\n      0x00\n      dup3\n      add\n      mload\n      dup2\n      0x00\n      add\n      swap1\n      dup2\n      tag_174\n      swap2\n      swap1\n      tag_150\n      jump\t// in\n    tag_174:\n      pop\n      0x20\n      dup3\n      add\n      mload\n      dup2\n      0x01\n      add\n      sstore\n      0x40\n      dup3\n      add\n      mload\n      dup2\n      0x02\n      add\n      sstore\n      0x60\n      dup3\n      add\n      mload\n      dup2\n      0x03\n      add\n      exp(0x0100, 0x00)\n      dup2\n      sload\n      dup2\n      0xff\n      mul\n      not\n      and\n      swap1\n      dup4\n      iszero\n      iszero\n      mul\n      or\n      swap1\n      sstore\n      pop\n      0x80\n      dup3\n      add\n      mload\n      dup2\n      0x03\n      add\n      exp(0x0100, 0x01)\n      dup2\n      sload\n      dup2\n      0xffffffffffffffffffffffffffffffffffffffff\n      mul\n      not\n      and\n      swap1\n      dup4\n      0xffffffffffffffffffffffffffffffffffffffff\n      and\n      mul\n      or\n      swap1\n      sstore\n      pop\n      0xa0\n      dup3\n      add\n      mload\n      dup2\n      0x04\n      add\n      sstore\n      0xc0\n      dup3\n      add\n      mload\n      dup2\n      0x05\n      add\n      swap1\n      dup2\n      tag_175\n      swap2\n      swap1\n      tag_150\n      jump\t// in\n    tag_175:\n      pop\n      swap1\n      pop\n      pop\n        /* \"MediTrack.sol\":5711:5718  batches */\n      0x00\n        /* \"MediTrack.sol\":5711:5728  batches[_batchId] */\n      0x00\n        /* \"MediTrack.sol\":5719:5727  _batchId */\n      dup8\n        /* \"MediTrack.sol\":5711:5728  batches[_batchId] */\n      dup2\n      mstore\n      0x20\n      add\n      swap1\n      dup2\n      mstore\n      0x20\n      add\n      0x00\n      keccak256\n        /* \"MediTrack.sol\":5711:5740  batches[_batchId].productUids */\n      0x05\n      add\n        /* \"MediTrack.sol\":5746:5749  uid */\n      dup2\n        /* \"MediTrack.sol\":5711:5750  batches[_batchId].productUids.push(uid) */\n      swap1\n      dup1\n      0x01\n      dup2\n      sload\n      add\n      dup1\n      dup3\n      sstore\n      dup1\n      swap2\n      pop\n      pop\n      0x01\n      swap1\n      sub\n      swap1\n      0x00\n      mstore\n      keccak256(0x00, 0x20)\n      add\n      0x00\n      swap1\n      swap2\n      swap1\n      swap2\n      swap1\n      swap2\n      pop\n      swap1\n      dup2\n      tag_177\n      swap2\n      swap1\n      tag_150\n      jump\t// in\n    tag_177:\n      pop\n        /* \"MediTrack.sol\":5783:5791  _batchId */\n      dup6\n        /* \"MediTrack.sol\":5770:5815  ProductAdded(_batchId, uid, _secretHashes[i]) */\n      0x41329ba3d8d8457e0897226e1765aca0ae7aac66d8757909b4fcbddf283e9b45\n        /* \"MediTrack.sol\":5793:5796  uid */\n      dup3\n        /* \"MediTrack.sol\":5798:5811  _secretHashes */\n      dup7\n        /* \"MediTrack.sol\":5812:5813  i */\n      dup6\n        /* \"MediTrack.sol\":5798:5814  _secretHashes[i] */\n      dup2\n      mload\n      dup2\n      lt\n      tag_178\n      jumpi\n      tag_179\n      tag_166\n      jump\t// in\n    tag_179:\n    tag_178:\n      0x20\n      mul\n      0x20\n      add\n      add\n      mload\n        /* \"MediTrack.sol\":5770:5815  ProductAdded(_batchId, uid, _secretHashes[i]) */\n      mload(0x40)\n      tag_180\n      swap3\n      swap2\n      swap1\n      tag_181\n      jump\t// in\n    tag_180:\n      mload(0x40)\n      dup1\n      swap2\n      sub\n      swap1\n      log2\n        /* \"MediTrack.sol\":5041:5826  {... */\n      pop\n        /* \"MediTrack.sol\":5036:5039  i++ */\n      dup1\n      dup1\n      0x01\n      add\n      swap2\n      pop\n      pop\n        /* \"MediTrack.sol\":4998:5826  for (uint256 i = 0; i < _uids.length; i++) {... */\n      jump(tag_161)\n    tag_162:\n      pop\n        /* \"MediTrack.sol\":4647:5832  function addProductsToBatch(... */\n      pop\n      pop\n      pop\n      pop\n      jump\t// out\n        /* \"MediTrack.sol\":3585:4401  function createBatch(string memory _name, string memory _manufacturer) public returns (uint256) {... */\n    tag_58:\n        /* \"MediTrack.sol\":3672:3679  uint256 */\n      0x00\n        /* \"MediTrack.sol\":3691:3701  batchCount */\n      0x01\n      0x00\n        /* \"MediTrack.sol\":3691:3703  batchCount++ */\n      dup2\n      sload\n      dup1\n      swap3\n      swap2\n      swap1\n      tag_183\n      swap1\n      tag_184\n      jump\t// in\n    tag_183:\n      swap2\n      swap1\n      pop\n      sstore\n      pop\n        /* \"MediTrack.sol\":3713:3726  uint256 newId */\n      0x00\n        /* \"MediTrack.sol\":3729:3739  batchCount */\n      sload(0x01)\n        /* \"MediTrack.sol\":3713:3739  uint256 newId = batchCount */\n      swap1\n      pop\n        /* \"MediTrack.sol\":3750:3765  Batch storage b */\n      0x00\n        /* \"MediTrack.sol\":3768:3775  batches */\n      0x00\n        /* \"MediTrack.sol\":3768:3782  batches[newId] */\n      0x00\n        /* \"MediTrack.sol\":3776:3781  newId */\n      dup4\n        /* \"MediTrack.sol\":3768:3782  batches[newId] */\n      dup2\n      mstore\n      0x20\n      add\n      swap1\n      dup2\n      mstore\n      0x20\n      add\n      0x00\n      keccak256\n        /* \"MediTrack.sol\":3750:3782  Batch storage b = batches[newId] */\n      swap1\n      pop\n        /* \"MediTrack.sol\":3799:3804  newId */\n      dup2\n        /* \"MediTrack.sol\":3792:3793  b */\n      dup2\n        /* \"MediTrack.sol\":3792:3796  b.id */\n      0x00\n      add\n        /* \"MediTrack.sol\":3792:3804  b.id = newId */\n      dup2\n      swap1\n      sstore\n      pop\n        /* \"MediTrack.sol\":3823:3828  _name */\n      dup5\n        /* \"MediTrack.sol\":3814:3815  b */\n      dup2\n        /* \"MediTrack.sol\":3814:3820  b.name */\n      0x01\n      add\n        /* \"MediTrack.sol\":3814:3828  b.name = _name */\n      swap1\n      dup2\n      tag_185\n      swap2\n      swap1\n      tag_150\n      jump\t// in\n    tag_185:\n      pop\n        /* \"MediTrack.sol\":3855:3868  _manufacturer */\n      dup4\n        /* \"MediTrack.sol\":3838:3839  b */\n      dup2\n        /* \"MediTrack.sol\":3838:3852  b.manufacturer */\n      0x02\n      add\n        /* \"MediTrack.sol\":3838:3868  b.manufacturer = _manufacturer */\n      swap1\n      dup2\n      tag_186\n      swap2\n      swap1\n      tag_150\n      jump\t// in\n    tag_186:\n      pop\n        /* \"MediTrack.sol\":3894:3909  block.timestamp */\n      timestamp\n        /* \"MediTrack.sol\":3878:3879  b */\n      dup2\n        /* \"MediTrack.sol\":3878:3891  b.createdDate */\n      0x03\n      add\n        /* \"MediTrack.sol\":3878:3909  b.createdDate = block.timestamp */\n      dup2\n      swap1\n      sstore\n      pop\n        /* \"MediTrack.sol\":3936:3946  msg.sender */\n      caller\n        /* \"MediTrack.sol\":3919:3920  b */\n      dup2\n        /* \"MediTrack.sol\":3919:3933  b.currentOwner */\n      0x04\n      add\n      0x00\n        /* \"MediTrack.sol\":3919:3946  b.currentOwner = msg.sender */\n      0x0100\n      exp\n      dup2\n      sload\n      dup2\n      0xffffffffffffffffffffffffffffffffffffffff\n      mul\n      not\n      and\n      swap1\n      dup4\n      0xffffffffffffffffffffffffffffffffffffffff\n      and\n      mul\n      or\n      swap1\n      sstore\n      pop\n        /* \"MediTrack.sol\":4018:4019  0 */\n      0x00\n        /* \"MediTrack.sol\":4007:4008  b */\n      dup2\n        /* \"MediTrack.sol\":4007:4015  b.status */\n      0x06\n      add\n        /* \"MediTrack.sol\":4007:4019  b.status = 0 */\n      dup2\n      swap1\n      sstore\n      pop\n        /* \"MediTrack.sol\":4054:4058  true */\n      0x01\n        /* \"MediTrack.sol\":4041:4042  b */\n      dup2\n        /* \"MediTrack.sol\":4041:4051  b.isExists */\n      0x07\n      add\n      0x00\n        /* \"MediTrack.sol\":4041:4058  b.isExists = true */\n      0x0100\n      exp\n      dup2\n      sload\n      dup2\n      0xff\n      mul\n      not\n      and\n      swap1\n      dup4\n      iszero\n      iszero\n      mul\n      or\n      swap1\n      sstore\n      pop\n        /* \"MediTrack.sol\":4125:4139  batchTimelines */\n      0x02\n        /* \"MediTrack.sol\":4125:4146  batchTimelines[newId] */\n      0x00\n        /* \"MediTrack.sol\":4140:4145  newId */\n      dup4\n        /* \"MediTrack.sol\":4125:4146  batchTimelines[newId] */\n      dup2\n      mstore\n      0x20\n      add\n      swap1\n      dup2\n      mstore\n      0x20\n      add\n      0x00\n      keccak256\n        /* \"MediTrack.sol\":4152:4317  TimelineEvent({... */\n      mload(0x40)\n      dup1\n      0x60\n      add\n      0x40\n      mstore\n      dup1\n      mload(0x40)\n      dup1\n      0x60\n      add\n      0x40\n      mstore\n      dup1\n      0x21\n      dup2\n      mstore\n      0x20\n      add\n      data_03703c4a4e7d96cf7ba9de98b04b20ace29c423760f085022025eee7f8feb507\n      0x21\n      swap2\n      codecopy\n      dup2\n      mstore\n      0x20\n      add\n        /* \"MediTrack.sol\":4260:4275  block.timestamp */\n      timestamp\n        /* \"MediTrack.sol\":4152:4317  TimelineEvent({... */\n      dup2\n      mstore\n      0x20\n      add\n        /* \"MediTrack.sol\":4296:4306  msg.sender */\n      caller\n        /* \"MediTrack.sol\":4152:4317  TimelineEvent({... */\n      0xffffffffffffffffffffffffffffffffffffffff\n      and\n      dup2\n      mstore\n      pop\n        /* \"MediTrack.sol\":4125:4318  batchTimelines[newId].push(TimelineEvent({... */\n      swap1\n      dup1\n      0x01\n      dup2\n      sload\n      add\n      dup1\n      dup3\n      sstore\n      dup1\n      swap2\n      pop\n      pop\n      0x01\n      swap1\n      sub\n      swap1\n      0x00\n      mstore\n      keccak256(0x00, 0x20)\n      swap1\n      0x03\n      mul\n      add\n      0x00\n      swap1\n      swap2\n      swap1\n      swap2\n      swap1\n      swap2\n      pop\n      0x00\n      dup3\n      add\n      mload\n      dup2\n      0x00\n      add\n      swap1\n      dup2\n      tag_188\n      swap2\n      swap1\n      tag_150\n      jump\t// in\n    tag_188:\n      pop\n      0x20\n      dup3\n      add\n      mload\n      dup2\n      0x01\n      add\n      sstore\n      0x40\n      dup3\n      add\n      mload\n      dup2\n      0x02\n      add\n      exp(0x0100, 0x00)\n      dup2\n      sload\n      dup2\n      0xffffffffffffffffffffffffffffffffffffffff\n      mul\n      not\n      and\n      swap1\n      dup4\n      0xffffffffffffffffffffffffffffffffffffffff\n      and\n      mul\n      or\n      swap1\n      sstore\n      pop\n      pop\n      pop\n        /* \"MediTrack.sol\":4361:4371  msg.sender */\n      caller\n        /* \"MediTrack.sol\":4334:4372  BatchCreated(newId, _name, msg.sender) */\n      0xffffffffffffffffffffffffffffffffffffffff\n      and\n        /* \"MediTrack.sol\":4347:4352  newId */\n      dup3\n        /* \"MediTrack.sol\":4334:4372  BatchCreated(newId, _name, msg.sender) */\n      0x195a26ecf0c9b8fb957ecc3a7c029ce84849279de600e16f205ee789052052b6\n        /* \"MediTrack.sol\":4354:4359  _name */\n      dup8\n        /* \"MediTrack.sol\":4334:4372  BatchCreated(newId, _name, msg.sender) */\n      mload(0x40)\n      tag_189\n      swap2\n      swap1\n      tag_190\n      jump\t// in\n    tag_189:\n      mload(0x40)\n      dup1\n      swap2\n      sub\n      swap1\n      log3\n        /* \"MediTrack.sol\":4389:4394  newId */\n      dup2\n        /* \"MediTrack.sol\":4382:4394  return newId */\n      swap3\n      pop\n      pop\n      pop\n        /* \"MediTrack.sol\":3585:4401  function createBatch(string memory _name, string memory _manufacturer) public returns (uint256) {... */\n      swap3\n      swap2\n      pop\n      pop\n      jump\t// out\n        /* \"MediTrack.sol\":8696:9070  function getBatchDetails(uint256 _batchId) public view returns (... */\n    tag_62:\n        /* \"MediTrack.sol\":8769:8787  string memory name */\n      0x60\n        /* \"MediTrack.sol\":8797:8823  string memory manufacturer */\n      dup1\n        /* \"MediTrack.sol\":8833:8853  address currentOwner */\n      0x00\n        /* \"MediTrack.sol\":8863:8877  uint256 status */\n      0x00\n        /* \"MediTrack.sol\":8894:8908  Batch memory b */\n      0x00\n        /* \"MediTrack.sol\":8911:8918  batches */\n      0x00\n        /* \"MediTrack.sol\":8911:8928  batches[_batchId] */\n      0x00\n        /* \"MediTrack.sol\":8919:8927  _batchId */\n      dup8\n        /* \"MediTrack.sol\":8911:8928  batches[_batchId] */\n      dup2\n      mstore\n      0x20\n      add\n      swap1\n      dup2\n      mstore\n      0x20\n      add\n      0x00\n      keccak256\n        /* \"MediTrack.sol\":8894:8928  Batch memory b = batches[_batchId] */\n      mload(0x40)\n      dup1\n      0x0100\n      add\n      0x40\n      mstore\n      swap1\n      dup2\n      0x00\n      dup3\n      add\n      sload\n      dup2\n      mstore\n      0x20\n      add\n      0x01\n      dup3\n      add\n      dup1\n      sload\n      tag_192\n      swap1\n      tag_97\n      jump\t// in\n    tag_192:\n      dup1\n      0x1f\n      add\n      0x20\n      dup1\n      swap2\n      div\n      mul\n      0x20\n      add\n      mload(0x40)\n      swap1\n      dup2\n      add\n      0x40\n      mstore\n      dup1\n      swap3\n      swap2\n      swap1\n      dup2\n      dup2\n      mstore\n      0x20\n      add\n      dup3\n      dup1\n      sload\n      tag_193\n      swap1\n      tag_97\n      jump\t// in\n    tag_193:\n      dup1\n      iszero\n      tag_194\n      jumpi\n      dup1\n      0x1f\n      lt\n      tag_195\n      jumpi\n      0x0100\n      dup1\n      dup4\n      sload\n      div\n      mul\n      dup4\n      mstore\n      swap2\n      0x20\n      add\n      swap2\n      jump(tag_194)\n    tag_195:\n      dup3\n      add\n      swap2\n      swap1\n      0x00\n      mstore\n      keccak256(0x00, 0x20)\n      swap1\n    tag_196:\n      dup2\n      sload\n      dup2\n      mstore\n      swap1\n      0x01\n      add\n      swap1\n      0x20\n      add\n      dup1\n      dup4\n      gt\n      tag_196\n      jumpi\n      dup3\n      swap1\n      sub\n      0x1f\n      and\n      dup3\n      add\n      swap2\n    tag_194:\n      pop\n      pop\n      pop\n      pop\n      pop\n      dup2\n      mstore\n      0x20\n      add\n      0x02\n      dup3\n      add\n      dup1\n      sload\n      tag_197\n      swap1\n      tag_97\n      jump\t// in\n    tag_197:\n      dup1\n      0x1f\n      add\n      0x20\n      dup1\n      swap2\n      div\n      mul\n      0x20\n      add\n      mload(0x40)\n      swap1\n      dup2\n      add\n      0x40\n      mstore\n      dup1\n      swap3\n      swap2\n      swap1\n      dup2\n      dup2\n      mstore\n      0x20\n      add\n      dup3\n      dup1\n      sload\n      tag_198\n      swap1\n      tag_97\n      jump\t// in\n    tag_198:\n      dup1\n      iszero\n      tag_199\n      jumpi\n      dup1\n      0x1f\n      lt\n      tag_200\n      jumpi\n      0x0100\n      dup1\n      dup4\n      sload\n      div\n      mul\n      dup4\n      mstore\n      swap2\n      0x20\n      add\n      swap2\n      jump(tag_199)\n    tag_200:\n      dup3\n      add\n      swap2\n      swap1\n      0x00\n      mstore\n      keccak256(0x00, 0x20)\n      swap1\n    tag_201:\n      dup2\n      sload\n      dup2\n      mstore\n      swap1\n      0x01\n      add\n      swap1\n      0x20\n      add\n      dup1\n      dup4\n      gt\n      tag_201\n      jumpi\n      dup3\n      swap1\n      sub\n      0x1f\n      and\n      dup3\n      add\n      swap2\n    tag_199:\n      pop\n      pop\n      pop\n      pop\n      pop\n      dup2\n      mstore\n      0x20\n      add\n      0x03\n      dup3\n      add\n      sload\n      dup2\n      mstore\n      0x20\n      add\n      0x04\n      dup3\n      add\n      0x00\n      swap1\n      sload\n      swap1\n      0x0100\n      exp\n      swap1\n      div\n      0xffffffffffffffffffffffffffffffffffffffff\n      and\n      0xffffffffffffffffffffffffffffffffffffffff\n      and\n      0xffffffffffffffffffffffffffffffffffffffff\n      and\n      dup2\n      mstore\n      0x20\n      add\n      0x05\n      dup3\n      add\n      dup1\n      sload\n      dup1\n      0x20\n      mul\n      0x20\n      add\n      mload(0x40)\n      swap1\n      dup2\n      add\n      0x40\n      mstore\n      dup1\n      swap3\n      swap2\n      swap1\n      dup2\n      dup2\n      mstore\n      0x20\n      add\n      0x00\n      swap1\n    tag_202:\n      dup3\n      dup3\n      lt\n      iszero\n      tag_203\n      jumpi\n      dup4\n      dup3\n      swap1\n      0x00\n      mstore\n      keccak256(0x00, 0x20)\n      add\n      dup1\n      sload\n      tag_205\n      swap1\n      tag_97\n      jump\t// in\n    tag_205:\n      dup1\n      0x1f\n      add\n      0x20\n      dup1\n      swap2\n      div\n      mul\n      0x20\n      add\n      mload(0x40)\n      swap1\n      dup2\n      add\n      0x40\n      mstore\n      dup1\n      swap3\n      swap2\n      swap1\n      dup2\n      dup2\n      mstore\n      0x20\n      add\n      dup3\n      dup1\n      sload\n      tag_206\n      swap1\n      tag_97\n      jump\t// in\n    tag_206:\n      dup1\n      iszero\n      tag_207\n      jumpi\n      dup1\n      0x1f\n      lt\n      tag_208\n      jumpi\n      0x0100\n      dup1\n      dup4\n      sload\n      div\n      mul\n      dup4\n      mstore\n      swap2\n      0x20\n      add\n      swap2\n      jump(tag_207)\n    tag_208:\n      dup3\n      add\n      swap2\n      swap1\n      0x00\n      mstore\n      keccak256(0x00, 0x20)\n      swap1\n    tag_209:\n      dup2\n      sload\n      dup2\n      mstore\n      swap1\n      0x01\n      add\n      swap1\n      0x20\n      add\n      dup1\n      dup4\n      gt\n      tag_209\n      jumpi\n      dup3\n      swap1\n      sub\n      0x1f\n      and\n      dup3\n      add\n      swap2\n    tag_207:\n      pop\n      pop\n      pop\n      pop\n      pop\n      dup2\n      mstore\n      0x20\n      add\n      swap1\n      0x01\n      add\n      swap1\n      jump(tag_202)\n    tag_203:\n      pop\n      pop\n      pop\n      pop\n      dup2\n      mstore\n      0x20\n      add\n      0x06\n      dup3\n      add\n      sload\n      dup2\n      mstore\n      0x20\n      add\n      0x07\n      dup3\n      add\n      0x00\n      swap1\n      sload\n      swap1\n      0x0100\n      exp\n      swap1\n      div\n      0xff\n      and\n      iszero\n      iszero\n      iszero\n      iszero\n      dup2\n      mstore\n      pop\n      pop\n      swap1\n      pop\n        /* \"MediTrack.sol\":8946:8947  b */\n      dup1\n        /* \"MediTrack.sol\":8946:8956  b.isExists */\n      0xe0\n      add\n      mload\n        /* \"MediTrack.sol\":8938:8996  require(b.isExists, unicode\"Lô hàng không tồn tại\") */\n      tag_210\n      jumpi\n      mload(0x40)\n      0x08c379a000000000000000000000000000000000000000000000000000000000\n      dup2\n      mstore\n      0x04\n      add\n      tag_211\n      swap1\n      tag_146\n      jump\t// in\n    tag_211:\n      mload(0x40)\n      dup1\n      swap2\n      sub\n      swap1\n      revert\n    tag_210:\n        /* \"MediTrack.sol\":9014:9015  b */\n      dup1\n        /* \"MediTrack.sol\":9014:9020  b.name */\n      0x20\n      add\n      mload\n        /* \"MediTrack.sol\":9022:9023  b */\n      dup2\n        /* \"MediTrack.sol\":9022:9036  b.manufacturer */\n      0x40\n      add\n      mload\n        /* \"MediTrack.sol\":9038:9039  b */\n      dup3\n        /* \"MediTrack.sol\":9038:9052  b.currentOwner */\n      0x80\n      add\n      mload\n        /* \"MediTrack.sol\":9054:9055  b */\n      dup4\n        /* \"MediTrack.sol\":9054:9062  b.status */\n      0xc0\n      add\n      mload\n        /* \"MediTrack.sol\":9006:9063  return (b.name, b.manufacturer, b.currentOwner, b.status) */\n      swap5\n      pop\n      swap5\n      pop\n      swap5\n      pop\n      swap5\n      pop\n      pop\n        /* \"MediTrack.sol\":8696:9070  function getBatchDetails(uint256 _batchId) public view returns (... */\n      swap2\n      swap4\n      pop\n      swap2\n      swap4\n      jump\t// out\n        /* \"MediTrack.sol\":1690:1747  mapping(uint256 => TimelineEvent[]) public batchTimelines */\n    tag_68:\n      mstore(0x20, 0x02)\n      dup2\n      0x00\n      mstore\n      keccak256(0x00, 0x40)\n      dup2\n      dup2\n      sload\n      dup2\n      lt\n      tag_212\n      jumpi\n      0x00\n      dup1\n      revert\n    tag_212:\n      swap1\n      0x00\n      mstore\n      keccak256(0x00, 0x20)\n      swap1\n      0x03\n      mul\n      add\n      0x00\n      swap2\n      pop\n      swap2\n      pop\n      pop\n      dup1\n      0x00\n      add\n      dup1\n      sload\n      tag_214\n      swap1\n      tag_97\n      jump\t// in\n    tag_214:\n      dup1\n      0x1f\n      add\n      0x20\n      dup1\n      swap2\n      div\n      mul\n      0x20\n      add\n      mload(0x40)\n      swap1\n      dup2\n      add\n      0x40\n      mstore\n      dup1\n      swap3\n      swap2\n      swap1\n      dup2\n      dup2\n      mstore\n      0x20\n      add\n      dup3\n      dup1\n      sload\n      tag_215\n      swap1\n      tag_97\n      jump\t// in\n    tag_215:\n      dup1\n      iszero\n      tag_216\n      jumpi\n      dup1\n      0x1f\n      lt\n      tag_217\n      jumpi\n      0x0100\n      dup1\n      dup4\n      sload\n      div\n      mul\n      dup4\n      mstore\n      swap2\n      0x20\n      add\n      swap2\n      jump(tag_216)\n    tag_217:\n      dup3\n      add\n      swap2\n      swap1\n      0x00\n      mstore\n      keccak256(0x00, 0x20)\n      swap1\n    tag_218:\n      dup2\n      sload\n      dup2\n      mstore\n      swap1\n      0x01\n      add\n      swap1\n      0x20\n      add\n      dup1\n      dup4\n      gt\n      tag_218\n      jumpi\n      dup3\n      swap1\n      sub\n      0x1f\n      and\n      dup3\n      add\n      swap2\n    tag_216:\n      pop\n      pop\n      pop\n      pop\n      pop\n      swap1\n      dup1\n      0x01\n      add\n      sload\n      swap1\n      dup1\n      0x02\n      add\n      0x00\n      swap1\n      sload\n      swap1\n      0x0100\n      exp\n      swap1\n      div\n      0xffffffffffffffffffffffffffffffffffffffff\n      and\n      swap1\n      pop\n      dup4\n      jump\t// out\n        /* \"MediTrack.sol\":3336:3443  function removeDealer(address _dealer) public onlyAdmin {... */\n    tag_73:\n        /* \"MediTrack.sol\":2570:2575  admin */\n      0x05\n      0x00\n      swap1\n      sload\n      swap1\n      0x0100\n      exp\n      swap1\n      div\n      0xffffffffffffffffffffffffffffffffffffffff\n      and\n        /* \"MediTrack.sol\":2556:2575  msg.sender == admin */\n      0xffffffffffffffffffffffffffffffffffffffff\n      and\n        /* \"MediTrack.sol\":2556:2566  msg.sender */\n      caller\n        /* \"MediTrack.sol\":2556:2575  msg.sender == admin */\n      0xffffffffffffffffffffffffffffffffffffffff\n      and\n      eq\n        /* \"MediTrack.sol\":2548:2627  require(msg.sender == admin, unicode\"Chỉ Admin mới được thực hiện\") */\n      tag_220\n      jumpi\n      mload(0x40)\n      0x08c379a000000000000000000000000000000000000000000000000000000000\n      dup2\n      mstore\n      0x04\n      add\n      tag_221\n      swap1\n      tag_110\n      jump\t// in\n    tag_221:\n      mload(0x40)\n      dup1\n      swap2\n      sub\n      swap1\n      revert\n    tag_220:\n        /* \"MediTrack.sol\":3431:3436  false */\n      0x00\n        /* \"MediTrack.sol\":3402:3419  authorizedDealers */\n      0x04\n        /* \"MediTrack.sol\":3402:3428  authorizedDealers[_dealer] */\n      0x00\n        /* \"MediTrack.sol\":3420:3427  _dealer */\n      dup4\n        /* \"MediTrack.sol\":3402:3428  authorizedDealers[_dealer] */\n      0xffffffffffffffffffffffffffffffffffffffff\n      and\n      0xffffffffffffffffffffffffffffffffffffffff\n      and\n      dup2\n      mstore\n      0x20\n      add\n      swap1\n      dup2\n      mstore\n      0x20\n      add\n      0x00\n      keccak256\n      0x00\n        /* \"MediTrack.sol\":3402:3436  authorizedDealers[_dealer] = false */\n      0x0100\n      exp\n      dup2\n      sload\n      dup2\n      0xff\n      mul\n      not\n      and\n      swap1\n      dup4\n      iszero\n      iszero\n      mul\n      or\n      swap1\n      sstore\n      pop\n        /* \"MediTrack.sol\":3336:3443  function removeDealer(address _dealer) public onlyAdmin {... */\n      pop\n      jump\t// out\n        /* \"MediTrack.sol\":1974:2023  mapping(address => bool) public authorizedDealers */\n    tag_76:\n      mstore(0x20, 0x04)\n      dup1\n      0x00\n      mstore\n      keccak256(0x00, 0x40)\n      0x00\n      swap2\n      pop\n      sload\n      swap1\n      0x0100\n      exp\n      swap1\n      div\n      0xff\n      and\n      dup2\n      jump\t// out\n        /* \"MediTrack.sol\":1558:1598  mapping(uint256 => Batch) public batches */\n    tag_81:\n      mstore(0x20, 0x00)\n      dup1\n      0x00\n      mstore\n      keccak256(0x00, 0x40)\n      0x00\n      swap2\n      pop\n      swap1\n      pop\n      dup1\n      0x00\n      add\n      sload\n      swap1\n      dup1\n      0x01\n      add\n      dup1\n      sload\n      tag_223\n      swap1\n      tag_97\n      jump\t// in\n    tag_223:\n      dup1\n      0x1f\n      add\n      0x20\n      dup1\n      swap2\n      div\n      mul\n      0x20\n      add\n      mload(0x40)\n      swap1\n      dup2\n      add\n      0x40\n      mstore\n      dup1\n      swap3\n      swap2\n      swap1\n      dup2\n      dup2\n      mstore\n      0x20\n      add\n      dup3\n      dup1\n      sload\n      tag_224\n      swap1\n      tag_97\n      jump\t// in\n    tag_224:\n      dup1\n      iszero\n      tag_225\n      jumpi\n      dup1\n      0x1f\n      lt\n      tag_226\n      jumpi\n      0x0100\n      dup1\n      dup4\n      sload\n      div\n      mul\n      dup4\n      mstore\n      swap2\n      0x20\n      add\n      swap2\n      jump(tag_225)\n    tag_226:\n      dup3\n      add\n      swap2\n      swap1\n      0x00\n      mstore\n      keccak256(0x00, 0x20)\n      swap1\n    tag_227:\n      dup2\n      sload\n      dup2\n      mstore\n      swap1\n      0x01\n      add\n      swap1\n      0x20\n      add\n      dup1\n      dup4\n      gt\n      tag_227\n      jumpi\n      dup3\n      swap1\n      sub\n      0x1f\n      and\n      dup3\n      add\n      swap2\n    tag_225:\n      pop\n      pop\n      pop\n      pop\n      pop\n      swap1\n      dup1\n      0x02\n      add\n      dup1\n      sload\n      tag_228\n      swap1\n      tag_97\n      jump\t// in\n    tag_228:\n      dup1\n      0x1f\n      add\n      0x20\n      dup1\n      swap2\n      div\n      mul\n      0x20\n      add\n      mload(0x40)\n      swap1\n      dup2\n      add\n      0x40\n      mstore\n      dup1\n      swap3\n      swap2\n      swap1\n      dup2\n      dup2\n      mstore\n      0x20\n      add\n      dup3\n      dup1\n      sload\n      tag_229\n      swap1\n      tag_97\n      jump\t// in\n    tag_229:\n      dup1\n      iszero\n      tag_230\n      jumpi\n      dup1\n      0x1f\n      lt\n      tag_231\n      jumpi\n      0x0100\n      dup1\n      dup4\n      sload\n      div\n      mul\n      dup4\n      mstore\n      swap2\n      0x20\n      add\n      swap2\n      jump(tag_230)\n    tag_231:\n      dup3\n      add\n      swap2\n      swap1\n      0x00\n      mstore\n      keccak256(0x00, 0x20)\n      swap1\n    tag_232:\n      dup2\n      sload\n      dup2\n      mstore\n      swap1\n      0x01\n      add\n      swap1\n      0x20\n      add\n      dup1\n      dup4\n      gt\n      tag_232\n      jumpi\n      dup3\n      swap1\n      sub\n      0x1f\n      and\n      dup3\n      add\n      swap2\n    tag_230:\n      pop\n      pop\n      pop\n      pop\n      pop\n      swap1\n      dup1\n      0x03\n      add\n      sload\n      swap1\n      dup1\n      0x04\n      add\n      0x00\n      swap1\n      sload\n      swap1\n      0x0100\n      exp\n      swap1\n      div\n      0xffffffffffffffffffffffffffffffffffffffff\n      and\n      swap1\n      dup1\n      0x06\n      add\n      sload\n      swap1\n      dup1\n      0x07\n      add\n      0x00\n      swap1\n      sload\n      swap1\n      0x0100\n      exp\n      swap1\n      div\n      0xff\n      and\n      swap1\n      pop\n      dup8\n      jump\t// out\n        /* \"MediTrack.sol\":6032:6708  function transferBatch(uint256 _batchId, address _to, string memory _note) public onlyBatchOwner(_batchId) {... */\n    tag_87:\n        /* \"MediTrack.sol\":6129:6137  _batchId */\n      dup3\n        /* \"MediTrack.sol\":2893:2903  msg.sender */\n      caller\n        /* \"MediTrack.sol\":2859:2903  batches[_batchId].currentOwner == msg.sender */\n      0xffffffffffffffffffffffffffffffffffffffff\n      and\n        /* \"MediTrack.sol\":2859:2866  batches */\n      0x00\n        /* \"MediTrack.sol\":2859:2876  batches[_batchId] */\n      0x00\n        /* \"MediTrack.sol\":2867:2875  _batchId */\n      dup4\n        /* \"MediTrack.sol\":2859:2876  batches[_batchId] */\n      dup2\n      mstore\n      0x20\n      add\n      swap1\n      dup2\n      mstore\n      0x20\n      add\n      0x00\n      keccak256\n        /* \"MediTrack.sol\":2859:2889  batches[_batchId].currentOwner */\n      0x04\n      add\n      0x00\n      swap1\n      sload\n      swap1\n      0x0100\n      exp\n      swap1\n      div\n      0xffffffffffffffffffffffffffffffffffffffff\n      and\n        /* \"MediTrack.sol\":2859:2903  batches[_batchId].currentOwner == msg.sender */\n      0xffffffffffffffffffffffffffffffffffffffff\n      and\n      eq\n        /* \"MediTrack.sol\":2851:2966  require(batches[_batchId].currentOwner == msg.sender, unicode\"Bạn không phải chủ sở hữu lô hàng này\") */\n      tag_234\n      jumpi\n      mload(0x40)\n      0x08c379a000000000000000000000000000000000000000000000000000000000\n      dup2\n      mstore\n      0x04\n      add\n      tag_235\n      swap1\n      tag_154\n      jump\t// in\n    tag_235:\n      mload(0x40)\n      dup1\n      swap2\n      sub\n      swap1\n      revert\n    tag_234:\n        /* \"MediTrack.sol\":6172:6173  0 */\n      0x00\n        /* \"MediTrack.sol\":6157:6174  _to != address(0) */\n      0xffffffffffffffffffffffffffffffffffffffff\n      and\n        /* \"MediTrack.sol\":6157:6160  _to */\n      dup4\n        /* \"MediTrack.sol\":6157:6174  _to != address(0) */\n      0xffffffffffffffffffffffffffffffffffffffff\n      and\n      sub\n        /* \"MediTrack.sol\":6149:6216  require(_to != address(0), unicode\"Địa chỉ không hợp lệ\") */\n      tag_237\n      jumpi\n      mload(0x40)\n      0x08c379a000000000000000000000000000000000000000000000000000000000\n      dup2\n      mstore\n      0x04\n      add\n      tag_238\n      swap1\n      tag_239\n      jump\t// in\n    tag_238:\n      mload(0x40)\n      dup1\n      swap2\n      sub\n      swap1\n      revert\n    tag_237:\n        /* \"MediTrack.sol\":6235:6251  address oldOwner */\n      0x00\n        /* \"MediTrack.sol\":6254:6261  batches */\n      0x00\n        /* \"MediTrack.sol\":6254:6271  batches[_batchId] */\n      0x00\n        /* \"MediTrack.sol\":6262:6270  _batchId */\n      dup7\n        /* \"MediTrack.sol\":6254:6271  batches[_batchId] */\n      dup2\n      mstore\n      0x20\n      add\n      swap1\n      dup2\n      mstore\n      0x20\n      add\n      0x00\n      keccak256\n        /* \"MediTrack.sol\":6254:6284  batches[_batchId].currentOwner */\n      0x04\n      add\n      0x00\n      swap1\n      sload\n      swap1\n      0x0100\n      exp\n      swap1\n      div\n      0xffffffffffffffffffffffffffffffffffffffff\n      and\n        /* \"MediTrack.sol\":6235:6284  address oldOwner = batches[_batchId].currentOwner */\n      swap1\n      pop\n        /* \"MediTrack.sol\":6327:6330  _to */\n      dup4\n        /* \"MediTrack.sol\":6294:6301  batches */\n      0x00\n        /* \"MediTrack.sol\":6294:6311  batches[_batchId] */\n      0x00\n        /* \"MediTrack.sol\":6302:6310  _batchId */\n      dup8\n        /* \"MediTrack.sol\":6294:6311  batches[_batchId] */\n      dup2\n      mstore\n      0x20\n      add\n      swap1\n      dup2\n      mstore\n      0x20\n      add\n      0x00\n      keccak256\n        /* \"MediTrack.sol\":6294:6324  batches[_batchId].currentOwner */\n      0x04\n      add\n      0x00\n        /* \"MediTrack.sol\":6294:6330  batches[_batchId].currentOwner = _to */\n      0x0100\n      exp\n      dup2\n      sload\n      dup2\n      0xffffffffffffffffffffffffffffffffffffffff\n      mul\n      not\n      and\n      swap1\n      dup4\n      0xffffffffffffffffffffffffffffffffffffffff\n      and\n      mul\n      or\n      swap1\n      sstore\n      pop\n        /* \"MediTrack.sol\":6442:6443  2 */\n      0x02\n        /* \"MediTrack.sol\":6415:6422  batches */\n      0x00\n        /* \"MediTrack.sol\":6415:6432  batches[_batchId] */\n      0x00\n        /* \"MediTrack.sol\":6423:6431  _batchId */\n      dup8\n        /* \"MediTrack.sol\":6415:6432  batches[_batchId] */\n      dup2\n      mstore\n      0x20\n      add\n      swap1\n      dup2\n      mstore\n      0x20\n      add\n      0x00\n      keccak256\n        /* \"MediTrack.sol\":6415:6439  batches[_batchId].status */\n      0x06\n      add\n        /* \"MediTrack.sol\":6415:6443  batches[_batchId].status = 2 */\n      dup2\n      swap1\n      sstore\n      pop\n        /* \"MediTrack.sol\":6485:6499  batchTimelines */\n      0x02\n        /* \"MediTrack.sol\":6485:6509  batchTimelines[_batchId] */\n      0x00\n        /* \"MediTrack.sol\":6500:6508  _batchId */\n      dup7\n        /* \"MediTrack.sol\":6485:6509  batchTimelines[_batchId] */\n      dup2\n      mstore\n      0x20\n      add\n      swap1\n      dup2\n      mstore\n      0x20\n      add\n      0x00\n      keccak256\n        /* \"MediTrack.sol\":6515:6643  TimelineEvent({... */\n      mload(0x40)\n      dup1\n      0x60\n      add\n      0x40\n      mstore\n      dup1\n        /* \"MediTrack.sol\":6556:6561  _note */\n      dup6\n        /* \"MediTrack.sol\":6515:6643  TimelineEvent({... */\n      dup2\n      mstore\n      0x20\n      add\n        /* \"MediTrack.sol\":6586:6601  block.timestamp */\n      timestamp\n        /* \"MediTrack.sol\":6515:6643  TimelineEvent({... */\n      dup2\n      mstore\n      0x20\n      add\n        /* \"MediTrack.sol\":6622:6632  msg.sender */\n      caller\n        /* \"MediTrack.sol\":6515:6643  TimelineEvent({... */\n      0xffffffffffffffffffffffffffffffffffffffff\n      and\n      dup2\n      mstore\n      pop\n        /* \"MediTrack.sol\":6485:6644  batchTimelines[_batchId].push(TimelineEvent({... */\n      swap1\n      dup1\n      0x01\n      dup2\n      sload\n      add\n      dup1\n      dup3\n      sstore\n      dup1\n      swap2\n      pop\n      pop\n      0x01\n      swap1\n      sub\n      swap1\n      0x00\n      mstore\n      keccak256(0x00, 0x20)\n      swap1\n      0x03\n      mul\n      add\n      0x00\n      swap1\n      swap2\n      swap1\n      swap2\n      swap1\n      swap2\n      pop\n      0x00\n      dup3\n      add\n      mload\n      dup2\n      0x00\n      add\n      swap1\n      dup2\n      tag_241\n      swap2\n      swap1\n      tag_150\n      jump\t// in\n    tag_241:\n      pop\n      0x20\n      dup3\n      add\n      mload\n      dup2\n      0x01\n      add\n      sstore\n      0x40\n      dup3\n      add\n      mload\n      dup2\n      0x02\n      add\n      exp(0x0100, 0x00)\n      dup2\n      sload\n      dup2\n      0xffffffffffffffffffffffffffffffffffffffff\n      mul\n      not\n      and\n      swap1\n      dup4\n      0xffffffffffffffffffffffffffffffffffffffff\n      and\n      mul\n      or\n      swap1\n      sstore\n      pop\n      pop\n      pop\n        /* \"MediTrack.sol\":6677:6685  _batchId */\n      dup5\n        /* \"MediTrack.sol\":6660:6701  BatchTransferred(_batchId, oldOwner, _to) */\n      0xb9f31d1b8db0327a09cde76de6662ee23a4ecd72fbb0411cdfa7969fed7abe44\n        /* \"MediTrack.sol\":6687:6695  oldOwner */\n      dup3\n        /* \"MediTrack.sol\":6697:6700  _to */\n      dup7\n        /* \"MediTrack.sol\":6660:6701  BatchTransferred(_batchId, oldOwner, _to) */\n      mload(0x40)\n      tag_242\n      swap3\n      swap2\n      swap1\n      tag_243\n      jump\t// in\n    tag_242:\n      mload(0x40)\n      dup1\n      swap2\n      sub\n      swap1\n      log2\n        /* \"MediTrack.sol\":6139:6708  {... */\n      pop\n        /* \"MediTrack.sol\":6032:6708  function transferBatch(uint256 _batchId, address _to, string memory _note) public onlyBatchOwner(_batchId) {... */\n      pop\n      pop\n      pop\n      pop\n      jump\t// out\n        /* \"MediTrack.sol\":2034:2054  address public admin */\n    tag_89:\n      0x05\n      0x00\n      swap1\n      sload\n      swap1\n      0x0100\n      exp\n      swap1\n      div\n      0xffffffffffffffffffffffffffffffffffffffff\n      and\n      dup2\n      jump\t// out\n        /* \"MediTrack.sol\":7522:8596  function sellProduct(string memory _uid, string memory _secretKey, string memory _customerInfoHash) public onlyDealer {... */\n    tag_95:\n        /* \"MediTrack.sol\":2691:2708  authorizedDealers */\n      0x04\n        /* \"MediTrack.sol\":2691:2720  authorizedDealers[msg.sender] */\n      0x00\n        /* \"MediTrack.sol\":2709:2719  msg.sender */\n      caller\n        /* \"MediTrack.sol\":2691:2720  authorizedDealers[msg.sender] */\n      0xffffffffffffffffffffffffffffffffffffffff\n      and\n      0xffffffffffffffffffffffffffffffffffffffff\n      and\n      dup2\n      mstore\n      0x20\n      add\n      swap1\n      dup2\n      mstore\n      0x20\n      add\n      0x00\n      keccak256\n      0x00\n      swap1\n      sload\n      swap1\n      0x0100\n      exp\n      swap1\n      div\n      0xff\n      and\n        /* \"MediTrack.sol\":2683:2775  require(authorizedDealers[msg.sender], unicode\"Bạn không phải đại lý ủy quyền\") */\n      tag_245\n      jumpi\n      mload(0x40)\n      0x08c379a000000000000000000000000000000000000000000000000000000000\n      dup2\n      mstore\n      0x04\n      add\n      tag_246\n      swap1\n      tag_247\n      jump\t// in\n    tag_246:\n      mload(0x40)\n      dup1\n      swap2\n      sub\n      swap1\n      revert\n    tag_245:\n        /* \"MediTrack.sol\":7650:7667  Product storage p */\n      0x00\n        /* \"MediTrack.sol\":7670:7678  products */\n      0x03\n        /* \"MediTrack.sol\":7679:7683  _uid */\n      dup5\n        /* \"MediTrack.sol\":7670:7684  products[_uid] */\n      mload(0x40)\n      tag_249\n      swap2\n      swap1\n      tag_114\n      jump\t// in\n    tag_249:\n      swap1\n      dup2\n      mstore\n      0x20\n      add\n      mload(0x40)\n      dup1\n      swap2\n      sub\n      swap1\n      keccak256\n        /* \"MediTrack.sol\":7650:7684  Product storage p = products[_uid] */\n      swap1\n      pop\n        /* \"MediTrack.sol\":7785:7786  0 */\n      0x00\n        /* \"MediTrack.sol\":7772:7773  p */\n      dup2\n        /* \"MediTrack.sol\":7772:7781  p.batchId */\n      0x01\n      add\n      sload\n        /* \"MediTrack.sol\":7772:7786  p.batchId != 0 */\n      sub\n        /* \"MediTrack.sol\":7764:7848  require(p.batchId != 0, unicode\"Sản phẩm không tồn tại trong hệ thống\") */\n      tag_250\n      jumpi\n      mload(0x40)\n      0x08c379a000000000000000000000000000000000000000000000000000000000\n      dup2\n      mstore\n      0x04\n      add\n      tag_251\n      swap1\n      tag_252\n      jump\t// in\n    tag_251:\n      mload(0x40)\n      dup1\n      swap2\n      sub\n      swap1\n      revert\n    tag_250:\n        /* \"MediTrack.sol\":7909:7910  p */\n      dup1\n        /* \"MediTrack.sol\":7909:7917  p.isSold */\n      0x03\n      add\n      0x00\n      swap1\n      sload\n      swap1\n      0x0100\n      exp\n      swap1\n      div\n      0xff\n      and\n        /* \"MediTrack.sol\":7908:7917  !p.isSold */\n      iszero\n        /* \"MediTrack.sol\":7900:7980  require(!p.isSold, unicode\"Sản phẩm này đã được bán trước đó!\") */\n      tag_253\n      jumpi\n      mload(0x40)\n      0x08c379a000000000000000000000000000000000000000000000000000000000\n      dup2\n      mstore\n      0x04\n      add\n      tag_254\n      swap1\n      tag_255\n      jump\t// in\n    tag_254:\n      mload(0x40)\n      dup1\n      swap2\n      sub\n      swap1\n      revert\n    tag_253:\n        /* \"MediTrack.sol\":8260:8261  p */\n      dup1\n        /* \"MediTrack.sol\":8260:8272  p.secretHash */\n      0x02\n      add\n      sload\n        /* \"MediTrack.sol\":8244:8254  _secretKey */\n      dup4\n        /* \"MediTrack.sol\":8227:8255  abi.encodePacked(_secretKey) */\n      add(0x20, mload(0x40))\n      tag_256\n      swap2\n      swap1\n      tag_114\n      jump\t// in\n    tag_256:\n      mload(0x40)\n      0x20\n      dup2\n      dup4\n      sub\n      sub\n      dup2\n      mstore\n      swap1\n      0x40\n      mstore\n        /* \"MediTrack.sol\":8217:8256  keccak256(abi.encodePacked(_secretKey)) */\n      dup1\n      mload\n      swap1\n      0x20\n      add\n      keccak256\n        /* \"MediTrack.sol\":8217:8272  keccak256(abi.encodePacked(_secretKey)) == p.secretHash */\n      eq\n        /* \"MediTrack.sol\":8209:8345  require(keccak256(abi.encodePacked(_secretKey)) == p.secretHash, unicode\"MÃ KÍCH HỌAT KHÔNG HỢP LỆ! Phát hiện hàng giả.\") */\n      tag_257\n      jumpi\n      mload(0x40)\n      0x08c379a000000000000000000000000000000000000000000000000000000000\n      dup2\n      mstore\n      0x04\n      add\n      tag_258\n      swap1\n      tag_259\n      jump\t// in\n    tag_258:\n      mload(0x40)\n      dup1\n      swap2\n      sub\n      swap1\n      revert\n    tag_257:\n        /* \"MediTrack.sol\":8408:8412  true */\n      0x01\n        /* \"MediTrack.sol\":8397:8398  p */\n      dup2\n        /* \"MediTrack.sol\":8397:8405  p.isSold */\n      0x03\n      add\n      0x00\n        /* \"MediTrack.sol\":8397:8412  p.isSold = true */\n      0x0100\n      exp\n      dup2\n      sload\n      dup2\n      0xff\n      mul\n      not\n      and\n      swap1\n      dup4\n      iszero\n      iszero\n      mul\n      or\n      swap1\n      sstore\n      pop\n        /* \"MediTrack.sol\":8433:8443  msg.sender */\n      caller\n        /* \"MediTrack.sol\":8422:8423  p */\n      dup2\n        /* \"MediTrack.sol\":8422:8430  p.soldBy */\n      0x03\n      add\n      0x01\n        /* \"MediTrack.sol\":8422:8443  p.soldBy = msg.sender */\n      0x0100\n      exp\n      dup2\n      sload\n      dup2\n      0xffffffffffffffffffffffffffffffffffffffff\n      mul\n      not\n      and\n      swap1\n      dup4\n      0xffffffffffffffffffffffffffffffffffffffff\n      and\n      mul\n      or\n      swap1\n      sstore\n      pop\n        /* \"MediTrack.sol\":8464:8479  block.timestamp */\n      timestamp\n        /* \"MediTrack.sol\":8453:8454  p */\n      dup2\n        /* \"MediTrack.sol\":8453:8461  p.soldAt */\n      0x04\n      add\n        /* \"MediTrack.sol\":8453:8479  p.soldAt = block.timestamp */\n      dup2\n      swap1\n      sstore\n      pop\n        /* \"MediTrack.sol\":8510:8527  _customerInfoHash */\n      dup2\n        /* \"MediTrack.sol\":8489:8490  p */\n      dup2\n        /* \"MediTrack.sol\":8489:8507  p.customerInfoHash */\n      0x05\n      add\n        /* \"MediTrack.sol\":8489:8527  p.customerInfoHash = _customerInfoHash */\n      swap1\n      dup2\n      tag_260\n      swap2\n      swap1\n      tag_150\n      jump\t// in\n    tag_260:\n      pop\n        /* \"MediTrack.sol\":8561:8571  msg.sender */\n      caller\n        /* \"MediTrack.sol\":8543:8589  ProductSold(_uid, msg.sender, block.timestamp) */\n      0xffffffffffffffffffffffffffffffffffffffff\n      and\n        /* \"MediTrack.sol\":8555:8559  _uid */\n      dup5\n        /* \"MediTrack.sol\":8543:8589  ProductSold(_uid, msg.sender, block.timestamp) */\n      mload(0x40)\n      tag_261\n      swap2\n      swap1\n      tag_114\n      jump\t// in\n    tag_261:\n      mload(0x40)\n      dup1\n      swap2\n      sub\n      swap1\n      keccak256\n      0xd0597de7b4841220d83e82517ef6d92df0c5edab071069f65a89c2c66ca407aa\n        /* \"MediTrack.sol\":8573:8588  block.timestamp */\n      timestamp\n        /* \"MediTrack.sol\":8543:8589  ProductSold(_uid, msg.sender, block.timestamp) */\n      mload(0x40)\n      tag_262\n      swap2\n      swap1\n      tag_35\n      jump\t// in\n    tag_262:\n      mload(0x40)\n      dup1\n      swap2\n      sub\n      swap1\n      log3\n        /* \"MediTrack.sol\":7640:8596  {... */\n      pop\n        /* \"MediTrack.sol\":7522:8596  function sellProduct(string memory _uid, string memory _secretKey, string memory _customerInfoHash) public onlyDealer {... */\n      pop\n      pop\n      pop\n      jump\t// out\n        /* \"#utility.yul\":7:82   */\n    tag_263:\n        /* \"#utility.yul\":40:46   */\n      0x00\n        /* \"#utility.yul\":73:75   */\n      0x40\n        /* \"#utility.yul\":67:76   */\n      mload\n        /* \"#utility.yul\":57:76   */\n      swap1\n      pop\n        /* \"#utility.yul\":7:82   */\n      swap1\n      jump\t// out\n        /* \"#utility.yul\":88:205   */\n    tag_264:\n        /* \"#utility.yul\":197:198   */\n      0x00\n        /* \"#utility.yul\":194:195   */\n      0x00\n        /* \"#utility.yul\":187:199   */\n      revert\n        /* \"#utility.yul\":211:328   */\n    tag_265:\n        /* \"#utility.yul\":320:321   */\n      0x00\n        /* \"#utility.yul\":317:318   */\n      0x00\n        /* \"#utility.yul\":310:322   */\n      revert\n        /* \"#utility.yul\":334:451   */\n    tag_266:\n        /* \"#utility.yul\":443:444   */\n      0x00\n        /* \"#utility.yul\":440:441   */\n      0x00\n        /* \"#utility.yul\":433:445   */\n      revert\n        /* \"#utility.yul\":457:574   */\n    tag_267:\n        /* \"#utility.yul\":566:567   */\n      0x00\n        /* \"#utility.yul\":563:564   */\n      0x00\n        /* \"#utility.yul\":556:568   */\n      revert\n        /* \"#utility.yul\":580:682   */\n    tag_268:\n        /* \"#utility.yul\":621:627   */\n      0x00\n        /* \"#utility.yul\":672:674   */\n      0x1f\n        /* \"#utility.yul\":668:675   */\n      not\n        /* \"#utility.yul\":663:665   */\n      0x1f\n        /* \"#utility.yul\":656:661   */\n      dup4\n        /* \"#utility.yul\":652:666   */\n      add\n        /* \"#utility.yul\":648:676   */\n      and\n        /* \"#utility.yul\":638:676   */\n      swap1\n      pop\n        /* \"#utility.yul\":580:682   */\n      swap2\n      swap1\n      pop\n      jump\t// out\n        /* \"#utility.yul\":688:868   */\n    tag_269:\n        /* \"#utility.yul\":736:813   */\n      0x4e487b7100000000000000000000000000000000000000000000000000000000\n        /* \"#utility.yul\":733:734   */\n      0x00\n        /* \"#utility.yul\":726:814   */\n      mstore\n        /* \"#utility.yul\":833:837   */\n      0x41\n        /* \"#utility.yul\":830:831   */\n      0x04\n        /* \"#utility.yul\":823:838   */\n      mstore\n        /* \"#utility.yul\":857:861   */\n      0x24\n        /* \"#utility.yul\":854:855   */\n      0x00\n        /* \"#utility.yul\":847:862   */\n      revert\n        /* \"#utility.yul\":874:1155   */\n    tag_270:\n        /* \"#utility.yul\":957:984   */\n      tag_363\n        /* \"#utility.yul\":979:983   */\n      dup3\n        /* \"#utility.yul\":957:984   */\n      tag_268\n      jump\t// in\n    tag_363:\n        /* \"#utility.yul\":949:955   */\n      dup2\n        /* \"#utility.yul\":945:985   */\n      add\n        /* \"#utility.yul\":1087:1093   */\n      dup2\n        /* \"#utility.yul\":1075:1085   */\n      dup2\n        /* \"#utility.yul\":1072:1094   */\n      lt\n        /* \"#utility.yul\":1051:1069   */\n      0xffffffffffffffff\n        /* \"#utility.yul\":1039:1049   */\n      dup3\n        /* \"#utility.yul\":1036:1070   */\n      gt\n        /* \"#utility.yul\":1033:1095   */\n      or\n        /* \"#utility.yul\":1030:1118   */\n      iszero\n      tag_364\n      jumpi\n        /* \"#utility.yul\":1098:1116   */\n      tag_365\n      tag_269\n      jump\t// in\n    tag_365:\n        /* \"#utility.yul\":1030:1118   */\n    tag_364:\n        /* \"#utility.yul\":1138:1148   */\n      dup1\n        /* \"#utility.yul\":1134:1136   */\n      0x40\n        /* \"#utility.yul\":1127:1149   */\n      mstore\n        /* \"#utility.yul\":917:1155   */\n      pop\n        /* \"#utility.yul\":874:1155   */\n      pop\n      pop\n      jump\t// out\n        /* \"#utility.yul\":1161:1290   */\n    tag_271:\n        /* \"#utility.yul\":1195:1201   */\n      0x00\n        /* \"#utility.yul\":1222:1242   */\n      tag_367\n      tag_263\n      jump\t// in\n    tag_367:\n        /* \"#utility.yul\":1212:1242   */\n      swap1\n      pop\n        /* \"#utility.yul\":1251:1284   */\n      tag_368\n        /* \"#utility.yul\":1279:1283   */\n      dup3\n        /* \"#utility.yul\":1271:1277   */\n      dup3\n        /* \"#utility.yul\":1251:1284   */\n      tag_270\n      jump\t// in\n    tag_368:\n        /* \"#utility.yul\":1161:1290   */\n      swap2\n      swap1\n      pop\n      jump\t// out\n        /* \"#utility.yul\":1296:1604   */\n    tag_272:\n        /* \"#utility.yul\":1358:1362   */\n      0x00\n        /* \"#utility.yul\":1448:1466   */\n      0xffffffffffffffff\n        /* \"#utility.yul\":1440:1446   */\n      dup3\n        /* \"#utility.yul\":1437:1467   */\n      gt\n        /* \"#utility.yul\":1434:1490   */\n      iszero\n      tag_370\n      jumpi\n        /* \"#utility.yul\":1470:1488   */\n      tag_371\n      tag_269\n      jump\t// in\n    tag_371:\n        /* \"#utility.yul\":1434:1490   */\n    tag_370:\n        /* \"#utility.yul\":1508:1537   */\n      tag_372\n        /* \"#utility.yul\":1530:1536   */\n      dup3\n        /* \"#utility.yul\":1508:1537   */\n      tag_268\n      jump\t// in\n    tag_372:\n        /* \"#utility.yul\":1500:1537   */\n      swap1\n      pop\n        /* \"#utility.yul\":1592:1596   */\n      0x20\n        /* \"#utility.yul\":1586:1590   */\n      dup2\n        /* \"#utility.yul\":1582:1597   */\n      add\n        /* \"#utility.yul\":1574:1597   */\n      swap1\n      pop\n        /* \"#utility.yul\":1296:1604   */\n      swap2\n      swap1\n      pop\n      jump\t// out\n        /* \"#utility.yul\":1610:1758   */\n    tag_273:\n        /* \"#utility.yul\":1708:1714   */\n      dup3\n        /* \"#utility.yul\":1703:1706   */\n      dup2\n        /* \"#utility.yul\":1698:1701   */\n      dup4\n        /* \"#utility.yul\":1685:1715   */\n      calldatacopy\n        /* \"#utility.yul\":1749:1750   */\n      0x00\n        /* \"#utility.yul\":1740:1746   */\n      dup4\n        /* \"#utility.yul\":1735:1738   */\n      dup4\n        /* \"#utility.yul\":1731:1747   */\n      add\n        /* \"#utility.yul\":1724:1751   */\n      mstore\n        /* \"#utility.yul\":1610:1758   */\n      pop\n      pop\n      pop\n      jump\t// out\n        /* \"#utility.yul\":1764:2189   */\n    tag_274:\n        /* \"#utility.yul\":1842:1847   */\n      0x00\n        /* \"#utility.yul\":1867:1933   */\n      tag_375\n        /* \"#utility.yul\":1883:1932   */\n      tag_376\n        /* \"#utility.yul\":1925:1931   */\n      dup5\n        /* \"#utility.yul\":1883:1932   */\n      tag_272\n      jump\t// in\n    tag_376:\n        /* \"#utility.yul\":1867:1933   */\n      tag_271\n      jump\t// in\n    tag_375:\n        /* \"#utility.yul\":1858:1933   */\n      swap1\n      pop\n        /* \"#utility.yul\":1956:1962   */\n      dup3\n        /* \"#utility.yul\":1949:1954   */\n      dup2\n        /* \"#utility.yul\":1942:1963   */\n      mstore\n        /* \"#utility.yul\":1994:1998   */\n      0x20\n        /* \"#utility.yul\":1987:1992   */\n      dup2\n        /* \"#utility.yul\":1983:1999   */\n      add\n        /* \"#utility.yul\":2032:2035   */\n      dup5\n        /* \"#utility.yul\":2023:2029   */\n      dup5\n        /* \"#utility.yul\":2018:2021   */\n      dup5\n        /* \"#utility.yul\":2014:2030   */\n      add\n        /* \"#utility.yul\":2011:2036   */\n      gt\n        /* \"#utility.yul\":2008:2120   */\n      iszero\n      tag_377\n      jumpi\n        /* \"#utility.yul\":2039:2118   */\n      tag_378\n      tag_267\n      jump\t// in\n    tag_378:\n        /* \"#utility.yul\":2008:2120   */\n    tag_377:\n        /* \"#utility.yul\":2129:2183   */\n      tag_379\n        /* \"#utility.yul\":2176:2182   */\n      dup5\n        /* \"#utility.yul\":2171:2174   */\n      dup3\n        /* \"#utility.yul\":2166:2169   */\n      dup6\n        /* \"#utility.yul\":2129:2183   */\n      tag_273\n      jump\t// in\n    tag_379:\n        /* \"#utility.yul\":1848:2189   */\n      pop\n        /* \"#utility.yul\":1764:2189   */\n      swap4\n      swap3\n      pop\n      pop\n      pop\n      jump\t// out\n        /* \"#utility.yul\":2209:2549   */\n    tag_275:\n        /* \"#utility.yul\":2265:2270   */\n      0x00\n        /* \"#utility.yul\":2314:2317   */\n      dup3\n        /* \"#utility.yul\":2307:2311   */\n      0x1f\n        /* \"#utility.yul\":2299:2305   */\n      dup4\n        /* \"#utility.yul\":2295:2312   */\n      add\n        /* \"#utility.yul\":2291:2318   */\n      slt\n        /* \"#utility.yul\":2281:2403   */\n      tag_381\n      jumpi\n        /* \"#utility.yul\":2322:2401   */\n      tag_382\n      tag_266\n      jump\t// in\n    tag_382:\n        /* \"#utility.yul\":2281:2403   */\n    tag_381:\n        /* \"#utility.yul\":2439:2445   */\n      dup2\n        /* \"#utility.yul\":2426:2446   */\n      calldataload\n        /* \"#utility.yul\":2464:2543   */\n      tag_383\n        /* \"#utility.yul\":2539:2542   */\n      dup5\n        /* \"#utility.yul\":2531:2537   */\n      dup3\n        /* \"#utility.yul\":2524:2528   */\n      0x20\n        /* \"#utility.yul\":2516:2522   */\n      dup7\n        /* \"#utility.yul\":2512:2529   */\n      add\n        /* \"#utility.yul\":2464:2543   */\n      tag_274\n      jump\t// in\n    tag_383:\n        /* \"#utility.yul\":2455:2543   */\n      swap2\n      pop\n        /* \"#utility.yul\":2271:2549   */\n      pop\n        /* \"#utility.yul\":2209:2549   */\n      swap3\n      swap2\n      pop\n      pop\n      jump\t// out\n        /* \"#utility.yul\":2555:3064   */\n    tag_24:\n        /* \"#utility.yul\":2624:2630   */\n      0x00\n        /* \"#utility.yul\":2673:2675   */\n      0x20\n        /* \"#utility.yul\":2661:2670   */\n      dup3\n        /* \"#utility.yul\":2652:2659   */\n      dup5\n        /* \"#utility.yul\":2648:2671   */\n      sub\n        /* \"#utility.yul\":2644:2676   */\n      slt\n        /* \"#utility.yul\":2641:2760   */\n      iszero\n      tag_385\n      jumpi\n        /* \"#utility.yul\":2679:2758   */\n      tag_386\n      tag_264\n      jump\t// in\n    tag_386:\n        /* \"#utility.yul\":2641:2760   */\n    tag_385:\n        /* \"#utility.yul\":2827:2828   */\n      0x00\n        /* \"#utility.yul\":2816:2825   */\n      dup3\n        /* \"#utility.yul\":2812:2829   */\n      add\n        /* \"#utility.yul\":2799:2830   */\n      calldataload\n        /* \"#utility.yul\":2857:2875   */\n      0xffffffffffffffff\n        /* \"#utility.yul\":2849:2855   */\n      dup2\n        /* \"#utility.yul\":2846:2876   */\n      gt\n        /* \"#utility.yul\":2843:2960   */\n      iszero\n      tag_387\n      jumpi\n        /* \"#utility.yul\":2879:2958   */\n      tag_388\n      tag_265\n      jump\t// in\n    tag_388:\n        /* \"#utility.yul\":2843:2960   */\n    tag_387:\n        /* \"#utility.yul\":2984:3047   */\n      tag_389\n        /* \"#utility.yul\":3039:3046   */\n      dup5\n        /* \"#utility.yul\":3030:3036   */\n      dup3\n        /* \"#utility.yul\":3019:3028   */\n      dup6\n        /* \"#utility.yul\":3015:3037   */\n      add\n        /* \"#utility.yul\":2984:3047   */\n      tag_275\n      jump\t// in\n    tag_389:\n        /* \"#utility.yul\":2974:3047   */\n      swap2\n      pop\n        /* \"#utility.yul\":2770:3057   */\n      pop\n        /* \"#utility.yul\":2555:3064   */\n      swap3\n      swap2\n      pop\n      pop\n      jump\t// out\n        /* \"#utility.yul\":3070:3169   */\n    tag_276:\n        /* \"#utility.yul\":3122:3128   */\n      0x00\n        /* \"#utility.yul\":3156:3161   */\n      dup2\n        /* \"#utility.yul\":3150:3162   */\n      mload\n        /* \"#utility.yul\":3140:3162   */\n      swap1\n      pop\n        /* \"#utility.yul\":3070:3169   */\n      swap2\n      swap1\n      pop\n      jump\t// out\n        /* \"#utility.yul\":3175:3344   */\n    tag_277:\n        /* \"#utility.yul\":3259:3270   */\n      0x00\n        /* \"#utility.yul\":3293:3299   */\n      dup3\n        /* \"#utility.yul\":3288:3291   */\n      dup3\n        /* \"#utility.yul\":3281:3300   */\n      mstore\n        /* \"#utility.yul\":3333:3337   */\n      0x20\n        /* \"#utility.yul\":3328:3331   */\n      dup3\n        /* \"#utility.yul\":3324:3338   */\n      add\n        /* \"#utility.yul\":3309:3338   */\n      swap1\n      pop\n        /* \"#utility.yul\":3175:3344   */\n      swap3\n      swap2\n      pop\n      pop\n      jump\t// out\n        /* \"#utility.yul\":3350:3489   */\n    tag_278:\n        /* \"#utility.yul\":3439:3445   */\n      dup3\n        /* \"#utility.yul\":3434:3437   */\n      dup2\n        /* \"#utility.yul\":3429:3432   */\n      dup4\n        /* \"#utility.yul\":3423:3446   */\n      mcopy\n        /* \"#utility.yul\":3480:3481   */\n      0x00\n        /* \"#utility.yul\":3471:3477   */\n      dup4\n        /* \"#utility.yul\":3466:3469   */\n      dup4\n        /* \"#utility.yul\":3462:3478   */\n      add\n        /* \"#utility.yul\":3455:3482   */\n      mstore\n        /* \"#utility.yul\":3350:3489   */\n      pop\n      pop\n      pop\n      jump\t// out\n        /* \"#utility.yul\":3495:3872   */\n    tag_279:\n        /* \"#utility.yul\":3583:3586   */\n      0x00\n        /* \"#utility.yul\":3611:3650   */\n      tag_394\n        /* \"#utility.yul\":3644:3649   */\n      dup3\n        /* \"#utility.yul\":3611:3650   */\n      tag_276\n      jump\t// in\n    tag_394:\n        /* \"#utility.yul\":3666:3737   */\n      tag_395\n        /* \"#utility.yul\":3730:3736   */\n      dup2\n        /* \"#utility.yul\":3725:3728   */\n      dup6\n        /* \"#utility.yul\":3666:3737   */\n      tag_277\n      jump\t// in\n    tag_395:\n        /* \"#utility.yul\":3659:3737   */\n      swap4\n      pop\n        /* \"#utility.yul\":3746:3811   */\n      tag_396\n        /* \"#utility.yul\":3804:3810   */\n      dup2\n        /* \"#utility.yul\":3799:3802   */\n      dup6\n        /* \"#utility.yul\":3792:3796   */\n      0x20\n        /* \"#utility.yul\":3785:3790   */\n      dup7\n        /* \"#utility.yul\":3781:3797   */\n      add\n        /* \"#utility.yul\":3746:3811   */\n      tag_278\n      jump\t// in\n    tag_396:\n        /* \"#utility.yul\":3836:3865   */\n      tag_397\n        /* \"#utility.yul\":3858:3864   */\n      dup2\n        /* \"#utility.yul\":3836:3865   */\n      tag_268\n      jump\t// in\n    tag_397:\n        /* \"#utility.yul\":3831:3834   */\n      dup5\n        /* \"#utility.yul\":3827:3866   */\n      add\n        /* \"#utility.yul\":3820:3866   */\n      swap2\n      pop\n        /* \"#utility.yul\":3587:3872   */\n      pop\n        /* \"#utility.yul\":3495:3872   */\n      swap3\n      swap2\n      pop\n      pop\n      jump\t// out\n        /* \"#utility.yul\":3878:3955   */\n    tag_280:\n        /* \"#utility.yul\":3915:3922   */\n      0x00\n        /* \"#utility.yul\":3944:3949   */\n      dup2\n        /* \"#utility.yul\":3933:3949   */\n      swap1\n      pop\n        /* \"#utility.yul\":3878:3955   */\n      swap2\n      swap1\n      pop\n      jump\t// out\n        /* \"#utility.yul\":3961:4079   */\n    tag_281:\n        /* \"#utility.yul\":4048:4072   */\n      tag_400\n        /* \"#utility.yul\":4066:4071   */\n      dup2\n        /* \"#utility.yul\":4048:4072   */\n      tag_280\n      jump\t// in\n    tag_400:\n        /* \"#utility.yul\":4043:4046   */\n      dup3\n        /* \"#utility.yul\":4036:4073   */\n      mstore\n        /* \"#utility.yul\":3961:4079   */\n      pop\n      pop\n      jump\t// out\n        /* \"#utility.yul\":4085:4162   */\n    tag_282:\n        /* \"#utility.yul\":4122:4129   */\n      0x00\n        /* \"#utility.yul\":4151:4156   */\n      dup2\n        /* \"#utility.yul\":4140:4156   */\n      swap1\n      pop\n        /* \"#utility.yul\":4085:4162   */\n      swap2\n      swap1\n      pop\n      jump\t// out\n        /* \"#utility.yul\":4168:4286   */\n    tag_283:\n        /* \"#utility.yul\":4255:4279   */\n      tag_403\n        /* \"#utility.yul\":4273:4278   */\n      dup2\n        /* \"#utility.yul\":4255:4279   */\n      tag_282\n      jump\t// in\n    tag_403:\n        /* \"#utility.yul\":4250:4253   */\n      dup3\n        /* \"#utility.yul\":4243:4280   */\n      mstore\n        /* \"#utility.yul\":4168:4286   */\n      pop\n      pop\n      jump\t// out\n        /* \"#utility.yul\":4292:4382   */\n    tag_284:\n        /* \"#utility.yul\":4326:4333   */\n      0x00\n        /* \"#utility.yul\":4369:4374   */\n      dup2\n        /* \"#utility.yul\":4362:4375   */\n      iszero\n        /* \"#utility.yul\":4355:4376   */\n      iszero\n        /* \"#utility.yul\":4344:4376   */\n      swap1\n      pop\n        /* \"#utility.yul\":4292:4382   */\n      swap2\n      swap1\n      pop\n      jump\t// out\n        /* \"#utility.yul\":4388:4497   */\n    tag_285:\n        /* \"#utility.yul\":4469:4490   */\n      tag_406\n        /* \"#utility.yul\":4484:4489   */\n      dup2\n        /* \"#utility.yul\":4469:4490   */\n      tag_284\n      jump\t// in\n    tag_406:\n        /* \"#utility.yul\":4464:4467   */\n      dup3\n        /* \"#utility.yul\":4457:4491   */\n      mstore\n        /* \"#utility.yul\":4388:4497   */\n      pop\n      pop\n      jump\t// out\n        /* \"#utility.yul\":4503:4629   */\n    tag_286:\n        /* \"#utility.yul\":4540:4547   */\n      0x00\n        /* \"#utility.yul\":4580:4622   */\n      0xffffffffffffffffffffffffffffffffffffffff\n        /* \"#utility.yul\":4573:4578   */\n      dup3\n        /* \"#utility.yul\":4569:4623   */\n      and\n        /* \"#utility.yul\":4558:4623   */\n      swap1\n      pop\n        /* \"#utility.yul\":4503:4629   */\n      swap2\n      swap1\n      pop\n      jump\t// out\n        /* \"#utility.yul\":4635:4731   */\n    tag_287:\n        /* \"#utility.yul\":4672:4679   */\n      0x00\n        /* \"#utility.yul\":4701:4725   */\n      tag_409\n        /* \"#utility.yul\":4719:4724   */\n      dup3\n        /* \"#utility.yul\":4701:4725   */\n      tag_286\n      jump\t// in\n    tag_409:\n        /* \"#utility.yul\":4690:4725   */\n      swap1\n      pop\n        /* \"#utility.yul\":4635:4731   */\n      swap2\n      swap1\n      pop\n      jump\t// out\n        /* \"#utility.yul\":4737:4855   */\n    tag_288:\n        /* \"#utility.yul\":4824:4848   */\n      tag_411\n        /* \"#utility.yul\":4842:4847   */\n      dup2\n        /* \"#utility.yul\":4824:4848   */\n      tag_287\n      jump\t// in\n    tag_411:\n        /* \"#utility.yul\":4819:4822   */\n      dup3\n        /* \"#utility.yul\":4812:4849   */\n      mstore\n        /* \"#utility.yul\":4737:4855   */\n      pop\n      pop\n      jump\t// out\n        /* \"#utility.yul\":4861:5917   */\n    tag_27:\n        /* \"#utility.yul\":5156:5160   */\n      0x00\n        /* \"#utility.yul\":5194:5197   */\n      0xe0\n        /* \"#utility.yul\":5183:5192   */\n      dup3\n        /* \"#utility.yul\":5179:5198   */\n      add\n        /* \"#utility.yul\":5171:5198   */\n      swap1\n      pop\n        /* \"#utility.yul\":5244:5253   */\n      dup2\n        /* \"#utility.yul\":5238:5242   */\n      dup2\n        /* \"#utility.yul\":5234:5254   */\n      sub\n        /* \"#utility.yul\":5230:5231   */\n      0x00\n        /* \"#utility.yul\":5219:5228   */\n      dup4\n        /* \"#utility.yul\":5215:5232   */\n      add\n        /* \"#utility.yul\":5208:5255   */\n      mstore\n        /* \"#utility.yul\":5272:5350   */\n      tag_413\n        /* \"#utility.yul\":5345:5349   */\n      dup2\n        /* \"#utility.yul\":5336:5342   */\n      dup11\n        /* \"#utility.yul\":5272:5350   */\n      tag_279\n      jump\t// in\n    tag_413:\n        /* \"#utility.yul\":5264:5350   */\n      swap1\n      pop\n        /* \"#utility.yul\":5360:5432   */\n      tag_414\n        /* \"#utility.yul\":5428:5430   */\n      0x20\n        /* \"#utility.yul\":5417:5426   */\n      dup4\n        /* \"#utility.yul\":5413:5431   */\n      add\n        /* \"#utility.yul\":5404:5410   */\n      dup10\n        /* \"#utility.yul\":5360:5432   */\n      tag_281\n      jump\t// in\n    tag_414:\n        /* \"#utility.yul\":5442:5514   */\n      tag_415\n        /* \"#utility.yul\":5510:5512   */\n      0x40\n        /* \"#utility.yul\":5499:5508   */\n      dup4\n        /* \"#utility.yul\":5495:5513   */\n      add\n        /* \"#utility.yul\":5486:5492   */\n      dup9\n        /* \"#utility.yul\":5442:5514   */\n      tag_283\n      jump\t// in\n    tag_415:\n        /* \"#utility.yul\":5524:5590   */\n      tag_416\n        /* \"#utility.yul\":5586:5588   */\n      0x60\n        /* \"#utility.yul\":5575:5584   */\n      dup4\n        /* \"#utility.yul\":5571:5589   */\n      add\n        /* \"#utility.yul\":5562:5568   */\n      dup8\n        /* \"#utility.yul\":5524:5590   */\n      tag_285\n      jump\t// in\n    tag_416:\n        /* \"#utility.yul\":5600:5673   */\n      tag_417\n        /* \"#utility.yul\":5668:5671   */\n      0x80\n        /* \"#utility.yul\":5657:5666   */\n      dup4\n        /* \"#utility.yul\":5653:5672   */\n      add\n        /* \"#utility.yul\":5644:5650   */\n      dup7\n        /* \"#utility.yul\":5600:5673   */\n      tag_288\n      jump\t// in\n    tag_417:\n        /* \"#utility.yul\":5683:5756   */\n      tag_418\n        /* \"#utility.yul\":5751:5754   */\n      0xa0\n        /* \"#utility.yul\":5740:5749   */\n      dup4\n        /* \"#utility.yul\":5736:5755   */\n      add\n        /* \"#utility.yul\":5727:5733   */\n      dup6\n        /* \"#utility.yul\":5683:5756   */\n      tag_281\n      jump\t// in\n    tag_418:\n        /* \"#utility.yul\":5804:5813   */\n      dup2\n        /* \"#utility.yul\":5798:5802   */\n      dup2\n        /* \"#utility.yul\":5794:5814   */\n      sub\n        /* \"#utility.yul\":5788:5791   */\n      0xc0\n        /* \"#utility.yul\":5777:5786   */\n      dup4\n        /* \"#utility.yul\":5773:5792   */\n      add\n        /* \"#utility.yul\":5766:5815   */\n      mstore\n        /* \"#utility.yul\":5832:5910   */\n      tag_419\n        /* \"#utility.yul\":5905:5909   */\n      dup2\n        /* \"#utility.yul\":5896:5902   */\n      dup5\n        /* \"#utility.yul\":5832:5910   */\n      tag_279\n      jump\t// in\n    tag_419:\n        /* \"#utility.yul\":5824:5910   */\n      swap1\n      pop\n        /* \"#utility.yul\":4861:5917   */\n      swap9\n      swap8\n      pop\n      pop\n      pop\n      pop\n      pop\n      pop\n      pop\n      pop\n      jump\t// out\n        /* \"#utility.yul\":5923:6045   */\n    tag_289:\n        /* \"#utility.yul\":5996:6020   */\n      tag_421\n        /* \"#utility.yul\":6014:6019   */\n      dup2\n        /* \"#utility.yul\":5996:6020   */\n      tag_287\n      jump\t// in\n    tag_421:\n        /* \"#utility.yul\":5989:5994   */\n      dup2\n        /* \"#utility.yul\":5986:6021   */\n      eq\n        /* \"#utility.yul\":5976:6039   */\n      tag_422\n      jumpi\n        /* \"#utility.yul\":6035:6036   */\n      0x00\n        /* \"#utility.yul\":6032:6033   */\n      0x00\n        /* \"#utility.yul\":6025:6037   */\n      revert\n        /* \"#utility.yul\":5976:6039   */\n    tag_422:\n        /* \"#utility.yul\":5923:6045   */\n      pop\n      jump\t// out\n        /* \"#utility.yul\":6051:6190   */\n    tag_290:\n        /* \"#utility.yul\":6097:6102   */\n      0x00\n        /* \"#utility.yul\":6135:6141   */\n      dup2\n        /* \"#utility.yul\":6122:6142   */\n      calldataload\n        /* \"#utility.yul\":6113:6142   */\n      swap1\n      pop\n        /* \"#utility.yul\":6151:6184   */\n      tag_424\n        /* \"#utility.yul\":6178:6183   */\n      dup2\n        /* \"#utility.yul\":6151:6184   */\n      tag_289\n      jump\t// in\n    tag_424:\n        /* \"#utility.yul\":6051:6190   */\n      swap3\n      swap2\n      pop\n      pop\n      jump\t// out\n        /* \"#utility.yul\":6196:6525   */\n    tag_30:\n        /* \"#utility.yul\":6255:6261   */\n      0x00\n        /* \"#utility.yul\":6304:6306   */\n      0x20\n        /* \"#utility.yul\":6292:6301   */\n      dup3\n        /* \"#utility.yul\":6283:6290   */\n      dup5\n        /* \"#utility.yul\":6279:6302   */\n      sub\n        /* \"#utility.yul\":6275:6307   */\n      slt\n        /* \"#utility.yul\":6272:6391   */\n      iszero\n      tag_426\n      jumpi\n        /* \"#utility.yul\":6310:6389   */\n      tag_427\n      tag_264\n      jump\t// in\n    tag_427:\n        /* \"#utility.yul\":6272:6391   */\n    tag_426:\n        /* \"#utility.yul\":6430:6431   */\n      0x00\n        /* \"#utility.yul\":6455:6508   */\n      tag_428\n        /* \"#utility.yul\":6500:6507   */\n      dup5\n        /* \"#utility.yul\":6491:6497   */\n      dup3\n        /* \"#utility.yul\":6480:6489   */\n      dup6\n        /* \"#utility.yul\":6476:6498   */\n      add\n        /* \"#utility.yul\":6455:6508   */\n      tag_290\n      jump\t// in\n    tag_428:\n        /* \"#utility.yul\":6445:6508   */\n      swap2\n      pop\n        /* \"#utility.yul\":6401:6518   */\n      pop\n        /* \"#utility.yul\":6196:6525   */\n      swap3\n      swap2\n      pop\n      pop\n      jump\t// out\n        /* \"#utility.yul\":6531:6753   */\n    tag_35:\n        /* \"#utility.yul\":6624:6628   */\n      0x00\n        /* \"#utility.yul\":6662:6664   */\n      0x20\n        /* \"#utility.yul\":6651:6660   */\n      dup3\n        /* \"#utility.yul\":6647:6665   */\n      add\n        /* \"#utility.yul\":6639:6665   */\n      swap1\n      pop\n        /* \"#utility.yul\":6675:6746   */\n      tag_430\n        /* \"#utility.yul\":6743:6744   */\n      0x00\n        /* \"#utility.yul\":6732:6741   */\n      dup4\n        /* \"#utility.yul\":6728:6745   */\n      add\n        /* \"#utility.yul\":6719:6725   */\n      dup5\n        /* \"#utility.yul\":6675:6746   */\n      tag_281\n      jump\t// in\n    tag_430:\n        /* \"#utility.yul\":6531:6753   */\n      swap3\n      swap2\n      pop\n      pop\n      jump\t// out\n        /* \"#utility.yul\":6759:7490   */\n    tag_40:\n        /* \"#utility.yul\":6972:6976   */\n      0x00\n        /* \"#utility.yul\":7010:7013   */\n      0xa0\n        /* \"#utility.yul\":6999:7008   */\n      dup3\n        /* \"#utility.yul\":6995:7014   */\n      add\n        /* \"#utility.yul\":6987:7014   */\n      swap1\n      pop\n        /* \"#utility.yul\":7024:7089   */\n      tag_432\n        /* \"#utility.yul\":7086:7087   */\n      0x00\n        /* \"#utility.yul\":7075:7084   */\n      dup4\n        /* \"#utility.yul\":7071:7088   */\n      add\n        /* \"#utility.yul\":7062:7068   */\n      dup9\n        /* \"#utility.yul\":7024:7089   */\n      tag_285\n      jump\t// in\n    tag_432:\n        /* \"#utility.yul\":7136:7145   */\n      dup2\n        /* \"#utility.yul\":7130:7134   */\n      dup2\n        /* \"#utility.yul\":7126:7146   */\n      sub\n        /* \"#utility.yul\":7121:7123   */\n      0x20\n        /* \"#utility.yul\":7110:7119   */\n      dup4\n        /* \"#utility.yul\":7106:7124   */\n      add\n        /* \"#utility.yul\":7099:7147   */\n      mstore\n        /* \"#utility.yul\":7164:7242   */\n      tag_433\n        /* \"#utility.yul\":7237:7241   */\n      dup2\n        /* \"#utility.yul\":7228:7234   */\n      dup8\n        /* \"#utility.yul\":7164:7242   */\n      tag_279\n      jump\t// in\n    tag_433:\n        /* \"#utility.yul\":7156:7242   */\n      swap1\n      pop\n        /* \"#utility.yul\":7252:7318   */\n      tag_434\n        /* \"#utility.yul\":7314:7316   */\n      0x40\n        /* \"#utility.yul\":7303:7312   */\n      dup4\n        /* \"#utility.yul\":7299:7317   */\n      add\n        /* \"#utility.yul\":7290:7296   */\n      dup7\n        /* \"#utility.yul\":7252:7318   */\n      tag_285\n      jump\t// in\n    tag_434:\n        /* \"#utility.yul\":7328:7400   */\n      tag_435\n        /* \"#utility.yul\":7396:7398   */\n      0x60\n        /* \"#utility.yul\":7385:7394   */\n      dup4\n        /* \"#utility.yul\":7381:7399   */\n      add\n        /* \"#utility.yul\":7372:7378   */\n      dup6\n        /* \"#utility.yul\":7328:7400   */\n      tag_281\n      jump\t// in\n    tag_435:\n        /* \"#utility.yul\":7410:7483   */\n      tag_436\n        /* \"#utility.yul\":7478:7481   */\n      0x80\n        /* \"#utility.yul\":7467:7476   */\n      dup4\n        /* \"#utility.yul\":7463:7482   */\n      add\n        /* \"#utility.yul\":7454:7460   */\n      dup5\n        /* \"#utility.yul\":7410:7483   */\n      tag_288\n      jump\t// in\n    tag_436:\n        /* \"#utility.yul\":6759:7490   */\n      swap7\n      swap6\n      pop\n      pop\n      pop\n      pop\n      pop\n      pop\n      jump\t// out\n        /* \"#utility.yul\":7496:7618   */\n    tag_291:\n        /* \"#utility.yul\":7569:7593   */\n      tag_438\n        /* \"#utility.yul\":7587:7592   */\n      dup2\n        /* \"#utility.yul\":7569:7593   */\n      tag_280\n      jump\t// in\n    tag_438:\n        /* \"#utility.yul\":7562:7567   */\n      dup2\n        /* \"#utility.yul\":7559:7594   */\n      eq\n        /* \"#utility.yul\":7549:7612   */\n      tag_439\n      jumpi\n        /* \"#utility.yul\":7608:7609   */\n      0x00\n        /* \"#utility.yul\":7605:7606   */\n      0x00\n        /* \"#utility.yul\":7598:7610   */\n      revert\n        /* \"#utility.yul\":7549:7612   */\n    tag_439:\n        /* \"#utility.yul\":7496:7618   */\n      pop\n      jump\t// out\n        /* \"#utility.yul\":7624:7763   */\n    tag_292:\n        /* \"#utility.yul\":7670:7675   */\n      0x00\n        /* \"#utility.yul\":7708:7714   */\n      dup2\n        /* \"#utility.yul\":7695:7715   */\n      calldataload\n        /* \"#utility.yul\":7686:7715   */\n      swap1\n      pop\n        /* \"#utility.yul\":7724:7757   */\n      tag_441\n        /* \"#utility.yul\":7751:7756   */\n      dup2\n        /* \"#utility.yul\":7724:7757   */\n      tag_291\n      jump\t// in\n    tag_441:\n        /* \"#utility.yul\":7624:7763   */\n      swap3\n      swap2\n      pop\n      pop\n      jump\t// out\n        /* \"#utility.yul\":7769:8098   */\n    tag_43:\n        /* \"#utility.yul\":7828:7834   */\n      0x00\n        /* \"#utility.yul\":7877:7879   */\n      0x20\n        /* \"#utility.yul\":7865:7874   */\n      dup3\n        /* \"#utility.yul\":7856:7863   */\n      dup5\n        /* \"#utility.yul\":7852:7875   */\n      sub\n        /* \"#utility.yul\":7848:7880   */\n      slt\n        /* \"#utility.yul\":7845:7964   */\n      iszero\n      tag_443\n      jumpi\n        /* \"#utility.yul\":7883:7962   */\n      tag_444\n      tag_264\n      jump\t// in\n    tag_444:\n        /* \"#utility.yul\":7845:7964   */\n    tag_443:\n        /* \"#utility.yul\":8003:8004   */\n      0x00\n        /* \"#utility.yul\":8028:8081   */\n      tag_445\n        /* \"#utility.yul\":8073:8080   */\n      dup5\n        /* \"#utility.yul\":8064:8070   */\n      dup3\n        /* \"#utility.yul\":8053:8062   */\n      dup6\n        /* \"#utility.yul\":8049:8071   */\n      add\n        /* \"#utility.yul\":8028:8081   */\n      tag_292\n      jump\t// in\n    tag_445:\n        /* \"#utility.yul\":8018:8081   */\n      swap2\n      pop\n        /* \"#utility.yul\":7974:8091   */\n      pop\n        /* \"#utility.yul\":7769:8098   */\n      swap3\n      swap2\n      pop\n      pop\n      jump\t// out\n        /* \"#utility.yul\":8104:8247   */\n    tag_293:\n        /* \"#utility.yul\":8200:8206   */\n      0x00\n        /* \"#utility.yul\":8234:8239   */\n      dup2\n        /* \"#utility.yul\":8228:8240   */\n      mload\n        /* \"#utility.yul\":8218:8240   */\n      swap1\n      pop\n        /* \"#utility.yul\":8104:8247   */\n      swap2\n      swap1\n      pop\n      jump\t// out\n        /* \"#utility.yul\":8253:8466   */\n    tag_294:\n        /* \"#utility.yul\":8381:8392   */\n      0x00\n        /* \"#utility.yul\":8415:8421   */\n      dup3\n        /* \"#utility.yul\":8410:8413   */\n      dup3\n        /* \"#utility.yul\":8403:8422   */\n      mstore\n        /* \"#utility.yul\":8455:8459   */\n      0x20\n        /* \"#utility.yul\":8450:8453   */\n      dup3\n        /* \"#utility.yul\":8446:8460   */\n      add\n        /* \"#utility.yul\":8431:8460   */\n      swap1\n      pop\n        /* \"#utility.yul\":8253:8466   */\n      swap3\n      swap2\n      pop\n      pop\n      jump\t// out\n        /* \"#utility.yul\":8472:8633   */\n    tag_295:\n        /* \"#utility.yul\":8568:8572   */\n      0x00\n        /* \"#utility.yul\":8591:8594   */\n      dup2\n        /* \"#utility.yul\":8583:8594   */\n      swap1\n      pop\n        /* \"#utility.yul\":8621:8625   */\n      0x20\n        /* \"#utility.yul\":8616:8619   */\n      dup3\n        /* \"#utility.yul\":8612:8626   */\n      add\n        /* \"#utility.yul\":8604:8626   */\n      swap1\n      pop\n        /* \"#utility.yul\":8472:8633   */\n      swap2\n      swap1\n      pop\n      jump\t// out\n        /* \"#utility.yul\":8639:8798   */\n    tag_296:\n        /* \"#utility.yul\":8713:8724   */\n      0x00\n        /* \"#utility.yul\":8747:8753   */\n      dup3\n        /* \"#utility.yul\":8742:8745   */\n      dup3\n        /* \"#utility.yul\":8735:8754   */\n      mstore\n        /* \"#utility.yul\":8787:8791   */\n      0x20\n        /* \"#utility.yul\":8782:8785   */\n      dup3\n        /* \"#utility.yul\":8778:8792   */\n      add\n        /* \"#utility.yul\":8763:8792   */\n      swap1\n      pop\n        /* \"#utility.yul\":8639:8798   */\n      swap3\n      swap2\n      pop\n      pop\n      jump\t// out\n        /* \"#utility.yul\":8804:9161   */\n    tag_297:\n        /* \"#utility.yul\":8882:8885   */\n      0x00\n        /* \"#utility.yul\":8910:8949   */\n      tag_451\n        /* \"#utility.yul\":8943:8948   */\n      dup3\n        /* \"#utility.yul\":8910:8949   */\n      tag_276\n      jump\t// in\n    tag_451:\n        /* \"#utility.yul\":8965:9026   */\n      tag_452\n        /* \"#utility.yul\":9019:9025   */\n      dup2\n        /* \"#utility.yul\":9014:9017   */\n      dup6\n        /* \"#utility.yul\":8965:9026   */\n      tag_296\n      jump\t// in\n    tag_452:\n        /* \"#utility.yul\":8958:9026   */\n      swap4\n      pop\n        /* \"#utility.yul\":9035:9100   */\n      tag_453\n        /* \"#utility.yul\":9093:9099   */\n      dup2\n        /* \"#utility.yul\":9088:9091   */\n      dup6\n        /* \"#utility.yul\":9081:9085   */\n      0x20\n        /* \"#utility.yul\":9074:9079   */\n      dup7\n        /* \"#utility.yul\":9070:9086   */\n      add\n        /* \"#utility.yul\":9035:9100   */\n      tag_278\n      jump\t// in\n    tag_453:\n        /* \"#utility.yul\":9125:9154   */\n      tag_454\n        /* \"#utility.yul\":9147:9153   */\n      dup2\n        /* \"#utility.yul\":9125:9154   */\n      tag_268\n      jump\t// in\n    tag_454:\n        /* \"#utility.yul\":9120:9123   */\n      dup5\n        /* \"#utility.yul\":9116:9155   */\n      add\n        /* \"#utility.yul\":9109:9155   */\n      swap2\n      pop\n        /* \"#utility.yul\":8886:9161   */\n      pop\n        /* \"#utility.yul\":8804:9161   */\n      swap3\n      swap2\n      pop\n      pop\n      jump\t// out\n        /* \"#utility.yul\":9167:9275   */\n    tag_298:\n        /* \"#utility.yul\":9244:9268   */\n      tag_456\n        /* \"#utility.yul\":9262:9267   */\n      dup2\n        /* \"#utility.yul\":9244:9268   */\n      tag_280\n      jump\t// in\n    tag_456:\n        /* \"#utility.yul\":9239:9242   */\n      dup3\n        /* \"#utility.yul\":9232:9269   */\n      mstore\n        /* \"#utility.yul\":9167:9275   */\n      pop\n      pop\n      jump\t// out\n        /* \"#utility.yul\":9281:9389   */\n    tag_299:\n        /* \"#utility.yul\":9358:9382   */\n      tag_458\n        /* \"#utility.yul\":9376:9381   */\n      dup2\n        /* \"#utility.yul\":9358:9382   */\n      tag_287\n      jump\t// in\n    tag_458:\n        /* \"#utility.yul\":9353:9356   */\n      dup3\n        /* \"#utility.yul\":9346:9383   */\n      mstore\n        /* \"#utility.yul\":9281:9389   */\n      pop\n      pop\n      jump\t// out\n        /* \"#utility.yul\":9467:10258   */\n    tag_300:\n        /* \"#utility.yul\":9584:9587   */\n      0x00\n        /* \"#utility.yul\":9620:9624   */\n      0x60\n        /* \"#utility.yul\":9615:9618   */\n      dup4\n        /* \"#utility.yul\":9611:9625   */\n      add\n        /* \"#utility.yul\":9714:9718   */\n      0x00\n        /* \"#utility.yul\":9707:9712   */\n      dup4\n        /* \"#utility.yul\":9703:9719   */\n      add\n        /* \"#utility.yul\":9697:9720   */\n      mload\n        /* \"#utility.yul\":9767:9770   */\n      dup5\n        /* \"#utility.yul\":9761:9765   */\n      dup3\n        /* \"#utility.yul\":9757:9771   */\n      sub\n        /* \"#utility.yul\":9750:9754   */\n      0x00\n        /* \"#utility.yul\":9745:9748   */\n      dup7\n        /* \"#utility.yul\":9741:9755   */\n      add\n        /* \"#utility.yul\":9734:9772   */\n      mstore\n        /* \"#utility.yul\":9793:9866   */\n      tag_460\n        /* \"#utility.yul\":9861:9865   */\n      dup3\n        /* \"#utility.yul\":9847:9859   */\n      dup3\n        /* \"#utility.yul\":9793:9866   */\n      tag_297\n      jump\t// in\n    tag_460:\n        /* \"#utility.yul\":9785:9866   */\n      swap2\n      pop\n        /* \"#utility.yul\":9635:9877   */\n      pop\n        /* \"#utility.yul\":9964:9968   */\n      0x20\n        /* \"#utility.yul\":9957:9962   */\n      dup4\n        /* \"#utility.yul\":9953:9969   */\n      add\n        /* \"#utility.yul\":9947:9970   */\n      mload\n        /* \"#utility.yul\":9983:10046   */\n      tag_461\n        /* \"#utility.yul\":10040:10044   */\n      0x20\n        /* \"#utility.yul\":10035:10038   */\n      dup7\n        /* \"#utility.yul\":10031:10045   */\n      add\n        /* \"#utility.yul\":10017:10029   */\n      dup3\n        /* \"#utility.yul\":9983:10046   */\n      tag_298\n      jump\t// in\n    tag_461:\n        /* \"#utility.yul\":9887:10056   */\n      pop\n        /* \"#utility.yul\":10139:10143   */\n      0x40\n        /* \"#utility.yul\":10132:10137   */\n      dup4\n        /* \"#utility.yul\":10128:10144   */\n      add\n        /* \"#utility.yul\":10122:10145   */\n      mload\n        /* \"#utility.yul\":10158:10221   */\n      tag_462\n        /* \"#utility.yul\":10215:10219   */\n      0x40\n        /* \"#utility.yul\":10210:10213   */\n      dup7\n        /* \"#utility.yul\":10206:10220   */\n      add\n        /* \"#utility.yul\":10192:10204   */\n      dup3\n        /* \"#utility.yul\":10158:10221   */\n      tag_299\n      jump\t// in\n    tag_462:\n        /* \"#utility.yul\":10066:10231   */\n      pop\n        /* \"#utility.yul\":10248:10252   */\n      dup1\n        /* \"#utility.yul\":10241:10252   */\n      swap2\n      pop\n        /* \"#utility.yul\":9589:10258   */\n      pop\n        /* \"#utility.yul\":9467:10258   */\n      swap3\n      swap2\n      pop\n      pop\n      jump\t// out\n        /* \"#utility.yul\":10264:10536   */\n    tag_301:\n        /* \"#utility.yul\":10391:10401   */\n      0x00\n        /* \"#utility.yul\":10426:10530   */\n      tag_464\n        /* \"#utility.yul\":10526:10529   */\n      dup4\n        /* \"#utility.yul\":10518:10524   */\n      dup4\n        /* \"#utility.yul\":10426:10530   */\n      tag_300\n      jump\t// in\n    tag_464:\n        /* \"#utility.yul\":10412:10530   */\n      swap1\n      pop\n        /* \"#utility.yul\":10264:10536   */\n      swap3\n      swap2\n      pop\n      pop\n      jump\t// out\n        /* \"#utility.yul\":10542:10684   */\n    tag_302:\n        /* \"#utility.yul\":10641:10645   */\n      0x00\n        /* \"#utility.yul\":10673:10677   */\n      0x20\n        /* \"#utility.yul\":10668:10671   */\n      dup3\n        /* \"#utility.yul\":10664:10678   */\n      add\n        /* \"#utility.yul\":10656:10678   */\n      swap1\n      pop\n        /* \"#utility.yul\":10542:10684   */\n      swap2\n      swap1\n      pop\n      jump\t// out\n        /* \"#utility.yul\":10766:11909   */\n    tag_303:\n        /* \"#utility.yul\":10943:10946   */\n      0x00\n        /* \"#utility.yul\":10972:11055   */\n      tag_467\n        /* \"#utility.yul\":11049:11054   */\n      dup3\n        /* \"#utility.yul\":10972:11055   */\n      tag_293\n      jump\t// in\n    tag_467:\n        /* \"#utility.yul\":11071:11186   */\n      tag_468\n        /* \"#utility.yul\":11179:11185   */\n      dup2\n        /* \"#utility.yul\":11174:11177   */\n      dup6\n        /* \"#utility.yul\":11071:11186   */\n      tag_294\n      jump\t// in\n    tag_468:\n        /* \"#utility.yul\":11064:11186   */\n      swap4\n      pop\n        /* \"#utility.yul\":11212:11215   */\n      dup4\n        /* \"#utility.yul\":11257:11261   */\n      0x20\n        /* \"#utility.yul\":11249:11255   */\n      dup3\n        /* \"#utility.yul\":11245:11262   */\n      mul\n        /* \"#utility.yul\":11240:11243   */\n      dup6\n        /* \"#utility.yul\":11236:11263   */\n      add\n        /* \"#utility.yul\":11287:11372   */\n      tag_469\n        /* \"#utility.yul\":11366:11371   */\n      dup6\n        /* \"#utility.yul\":11287:11372   */\n      tag_295\n      jump\t// in\n    tag_469:\n        /* \"#utility.yul\":11395:11402   */\n      dup1\n        /* \"#utility.yul\":11426:11427   */\n      0x00\n        /* \"#utility.yul\":11411:11864   */\n    tag_470:\n        /* \"#utility.yul\":11436:11442   */\n      dup6\n        /* \"#utility.yul\":11433:11434   */\n      dup2\n        /* \"#utility.yul\":11430:11443   */\n      lt\n        /* \"#utility.yul\":11411:11864   */\n      iszero\n      tag_472\n      jumpi\n        /* \"#utility.yul\":11507:11516   */\n      dup5\n        /* \"#utility.yul\":11501:11505   */\n      dup5\n        /* \"#utility.yul\":11497:11517   */\n      sub\n        /* \"#utility.yul\":11492:11495   */\n      dup10\n        /* \"#utility.yul\":11485:11518   */\n      mstore\n        /* \"#utility.yul\":11558:11564   */\n      dup2\n        /* \"#utility.yul\":11552:11565   */\n      mload\n        /* \"#utility.yul\":11586:11708   */\n      tag_473\n        /* \"#utility.yul\":11703:11707   */\n      dup6\n        /* \"#utility.yul\":11688:11701   */\n      dup3\n        /* \"#utility.yul\":11586:11708   */\n      tag_301\n      jump\t// in\n    tag_473:\n        /* \"#utility.yul\":11578:11708   */\n      swap5\n      pop\n        /* \"#utility.yul\":11731:11820   */\n      tag_474\n        /* \"#utility.yul\":11813:11819   */\n      dup4\n        /* \"#utility.yul\":11731:11820   */\n      tag_302\n      jump\t// in\n    tag_474:\n        /* \"#utility.yul\":11721:11820   */\n      swap3\n      pop\n        /* \"#utility.yul\":11849:11853   */\n      0x20\n        /* \"#utility.yul\":11844:11847   */\n      dup11\n        /* \"#utility.yul\":11840:11854   */\n      add\n        /* \"#utility.yul\":11833:11854   */\n      swap10\n      pop\n        /* \"#utility.yul\":11471:11864   */\n      pop\n        /* \"#utility.yul\":11458:11459   */\n      0x01\n        /* \"#utility.yul\":11455:11456   */\n      dup2\n        /* \"#utility.yul\":11451:11460   */\n      add\n        /* \"#utility.yul\":11446:11460   */\n      swap1\n      pop\n        /* \"#utility.yul\":11411:11864   */\n      jump(tag_470)\n    tag_472:\n        /* \"#utility.yul\":11415:11429   */\n      pop\n        /* \"#utility.yul\":11880:11884   */\n      dup3\n        /* \"#utility.yul\":11873:11884   */\n      swap8\n      pop\n        /* \"#utility.yul\":11900:11903   */\n      dup8\n        /* \"#utility.yul\":11893:11903   */\n      swap6\n      pop\n        /* \"#utility.yul\":10948:11909   */\n      pop\n      pop\n      pop\n      pop\n      pop\n        /* \"#utility.yul\":10766:11909   */\n      swap3\n      swap2\n      pop\n      pop\n      jump\t// out\n        /* \"#utility.yul\":11915:12404   */\n    tag_46:\n        /* \"#utility.yul\":12116:12120   */\n      0x00\n        /* \"#utility.yul\":12154:12156   */\n      0x20\n        /* \"#utility.yul\":12143:12152   */\n      dup3\n        /* \"#utility.yul\":12139:12157   */\n      add\n        /* \"#utility.yul\":12131:12157   */\n      swap1\n      pop\n        /* \"#utility.yul\":12203:12212   */\n      dup2\n        /* \"#utility.yul\":12197:12201   */\n      dup2\n        /* \"#utility.yul\":12193:12213   */\n      sub\n        /* \"#utility.yul\":12189:12190   */\n      0x00\n        /* \"#utility.yul\":12178:12187   */\n      dup4\n        /* \"#utility.yul\":12174:12191   */\n      add\n        /* \"#utility.yul\":12167:12214   */\n      mstore\n        /* \"#utility.yul\":12231:12397   */\n      tag_476\n        /* \"#utility.yul\":12392:12396   */\n      dup2\n        /* \"#utility.yul\":12383:12389   */\n      dup5\n        /* \"#utility.yul\":12231:12397   */\n      tag_303\n      jump\t// in\n    tag_476:\n        /* \"#utility.yul\":12223:12397   */\n      swap1\n      pop\n        /* \"#utility.yul\":11915:12404   */\n      swap3\n      swap2\n      pop\n      pop\n      jump\t// out\n        /* \"#utility.yul\":12410:12526   */\n    tag_304:\n        /* \"#utility.yul\":12480:12501   */\n      tag_478\n        /* \"#utility.yul\":12495:12500   */\n      dup2\n        /* \"#utility.yul\":12480:12501   */\n      tag_284\n      jump\t// in\n    tag_478:\n        /* \"#utility.yul\":12473:12478   */\n      dup2\n        /* \"#utility.yul\":12470:12502   */\n      eq\n        /* \"#utility.yul\":12460:12520   */\n      tag_479\n      jumpi\n        /* \"#utility.yul\":12516:12517   */\n      0x00\n        /* \"#utility.yul\":12513:12514   */\n      0x00\n        /* \"#utility.yul\":12506:12518   */\n      revert\n        /* \"#utility.yul\":12460:12520   */\n    tag_479:\n        /* \"#utility.yul\":12410:12526   */\n      pop\n      jump\t// out\n        /* \"#utility.yul\":12532:12665   */\n    tag_305:\n        /* \"#utility.yul\":12575:12580   */\n      0x00\n        /* \"#utility.yul\":12613:12619   */\n      dup2\n        /* \"#utility.yul\":12600:12620   */\n      calldataload\n        /* \"#utility.yul\":12591:12620   */\n      swap1\n      pop\n        /* \"#utility.yul\":12629:12659   */\n      tag_481\n        /* \"#utility.yul\":12653:12658   */\n      dup2\n        /* \"#utility.yul\":12629:12659   */\n      tag_304\n      jump\t// in\n    tag_481:\n        /* \"#utility.yul\":12532:12665   */\n      swap3\n      swap2\n      pop\n      pop\n      jump\t// out\n        /* \"#utility.yul\":12671:13139   */\n    tag_49:\n        /* \"#utility.yul\":12736:12742   */\n      0x00\n        /* \"#utility.yul\":12744:12750   */\n      0x00\n        /* \"#utility.yul\":12793:12795   */\n      0x40\n        /* \"#utility.yul\":12781:12790   */\n      dup4\n        /* \"#utility.yul\":12772:12779   */\n      dup6\n        /* \"#utility.yul\":12768:12791   */\n      sub\n        /* \"#utility.yul\":12764:12796   */\n      slt\n        /* \"#utility.yul\":12761:12880   */\n      iszero\n      tag_483\n      jumpi\n        /* \"#utility.yul\":12799:12878   */\n      tag_484\n      tag_264\n      jump\t// in\n    tag_484:\n        /* \"#utility.yul\":12761:12880   */\n    tag_483:\n        /* \"#utility.yul\":12919:12920   */\n      0x00\n        /* \"#utility.yul\":12944:12997   */\n      tag_485\n        /* \"#utility.yul\":12989:12996   */\n      dup6\n        /* \"#utility.yul\":12980:12986   */\n      dup3\n        /* \"#utility.yul\":12969:12978   */\n      dup7\n        /* \"#utility.yul\":12965:12987   */\n      add\n        /* \"#utility.yul\":12944:12997   */\n      tag_292\n      jump\t// in\n    tag_485:\n        /* \"#utility.yul\":12934:12997   */\n      swap3\n      pop\n        /* \"#utility.yul\":12890:13007   */\n      pop\n        /* \"#utility.yul\":13046:13048   */\n      0x20\n        /* \"#utility.yul\":13072:13122   */\n      tag_486\n        /* \"#utility.yul\":13114:13121   */\n      dup6\n        /* \"#utility.yul\":13105:13111   */\n      dup3\n        /* \"#utility.yul\":13094:13103   */\n      dup7\n        /* \"#utility.yul\":13090:13112   */\n      add\n        /* \"#utility.yul\":13072:13122   */\n      tag_305\n      jump\t// in\n    tag_486:\n        /* \"#utility.yul\":13062:13122   */\n      swap2\n      pop\n        /* \"#utility.yul\":13017:13132   */\n      pop\n        /* \"#utility.yul\":12671:13139   */\n      swap3\n      pop\n      swap3\n      swap1\n      pop\n      jump\t// out\n        /* \"#utility.yul\":13145:13466   */\n    tag_306:\n        /* \"#utility.yul\":13232:13236   */\n      0x00\n        /* \"#utility.yul\":13322:13340   */\n      0xffffffffffffffff\n        /* \"#utility.yul\":13314:13320   */\n      dup3\n        /* \"#utility.yul\":13311:13341   */\n      gt\n        /* \"#utility.yul\":13308:13364   */\n      iszero\n      tag_488\n      jumpi\n        /* \"#utility.yul\":13344:13362   */\n      tag_489\n      tag_269\n      jump\t// in\n    tag_489:\n        /* \"#utility.yul\":13308:13364   */\n    tag_488:\n        /* \"#utility.yul\":13394:13398   */\n      0x20\n        /* \"#utility.yul\":13386:13392   */\n      dup3\n        /* \"#utility.yul\":13382:13399   */\n      mul\n        /* \"#utility.yul\":13374:13399   */\n      swap1\n      pop\n        /* \"#utility.yul\":13454:13458   */\n      0x20\n        /* \"#utility.yul\":13448:13452   */\n      dup2\n        /* \"#utility.yul\":13444:13459   */\n      add\n        /* \"#utility.yul\":13436:13459   */\n      swap1\n      pop\n        /* \"#utility.yul\":13145:13466   */\n      swap2\n      swap1\n      pop\n      jump\t// out\n        /* \"#utility.yul\":13472:13589   */\n    tag_307:\n        /* \"#utility.yul\":13581:13582   */\n      0x00\n        /* \"#utility.yul\":13578:13579   */\n      0x00\n        /* \"#utility.yul\":13571:13583   */\n      revert\n        /* \"#utility.yul\":13611:14556   */\n    tag_308:\n        /* \"#utility.yul\":13717:13722   */\n      0x00\n        /* \"#utility.yul\":13742:13833   */\n      tag_492\n        /* \"#utility.yul\":13758:13832   */\n      tag_493\n        /* \"#utility.yul\":13825:13831   */\n      dup5\n        /* \"#utility.yul\":13758:13832   */\n      tag_306\n      jump\t// in\n    tag_493:\n        /* \"#utility.yul\":13742:13833   */\n      tag_271\n      jump\t// in\n    tag_492:\n        /* \"#utility.yul\":13733:13833   */\n      swap1\n      pop\n        /* \"#utility.yul\":13853:13858   */\n      dup1\n        /* \"#utility.yul\":13882:13888   */\n      dup4\n        /* \"#utility.yul\":13875:13880   */\n      dup3\n        /* \"#utility.yul\":13868:13889   */\n      mstore\n        /* \"#utility.yul\":13916:13920   */\n      0x20\n        /* \"#utility.yul\":13909:13914   */\n      dup3\n        /* \"#utility.yul\":13905:13921   */\n      add\n        /* \"#utility.yul\":13898:13921   */\n      swap1\n      pop\n        /* \"#utility.yul\":13969:13973   */\n      0x20\n        /* \"#utility.yul\":13961:13967   */\n      dup5\n        /* \"#utility.yul\":13957:13974   */\n      mul\n        /* \"#utility.yul\":13949:13955   */\n      dup4\n        /* \"#utility.yul\":13945:13975   */\n      add\n        /* \"#utility.yul\":13998:14001   */\n      dup6\n        /* \"#utility.yul\":13990:13996   */\n      dup2\n        /* \"#utility.yul\":13987:14002   */\n      gt\n        /* \"#utility.yul\":13984:14106   */\n      iszero\n      tag_494\n      jumpi\n        /* \"#utility.yul\":14017:14096   */\n      tag_495\n      tag_307\n      jump\t// in\n    tag_495:\n        /* \"#utility.yul\":13984:14106   */\n    tag_494:\n        /* \"#utility.yul\":14132:14138   */\n      dup4\n        /* \"#utility.yul\":14115:14550   */\n    tag_496:\n        /* \"#utility.yul\":14149:14155   */\n      dup2\n        /* \"#utility.yul\":14144:14147   */\n      dup2\n        /* \"#utility.yul\":14141:14156   */\n      lt\n        /* \"#utility.yul\":14115:14550   */\n      iszero\n      tag_498\n      jumpi\n        /* \"#utility.yul\":14238:14241   */\n      dup1\n        /* \"#utility.yul\":14225:14242   */\n      calldataload\n        /* \"#utility.yul\":14274:14292   */\n      0xffffffffffffffff\n        /* \"#utility.yul\":14261:14272   */\n      dup2\n        /* \"#utility.yul\":14258:14293   */\n      gt\n        /* \"#utility.yul\":14255:14377   */\n      iszero\n      tag_499\n      jumpi\n        /* \"#utility.yul\":14296:14375   */\n      tag_500\n      tag_266\n      jump\t// in\n    tag_500:\n        /* \"#utility.yul\":14255:14377   */\n    tag_499:\n        /* \"#utility.yul\":14420:14431   */\n      dup1\n        /* \"#utility.yul\":14412:14418   */\n      dup7\n        /* \"#utility.yul\":14408:14432   */\n      add\n        /* \"#utility.yul\":14458:14505   */\n      tag_501\n        /* \"#utility.yul\":14501:14504   */\n      dup10\n        /* \"#utility.yul\":14489:14499   */\n      dup3\n        /* \"#utility.yul\":14458:14505   */\n      tag_275\n      jump\t// in\n    tag_501:\n        /* \"#utility.yul\":14453:14456   */\n      dup6\n        /* \"#utility.yul\":14446:14506   */\n      mstore\n        /* \"#utility.yul\":14535:14539   */\n      0x20\n        /* \"#utility.yul\":14530:14533   */\n      dup6\n        /* \"#utility.yul\":14526:14540   */\n      add\n        /* \"#utility.yul\":14519:14540   */\n      swap5\n      pop\n        /* \"#utility.yul\":14191:14550   */\n      pop\n      pop\n        /* \"#utility.yul\":14175:14179   */\n      0x20\n        /* \"#utility.yul\":14170:14173   */\n      dup2\n        /* \"#utility.yul\":14166:14180   */\n      add\n        /* \"#utility.yul\":14159:14180   */\n      swap1\n      pop\n        /* \"#utility.yul\":14115:14550   */\n      jump(tag_496)\n    tag_498:\n        /* \"#utility.yul\":14119:14140   */\n      pop\n        /* \"#utility.yul\":13723:14556   */\n      pop\n      pop\n        /* \"#utility.yul\":13611:14556   */\n      swap4\n      swap3\n      pop\n      pop\n      pop\n      jump\t// out\n        /* \"#utility.yul\":14578:14968   */\n    tag_309:\n        /* \"#utility.yul\":14659:14664   */\n      0x00\n        /* \"#utility.yul\":14708:14711   */\n      dup3\n        /* \"#utility.yul\":14701:14705   */\n      0x1f\n        /* \"#utility.yul\":14693:14699   */\n      dup4\n        /* \"#utility.yul\":14689:14706   */\n      add\n        /* \"#utility.yul\":14685:14712   */\n      slt\n        /* \"#utility.yul\":14675:14797   */\n      tag_503\n      jumpi\n        /* \"#utility.yul\":14716:14795   */\n      tag_504\n      tag_266\n      jump\t// in\n    tag_504:\n        /* \"#utility.yul\":14675:14797   */\n    tag_503:\n        /* \"#utility.yul\":14833:14839   */\n      dup2\n        /* \"#utility.yul\":14820:14840   */\n      calldataload\n        /* \"#utility.yul\":14858:14962   */\n      tag_505\n        /* \"#utility.yul\":14958:14961   */\n      dup5\n        /* \"#utility.yul\":14950:14956   */\n      dup3\n        /* \"#utility.yul\":14943:14947   */\n      0x20\n        /* \"#utility.yul\":14935:14941   */\n      dup7\n        /* \"#utility.yul\":14931:14948   */\n      add\n        /* \"#utility.yul\":14858:14962   */\n      tag_308\n      jump\t// in\n    tag_505:\n        /* \"#utility.yul\":14849:14962   */\n      swap2\n      pop\n        /* \"#utility.yul\":14665:14968   */\n      pop\n        /* \"#utility.yul\":14578:14968   */\n      swap3\n      swap2\n      pop\n      pop\n      jump\t// out\n        /* \"#utility.yul\":14974:15285   */\n    tag_310:\n        /* \"#utility.yul\":15051:15055   */\n      0x00\n        /* \"#utility.yul\":15141:15159   */\n      0xffffffffffffffff\n        /* \"#utility.yul\":15133:15139   */\n      dup3\n        /* \"#utility.yul\":15130:15160   */\n      gt\n        /* \"#utility.yul\":15127:15183   */\n      iszero\n      tag_507\n      jumpi\n        /* \"#utility.yul\":15163:15181   */\n      tag_508\n      tag_269\n      jump\t// in\n    tag_508:\n        /* \"#utility.yul\":15127:15183   */\n    tag_507:\n        /* \"#utility.yul\":15213:15217   */\n      0x20\n        /* \"#utility.yul\":15205:15211   */\n      dup3\n        /* \"#utility.yul\":15201:15218   */\n      mul\n        /* \"#utility.yul\":15193:15218   */\n      swap1\n      pop\n        /* \"#utility.yul\":15273:15277   */\n      0x20\n        /* \"#utility.yul\":15267:15271   */\n      dup2\n        /* \"#utility.yul\":15263:15278   */\n      add\n        /* \"#utility.yul\":15255:15278   */\n      swap1\n      pop\n        /* \"#utility.yul\":14974:15285   */\n      swap2\n      swap1\n      pop\n      jump\t// out\n        /* \"#utility.yul\":15291:15413   */\n    tag_311:\n        /* \"#utility.yul\":15364:15388   */\n      tag_510\n        /* \"#utility.yul\":15382:15387   */\n      dup2\n        /* \"#utility.yul\":15364:15388   */\n      tag_282\n      jump\t// in\n    tag_510:\n        /* \"#utility.yul\":15357:15362   */\n      dup2\n        /* \"#utility.yul\":15354:15389   */\n      eq\n        /* \"#utility.yul\":15344:15407   */\n      tag_511\n      jumpi\n        /* \"#utility.yul\":15403:15404   */\n      0x00\n        /* \"#utility.yul\":15400:15401   */\n      0x00\n        /* \"#utility.yul\":15393:15405   */\n      revert\n        /* \"#utility.yul\":15344:15407   */\n    tag_511:\n        /* \"#utility.yul\":15291:15413   */\n      pop\n      jump\t// out\n        /* \"#utility.yul\":15419:15558   */\n    tag_312:\n        /* \"#utility.yul\":15465:15470   */\n      0x00\n        /* \"#utility.yul\":15503:15509   */\n      dup2\n        /* \"#utility.yul\":15490:15510   */\n      calldataload\n        /* \"#utility.yul\":15481:15510   */\n      swap1\n      pop\n        /* \"#utility.yul\":15519:15552   */\n      tag_513\n        /* \"#utility.yul\":15546:15551   */\n      dup2\n        /* \"#utility.yul\":15519:15552   */\n      tag_311\n      jump\t// in\n    tag_513:\n        /* \"#utility.yul\":15419:15558   */\n      swap3\n      swap2\n      pop\n      pop\n      jump\t// out\n        /* \"#utility.yul\":15581:16291   */\n    tag_313:\n        /* \"#utility.yul\":15677:15682   */\n      0x00\n        /* \"#utility.yul\":15702:15783   */\n      tag_515\n        /* \"#utility.yul\":15718:15782   */\n      tag_516\n        /* \"#utility.yul\":15775:15781   */\n      dup5\n        /* \"#utility.yul\":15718:15782   */\n      tag_310\n      jump\t// in\n    tag_516:\n        /* \"#utility.yul\":15702:15783   */\n      tag_271\n      jump\t// in\n    tag_515:\n        /* \"#utility.yul\":15693:15783   */\n      swap1\n      pop\n        /* \"#utility.yul\":15803:15808   */\n      dup1\n        /* \"#utility.yul\":15832:15838   */\n      dup4\n        /* \"#utility.yul\":15825:15830   */\n      dup3\n        /* \"#utility.yul\":15818:15839   */\n      mstore\n        /* \"#utility.yul\":15866:15870   */\n      0x20\n        /* \"#utility.yul\":15859:15864   */\n      dup3\n        /* \"#utility.yul\":15855:15871   */\n      add\n        /* \"#utility.yul\":15848:15871   */\n      swap1\n      pop\n        /* \"#utility.yul\":15919:15923   */\n      0x20\n        /* \"#utility.yul\":15911:15917   */\n      dup5\n        /* \"#utility.yul\":15907:15924   */\n      mul\n        /* \"#utility.yul\":15899:15905   */\n      dup4\n        /* \"#utility.yul\":15895:15925   */\n      add\n        /* \"#utility.yul\":15948:15951   */\n      dup6\n        /* \"#utility.yul\":15940:15946   */\n      dup2\n        /* \"#utility.yul\":15937:15952   */\n      gt\n        /* \"#utility.yul\":15934:16056   */\n      iszero\n      tag_517\n      jumpi\n        /* \"#utility.yul\":15967:16046   */\n      tag_518\n      tag_307\n      jump\t// in\n    tag_518:\n        /* \"#utility.yul\":15934:16056   */\n    tag_517:\n        /* \"#utility.yul\":16082:16088   */\n      dup4\n        /* \"#utility.yul\":16065:16285   */\n    tag_519:\n        /* \"#utility.yul\":16099:16105   */\n      dup2\n        /* \"#utility.yul\":16094:16097   */\n      dup2\n        /* \"#utility.yul\":16091:16106   */\n      lt\n        /* \"#utility.yul\":16065:16285   */\n      iszero\n      tag_521\n      jumpi\n        /* \"#utility.yul\":16174:16177   */\n      dup1\n        /* \"#utility.yul\":16203:16240   */\n      tag_522\n        /* \"#utility.yul\":16236:16239   */\n      dup9\n        /* \"#utility.yul\":16224:16234   */\n      dup3\n        /* \"#utility.yul\":16203:16240   */\n      tag_312\n      jump\t// in\n    tag_522:\n        /* \"#utility.yul\":16198:16201   */\n      dup5\n        /* \"#utility.yul\":16191:16241   */\n      mstore\n        /* \"#utility.yul\":16270:16274   */\n      0x20\n        /* \"#utility.yul\":16265:16268   */\n      dup5\n        /* \"#utility.yul\":16261:16275   */\n      add\n        /* \"#utility.yul\":16254:16275   */\n      swap4\n      pop\n        /* \"#utility.yul\":16141:16285   */\n      pop\n        /* \"#utility.yul\":16125:16129   */\n      0x20\n        /* \"#utility.yul\":16120:16123   */\n      dup2\n        /* \"#utility.yul\":16116:16130   */\n      add\n        /* \"#utility.yul\":16109:16130   */\n      swap1\n      pop\n        /* \"#utility.yul\":16065:16285   */\n      jump(tag_519)\n    tag_521:\n        /* \"#utility.yul\":16069:16090   */\n      pop\n        /* \"#utility.yul\":15683:16291   */\n      pop\n      pop\n        /* \"#utility.yul\":15581:16291   */\n      swap4\n      swap3\n      pop\n      pop\n      pop\n      jump\t// out\n        /* \"#utility.yul\":16314:16684   */\n    tag_314:\n        /* \"#utility.yul\":16385:16390   */\n      0x00\n        /* \"#utility.yul\":16434:16437   */\n      dup3\n        /* \"#utility.yul\":16427:16431   */\n      0x1f\n        /* \"#utility.yul\":16419:16425   */\n      dup4\n        /* \"#utility.yul\":16415:16432   */\n      add\n        /* \"#utility.yul\":16411:16438   */\n      slt\n        /* \"#utility.yul\":16401:16523   */\n      tag_524\n      jumpi\n        /* \"#utility.yul\":16442:16521   */\n      tag_525\n      tag_266\n      jump\t// in\n    tag_525:\n        /* \"#utility.yul\":16401:16523   */\n    tag_524:\n        /* \"#utility.yul\":16559:16565   */\n      dup2\n        /* \"#utility.yul\":16546:16566   */\n      calldataload\n        /* \"#utility.yul\":16584:16678   */\n      tag_526\n        /* \"#utility.yul\":16674:16677   */\n      dup5\n        /* \"#utility.yul\":16666:16672   */\n      dup3\n        /* \"#utility.yul\":16659:16663   */\n      0x20\n        /* \"#utility.yul\":16651:16657   */\n      dup7\n        /* \"#utility.yul\":16647:16664   */\n      add\n        /* \"#utility.yul\":16584:16678   */\n      tag_313\n      jump\t// in\n    tag_526:\n        /* \"#utility.yul\":16575:16678   */\n      swap2\n      pop\n        /* \"#utility.yul\":16391:16684   */\n      pop\n        /* \"#utility.yul\":16314:16684   */\n      swap3\n      swap2\n      pop\n      pop\n      jump\t// out\n        /* \"#utility.yul\":16690:17749   */\n    tag_53:\n        /* \"#utility.yul\":16827:16833   */\n      0x00\n        /* \"#utility.yul\":16835:16841   */\n      0x00\n        /* \"#utility.yul\":16843:16849   */\n      0x00\n        /* \"#utility.yul\":16892:16894   */\n      0x60\n        /* \"#utility.yul\":16880:16889   */\n      dup5\n        /* \"#utility.yul\":16871:16878   */\n      dup7\n        /* \"#utility.yul\":16867:16890   */\n      sub\n        /* \"#utility.yul\":16863:16895   */\n      slt\n        /* \"#utility.yul\":16860:16979   */\n      iszero\n      tag_528\n      jumpi\n        /* \"#utility.yul\":16898:16977   */\n      tag_529\n      tag_264\n      jump\t// in\n    tag_529:\n        /* \"#utility.yul\":16860:16979   */\n    tag_528:\n        /* \"#utility.yul\":17018:17019   */\n      0x00\n        /* \"#utility.yul\":17043:17096   */\n      tag_530\n        /* \"#utility.yul\":17088:17095   */\n      dup7\n        /* \"#utility.yul\":17079:17085   */\n      dup3\n        /* \"#utility.yul\":17068:17077   */\n      dup8\n        /* \"#utility.yul\":17064:17086   */\n      add\n        /* \"#utility.yul\":17043:17096   */\n      tag_292\n      jump\t// in\n    tag_530:\n        /* \"#utility.yul\":17033:17096   */\n      swap4\n      pop\n        /* \"#utility.yul\":16989:17106   */\n      pop\n        /* \"#utility.yul\":17173:17175   */\n      0x20\n        /* \"#utility.yul\":17162:17171   */\n      dup5\n        /* \"#utility.yul\":17158:17176   */\n      add\n        /* \"#utility.yul\":17145:17177   */\n      calldataload\n        /* \"#utility.yul\":17204:17222   */\n      0xffffffffffffffff\n        /* \"#utility.yul\":17196:17202   */\n      dup2\n        /* \"#utility.yul\":17193:17223   */\n      gt\n        /* \"#utility.yul\":17190:17307   */\n      iszero\n      tag_531\n      jumpi\n        /* \"#utility.yul\":17226:17305   */\n      tag_532\n      tag_265\n      jump\t// in\n    tag_532:\n        /* \"#utility.yul\":17190:17307   */\n    tag_531:\n        /* \"#utility.yul\":17331:17419   */\n      tag_533\n        /* \"#utility.yul\":17411:17418   */\n      dup7\n        /* \"#utility.yul\":17402:17408   */\n      dup3\n        /* \"#utility.yul\":17391:17400   */\n      dup8\n        /* \"#utility.yul\":17387:17409   */\n      add\n        /* \"#utility.yul\":17331:17419   */\n      tag_309\n      jump\t// in\n    tag_533:\n        /* \"#utility.yul\":17321:17419   */\n      swap3\n      pop\n        /* \"#utility.yul\":17116:17429   */\n      pop\n        /* \"#utility.yul\":17496:17498   */\n      0x40\n        /* \"#utility.yul\":17485:17494   */\n      dup5\n        /* \"#utility.yul\":17481:17499   */\n      add\n        /* \"#utility.yul\":17468:17500   */\n      calldataload\n        /* \"#utility.yul\":17527:17545   */\n      0xffffffffffffffff\n        /* \"#utility.yul\":17519:17525   */\n      dup2\n        /* \"#utility.yul\":17516:17546   */\n      gt\n        /* \"#utility.yul\":17513:17630   */\n      iszero\n      tag_534\n      jumpi\n        /* \"#utility.yul\":17549:17628   */\n      tag_535\n      tag_265\n      jump\t// in\n    tag_535:\n        /* \"#utility.yul\":17513:17630   */\n    tag_534:\n        /* \"#utility.yul\":17654:17732   */\n      tag_536\n        /* \"#utility.yul\":17724:17731   */\n      dup7\n        /* \"#utility.yul\":17715:17721   */\n      dup3\n        /* \"#utility.yul\":17704:17713   */\n      dup8\n        /* \"#utility.yul\":17700:17722   */\n      add\n        /* \"#utility.yul\":17654:17732   */\n      tag_314\n      jump\t// in\n    tag_536:\n        /* \"#utility.yul\":17644:17732   */\n      swap2\n      pop\n        /* \"#utility.yul\":17439:17742   */\n      pop\n        /* \"#utility.yul\":16690:17749   */\n      swap3\n      pop\n      swap3\n      pop\n      swap3\n      jump\t// out\n        /* \"#utility.yul\":17755:18589   */\n    tag_57:\n        /* \"#utility.yul\":17843:17849   */\n      0x00\n        /* \"#utility.yul\":17851:17857   */\n      0x00\n        /* \"#utility.yul\":17900:17902   */\n      0x40\n        /* \"#utility.yul\":17888:17897   */\n      dup4\n        /* \"#utility.yul\":17879:17886   */\n      dup6\n        /* \"#utility.yul\":17875:17898   */\n      sub\n        /* \"#utility.yul\":17871:17903   */\n      slt\n        /* \"#utility.yul\":17868:17987   */\n      iszero\n      tag_538\n      jumpi\n        /* \"#utility.yul\":17906:17985   */\n      tag_539\n      tag_264\n      jump\t// in\n    tag_539:\n        /* \"#utility.yul\":17868:17987   */\n    tag_538:\n        /* \"#utility.yul\":18054:18055   */\n      0x00\n        /* \"#utility.yul\":18043:18052   */\n      dup4\n        /* \"#utility.yul\":18039:18056   */\n      add\n        /* \"#utility.yul\":18026:18057   */\n      calldataload\n        /* \"#utility.yul\":18084:18102   */\n      0xffffffffffffffff\n        /* \"#utility.yul\":18076:18082   */\n      dup2\n        /* \"#utility.yul\":18073:18103   */\n      gt\n        /* \"#utility.yul\":18070:18187   */\n      iszero\n      tag_540\n      jumpi\n        /* \"#utility.yul\":18106:18185   */\n      tag_541\n      tag_265\n      jump\t// in\n    tag_541:\n        /* \"#utility.yul\":18070:18187   */\n    tag_540:\n        /* \"#utility.yul\":18211:18274   */\n      tag_542\n        /* \"#utility.yul\":18266:18273   */\n      dup6\n        /* \"#utility.yul\":18257:18263   */\n      dup3\n        /* \"#utility.yul\":18246:18255   */\n      dup7\n        /* \"#utility.yul\":18242:18264   */\n      add\n        /* \"#utility.yul\":18211:18274   */\n      tag_275\n      jump\t// in\n    tag_542:\n        /* \"#utility.yul\":18201:18274   */\n      swap3\n      pop\n        /* \"#utility.yul\":17997:18284   */\n      pop\n        /* \"#utility.yul\":18351:18353   */\n      0x20\n        /* \"#utility.yul\":18340:18349   */\n      dup4\n        /* \"#utility.yul\":18336:18354   */\n      add\n        /* \"#utility.yul\":18323:18355   */\n      calldataload\n        /* \"#utility.yul\":18382:18400   */\n      0xffffffffffffffff\n        /* \"#utility.yul\":18374:18380   */\n      dup2\n        /* \"#utility.yul\":18371:18401   */\n      gt\n        /* \"#utility.yul\":18368:18485   */\n      iszero\n      tag_543\n      jumpi\n        /* \"#utility.yul\":18404:18483   */\n      tag_544\n      tag_265\n      jump\t// in\n    tag_544:\n        /* \"#utility.yul\":18368:18485   */\n    tag_543:\n        /* \"#utility.yul\":18509:18572   */\n      tag_545\n        /* \"#utility.yul\":18564:18571   */\n      dup6\n        /* \"#utility.yul\":18555:18561   */\n      dup3\n        /* \"#utility.yul\":18544:18553   */\n      dup7\n        /* \"#utility.yul\":18540:18562   */\n      add\n        /* \"#utility.yul\":18509:18572   */\n      tag_275\n      jump\t// in\n    tag_545:\n        /* \"#utility.yul\":18499:18572   */\n      swap2\n      pop\n        /* \"#utility.yul\":18294:18582   */\n      pop\n        /* \"#utility.yul\":17755:18589   */\n      swap3\n      pop\n      swap3\n      swap1\n      pop\n      jump\t// out\n        /* \"#utility.yul\":18595:19330   */\n    tag_64:\n        /* \"#utility.yul\":18812:18816   */\n      0x00\n        /* \"#utility.yul\":18850:18853   */\n      0x80\n        /* \"#utility.yul\":18839:18848   */\n      dup3\n        /* \"#utility.yul\":18835:18854   */\n      add\n        /* \"#utility.yul\":18827:18854   */\n      swap1\n      pop\n        /* \"#utility.yul\":18900:18909   */\n      dup2\n        /* \"#utility.yul\":18894:18898   */\n      dup2\n        /* \"#utility.yul\":18890:18910   */\n      sub\n        /* \"#utility.yul\":18886:18887   */\n      0x00\n        /* \"#utility.yul\":18875:18884   */\n      dup4\n        /* \"#utility.yul\":18871:18888   */\n      add\n        /* \"#utility.yul\":18864:18911   */\n      mstore\n        /* \"#utility.yul\":18928:19006   */\n      tag_547\n        /* \"#utility.yul\":19001:19005   */\n      dup2\n        /* \"#utility.yul\":18992:18998   */\n      dup8\n        /* \"#utility.yul\":18928:19006   */\n      tag_279\n      jump\t// in\n    tag_547:\n        /* \"#utility.yul\":18920:19006   */\n      swap1\n      pop\n        /* \"#utility.yul\":19053:19062   */\n      dup2\n        /* \"#utility.yul\":19047:19051   */\n      dup2\n        /* \"#utility.yul\":19043:19063   */\n      sub\n        /* \"#utility.yul\":19038:19040   */\n      0x20\n        /* \"#utility.yul\":19027:19036   */\n      dup4\n        /* \"#utility.yul\":19023:19041   */\n      add\n        /* \"#utility.yul\":19016:19064   */\n      mstore\n        /* \"#utility.yul\":19081:19159   */\n      tag_548\n        /* \"#utility.yul\":19154:19158   */\n      dup2\n        /* \"#utility.yul\":19145:19151   */\n      dup7\n        /* \"#utility.yul\":19081:19159   */\n      tag_279\n      jump\t// in\n    tag_548:\n        /* \"#utility.yul\":19073:19159   */\n      swap1\n      pop\n        /* \"#utility.yul\":19169:19241   */\n      tag_549\n        /* \"#utility.yul\":19237:19239   */\n      0x40\n        /* \"#utility.yul\":19226:19235   */\n      dup4\n        /* \"#utility.yul\":19222:19240   */\n      add\n        /* \"#utility.yul\":19213:19219   */\n      dup6\n        /* \"#utility.yul\":19169:19241   */\n      tag_288\n      jump\t// in\n    tag_549:\n        /* \"#utility.yul\":19251:19323   */\n      tag_550\n        /* \"#utility.yul\":19319:19321   */\n      0x60\n        /* \"#utility.yul\":19308:19317   */\n      dup4\n        /* \"#utility.yul\":19304:19322   */\n      add\n        /* \"#utility.yul\":19295:19301   */\n      dup5\n        /* \"#utility.yul\":19251:19323   */\n      tag_281\n      jump\t// in\n    tag_550:\n        /* \"#utility.yul\":18595:19330   */\n      swap6\n      swap5\n      pop\n      pop\n      pop\n      pop\n      pop\n      jump\t// out\n        /* \"#utility.yul\":19336:19810   */\n    tag_67:\n        /* \"#utility.yul\":19404:19410   */\n      0x00\n        /* \"#utility.yul\":19412:19418   */\n      0x00\n        /* \"#utility.yul\":19461:19463   */\n      0x40\n        /* \"#utility.yul\":19449:19458   */\n      dup4\n        /* \"#utility.yul\":19440:19447   */\n      dup6\n        /* \"#utility.yul\":19436:19459   */\n      sub\n        /* \"#utility.yul\":19432:19464   */\n      slt\n        /* \"#utility.yul\":19429:19548   */\n      iszero\n      tag_552\n      jumpi\n        /* \"#utility.yul\":19467:19546   */\n      tag_553\n      tag_264\n      jump\t// in\n    tag_553:\n        /* \"#utility.yul\":19429:19548   */\n    tag_552:\n        /* \"#utility.yul\":19587:19588   */\n      0x00\n        /* \"#utility.yul\":19612:19665   */\n      tag_554\n        /* \"#utility.yul\":19657:19664   */\n      dup6\n        /* \"#utility.yul\":19648:19654   */\n      dup3\n        /* \"#utility.yul\":19637:19646   */\n      dup7\n        /* \"#utility.yul\":19633:19655   */\n      add\n        /* \"#utility.yul\":19612:19665   */\n      tag_292\n      jump\t// in\n    tag_554:\n        /* \"#utility.yul\":19602:19665   */\n      swap3\n      pop\n        /* \"#utility.yul\":19558:19675   */\n      pop\n        /* \"#utility.yul\":19714:19716   */\n      0x20\n        /* \"#utility.yul\":19740:19793   */\n      tag_555\n        /* \"#utility.yul\":19785:19792   */\n      dup6\n        /* \"#utility.yul\":19776:19782   */\n      dup3\n        /* \"#utility.yul\":19765:19774   */\n      dup7\n        /* \"#utility.yul\":19761:19783   */\n      add\n        /* \"#utility.yul\":19740:19793   */\n      tag_292\n      jump\t// in\n    tag_555:\n        /* \"#utility.yul\":19730:19793   */\n      swap2\n      pop\n        /* \"#utility.yul\":19685:19803   */\n      pop\n        /* \"#utility.yul\":19336:19810   */\n      swap3\n      pop\n      swap3\n      swap1\n      pop\n      jump\t// out\n        /* \"#utility.yul\":19816:20349   */\n    tag_70:\n        /* \"#utility.yul\":19985:19989   */\n      0x00\n        /* \"#utility.yul\":20023:20025   */\n      0x60\n        /* \"#utility.yul\":20012:20021   */\n      dup3\n        /* \"#utility.yul\":20008:20026   */\n      add\n        /* \"#utility.yul\":20000:20026   */\n      swap1\n      pop\n        /* \"#utility.yul\":20072:20081   */\n      dup2\n        /* \"#utility.yul\":20066:20070   */\n      dup2\n        /* \"#utility.yul\":20062:20082   */\n      sub\n        /* \"#utility.yul\":20058:20059   */\n      0x00\n        /* \"#utility.yul\":20047:20056   */\n      dup4\n        /* \"#utility.yul\":20043:20060   */\n      add\n        /* \"#utility.yul\":20036:20083   */\n      mstore\n        /* \"#utility.yul\":20100:20178   */\n      tag_557\n        /* \"#utility.yul\":20173:20177   */\n      dup2\n        /* \"#utility.yul\":20164:20170   */\n      dup7\n        /* \"#utility.yul\":20100:20178   */\n      tag_279\n      jump\t// in\n    tag_557:\n        /* \"#utility.yul\":20092:20178   */\n      swap1\n      pop\n        /* \"#utility.yul\":20188:20260   */\n      tag_558\n        /* \"#utility.yul\":20256:20258   */\n      0x20\n        /* \"#utility.yul\":20245:20254   */\n      dup4\n        /* \"#utility.yul\":20241:20259   */\n      add\n        /* \"#utility.yul\":20232:20238   */\n      dup6\n        /* \"#utility.yul\":20188:20260   */\n      tag_281\n      jump\t// in\n    tag_558:\n        /* \"#utility.yul\":20270:20342   */\n      tag_559\n        /* \"#utility.yul\":20338:20340   */\n      0x40\n        /* \"#utility.yul\":20327:20336   */\n      dup4\n        /* \"#utility.yul\":20323:20341   */\n      add\n        /* \"#utility.yul\":20314:20320   */\n      dup5\n        /* \"#utility.yul\":20270:20342   */\n      tag_288\n      jump\t// in\n    tag_559:\n        /* \"#utility.yul\":19816:20349   */\n      swap5\n      swap4\n      pop\n      pop\n      pop\n      pop\n      jump\t// out\n        /* \"#utility.yul\":20355:20565   */\n    tag_78:\n        /* \"#utility.yul\":20442:20446   */\n      0x00\n        /* \"#utility.yul\":20480:20482   */\n      0x20\n        /* \"#utility.yul\":20469:20478   */\n      dup3\n        /* \"#utility.yul\":20465:20483   */\n      add\n        /* \"#utility.yul\":20457:20483   */\n      swap1\n      pop\n        /* \"#utility.yul\":20493:20558   */\n      tag_561\n        /* \"#utility.yul\":20555:20556   */\n      0x00\n        /* \"#utility.yul\":20544:20553   */\n      dup4\n        /* \"#utility.yul\":20540:20557   */\n      add\n        /* \"#utility.yul\":20531:20537   */\n      dup5\n        /* \"#utility.yul\":20493:20558   */\n      tag_285\n      jump\t// in\n    tag_561:\n        /* \"#utility.yul\":20355:20565   */\n      swap3\n      swap2\n      pop\n      pop\n      jump\t// out\n        /* \"#utility.yul\":20571:21627   */\n    tag_83:\n        /* \"#utility.yul\":20866:20870   */\n      0x00\n        /* \"#utility.yul\":20904:20907   */\n      0xe0\n        /* \"#utility.yul\":20893:20902   */\n      dup3\n        /* \"#utility.yul\":20889:20908   */\n      add\n        /* \"#utility.yul\":20881:20908   */\n      swap1\n      pop\n        /* \"#utility.yul\":20918:20989   */\n      tag_563\n        /* \"#utility.yul\":20986:20987   */\n      0x00\n        /* \"#utility.yul\":20975:20984   */\n      dup4\n        /* \"#utility.yul\":20971:20988   */\n      add\n        /* \"#utility.yul\":20962:20968   */\n      dup11\n        /* \"#utility.yul\":20918:20989   */\n      tag_281\n      jump\t// in\n    tag_563:\n        /* \"#utility.yul\":21036:21045   */\n      dup2\n        /* \"#utility.yul\":21030:21034   */\n      dup2\n        /* \"#utility.yul\":21026:21046   */\n      sub\n        /* \"#utility.yul\":21021:21023   */\n      0x20\n        /* \"#utility.yul\":21010:21019   */\n      dup4\n        /* \"#utility.yul\":21006:21024   */\n      add\n        /* \"#utility.yul\":20999:21047   */\n      mstore\n        /* \"#utility.yul\":21064:21142   */\n      tag_564\n        /* \"#utility.yul\":21137:21141   */\n      dup2\n        /* \"#utility.yul\":21128:21134   */\n      dup10\n        /* \"#utility.yul\":21064:21142   */\n      tag_279\n      jump\t// in\n    tag_564:\n        /* \"#utility.yul\":21056:21142   */\n      swap1\n      pop\n        /* \"#utility.yul\":21189:21198   */\n      dup2\n        /* \"#utility.yul\":21183:21187   */\n      dup2\n        /* \"#utility.yul\":21179:21199   */\n      sub\n        /* \"#utility.yul\":21174:21176   */\n      0x40\n        /* \"#utility.yul\":21163:21172   */\n      dup4\n        /* \"#utility.yul\":21159:21177   */\n      add\n        /* \"#utility.yul\":21152:21200   */\n      mstore\n        /* \"#utility.yul\":21217:21295   */\n      tag_565\n        /* \"#utility.yul\":21290:21294   */\n      dup2\n        /* \"#utility.yul\":21281:21287   */\n      dup9\n        /* \"#utility.yul\":21217:21295   */\n      tag_279\n      jump\t// in\n    tag_565:\n        /* \"#utility.yul\":21209:21295   */\n      swap1\n      pop\n        /* \"#utility.yul\":21305:21377   */\n      tag_566\n        /* \"#utility.yul\":21373:21375   */\n      0x60\n        /* \"#utility.yul\":21362:21371   */\n      dup4\n        /* \"#utility.yul\":21358:21376   */\n      add\n        /* \"#utility.yul\":21349:21355   */\n      dup8\n        /* \"#utility.yul\":21305:21377   */\n      tag_281\n      jump\t// in\n    tag_566:\n        /* \"#utility.yul\":21387:21460   */\n      tag_567\n        /* \"#utility.yul\":21455:21458   */\n      0x80\n        /* \"#utility.yul\":21444:21453   */\n      dup4\n        /* \"#utility.yul\":21440:21459   */\n      add\n        /* \"#utility.yul\":21431:21437   */\n      dup7\n        /* \"#utility.yul\":21387:21460   */\n      tag_288\n      jump\t// in\n    tag_567:\n        /* \"#utility.yul\":21470:21543   */\n      tag_568\n        /* \"#utility.yul\":21538:21541   */\n      0xa0\n        /* \"#utility.yul\":21527:21536   */\n      dup4\n        /* \"#utility.yul\":21523:21542   */\n      add\n        /* \"#utility.yul\":21514:21520   */\n      dup6\n        /* \"#utility.yul\":21470:21543   */\n      tag_281\n      jump\t// in\n    tag_568:\n        /* \"#utility.yul\":21553:21620   */\n      tag_569\n        /* \"#utility.yul\":21615:21618   */\n      0xc0\n        /* \"#utility.yul\":21604:21613   */\n      dup4\n        /* \"#utility.yul\":21600:21619   */\n      add\n        /* \"#utility.yul\":21591:21597   */\n      dup5\n        /* \"#utility.yul\":21553:21620   */\n      tag_285\n      jump\t// in\n    tag_569:\n        /* \"#utility.yul\":20571:21627   */\n      swap9\n      swap8\n      pop\n      pop\n      pop\n      pop\n      pop\n      pop\n      pop\n      pop\n      jump\t// out\n        /* \"#utility.yul\":21633:22432   */\n    tag_86:\n        /* \"#utility.yul\":21720:21726   */\n      0x00\n        /* \"#utility.yul\":21728:21734   */\n      0x00\n        /* \"#utility.yul\":21736:21742   */\n      0x00\n        /* \"#utility.yul\":21785:21787   */\n      0x60\n        /* \"#utility.yul\":21773:21782   */\n      dup5\n        /* \"#utility.yul\":21764:21771   */\n      dup7\n        /* \"#utility.yul\":21760:21783   */\n      sub\n        /* \"#utility.yul\":21756:21788   */\n      slt\n        /* \"#utility.yul\":21753:21872   */\n      iszero\n      tag_571\n      jumpi\n        /* \"#utility.yul\":21791:21870   */\n      tag_572\n      tag_264\n      jump\t// in\n    tag_572:\n        /* \"#utility.yul\":21753:21872   */\n    tag_571:\n        /* \"#utility.yul\":21911:21912   */\n      0x00\n        /* \"#utility.yul\":21936:21989   */\n      tag_573\n        /* \"#utility.yul\":21981:21988   */\n      dup7\n        /* \"#utility.yul\":21972:21978   */\n      dup3\n        /* \"#utility.yul\":21961:21970   */\n      dup8\n        /* \"#utility.yul\":21957:21979   */\n      add\n        /* \"#utility.yul\":21936:21989   */\n      tag_292\n      jump\t// in\n    tag_573:\n        /* \"#utility.yul\":21926:21989   */\n      swap4\n      pop\n        /* \"#utility.yul\":21882:21999   */\n      pop\n        /* \"#utility.yul\":22038:22040   */\n      0x20\n        /* \"#utility.yul\":22064:22117   */\n      tag_574\n        /* \"#utility.yul\":22109:22116   */\n      dup7\n        /* \"#utility.yul\":22100:22106   */\n      dup3\n        /* \"#utility.yul\":22089:22098   */\n      dup8\n        /* \"#utility.yul\":22085:22107   */\n      add\n        /* \"#utility.yul\":22064:22117   */\n      tag_290\n      jump\t// in\n    tag_574:\n        /* \"#utility.yul\":22054:22117   */\n      swap3\n      pop\n        /* \"#utility.yul\":22009:22127   */\n      pop\n        /* \"#utility.yul\":22194:22196   */\n      0x40\n        /* \"#utility.yul\":22183:22192   */\n      dup5\n        /* \"#utility.yul\":22179:22197   */\n      add\n        /* \"#utility.yul\":22166:22198   */\n      calldataload\n        /* \"#utility.yul\":22225:22243   */\n      0xffffffffffffffff\n        /* \"#utility.yul\":22217:22223   */\n      dup2\n        /* \"#utility.yul\":22214:22244   */\n      gt\n        /* \"#utility.yul\":22211:22328   */\n      iszero\n      tag_575\n      jumpi\n        /* \"#utility.yul\":22247:22326   */\n      tag_576\n      tag_265\n      jump\t// in\n    tag_576:\n        /* \"#utility.yul\":22211:22328   */\n    tag_575:\n        /* \"#utility.yul\":22352:22415   */\n      tag_577\n        /* \"#utility.yul\":22407:22414   */\n      dup7\n        /* \"#utility.yul\":22398:22404   */\n      dup3\n        /* \"#utility.yul\":22387:22396   */\n      dup8\n        /* \"#utility.yul\":22383:22405   */\n      add\n        /* \"#utility.yul\":22352:22415   */\n      tag_275\n      jump\t// in\n    tag_577:\n        /* \"#utility.yul\":22342:22415   */\n      swap2\n      pop\n        /* \"#utility.yul\":22137:22425   */\n      pop\n        /* \"#utility.yul\":21633:22432   */\n      swap3\n      pop\n      swap3\n      pop\n      swap3\n      jump\t// out\n        /* \"#utility.yul\":22438:22660   */\n    tag_91:\n        /* \"#utility.yul\":22531:22535   */\n      0x00\n        /* \"#utility.yul\":22569:22571   */\n      0x20\n        /* \"#utility.yul\":22558:22567   */\n      dup3\n        /* \"#utility.yul\":22554:22572   */\n      add\n        /* \"#utility.yul\":22546:22572   */\n      swap1\n      pop\n        /* \"#utility.yul\":22582:22653   */\n      tag_579\n        /* \"#utility.yul\":22650:22651   */\n      0x00\n        /* \"#utility.yul\":22639:22648   */\n      dup4\n        /* \"#utility.yul\":22635:22652   */\n      add\n        /* \"#utility.yul\":22626:22632   */\n      dup5\n        /* \"#utility.yul\":22582:22653   */\n      tag_288\n      jump\t// in\n    tag_579:\n        /* \"#utility.yul\":22438:22660   */\n      swap3\n      swap2\n      pop\n      pop\n      jump\t// out\n        /* \"#utility.yul\":22666:23825   */\n    tag_94:\n        /* \"#utility.yul\":22773:22779   */\n      0x00\n        /* \"#utility.yul\":22781:22787   */\n      0x00\n        /* \"#utility.yul\":22789:22795   */\n      0x00\n        /* \"#utility.yul\":22838:22840   */\n      0x60\n        /* \"#utility.yul\":22826:22835   */\n      dup5\n        /* \"#utility.yul\":22817:22824   */\n      dup7\n        /* \"#utility.yul\":22813:22836   */\n      sub\n        /* \"#utility.yul\":22809:22841   */\n      slt\n        /* \"#utility.yul\":22806:22925   */\n      iszero\n      tag_581\n      jumpi\n        /* \"#utility.yul\":22844:22923   */\n      tag_582\n      tag_264\n      jump\t// in\n    tag_582:\n        /* \"#utility.yul\":22806:22925   */\n    tag_581:\n        /* \"#utility.yul\":22992:22993   */\n      0x00\n        /* \"#utility.yul\":22981:22990   */\n      dup5\n        /* \"#utility.yul\":22977:22994   */\n      add\n        /* \"#utility.yul\":22964:22995   */\n      calldataload\n        /* \"#utility.yul\":23022:23040   */\n      0xffffffffffffffff\n        /* \"#utility.yul\":23014:23020   */\n      dup2\n        /* \"#utility.yul\":23011:23041   */\n      gt\n        /* \"#utility.yul\":23008:23125   */\n      iszero\n      tag_583\n      jumpi\n        /* \"#utility.yul\":23044:23123   */\n      tag_584\n      tag_265\n      jump\t// in\n    tag_584:\n        /* \"#utility.yul\":23008:23125   */\n    tag_583:\n        /* \"#utility.yul\":23149:23212   */\n      tag_585\n        /* \"#utility.yul\":23204:23211   */\n      dup7\n        /* \"#utility.yul\":23195:23201   */\n      dup3\n        /* \"#utility.yul\":23184:23193   */\n      dup8\n        /* \"#utility.yul\":23180:23202   */\n      add\n        /* \"#utility.yul\":23149:23212   */\n      tag_275\n      jump\t// in\n    tag_585:\n        /* \"#utility.yul\":23139:23212   */\n      swap4\n      pop\n        /* \"#utility.yul\":22935:23222   */\n      pop\n        /* \"#utility.yul\":23289:23291   */\n      0x20\n        /* \"#utility.yul\":23278:23287   */\n      dup5\n        /* \"#utility.yul\":23274:23292   */\n      add\n        /* \"#utility.yul\":23261:23293   */\n      calldataload\n        /* \"#utility.yul\":23320:23338   */\n      0xffffffffffffffff\n        /* \"#utility.yul\":23312:23318   */\n      dup2\n        /* \"#utility.yul\":23309:23339   */\n      gt\n        /* \"#utility.yul\":23306:23423   */\n      iszero\n      tag_586\n      jumpi\n        /* \"#utility.yul\":23342:23421   */\n      tag_587\n      tag_265\n      jump\t// in\n    tag_587:\n        /* \"#utility.yul\":23306:23423   */\n    tag_586:\n        /* \"#utility.yul\":23447:23510   */\n      tag_588\n        /* \"#utility.yul\":23502:23509   */\n      dup7\n        /* \"#utility.yul\":23493:23499   */\n      dup3\n        /* \"#utility.yul\":23482:23491   */\n      dup8\n        /* \"#utility.yul\":23478:23500   */\n      add\n        /* \"#utility.yul\":23447:23510   */\n      tag_275\n      jump\t// in\n    tag_588:\n        /* \"#utility.yul\":23437:23510   */\n      swap3\n      pop\n        /* \"#utility.yul\":23232:23520   */\n      pop\n        /* \"#utility.yul\":23587:23589   */\n      0x40\n        /* \"#utility.yul\":23576:23585   */\n      dup5\n        /* \"#utility.yul\":23572:23590   */\n      add\n        /* \"#utility.yul\":23559:23591   */\n      calldataload\n        /* \"#utility.yul\":23618:23636   */\n      0xffffffffffffffff\n        /* \"#utility.yul\":23610:23616   */\n      dup2\n        /* \"#utility.yul\":23607:23637   */\n      gt\n        /* \"#utility.yul\":23604:23721   */\n      iszero\n      tag_589\n      jumpi\n        /* \"#utility.yul\":23640:23719   */\n      tag_590\n      tag_265\n      jump\t// in\n    tag_590:\n        /* \"#utility.yul\":23604:23721   */\n    tag_589:\n        /* \"#utility.yul\":23745:23808   */\n      tag_591\n        /* \"#utility.yul\":23800:23807   */\n      dup7\n        /* \"#utility.yul\":23791:23797   */\n      dup3\n        /* \"#utility.yul\":23780:23789   */\n      dup8\n        /* \"#utility.yul\":23776:23798   */\n      add\n        /* \"#utility.yul\":23745:23808   */\n      tag_275\n      jump\t// in\n    tag_591:\n        /* \"#utility.yul\":23735:23808   */\n      swap2\n      pop\n        /* \"#utility.yul\":23530:23818   */\n      pop\n        /* \"#utility.yul\":22666:23825   */\n      swap3\n      pop\n      swap3\n      pop\n      swap3\n      jump\t// out\n        /* \"#utility.yul\":23831:24011   */\n    tag_315:\n        /* \"#utility.yul\":23879:23956   */\n      0x4e487b7100000000000000000000000000000000000000000000000000000000\n        /* \"#utility.yul\":23876:23877   */\n      0x00\n        /* \"#utility.yul\":23869:23957   */\n      mstore\n        /* \"#utility.yul\":23976:23980   */\n      0x22\n        /* \"#utility.yul\":23973:23974   */\n      0x04\n        /* \"#utility.yul\":23966:23981   */\n      mstore\n        /* \"#utility.yul\":24000:24004   */\n      0x24\n        /* \"#utility.yul\":23997:23998   */\n      0x00\n        /* \"#utility.yul\":23990:24005   */\n      revert\n        /* \"#utility.yul\":24017:24337   */\n    tag_97:\n        /* \"#utility.yul\":24061:24067   */\n      0x00\n        /* \"#utility.yul\":24098:24099   */\n      0x02\n        /* \"#utility.yul\":24092:24096   */\n      dup3\n        /* \"#utility.yul\":24088:24100   */\n      div\n        /* \"#utility.yul\":24078:24100   */\n      swap1\n      pop\n        /* \"#utility.yul\":24145:24146   */\n      0x01\n        /* \"#utility.yul\":24139:24143   */\n      dup3\n        /* \"#utility.yul\":24135:24147   */\n      and\n        /* \"#utility.yul\":24166:24184   */\n      dup1\n        /* \"#utility.yul\":24156:24237   */\n      tag_594\n      jumpi\n        /* \"#utility.yul\":24222:24226   */\n      0x7f\n        /* \"#utility.yul\":24214:24220   */\n      dup3\n        /* \"#utility.yul\":24210:24227   */\n      and\n        /* \"#utility.yul\":24200:24227   */\n      swap2\n      pop\n        /* \"#utility.yul\":24156:24237   */\n    tag_594:\n        /* \"#utility.yul\":24284:24286   */\n      0x20\n        /* \"#utility.yul\":24276:24282   */\n      dup3\n        /* \"#utility.yul\":24273:24287   */\n      lt\n        /* \"#utility.yul\":24253:24271   */\n      dup2\n        /* \"#utility.yul\":24250:24288   */\n      sub\n        /* \"#utility.yul\":24247:24331   */\n      tag_595\n      jumpi\n        /* \"#utility.yul\":24303:24321   */\n      tag_596\n      tag_315\n      jump\t// in\n    tag_596:\n        /* \"#utility.yul\":24247:24331   */\n    tag_595:\n        /* \"#utility.yul\":24068:24337   */\n      pop\n        /* \"#utility.yul\":24017:24337   */\n      swap2\n      swap1\n      pop\n      jump\t// out\n        /* \"#utility.yul\":24343:24658   */\n    tag_316:\n        /* \"#utility.yul\":24483:24549   */\n      0x4368e1bb892041646d696e206de1bb9b6920c491c6b0e1bba363207468e1bbb1\n        /* \"#utility.yul\":24479:24480   */\n      0x00\n        /* \"#utility.yul\":24471:24477   */\n      dup3\n        /* \"#utility.yul\":24467:24481   */\n      add\n        /* \"#utility.yul\":24460:24550   */\n      mstore\n        /* \"#utility.yul\":24584:24650   */\n      0x63206869e1bb876e000000000000000000000000000000000000000000000000\n        /* \"#utility.yul\":24579:24581   */\n      0x20\n        /* \"#utility.yul\":24571:24577   */\n      dup3\n        /* \"#utility.yul\":24567:24582   */\n      add\n        /* \"#utility.yul\":24560:24651   */\n      mstore\n        /* \"#utility.yul\":24343:24658   */\n      pop\n      jump\t// out\n        /* \"#utility.yul\":24664:25030   */\n    tag_317:\n        /* \"#utility.yul\":24806:24809   */\n      0x00\n        /* \"#utility.yul\":24827:24894   */\n      tag_599\n        /* \"#utility.yul\":24891:24893   */\n      0x28\n        /* \"#utility.yul\":24886:24889   */\n      dup4\n        /* \"#utility.yul\":24827:24894   */\n      tag_277\n      jump\t// in\n    tag_599:\n        /* \"#utility.yul\":24820:24894   */\n      swap2\n      pop\n        /* \"#utility.yul\":24903:24996   */\n      tag_600\n        /* \"#utility.yul\":24992:24995   */\n      dup3\n        /* \"#utility.yul\":24903:24996   */\n      tag_316\n      jump\t// in\n    tag_600:\n        /* \"#utility.yul\":25021:25023   */\n      0x40\n        /* \"#utility.yul\":25016:25019   */\n      dup3\n        /* \"#utility.yul\":25012:25024   */\n      add\n        /* \"#utility.yul\":25005:25024   */\n      swap1\n      pop\n        /* \"#utility.yul\":24664:25030   */\n      swap2\n      swap1\n      pop\n      jump\t// out\n        /* \"#utility.yul\":25036:25455   */\n    tag_110:\n        /* \"#utility.yul\":25202:25206   */\n      0x00\n        /* \"#utility.yul\":25240:25242   */\n      0x20\n        /* \"#utility.yul\":25229:25238   */\n      dup3\n        /* \"#utility.yul\":25225:25243   */\n      add\n        /* \"#utility.yul\":25217:25243   */\n      swap1\n      pop\n        /* \"#utility.yul\":25289:25298   */\n      dup2\n        /* \"#utility.yul\":25283:25287   */\n      dup2\n        /* \"#utility.yul\":25279:25299   */\n      sub\n        /* \"#utility.yul\":25275:25276   */\n      0x00\n        /* \"#utility.yul\":25264:25273   */\n      dup4\n        /* \"#utility.yul\":25260:25277   */\n      add\n        /* \"#utility.yul\":25253:25300   */\n      mstore\n        /* \"#utility.yul\":25317:25448   */\n      tag_602\n        /* \"#utility.yul\":25443:25447   */\n      dup2\n        /* \"#utility.yul\":25317:25448   */\n      tag_317\n      jump\t// in\n    tag_602:\n        /* \"#utility.yul\":25309:25448   */\n      swap1\n      pop\n        /* \"#utility.yul\":25036:25455   */\n      swap2\n      swap1\n      pop\n      jump\t// out\n        /* \"#utility.yul\":25461:25609   */\n    tag_318:\n        /* \"#utility.yul\":25563:25574   */\n      0x00\n        /* \"#utility.yul\":25600:25603   */\n      dup2\n        /* \"#utility.yul\":25585:25603   */\n      swap1\n      pop\n        /* \"#utility.yul\":25461:25609   */\n      swap3\n      swap2\n      pop\n      pop\n      jump\t// out\n        /* \"#utility.yul\":25615:26005   */\n    tag_319:\n        /* \"#utility.yul\":25721:25724   */\n      0x00\n        /* \"#utility.yul\":25749:25788   */\n      tag_605\n        /* \"#utility.yul\":25782:25787   */\n      dup3\n        /* \"#utility.yul\":25749:25788   */\n      tag_276\n      jump\t// in\n    tag_605:\n        /* \"#utility.yul\":25804:25893   */\n      tag_606\n        /* \"#utility.yul\":25886:25892   */\n      dup2\n        /* \"#utility.yul\":25881:25884   */\n      dup6\n        /* \"#utility.yul\":25804:25893   */\n      tag_318\n      jump\t// in\n    tag_606:\n        /* \"#utility.yul\":25797:25893   */\n      swap4\n      pop\n        /* \"#utility.yul\":25902:25967   */\n      tag_607\n        /* \"#utility.yul\":25960:25966   */\n      dup2\n        /* \"#utility.yul\":25955:25958   */\n      dup6\n        /* \"#utility.yul\":25948:25952   */\n      0x20\n        /* \"#utility.yul\":25941:25946   */\n      dup7\n        /* \"#utility.yul\":25937:25953   */\n      add\n        /* \"#utility.yul\":25902:25967   */\n      tag_278\n      jump\t// in\n    tag_607:\n        /* \"#utility.yul\":25992:25998   */\n      dup1\n        /* \"#utility.yul\":25987:25990   */\n      dup5\n        /* \"#utility.yul\":25983:25999   */\n      add\n        /* \"#utility.yul\":25976:25999   */\n      swap2\n      pop\n        /* \"#utility.yul\":25725:26005   */\n      pop\n        /* \"#utility.yul\":25615:26005   */\n      swap3\n      swap2\n      pop\n      pop\n      jump\t// out\n        /* \"#utility.yul\":26011:26286   */\n    tag_114:\n        /* \"#utility.yul\":26143:26146   */\n      0x00\n        /* \"#utility.yul\":26165:26260   */\n      tag_609\n        /* \"#utility.yul\":26256:26259   */\n      dup3\n        /* \"#utility.yul\":26247:26253   */\n      dup5\n        /* \"#utility.yul\":26165:26260   */\n      tag_319\n      jump\t// in\n    tag_609:\n        /* \"#utility.yul\":26158:26260   */\n      swap2\n      pop\n        /* \"#utility.yul\":26277:26280   */\n      dup2\n        /* \"#utility.yul\":26270:26280   */\n      swap1\n      pop\n        /* \"#utility.yul\":26011:26286   */\n      swap3\n      swap2\n      pop\n      pop\n      jump\t// out\n        /* \"#utility.yul\":26292:26506   */\n    tag_320:\n        /* \"#utility.yul\":26432:26498   */\n      0x4cc3b42068c3a06e67206b68c3b46e672074e1bb936e2074e1baa16900000000\n        /* \"#utility.yul\":26428:26429   */\n      0x00\n        /* \"#utility.yul\":26420:26426   */\n      dup3\n        /* \"#utility.yul\":26416:26430   */\n      add\n        /* \"#utility.yul\":26409:26499   */\n      mstore\n        /* \"#utility.yul\":26292:26506   */\n      pop\n      jump\t// out\n        /* \"#utility.yul\":26512:26878   */\n    tag_321:\n        /* \"#utility.yul\":26654:26657   */\n      0x00\n        /* \"#utility.yul\":26675:26742   */\n      tag_612\n        /* \"#utility.yul\":26739:26741   */\n      0x1c\n        /* \"#utility.yul\":26734:26737   */\n      dup4\n        /* \"#utility.yul\":26675:26742   */\n      tag_277\n      jump\t// in\n    tag_612:\n        /* \"#utility.yul\":26668:26742   */\n      swap2\n      pop\n        /* \"#utility.yul\":26751:26844   */\n      tag_613\n        /* \"#utility.yul\":26840:26843   */\n      dup3\n        /* \"#utility.yul\":26751:26844   */\n      tag_320\n      jump\t// in\n    tag_613:\n        /* \"#utility.yul\":26869:26871   */\n      0x20\n        /* \"#utility.yul\":26864:26867   */\n      dup3\n        /* \"#utility.yul\":26860:26872   */\n      add\n        /* \"#utility.yul\":26853:26872   */\n      swap1\n      pop\n        /* \"#utility.yul\":26512:26878   */\n      swap2\n      swap1\n      pop\n      jump\t// out\n        /* \"#utility.yul\":26884:27303   */\n    tag_146:\n        /* \"#utility.yul\":27050:27054   */\n      0x00\n        /* \"#utility.yul\":27088:27090   */\n      0x20\n        /* \"#utility.yul\":27077:27086   */\n      dup3\n        /* \"#utility.yul\":27073:27091   */\n      add\n        /* \"#utility.yul\":27065:27091   */\n      swap1\n      pop\n        /* \"#utility.yul\":27137:27146   */\n      dup2\n        /* \"#utility.yul\":27131:27135   */\n      dup2\n        /* \"#utility.yul\":27127:27147   */\n      sub\n        /* \"#utility.yul\":27123:27124   */\n      0x00\n        /* \"#utility.yul\":27112:27121   */\n      dup4\n        /* \"#utility.yul\":27108:27125   */\n      add\n        /* \"#utility.yul\":27101:27148   */\n      mstore\n        /* \"#utility.yul\":27165:27296   */\n      tag_615\n        /* \"#utility.yul\":27291:27295   */\n      dup2\n        /* \"#utility.yul\":27165:27296   */\n      tag_321\n      jump\t// in\n    tag_615:\n        /* \"#utility.yul\":27157:27296   */\n      swap1\n      pop\n        /* \"#utility.yul\":26884:27303   */\n      swap2\n      swap1\n      pop\n      jump\t// out\n        /* \"#utility.yul\":27309:27450   */\n    tag_322:\n        /* \"#utility.yul\":27358:27362   */\n      0x00\n        /* \"#utility.yul\":27381:27384   */\n      dup2\n        /* \"#utility.yul\":27373:27384   */\n      swap1\n      pop\n        /* \"#utility.yul\":27404:27407   */\n      dup2\n        /* \"#utility.yul\":27401:27402   */\n      0x00\n        /* \"#utility.yul\":27394:27408   */\n      mstore\n        /* \"#utility.yul\":27438:27442   */\n      0x20\n        /* \"#utility.yul\":27435:27436   */\n      0x00\n        /* \"#utility.yul\":27425:27443   */\n      keccak256\n        /* \"#utility.yul\":27417:27443   */\n      swap1\n      pop\n        /* \"#utility.yul\":27309:27450   */\n      swap2\n      swap1\n      pop\n      jump\t// out\n        /* \"#utility.yul\":27456:27549   */\n    tag_323:\n        /* \"#utility.yul\":27493:27499   */\n      0x00\n        /* \"#utility.yul\":27540:27542   */\n      0x20\n        /* \"#utility.yul\":27535:27537   */\n      0x1f\n        /* \"#utility.yul\":27528:27533   */\n      dup4\n        /* \"#utility.yul\":27524:27538   */\n      add\n        /* \"#utility.yul\":27520:27543   */\n      div\n        /* \"#utility.yul\":27510:27543   */\n      swap1\n      pop\n        /* \"#utility.yul\":27456:27549   */\n      swap2\n      swap1\n      pop\n      jump\t// out\n        /* \"#utility.yul\":27555:27662   */\n    tag_324:\n        /* \"#utility.yul\":27599:27607   */\n      0x00\n        /* \"#utility.yul\":27649:27654   */\n      dup3\n        /* \"#utility.yul\":27643:27647   */\n      dup3\n        /* \"#utility.yul\":27639:27655   */\n      shl\n        /* \"#utility.yul\":27618:27655   */\n      swap1\n      pop\n        /* \"#utility.yul\":27555:27662   */\n      swap3\n      swap2\n      pop\n      pop\n      jump\t// out\n        /* \"#utility.yul\":27668:28061   */\n    tag_325:\n        /* \"#utility.yul\":27737:27743   */\n      0x00\n        /* \"#utility.yul\":27787:27788   */\n      0x08\n        /* \"#utility.yul\":27775:27785   */\n      dup4\n        /* \"#utility.yul\":27771:27789   */\n      mul\n        /* \"#utility.yul\":27810:27907   */\n      tag_620\n        /* \"#utility.yul\":27840:27906   */\n      0xffffffffffffffffffffffffffffffffffffffffffffffffffffffffffffffff\n        /* \"#utility.yul\":27829:27838   */\n      dup3\n        /* \"#utility.yul\":27810:27907   */\n      tag_324\n      jump\t// in\n    tag_620:\n        /* \"#utility.yul\":27928:27967   */\n      tag_621\n        /* \"#utility.yul\":27958:27966   */\n      dup7\n        /* \"#utility.yul\":27947:27956   */\n      dup4\n        /* \"#utility.yul\":27928:27967   */\n      tag_324\n      jump\t// in\n    tag_621:\n        /* \"#utility.yul\":27916:27967   */\n      swap6\n      pop\n        /* \"#utility.yul\":28000:28004   */\n      dup1\n        /* \"#utility.yul\":27996:28005   */\n      not\n        /* \"#utility.yul\":27989:27994   */\n      dup5\n        /* \"#utility.yul\":27985:28006   */\n      and\n        /* \"#utility.yul\":27976:28006   */\n      swap4\n      pop\n        /* \"#utility.yul\":28049:28053   */\n      dup1\n        /* \"#utility.yul\":28039:28047   */\n      dup7\n        /* \"#utility.yul\":28035:28054   */\n      and\n        /* \"#utility.yul\":28028:28033   */\n      dup5\n        /* \"#utility.yul\":28025:28055   */\n      or\n        /* \"#utility.yul\":28015:28055   */\n      swap3\n      pop\n        /* \"#utility.yul\":27744:28061   */\n      pop\n      pop\n        /* \"#utility.yul\":27668:28061   */\n      swap4\n      swap3\n      pop\n      pop\n      pop\n      jump\t// out\n        /* \"#utility.yul\":28067:28127   */\n    tag_326:\n        /* \"#utility.yul\":28095:28098   */\n      0x00\n        /* \"#utility.yul\":28116:28121   */\n      dup2\n        /* \"#utility.yul\":28109:28121   */\n      swap1\n      pop\n        /* \"#utility.yul\":28067:28127   */\n      swap2\n      swap1\n      pop\n      jump\t// out\n        /* \"#utility.yul\":28133:28275   */\n    tag_327:\n        /* \"#utility.yul\":28183:28192   */\n      0x00\n        /* \"#utility.yul\":28216:28269   */\n      tag_624\n        /* \"#utility.yul\":28234:28268   */\n      tag_625\n        /* \"#utility.yul\":28243:28267   */\n      tag_626\n        /* \"#utility.yul\":28261:28266   */\n      dup5\n        /* \"#utility.yul\":28243:28267   */\n      tag_280\n      jump\t// in\n    tag_626:\n        /* \"#utility.yul\":28234:28268   */\n      tag_326\n      jump\t// in\n    tag_625:\n        /* \"#utility.yul\":28216:28269   */\n      tag_280\n      jump\t// in\n    tag_624:\n        /* \"#utility.yul\":28203:28269   */\n      swap1\n      pop\n        /* \"#utility.yul\":28133:28275   */\n      swap2\n      swap1\n      pop\n      jump\t// out\n        /* \"#utility.yul\":28281:28356   */\n    tag_328:\n        /* \"#utility.yul\":28324:28327   */\n      0x00\n        /* \"#utility.yul\":28345:28350   */\n      dup2\n        /* \"#utility.yul\":28338:28350   */\n      swap1\n      pop\n        /* \"#utility.yul\":28281:28356   */\n      swap2\n      swap1\n      pop\n      jump\t// out\n        /* \"#utility.yul\":28362:28631   */\n    tag_329:\n        /* \"#utility.yul\":28472:28511   */\n      tag_629\n        /* \"#utility.yul\":28503:28510   */\n      dup4\n        /* \"#utility.yul\":28472:28511   */\n      tag_327\n      jump\t// in\n    tag_629:\n        /* \"#utility.yul\":28533:28624   */\n      tag_630\n        /* \"#utility.yul\":28582:28623   */\n      tag_631\n        /* \"#utility.yul\":28606:28622   */\n      dup3\n        /* \"#utility.yul\":28582:28623   */\n      tag_328\n      jump\t// in\n    tag_631:\n        /* \"#utility.yul\":28574:28580   */\n      dup5\n        /* \"#utility.yul\":28567:28571   */\n      dup5\n        /* \"#utility.yul\":28561:28572   */\n      sload\n        /* \"#utility.yul\":28533:28624   */\n      tag_325\n      jump\t// in\n    tag_630:\n        /* \"#utility.yul\":28527:28531   */\n      dup3\n        /* \"#utility.yul\":28520:28625   */\n      sstore\n        /* \"#utility.yul\":28438:28631   */\n      pop\n        /* \"#utility.yul\":28362:28631   */\n      pop\n      pop\n      pop\n      jump\t// out\n        /* \"#utility.yul\":28637:28710   */\n    tag_330:\n        /* \"#utility.yul\":28682:28685   */\n      0x00\n        /* \"#utility.yul\":28703:28704   */\n      0x00\n        /* \"#utility.yul\":28696:28704   */\n      swap1\n      pop\n        /* \"#utility.yul\":28637:28710   */\n      swap1\n      jump\t// out\n        /* \"#utility.yul\":28716:28905   */\n    tag_331:\n        /* \"#utility.yul\":28793:28825   */\n      tag_634\n      tag_330\n      jump\t// in\n    tag_634:\n        /* \"#utility.yul\":28834:28899   */\n      tag_635\n        /* \"#utility.yul\":28892:28898   */\n      dup2\n        /* \"#utility.yul\":28884:28890   */\n      dup5\n        /* \"#utility.yul\":28878:28882   */\n      dup5\n        /* \"#utility.yul\":28834:28899   */\n      tag_329\n      jump\t// in\n    tag_635:\n        /* \"#utility.yul\":28769:28905   */\n      pop\n        /* \"#utility.yul\":28716:28905   */\n      pop\n      pop\n      jump\t// out\n        /* \"#utility.yul\":28911:29097   */\n    tag_332:\n        /* \"#utility.yul\":28971:29091   */\n    tag_637:\n        /* \"#utility.yul\":28988:28991   */\n      dup2\n        /* \"#utility.yul\":28981:28986   */\n      dup2\n        /* \"#utility.yul\":28978:28992   */\n      lt\n        /* \"#utility.yul\":28971:29091   */\n      iszero\n      tag_639\n      jumpi\n        /* \"#utility.yul\":29042:29081   */\n      tag_640\n        /* \"#utility.yul\":29079:29080   */\n      0x00\n        /* \"#utility.yul\":29072:29077   */\n      dup3\n        /* \"#utility.yul\":29042:29081   */\n      tag_331\n      jump\t// in\n    tag_640:\n        /* \"#utility.yul\":29015:29016   */\n      0x01\n        /* \"#utility.yul\":29008:29013   */\n      dup2\n        /* \"#utility.yul\":29004:29017   */\n      add\n        /* \"#utility.yul\":28995:29017   */\n      swap1\n      pop\n        /* \"#utility.yul\":28971:29091   */\n      jump(tag_637)\n    tag_639:\n        /* \"#utility.yul\":28911:29097   */\n      pop\n      pop\n      jump\t// out\n        /* \"#utility.yul\":29103:29646   */\n    tag_333:\n        /* \"#utility.yul\":29204:29206   */\n      0x1f\n        /* \"#utility.yul\":29199:29202   */\n      dup3\n        /* \"#utility.yul\":29196:29207   */\n      gt\n        /* \"#utility.yul\":29193:29639   */\n      iszero\n      tag_642\n      jumpi\n        /* \"#utility.yul\":29238:29276   */\n      tag_643\n        /* \"#utility.yul\":29270:29275   */\n      dup2\n        /* \"#utility.yul\":29238:29276   */\n      tag_322\n      jump\t// in\n    tag_643:\n        /* \"#utility.yul\":29322:29351   */\n      tag_644\n        /* \"#utility.yul\":29340:29350   */\n      dup5\n        /* \"#utility.yul\":29322:29351   */\n      tag_323\n      jump\t// in\n    tag_644:\n        /* \"#utility.yul\":29312:29320   */\n      dup2\n        /* \"#utility.yul\":29308:29352   */\n      add\n        /* \"#utility.yul\":29505:29507   */\n      0x20\n        /* \"#utility.yul\":29493:29503   */\n      dup6\n        /* \"#utility.yul\":29490:29508   */\n      lt\n        /* \"#utility.yul\":29487:29536   */\n      iszero\n      tag_645\n      jumpi\n        /* \"#utility.yul\":29526:29534   */\n      dup2\n        /* \"#utility.yul\":29511:29534   */\n      swap1\n      pop\n        /* \"#utility.yul\":29487:29536   */\n    tag_645:\n        /* \"#utility.yul\":29549:29629   */\n      tag_646\n        /* \"#utility.yul\":29605:29627   */\n      tag_647\n        /* \"#utility.yul\":29623:29626   */\n      dup6\n        /* \"#utility.yul\":29605:29627   */\n      tag_323\n      jump\t// in\n    tag_647:\n        /* \"#utility.yul\":29595:29603   */\n      dup4\n        /* \"#utility.yul\":29591:29628   */\n      add\n        /* \"#utility.yul\":29578:29589   */\n      dup3\n        /* \"#utility.yul\":29549:29629   */\n      tag_332\n      jump\t// in\n    tag_646:\n        /* \"#utility.yul\":29208:29639   */\n      pop\n      pop\n        /* \"#utility.yul\":29193:29639   */\n    tag_642:\n        /* \"#utility.yul\":29103:29646   */\n      pop\n      pop\n      pop\n      jump\t// out\n        /* \"#utility.yul\":29652:29769   */\n    tag_334:\n        /* \"#utility.yul\":29706:29714   */\n      0x00\n        /* \"#utility.yul\":29756:29761   */\n      dup3\n        /* \"#utility.yul\":29750:29754   */\n      dup3\n        /* \"#utility.yul\":29746:29762   */\n      shr\n        /* \"#utility.yul\":29725:29762   */\n      swap1\n      pop\n        /* \"#utility.yul\":29652:29769   */\n      swap3\n      swap2\n      pop\n      pop\n      jump\t// out\n        /* \"#utility.yul\":29775:29944   */\n    tag_335:\n        /* \"#utility.yul\":29819:29825   */\n      0x00\n        /* \"#utility.yul\":29852:29903   */\n      tag_650\n        /* \"#utility.yul\":29900:29901   */\n      0x00\n        /* \"#utility.yul\":29896:29902   */\n      not\n        /* \"#utility.yul\":29888:29893   */\n      dup5\n        /* \"#utility.yul\":29885:29886   */\n      0x08\n        /* \"#utility.yul\":29881:29894   */\n      mul\n        /* \"#utility.yul\":29852:29903   */\n      tag_334\n      jump\t// in\n    tag_650:\n        /* \"#utility.yul\":29848:29904   */\n      not\n        /* \"#utility.yul\":29933:29937   */\n      dup1\n        /* \"#utility.yul\":29927:29931   */\n      dup4\n        /* \"#utility.yul\":29923:29938   */\n      and\n        /* \"#utility.yul\":29913:29938   */\n      swap2\n      pop\n        /* \"#utility.yul\":29826:29944   */\n      pop\n        /* \"#utility.yul\":29775:29944   */\n      swap3\n      swap2\n      pop\n      pop\n      jump\t// out\n        /* \"#utility.yul\":29949:30244   */\n    tag_336:\n        /* \"#utility.yul\":30025:30029   */\n      0x00\n        /* \"#utility.yul\":30171:30200   */\n      tag_652\n        /* \"#utility.yul\":30196:30199   */\n      dup4\n        /* \"#utility.yul\":30190:30194   */\n      dup4\n        /* \"#utility.yul\":30171:30200   */\n      tag_335\n      jump\t// in\n    tag_652:\n        /* \"#utility.yul\":30163:30200   */\n      swap2\n      pop\n        /* \"#utility.yul\":30233:30236   */\n      dup3\n        /* \"#utility.yul\":30230:30231   */\n      0x02\n        /* \"#utility.yul\":30226:30237   */\n      mul\n        /* \"#utility.yul\":30220:30224   */\n      dup3\n        /* \"#utility.yul\":30217:30238   */\n      or\n        /* \"#utility.yul\":30209:30238   */\n      swap1\n      pop\n        /* \"#utility.yul\":29949:30244   */\n      swap3\n      swap2\n      pop\n      pop\n      jump\t// out\n        /* \"#utility.yul\":30249:31644   */\n    tag_150:\n        /* \"#utility.yul\":30366:30403   */\n      tag_654\n        /* \"#utility.yul\":30399:30402   */\n      dup3\n        /* \"#utility.yul\":30366:30403   */\n      tag_276\n      jump\t// in\n    tag_654:\n        /* \"#utility.yul\":30468:30486   */\n      0xffffffffffffffff\n        /* \"#utility.yul\":30460:30466   */\n      dup2\n        /* \"#utility.yul\":30457:30487   */\n      gt\n        /* \"#utility.yul\":30454:30510   */\n      iszero\n      tag_655\n      jumpi\n        /* \"#utility.yul\":30490:30508   */\n      tag_656\n      tag_269\n      jump\t// in\n    tag_656:\n        /* \"#utility.yul\":30454:30510   */\n    tag_655:\n        /* \"#utility.yul\":30534:30572   */\n      tag_657\n        /* \"#utility.yul\":30566:30570   */\n      dup3\n        /* \"#utility.yul\":30560:30571   */\n      sload\n        /* \"#utility.yul\":30534:30572   */\n      tag_97\n      jump\t// in\n    tag_657:\n        /* \"#utility.yul\":30619:30686   */\n      tag_658\n        /* \"#utility.yul\":30679:30685   */\n      dup3\n        /* \"#utility.yul\":30671:30677   */\n      dup3\n        /* \"#utility.yul\":30665:30669   */\n      dup6\n        /* \"#utility.yul\":30619:30686   */\n      tag_333\n      jump\t// in\n    tag_658:\n        /* \"#utility.yul\":30713:30714   */\n      0x00\n        /* \"#utility.yul\":30737:30741   */\n      0x20\n        /* \"#utility.yul\":30724:30741   */\n      swap1\n      pop\n        /* \"#utility.yul\":30769:30771   */\n      0x1f\n        /* \"#utility.yul\":30761:30767   */\n      dup4\n        /* \"#utility.yul\":30758:30772   */\n      gt\n        /* \"#utility.yul\":30786:30787   */\n      0x01\n        /* \"#utility.yul\":30781:31399   */\n      dup2\n      eq\n      tag_660\n      jumpi\n        /* \"#utility.yul\":31443:31444   */\n      0x00\n        /* \"#utility.yul\":31460:31466   */\n      dup5\n        /* \"#utility.yul\":31457:31534   */\n      iszero\n      tag_661\n      jumpi\n        /* \"#utility.yul\":31509:31518   */\n      dup3\n        /* \"#utility.yul\":31504:31507   */\n      dup8\n        /* \"#utility.yul\":31500:31519   */\n      add\n        /* \"#utility.yul\":31494:31520   */\n      mload\n        /* \"#utility.yul\":31485:31520   */\n      swap1\n      pop\n        /* \"#utility.yul\":31457:31534   */\n    tag_661:\n        /* \"#utility.yul\":31560:31627   */\n      tag_662\n        /* \"#utility.yul\":31620:31626   */\n      dup6\n        /* \"#utility.yul\":31613:31618   */\n      dup3\n        /* \"#utility.yul\":31560:31627   */\n      tag_336\n      jump\t// in\n    tag_662:\n        /* \"#utility.yul\":31554:31558   */\n      dup7\n        /* \"#utility.yul\":31547:31628   */\n      sstore\n        /* \"#utility.yul\":31416:31638   */\n      pop\n        /* \"#utility.yul\":30751:31638   */\n      jump(tag_659)\n        /* \"#utility.yul\":30781:31399   */\n    tag_660:\n        /* \"#utility.yul\":30833:30837   */\n      0x1f\n        /* \"#utility.yul\":30829:30838   */\n      not\n        /* \"#utility.yul\":30821:30827   */\n      dup5\n        /* \"#utility.yul\":30817:30839   */\n      and\n        /* \"#utility.yul\":30867:30904   */\n      tag_663\n        /* \"#utility.yul\":30899:30903   */\n      dup7\n        /* \"#utility.yul\":30867:30904   */\n      tag_322\n      jump\t// in\n    tag_663:\n        /* \"#utility.yul\":30926:30927   */\n      0x00\n        /* \"#utility.yul\":30940:31148   */\n    tag_664:\n        /* \"#utility.yul\":30954:30961   */\n      dup3\n        /* \"#utility.yul\":30951:30952   */\n      dup2\n        /* \"#utility.yul\":30948:30962   */\n      lt\n        /* \"#utility.yul\":30940:31148   */\n      iszero\n      tag_666\n      jumpi\n        /* \"#utility.yul\":31033:31042   */\n      dup5\n        /* \"#utility.yul\":31028:31031   */\n      dup10\n        /* \"#utility.yul\":31024:31043   */\n      add\n        /* \"#utility.yul\":31018:31044   */\n      mload\n        /* \"#utility.yul\":31010:31016   */\n      dup3\n        /* \"#utility.yul\":31003:31045   */\n      sstore\n        /* \"#utility.yul\":31084:31085   */\n      0x01\n        /* \"#utility.yul\":31076:31082   */\n      dup3\n        /* \"#utility.yul\":31072:31086   */\n      add\n        /* \"#utility.yul\":31062:31086   */\n      swap2\n      pop\n        /* \"#utility.yul\":31131:31133   */\n      0x20\n        /* \"#utility.yul\":31120:31129   */\n      dup6\n        /* \"#utility.yul\":31116:31134   */\n      add\n        /* \"#utility.yul\":31103:31134   */\n      swap5\n      pop\n        /* \"#utility.yul\":30977:30981   */\n      0x20\n        /* \"#utility.yul\":30974:30975   */\n      dup2\n        /* \"#utility.yul\":30970:30982   */\n      add\n        /* \"#utility.yul\":30965:30982   */\n      swap1\n      pop\n        /* \"#utility.yul\":30940:31148   */\n      jump(tag_664)\n    tag_666:\n        /* \"#utility.yul\":31176:31182   */\n      dup7\n        /* \"#utility.yul\":31167:31174   */\n      dup4\n        /* \"#utility.yul\":31164:31183   */\n      lt\n        /* \"#utility.yul\":31161:31340   */\n      iszero\n      tag_667\n      jumpi\n        /* \"#utility.yul\":31234:31243   */\n      dup5\n        /* \"#utility.yul\":31229:31232   */\n      dup10\n        /* \"#utility.yul\":31225:31244   */\n      add\n        /* \"#utility.yul\":31219:31245   */\n      mload\n        /* \"#utility.yul\":31277:31325   */\n      tag_668\n        /* \"#utility.yul\":31319:31323   */\n      0x1f\n        /* \"#utility.yul\":31311:31317   */\n      dup10\n        /* \"#utility.yul\":31307:31324   */\n      and\n        /* \"#utility.yul\":31296:31305   */\n      dup3\n        /* \"#utility.yul\":31277:31325   */\n      tag_335\n      jump\t// in\n    tag_668:\n        /* \"#utility.yul\":31269:31275   */\n      dup4\n        /* \"#utility.yul\":31262:31326   */\n      sstore\n        /* \"#utility.yul\":31184:31340   */\n      pop\n        /* \"#utility.yul\":31161:31340   */\n    tag_667:\n        /* \"#utility.yul\":31386:31387   */\n      0x01\n        /* \"#utility.yul\":31382:31383   */\n      0x02\n        /* \"#utility.yul\":31374:31380   */\n      dup9\n        /* \"#utility.yul\":31370:31384   */\n      mul\n        /* \"#utility.yul\":31366:31388   */\n      add\n        /* \"#utility.yul\":31360:31364   */\n      dup9\n        /* \"#utility.yul\":31353:31389   */\n      sstore\n        /* \"#utility.yul\":30788:31399   */\n      pop\n      pop\n      pop\n        /* \"#utility.yul\":30751:31638   */\n    tag_659:\n      pop\n        /* \"#utility.yul\":30341:31644   */\n      pop\n      pop\n      pop\n        /* \"#utility.yul\":30249:31644   */\n      pop\n      pop\n      jump\t// out\n        /* \"#utility.yul\":31650:31965   */\n    tag_337:\n        /* \"#utility.yul\":31790:31856   */\n      0x42e1baa16e206b68c3b46e67207068e1baa369206368e1bba72073e1bb9f2068\n        /* \"#utility.yul\":31786:31787   */\n      0x00\n        /* \"#utility.yul\":31778:31784   */\n      dup3\n        /* \"#utility.yul\":31774:31788   */\n      add\n        /* \"#utility.yul\":31767:31857   */\n      mstore\n        /* \"#utility.yul\":31891:31957   */\n      0xe1bbaf75206cc3b42068c3a06e67206ec3a07900000000000000000000000000\n        /* \"#utility.yul\":31886:31888   */\n      0x20\n        /* \"#utility.yul\":31878:31884   */\n      dup3\n        /* \"#utility.yul\":31874:31889   */\n      add\n        /* \"#utility.yul\":31867:31958   */\n      mstore\n        /* \"#utility.yul\":31650:31965   */\n      pop\n      jump\t// out\n        /* \"#utility.yul\":31971:32337   */\n    tag_338:\n        /* \"#utility.yul\":32113:32116   */\n      0x00\n        /* \"#utility.yul\":32134:32201   */\n      tag_671\n        /* \"#utility.yul\":32198:32200   */\n      0x33\n        /* \"#utility.yul\":32193:32196   */\n      dup4\n        /* \"#utility.yul\":32134:32201   */\n      tag_277\n      jump\t// in\n    tag_671:\n        /* \"#utility.yul\":32127:32201   */\n      swap2\n      pop\n        /* \"#utility.yul\":32210:32303   */\n      tag_672\n        /* \"#utility.yul\":32299:32302   */\n      dup3\n        /* \"#utility.yul\":32210:32303   */\n      tag_337\n      jump\t// in\n    tag_672:\n        /* \"#utility.yul\":32328:32330   */\n      0x40\n        /* \"#utility.yul\":32323:32326   */\n      dup3\n        /* \"#utility.yul\":32319:32331   */\n      add\n        /* \"#utility.yul\":32312:32331   */\n      swap1\n      pop\n        /* \"#utility.yul\":31971:32337   */\n      swap2\n      swap1\n      pop\n      jump\t// out\n        /* \"#utility.yul\":32343:32762   */\n    tag_154:\n        /* \"#utility.yul\":32509:32513   */\n      0x00\n        /* \"#utility.yul\":32547:32549   */\n      0x20\n        /* \"#utility.yul\":32536:32545   */\n      dup3\n        /* \"#utility.yul\":32532:32550   */\n      add\n        /* \"#utility.yul\":32524:32550   */\n      swap1\n      pop\n        /* \"#utility.yul\":32596:32605   */\n      dup2\n        /* \"#utility.yul\":32590:32594   */\n      dup2\n        /* \"#utility.yul\":32586:32606   */\n      sub\n        /* \"#utility.yul\":32582:32583   */\n      0x00\n        /* \"#utility.yul\":32571:32580   */\n      dup4\n        /* \"#utility.yul\":32567:32584   */\n      add\n        /* \"#utility.yul\":32560:32607   */\n      mstore\n        /* \"#utility.yul\":32624:32755   */\n      tag_674\n        /* \"#utility.yul\":32750:32754   */\n      dup2\n        /* \"#utility.yul\":32624:32755   */\n      tag_338\n      jump\t// in\n    tag_674:\n        /* \"#utility.yul\":32616:32755   */\n      swap1\n      pop\n        /* \"#utility.yul\":32343:32762   */\n      swap2\n      swap1\n      pop\n      jump\t// out\n        /* \"#utility.yul\":32768:32982   */\n    tag_339:\n        /* \"#utility.yul\":32908:32974   */\n      0x44e1bbaf206c69e1bb8775206b68c3b46e67206b68e1bb9b7000000000000000\n        /* \"#utility.yul\":32904:32905   */\n      0x00\n        /* \"#utility.yul\":32896:32902   */\n      dup3\n        /* \"#utility.yul\":32892:32906   */\n      add\n        /* \"#utility.yul\":32885:32975   */\n      mstore\n        /* \"#utility.yul\":32768:32982   */\n      pop\n      jump\t// out\n        /* \"#utility.yul\":32988:33354   */\n    tag_340:\n        /* \"#utility.yul\":33130:33133   */\n      0x00\n        /* \"#utility.yul\":33151:33218   */\n      tag_677\n        /* \"#utility.yul\":33215:33217   */\n      0x19\n        /* \"#utility.yul\":33210:33213   */\n      dup4\n        /* \"#utility.yul\":33151:33218   */\n      tag_277\n      jump\t// in\n    tag_677:\n        /* \"#utility.yul\":33144:33218   */\n      swap2\n      pop\n        /* \"#utility.yul\":33227:33320   */\n      tag_678\n        /* \"#utility.yul\":33316:33319   */\n      dup3\n        /* \"#utility.yul\":33227:33320   */\n      tag_339\n      jump\t// in\n    tag_678:\n        /* \"#utility.yul\":33345:33347   */\n      0x20\n        /* \"#utility.yul\":33340:33343   */\n      dup3\n        /* \"#utility.yul\":33336:33348   */\n      add\n        /* \"#utility.yul\":33329:33348   */\n      swap1\n      pop\n        /* \"#utility.yul\":32988:33354   */\n      swap2\n      swap1\n      pop\n      jump\t// out\n        /* \"#utility.yul\":33360:33779   */\n    tag_160:\n        /* \"#utility.yul\":33526:33530   */\n      0x00\n        /* \"#utility.yul\":33564:33566   */\n      0x20\n        /* \"#utility.yul\":33553:33562   */\n      dup3\n        /* \"#utility.yul\":33549:33567   */\n      add\n        /* \"#utility.yul\":33541:33567   */\n      swap1\n      pop\n        /* \"#utility.yul\":33613:33622   */\n      dup2\n        /* \"#utility.yul\":33607:33611   */\n      dup2\n        /* \"#utility.yul\":33603:33623   */\n      sub\n        /* \"#utility.yul\":33599:33600   */\n      0x00\n        /* \"#utility.yul\":33588:33597   */\n      dup4\n        /* \"#utility.yul\":33584:33601   */\n      add\n        /* \"#utility.yul\":33577:33624   */\n      mstore\n        /* \"#utility.yul\":33641:33772   */\n      tag_680\n        /* \"#utility.yul\":33767:33771   */\n      dup2\n        /* \"#utility.yul\":33641:33772   */\n      tag_340\n      jump\t// in\n    tag_680:\n        /* \"#utility.yul\":33633:33772   */\n      swap1\n      pop\n        /* \"#utility.yul\":33360:33779   */\n      swap2\n      swap1\n      pop\n      jump\t// out\n        /* \"#utility.yul\":33785:33965   */\n    tag_166:\n        /* \"#utility.yul\":33833:33910   */\n      0x4e487b7100000000000000000000000000000000000000000000000000000000\n        /* \"#utility.yul\":33830:33831   */\n      0x00\n        /* \"#utility.yul\":33823:33911   */\n      mstore\n        /* \"#utility.yul\":33930:33934   */\n      0x32\n        /* \"#utility.yul\":33927:33928   */\n      0x04\n        /* \"#utility.yul\":33920:33935   */\n      mstore\n        /* \"#utility.yul\":33954:33958   */\n      0x24\n        /* \"#utility.yul\":33951:33952   */\n      0x00\n        /* \"#utility.yul\":33944:33959   */\n      revert\n        /* \"#utility.yul\":33971:34185   */\n    tag_341:\n        /* \"#utility.yul\":34111:34177   */\n      0x49442073e1baa36e207068e1baa96d20c491c3a32074e1bb936e2074e1baa169\n        /* \"#utility.yul\":34107:34108   */\n      0x00\n        /* \"#utility.yul\":34099:34105   */\n      dup3\n        /* \"#utility.yul\":34095:34109   */\n      add\n        /* \"#utility.yul\":34088:34178   */\n      mstore\n        /* \"#utility.yul\":33971:34185   */\n      pop\n      jump\t// out\n        /* \"#utility.yul\":34191:34557   */\n    tag_342:\n        /* \"#utility.yul\":34333:34336   */\n      0x00\n        /* \"#utility.yul\":34354:34421   */\n      tag_684\n        /* \"#utility.yul\":34418:34420   */\n      0x20\n        /* \"#utility.yul\":34413:34416   */\n      dup4\n        /* \"#utility.yul\":34354:34421   */\n      tag_277\n      jump\t// in\n    tag_684:\n        /* \"#utility.yul\":34347:34421   */\n      swap2\n      pop\n        /* \"#utility.yul\":34430:34523   */\n      tag_685\n        /* \"#utility.yul\":34519:34522   */\n      dup3\n        /* \"#utility.yul\":34430:34523   */\n      tag_341\n      jump\t// in\n    tag_685:\n        /* \"#utility.yul\":34548:34550   */\n      0x20\n        /* \"#utility.yul\":34543:34546   */\n      dup3\n        /* \"#utility.yul\":34539:34551   */\n      add\n        /* \"#utility.yul\":34532:34551   */\n      swap1\n      pop\n        /* \"#utility.yul\":34191:34557   */\n      swap2\n      swap1\n      pop\n      jump\t// out\n        /* \"#utility.yul\":34563:34982   */\n    tag_170:\n        /* \"#utility.yul\":34729:34733   */\n      0x00\n        /* \"#utility.yul\":34767:34769   */\n      0x20\n        /* \"#utility.yul\":34756:34765   */\n      dup3\n        /* \"#utility.yul\":34752:34770   */\n      add\n        /* \"#utility.yul\":34744:34770   */\n      swap1\n      pop\n        /* \"#utility.yul\":34816:34825   */\n      dup2\n        /* \"#utility.yul\":34810:34814   */\n      dup2\n        /* \"#utility.yul\":34806:34826   */\n      sub\n        /* \"#utility.yul\":34802:34803   */\n      0x00\n        /* \"#utility.yul\":34791:34800   */\n      dup4\n        /* \"#utility.yul\":34787:34804   */\n      add\n        /* \"#utility.yul\":34780:34827   */\n      mstore\n        /* \"#utility.yul\":34844:34975   */\n      tag_687\n        /* \"#utility.yul\":34970:34974   */\n      dup2\n        /* \"#utility.yul\":34844:34975   */\n      tag_342\n      jump\t// in\n    tag_687:\n        /* \"#utility.yul\":34836:34975   */\n      swap1\n      pop\n        /* \"#utility.yul\":34563:34982   */\n      swap2\n      swap1\n      pop\n      jump\t// out\n        /* \"#utility.yul\":34988:35411   */\n    tag_181:\n        /* \"#utility.yul\":35129:35133   */\n      0x00\n        /* \"#utility.yul\":35167:35169   */\n      0x40\n        /* \"#utility.yul\":35156:35165   */\n      dup3\n        /* \"#utility.yul\":35152:35170   */\n      add\n        /* \"#utility.yul\":35144:35170   */\n      swap1\n      pop\n        /* \"#utility.yul\":35216:35225   */\n      dup2\n        /* \"#utility.yul\":35210:35214   */\n      dup2\n        /* \"#utility.yul\":35206:35226   */\n      sub\n        /* \"#utility.yul\":35202:35203   */\n      0x00\n        /* \"#utility.yul\":35191:35200   */\n      dup4\n        /* \"#utility.yul\":35187:35204   */\n      add\n        /* \"#utility.yul\":35180:35227   */\n      mstore\n        /* \"#utility.yul\":35244:35322   */\n      tag_689\n        /* \"#utility.yul\":35317:35321   */\n      dup2\n        /* \"#utility.yul\":35308:35314   */\n      dup6\n        /* \"#utility.yul\":35244:35322   */\n      tag_279\n      jump\t// in\n    tag_689:\n        /* \"#utility.yul\":35236:35322   */\n      swap1\n      pop\n        /* \"#utility.yul\":35332:35404   */\n      tag_690\n        /* \"#utility.yul\":35400:35402   */\n      0x20\n        /* \"#utility.yul\":35389:35398   */\n      dup4\n        /* \"#utility.yul\":35385:35403   */\n      add\n        /* \"#utility.yul\":35376:35382   */\n      dup5\n        /* \"#utility.yul\":35332:35404   */\n      tag_283\n      jump\t// in\n    tag_690:\n        /* \"#utility.yul\":34988:35411   */\n      swap4\n      swap3\n      pop\n      pop\n      pop\n      jump\t// out\n        /* \"#utility.yul\":35417:35597   */\n    tag_343:\n        /* \"#utility.yul\":35465:35542   */\n      0x4e487b7100000000000000000000000000000000000000000000000000000000\n        /* \"#utility.yul\":35462:35463   */\n      0x00\n        /* \"#utility.yul\":35455:35543   */\n      mstore\n        /* \"#utility.yul\":35562:35566   */\n      0x11\n        /* \"#utility.yul\":35559:35560   */\n      0x04\n        /* \"#utility.yul\":35552:35567   */\n      mstore\n        /* \"#utility.yul\":35586:35590   */\n      0x24\n        /* \"#utility.yul\":35583:35584   */\n      0x00\n        /* \"#utility.yul\":35576:35591   */\n      revert\n        /* \"#utility.yul\":35603:35836   */\n    tag_184:\n        /* \"#utility.yul\":35642:35645   */\n      0x00\n        /* \"#utility.yul\":35665:35689   */\n      tag_693\n        /* \"#utility.yul\":35683:35688   */\n      dup3\n        /* \"#utility.yul\":35665:35689   */\n      tag_280\n      jump\t// in\n    tag_693:\n        /* \"#utility.yul\":35656:35689   */\n      swap2\n      pop\n        /* \"#utility.yul\":35711:35777   */\n      0xffffffffffffffffffffffffffffffffffffffffffffffffffffffffffffffff\n        /* \"#utility.yul\":35704:35709   */\n      dup3\n        /* \"#utility.yul\":35701:35778   */\n      sub\n        /* \"#utility.yul\":35698:35801   */\n      tag_694\n      jumpi\n        /* \"#utility.yul\":35781:35799   */\n      tag_695\n      tag_343\n      jump\t// in\n    tag_695:\n        /* \"#utility.yul\":35698:35801   */\n    tag_694:\n        /* \"#utility.yul\":35828:35829   */\n      0x01\n        /* \"#utility.yul\":35821:35826   */\n      dup3\n        /* \"#utility.yul\":35817:35830   */\n      add\n        /* \"#utility.yul\":35810:35830   */\n      swap1\n      pop\n        /* \"#utility.yul\":35603:35836   */\n      swap2\n      swap1\n      pop\n      jump\t// out\n        /* \"#utility.yul\":35842:36155   */\n    tag_190:\n        /* \"#utility.yul\":35955:35959   */\n      0x00\n        /* \"#utility.yul\":35993:35995   */\n      0x20\n        /* \"#utility.yul\":35982:35991   */\n      dup3\n        /* \"#utility.yul\":35978:35996   */\n      add\n        /* \"#utility.yul\":35970:35996   */\n      swap1\n      pop\n        /* \"#utility.yul\":36042:36051   */\n      dup2\n        /* \"#utility.yul\":36036:36040   */\n      dup2\n        /* \"#utility.yul\":36032:36052   */\n      sub\n        /* \"#utility.yul\":36028:36029   */\n      0x00\n        /* \"#utility.yul\":36017:36026   */\n      dup4\n        /* \"#utility.yul\":36013:36030   */\n      add\n        /* \"#utility.yul\":36006:36053   */\n      mstore\n        /* \"#utility.yul\":36070:36148   */\n      tag_697\n        /* \"#utility.yul\":36143:36147   */\n      dup2\n        /* \"#utility.yul\":36134:36140   */\n      dup5\n        /* \"#utility.yul\":36070:36148   */\n      tag_279\n      jump\t// in\n    tag_697:\n        /* \"#utility.yul\":36062:36148   */\n      swap1\n      pop\n        /* \"#utility.yul\":35842:36155   */\n      swap3\n      swap2\n      pop\n      pop\n      jump\t// out\n        /* \"#utility.yul\":36161:36375   */\n    tag_344:\n        /* \"#utility.yul\":36301:36367   */\n      0xc490e1bb8b61206368e1bb89206b68c3b46e672068e1bba370206ce1bb870000\n        /* \"#utility.yul\":36297:36298   */\n      0x00\n        /* \"#utility.yul\":36289:36295   */\n      dup3\n        /* \"#utility.yul\":36285:36299   */\n      add\n        /* \"#utility.yul\":36278:36368   */\n      mstore\n        /* \"#utility.yul\":36161:36375   */\n      pop\n      jump\t// out\n        /* \"#utility.yul\":36381:36747   */\n    tag_345:\n        /* \"#utility.yul\":36523:36526   */\n      0x00\n        /* \"#utility.yul\":36544:36611   */\n      tag_700\n        /* \"#utility.yul\":36608:36610   */\n      0x1e\n        /* \"#utility.yul\":36603:36606   */\n      dup4\n        /* \"#utility.yul\":36544:36611   */\n      tag_277\n      jump\t// in\n    tag_700:\n        /* \"#utility.yul\":36537:36611   */\n      swap2\n      pop\n        /* \"#utility.yul\":36620:36713   */\n      tag_701\n        /* \"#utility.yul\":36709:36712   */\n      dup3\n        /* \"#utility.yul\":36620:36713   */\n      tag_344\n      jump\t// in\n    tag_701:\n        /* \"#utility.yul\":36738:36740   */\n      0x20\n        /* \"#utility.yul\":36733:36736   */\n      dup3\n        /* \"#utility.yul\":36729:36741   */\n      add\n        /* \"#utility.yul\":36722:36741   */\n      swap1\n      pop\n        /* \"#utility.yul\":36381:36747   */\n      swap2\n      swap1\n      pop\n      jump\t// out\n        /* \"#utility.yul\":36753:37172   */\n    tag_239:\n        /* \"#utility.yul\":36919:36923   */\n      0x00\n        /* \"#utility.yul\":36957:36959   */\n      0x20\n        /* \"#utility.yul\":36946:36955   */\n      dup3\n        /* \"#utility.yul\":36942:36960   */\n      add\n        /* \"#utility.yul\":36934:36960   */\n      swap1\n      pop\n        /* \"#utility.yul\":37006:37015   */\n      dup2\n        /* \"#utility.yul\":37000:37004   */\n      dup2\n        /* \"#utility.yul\":36996:37016   */\n      sub\n        /* \"#utility.yul\":36992:36993   */\n      0x00\n        /* \"#utility.yul\":36981:36990   */\n      dup4\n        /* \"#utility.yul\":36977:36994   */\n      add\n        /* \"#utility.yul\":36970:37017   */\n      mstore\n        /* \"#utility.yul\":37034:37165   */\n      tag_703\n        /* \"#utility.yul\":37160:37164   */\n      dup2\n        /* \"#utility.yul\":37034:37165   */\n      tag_345\n      jump\t// in\n    tag_703:\n        /* \"#utility.yul\":37026:37165   */\n      swap1\n      pop\n        /* \"#utility.yul\":36753:37172   */\n      swap2\n      swap1\n      pop\n      jump\t// out\n        /* \"#utility.yul\":37178:37510   */\n    tag_243:\n        /* \"#utility.yul\":37299:37303   */\n      0x00\n        /* \"#utility.yul\":37337:37339   */\n      0x40\n        /* \"#utility.yul\":37326:37335   */\n      dup3\n        /* \"#utility.yul\":37322:37340   */\n      add\n        /* \"#utility.yul\":37314:37340   */\n      swap1\n      pop\n        /* \"#utility.yul\":37350:37421   */\n      tag_705\n        /* \"#utility.yul\":37418:37419   */\n      0x00\n        /* \"#utility.yul\":37407:37416   */\n      dup4\n        /* \"#utility.yul\":37403:37420   */\n      add\n        /* \"#utility.yul\":37394:37400   */\n      dup6\n        /* \"#utility.yul\":37350:37421   */\n      tag_288\n      jump\t// in\n    tag_705:\n        /* \"#utility.yul\":37431:37503   */\n      tag_706\n        /* \"#utility.yul\":37499:37501   */\n      0x20\n        /* \"#utility.yul\":37488:37497   */\n      dup4\n        /* \"#utility.yul\":37484:37502   */\n      add\n        /* \"#utility.yul\":37475:37481   */\n      dup5\n        /* \"#utility.yul\":37431:37503   */\n      tag_288\n      jump\t// in\n    tag_706:\n        /* \"#utility.yul\":37178:37510   */\n      swap4\n      swap3\n      pop\n      pop\n      pop\n      jump\t// out\n        /* \"#utility.yul\":37516:37831   */\n    tag_346:\n        /* \"#utility.yul\":37656:37722   */\n      0x42e1baa16e206b68c3b46e67207068e1baa36920c491e1baa169206cc3bd20e1\n        /* \"#utility.yul\":37652:37653   */\n      0x00\n        /* \"#utility.yul\":37644:37650   */\n      dup3\n        /* \"#utility.yul\":37640:37654   */\n      add\n        /* \"#utility.yul\":37633:37723   */\n      mstore\n        /* \"#utility.yul\":37757:37823   */\n      0xbba77920717579e1bb816e000000000000000000000000000000000000000000\n        /* \"#utility.yul\":37752:37754   */\n      0x20\n        /* \"#utility.yul\":37744:37750   */\n      dup3\n        /* \"#utility.yul\":37740:37755   */\n      add\n        /* \"#utility.yul\":37733:37824   */\n      mstore\n        /* \"#utility.yul\":37516:37831   */\n      pop\n      jump\t// out\n        /* \"#utility.yul\":37837:38203   */\n    tag_347:\n        /* \"#utility.yul\":37979:37982   */\n      0x00\n        /* \"#utility.yul\":38000:38067   */\n      tag_709\n        /* \"#utility.yul\":38064:38066   */\n      0x2b\n        /* \"#utility.yul\":38059:38062   */\n      dup4\n        /* \"#utility.yul\":38000:38067   */\n      tag_277\n      jump\t// in\n    tag_709:\n        /* \"#utility.yul\":37993:38067   */\n      swap2\n      pop\n        /* \"#utility.yul\":38076:38169   */\n      tag_710\n        /* \"#utility.yul\":38165:38168   */\n      dup3\n        /* \"#utility.yul\":38076:38169   */\n      tag_346\n      jump\t// in\n    tag_710:\n        /* \"#utility.yul\":38194:38196   */\n      0x40\n        /* \"#utility.yul\":38189:38192   */\n      dup3\n        /* \"#utility.yul\":38185:38197   */\n      add\n        /* \"#utility.yul\":38178:38197   */\n      swap1\n      pop\n        /* \"#utility.yul\":37837:38203   */\n      swap2\n      swap1\n      pop\n      jump\t// out\n        /* \"#utility.yul\":38209:38628   */\n    tag_247:\n        /* \"#utility.yul\":38375:38379   */\n      0x00\n        /* \"#utility.yul\":38413:38415   */\n      0x20\n        /* \"#utility.yul\":38402:38411   */\n      dup3\n        /* \"#utility.yul\":38398:38416   */\n      add\n        /* \"#utility.yul\":38390:38416   */\n      swap1\n      pop\n        /* \"#utility.yul\":38462:38471   */\n      dup2\n        /* \"#utility.yul\":38456:38460   */\n      dup2\n        /* \"#utility.yul\":38452:38472   */\n      sub\n        /* \"#utility.yul\":38448:38449   */\n      0x00\n        /* \"#utility.yul\":38437:38446   */\n      dup4\n        /* \"#utility.yul\":38433:38450   */\n      add\n        /* \"#utility.yul\":38426:38473   */\n      mstore\n        /* \"#utility.yul\":38490:38621   */\n      tag_712\n        /* \"#utility.yul\":38616:38620   */\n      dup2\n        /* \"#utility.yul\":38490:38621   */\n      tag_347\n      jump\t// in\n    tag_712:\n        /* \"#utility.yul\":38482:38621   */\n      swap1\n      pop\n        /* \"#utility.yul\":38209:38628   */\n      swap2\n      swap1\n      pop\n      jump\t// out\n        /* \"#utility.yul\":38634:38949   */\n    tag_348:\n        /* \"#utility.yul\":38774:38840   */\n      0x53e1baa36e207068e1baa96d206b68c3b46e672074e1bb936e2074e1baa16920\n        /* \"#utility.yul\":38770:38771   */\n      0x00\n        /* \"#utility.yul\":38762:38768   */\n      dup3\n        /* \"#utility.yul\":38758:38772   */\n      add\n        /* \"#utility.yul\":38751:38841   */\n      mstore\n        /* \"#utility.yul\":38875:38941   */\n      0x74726f6e672068e1bb87207468e1bb916e670000000000000000000000000000\n        /* \"#utility.yul\":38870:38872   */\n      0x20\n        /* \"#utility.yul\":38862:38868   */\n      dup3\n        /* \"#utility.yul\":38858:38873   */\n      add\n        /* \"#utility.yul\":38851:38942   */\n      mstore\n        /* \"#utility.yul\":38634:38949   */\n      pop\n      jump\t// out\n        /* \"#utility.yul\":38955:39321   */\n    tag_349:\n        /* \"#utility.yul\":39097:39100   */\n      0x00\n        /* \"#utility.yul\":39118:39185   */\n      tag_715\n        /* \"#utility.yul\":39182:39184   */\n      0x32\n        /* \"#utility.yul\":39177:39180   */\n      dup4\n        /* \"#utility.yul\":39118:39185   */\n      tag_277\n      jump\t// in\n    tag_715:\n        /* \"#utility.yul\":39111:39185   */\n      swap2\n      pop\n        /* \"#utility.yul\":39194:39287   */\n      tag_716\n        /* \"#utility.yul\":39283:39286   */\n      dup3\n        /* \"#utility.yul\":39194:39287   */\n      tag_348\n      jump\t// in\n    tag_716:\n        /* \"#utility.yul\":39312:39314   */\n      0x40\n        /* \"#utility.yul\":39307:39310   */\n      dup3\n        /* \"#utility.yul\":39303:39315   */\n      add\n        /* \"#utility.yul\":39296:39315   */\n      swap1\n      pop\n        /* \"#utility.yul\":38955:39321   */\n      swap2\n      swap1\n      pop\n      jump\t// out\n        /* \"#utility.yul\":39327:39746   */\n    tag_252:\n        /* \"#utility.yul\":39493:39497   */\n      0x00\n        /* \"#utility.yul\":39531:39533   */\n      0x20\n        /* \"#utility.yul\":39520:39529   */\n      dup3\n        /* \"#utility.yul\":39516:39534   */\n      add\n        /* \"#utility.yul\":39508:39534   */\n      swap1\n      pop\n        /* \"#utility.yul\":39580:39589   */\n      dup2\n        /* \"#utility.yul\":39574:39578   */\n      dup2\n        /* \"#utility.yul\":39570:39590   */\n      sub\n        /* \"#utility.yul\":39566:39567   */\n      0x00\n        /* \"#utility.yul\":39555:39564   */\n      dup4\n        /* \"#utility.yul\":39551:39568   */\n      add\n        /* \"#utility.yul\":39544:39591   */\n      mstore\n        /* \"#utility.yul\":39608:39739   */\n      tag_718\n        /* \"#utility.yul\":39734:39738   */\n      dup2\n        /* \"#utility.yul\":39608:39739   */\n      tag_349\n      jump\t// in\n    tag_718:\n        /* \"#utility.yul\":39600:39739   */\n      swap1\n      pop\n        /* \"#utility.yul\":39327:39746   */\n      swap2\n      swap1\n      pop\n      jump\t// out\n        /* \"#utility.yul\":39752:40067   */\n    tag_350:\n        /* \"#utility.yul\":39892:39958   */\n      0x53e1baa36e207068e1baa96d206ec3a07920c491c3a320c491c6b0e1bba36320\n        /* \"#utility.yul\":39888:39889   */\n      0x00\n        /* \"#utility.yul\":39880:39886   */\n      dup3\n        /* \"#utility.yul\":39876:39890   */\n      add\n        /* \"#utility.yul\":39869:39959   */\n      mstore\n        /* \"#utility.yul\":39993:40059   */\n      0x62c3a16e207472c6b0e1bb9b6320c491c3b32100000000000000000000000000\n        /* \"#utility.yul\":39988:39990   */\n      0x20\n        /* \"#utility.yul\":39980:39986   */\n      dup3\n        /* \"#utility.yul\":39976:39991   */\n      add\n        /* \"#utility.yul\":39969:40060   */\n      mstore\n        /* \"#utility.yul\":39752:40067   */\n      pop\n      jump\t// out\n        /* \"#utility.yul\":40073:40439   */\n    tag_351:\n        /* \"#utility.yul\":40215:40218   */\n      0x00\n        /* \"#utility.yul\":40236:40303   */\n      tag_721\n        /* \"#utility.yul\":40300:40302   */\n      0x33\n        /* \"#utility.yul\":40295:40298   */\n      dup4\n        /* \"#utility.yul\":40236:40303   */\n      tag_277\n      jump\t// in\n    tag_721:\n        /* \"#utility.yul\":40229:40303   */\n      swap2\n      pop\n        /* \"#utility.yul\":40312:40405   */\n      tag_722\n        /* \"#utility.yul\":40401:40404   */\n      dup3\n        /* \"#utility.yul\":40312:40405   */\n      tag_350\n      jump\t// in\n    tag_722:\n        /* \"#utility.yul\":40430:40432   */\n      0x40\n        /* \"#utility.yul\":40425:40428   */\n      dup3\n        /* \"#utility.yul\":40421:40433   */\n      add\n        /* \"#utility.yul\":40414:40433   */\n      swap1\n      pop\n        /* \"#utility.yul\":40073:40439   */\n      swap2\n      swap1\n      pop\n      jump\t// out\n        /* \"#utility.yul\":40445:40864   */\n    tag_255:\n        /* \"#utility.yul\":40611:40615   */\n      0x00\n        /* \"#utility.yul\":40649:40651   */\n      0x20\n        /* \"#utility.yul\":40638:40647   */\n      dup3\n        /* \"#utility.yul\":40634:40652   */\n      add\n        /* \"#utility.yul\":40626:40652   */\n      swap1\n      pop\n        /* \"#utility.yul\":40698:40707   */\n      dup2\n        /* \"#utility.yul\":40692:40696   */\n      dup2\n        /* \"#utility.yul\":40688:40708   */\n      sub\n        /* \"#utility.yul\":40684:40685   */\n      0x00\n        /* \"#utility.yul\":40673:40682   */\n      dup4\n        /* \"#utility.yul\":40669:40686   */\n      add\n        /* \"#utility.yul\":40662:40709   */\n      mstore\n        /* \"#utility.yul\":40726:40857   */\n      tag_724\n        /* \"#utility.yul\":40852:40856   */\n      dup2\n        /* \"#utility.yul\":40726:40857   */\n      tag_351\n      jump\t// in\n    tag_724:\n        /* \"#utility.yul\":40718:40857   */\n      swap1\n      pop\n        /* \"#utility.yul\":40445:40864   */\n      swap2\n      swap1\n      pop\n      jump\t// out\n        /* \"#utility.yul\":40870:41185   */\n    tag_352:\n        /* \"#utility.yul\":41010:41076   */\n      0x4dc383204bc38d43482048e1bb8c4154204b48c3944e472048e1bba250204ce1\n        /* \"#utility.yul\":41006:41007   */\n      0x00\n        /* \"#utility.yul\":40998:41004   */\n      dup3\n        /* \"#utility.yul\":40994:41008   */\n      add\n        /* \"#utility.yul\":40987:41077   */\n      mstore\n        /* \"#utility.yul\":41111:41177   */\n      0xbb8621205068c3a174206869e1bb876e2068c3a06e67206769e1baa32e000000\n        /* \"#utility.yul\":41106:41108   */\n      0x20\n        /* \"#utility.yul\":41098:41104   */\n      dup3\n        /* \"#utility.yul\":41094:41109   */\n      add\n        /* \"#utility.yul\":41087:41178   */\n      mstore\n        /* \"#utility.yul\":40870:41185   */\n      pop\n      jump\t// out\n        /* \"#utility.yul\":41191:41557   */\n    tag_353:\n        /* \"#utility.yul\":41333:41336   */\n      0x00\n        /* \"#utility.yul\":41354:41421   */\n      tag_727\n        /* \"#utility.yul\":41418:41420   */\n      0x3d\n        /* \"#utility.yul\":41413:41416   */\n      dup4\n        /* \"#utility.yul\":41354:41421   */\n      tag_277\n      jump\t// in\n    tag_727:\n        /* \"#utility.yul\":41347:41421   */\n      swap2\n      pop\n        /* \"#utility.yul\":41430:41523   */\n      tag_728\n        /* \"#utility.yul\":41519:41522   */\n      dup3\n        /* \"#utility.yul\":41430:41523   */\n      tag_352\n      jump\t// in\n    tag_728:\n        /* \"#utility.yul\":41548:41550   */\n      0x40\n        /* \"#utility.yul\":41543:41546   */\n      dup3\n        /* \"#utility.yul\":41539:41551   */\n      add\n        /* \"#utility.yul\":41532:41551   */\n      swap1\n      pop\n        /* \"#utility.yul\":41191:41557   */\n      swap2\n      swap1\n      pop\n      jump\t// out\n        /* \"#utility.yul\":41563:41982   */\n    tag_259:\n        /* \"#utility.yul\":41729:41733   */\n      0x00\n        /* \"#utility.yul\":41767:41769   */\n      0x20\n        /* \"#utility.yul\":41756:41765   */\n      dup3\n        /* \"#utility.yul\":41752:41770   */\n      add\n        /* \"#utility.yul\":41744:41770   */\n      swap1\n      pop\n        /* \"#utility.yul\":41816:41825   */\n      dup2\n        /* \"#utility.yul\":41810:41814   */\n      dup2\n        /* \"#utility.yul\":41806:41826   */\n      sub\n        /* \"#utility.yul\":41802:41803   */\n      0x00\n        /* \"#utility.yul\":41791:41800   */\n      dup4\n        /* \"#utility.yul\":41787:41804   */\n      add\n        /* \"#utility.yul\":41780:41827   */\n      mstore\n        /* \"#utility.yul\":41844:41975   */\n      tag_730\n        /* \"#utility.yul\":41970:41974   */\n      dup2\n        /* \"#utility.yul\":41844:41975   */\n      tag_353\n      jump\t// in\n    tag_730:\n        /* \"#utility.yul\":41836:41975   */\n      swap1\n      pop\n        /* \"#utility.yul\":41563:41982   */\n      swap2\n      swap1\n      pop\n      jump\t// out\n    stop\n    data_03703c4a4e7d96cf7ba9de98b04b20ace29c423760f085022025eee7f8feb507 c490c3a32073e1baa36e207875e1baa5742074e1baa169206e68c3a0206dc3a179\n    data_653bd242e3a499943f5e2024d1f34bab2438d9e3dc5d6493c08bf86718581ade c490c3a3206b69e1bb836d20c491e1bb8b6e68206368e1baa574206cc6b0e1bba36e673a20c490e1baa05420434855e1baa84e\n\n    auxdata: 0xa264697066735822122058f2eced8ec7035b8a8fdaafda8fe318ad33f4365ce30c7b400fadd6aec7d85364736f6c634300081e0033\n}\n",
				"bytecode": {
					"linkReferences": {},
					"object": "6080604052348015600e575f5ffd5b503360055f6101000a81548173ffffffffffffffffffffffffffffffffffffffff021916908373ffffffffffffffffffffffffffffffffffffffff160217905550600160045f3373ffffffffffffffffffffffffffffffffffffffff1673ffffffffffffffffffffffffffffffffffffffff1681526020019081526020015f205f6101000a81548160ff0219169083151502179055506132d7806100b15f395ff3fe608060405234801561000f575f5ffd5b50600436106100fe575f3560e01c80639d47dcc011610095578063b32c4d8d11610064578063b32c4d8d146102ef578063c12bcaec14610325578063f851a44014610341578063f9e903e81461035f576100fe565b80639d47dcc01461023e578063a1445e0a14610271578063a2483a93146102a3578063a7c4af80146102bf576100fe565b8063500c2557116100d1578063500c2557146101a657806357a75c27146101d65780638b142aeb146101f257806392b8f0211461020e576100fe565b80630186a4231461010257806306d6cb761461013857806306f130561461015457806321f9eeae14610172575b5f5ffd5b61011c60048036038101906101179190611f19565b61037b565b60405161012f9796959493929190612049565b60405180910390f35b610152600480360381019061014d91906120ee565b610509565b005b61015c6105f0565b6040516101699190612119565b60405180910390f35b61018c60048036038101906101879190611f19565b6105f6565b60405161019d959493929190612132565b60405180910390f35b6101c060048036038101906101bb91906121b4565b6108cf565b6040516101cd919061234d565b60405180910390f35b6101f060048036038101906101eb9190612397565b610a2a565b005b61020c600480360381019061020791906125a1565b610c22565b005b61022860048036038101906102239190612629565b610fe3565b6040516102359190612119565b60405180910390f35b610258600480360381019061025391906121b4565b6111f0565b604051610268949392919061269f565b60405180910390f35b61028b600480360381019061028691906126f0565b6114fc565b60405161029a9392919061272e565b60405180910390f35b6102bd60048036038101906102b891906120ee565b6115e1565b005b6102d960048036038101906102d491906120ee565b6116c7565b6040516102e6919061276a565b60405180910390f35b610309600480360381019061030491906121b4565b6116e4565b60405161031c9796959493929190612783565b60405180910390f35b61033f600480360381019061033a91906127fe565b611858565b005b610349611b16565b604051610356919061286a565b60405180910390f35b61037960048036038101906103749190612883565b611b3b565b005b6003818051602081018201805184825260208301602085012081835280955050505050505f91509050805f0180546103b290612954565b80601f01602080910402602001604051908101604052809291908181526020018280546103de90612954565b80156104295780601f1061040057610100808354040283529160200191610429565b820191905f5260205f20905b81548152906001019060200180831161040c57829003601f168201915b505050505090806001015490806002015490806003015f9054906101000a900460ff16908060030160019054906101000a900473ffffffffffffffffffffffffffffffffffffffff169080600401549080600501805461048890612954565b80601f01602080910402602001604051908101604052809291908181526020018280546104b490612954565b80156104ff5780601f106104d6576101008083540402835291602001916104ff565b820191905f5260205f20905b8154815290600101906020018083116104e257829003601f168201915b5050505050905087565b60055f9054906101000a900473ffffffffffffffffffffffffffffffffffffffff1673ffffffffffffffffffffffffffffffffffffffff163373ffffffffffffffffffffffffffffffffffffffff1614610598576040517f08c379a000000000000000000000000000000000000000000000000000000000815260040161058f906129f4565b60405180910390fd5b600160045f8373ffffffffffffffffffffffffffffffffffffffff1673ffffffffffffffffffffffffffffffffffffffff1681526020019081526020015f205f6101000a81548160ff02191690831515021790555050565b60015481565b5f60605f5f5f5f60038760405161060d9190612a4c565b90815260200160405180910390206040518060e00160405290815f8201805461063590612954565b80601f016020809104026020016040519081016040528092919081815260200182805461066190612954565b80156106ac5780601f10610683576101008083540402835291602001916106ac565b820191905f5260205f20905b81548152906001019060200180831161068f57829003601f168201915b505050505081526020016001820154815260200160028201548152602001600382015f9054906101000a900460ff161515151581526020016003820160019054906101000a900473ffffffffffffffffffffffffffffffffffffffff1673ffffffffffffffffffffffffffffffffffffffff1673ffffffffffffffffffffffffffffffffffffffff1681526020016004820154815260200160058201805461075390612954565b80601f016020809104026020016040519081016040528092919081815260200182805461077f90612954565b80156107ca5780601f106107a1576101008083540402835291602001916107ca565b820191905f5260205f20905b8154815290600101906020018083116107ad57829003601f168201915b50505050508152505090505f816020015103610806575f5f5f5f60405180602001604052805f81525092919095509550955095509550506108c6565b5f5f5f836020015181526020019081526020015f20600101805461082990612954565b80601f016020809104026020016040519081016040528092919081815260200182805461085590612954565b80156108a05780601f10610877576101008083540402835291602001916108a0565b820191905f5260205f20905b81548152906001019060200180831161088357829003601f168201915b5050505050905060018183606001518460a0015185608001519650965096509650965050505b91939590929450565b606060025f8381526020019081526020015f20805480602002602001604051908101604052809291908181526020015f905b82821015610a1f578382905f5260205f2090600302016040518060600160405290815f8201805461093190612954565b80601f016020809104026020016040519081016040528092919081815260200182805461095d90612954565b80156109a85780601f1061097f576101008083540402835291602001916109a8565b820191905f5260205f20905b81548152906001019060200180831161098b57829003601f168201915b5050505050815260200160018201548152602001600282015f9054906101000a900473ffffffffffffffffffffffffffffffffffffffff1673ffffffffffffffffffffffffffffffffffffffff1673ffffffffffffffffffffffffffffffffffffffff168152505081526020019060010190610901565b505050509050919050565b60055f9054906101000a900473ffffffffffffffffffffffffffffffffffffffff1673ffffffffffffffffffffffffffffffffffffffff163373ffffffffffffffffffffffffffffffffffffffff1614610ab9576040517f08c379a0000000000000000000000000000000000000000000000000000000008152600401610ab0906129f4565b60405180910390fd5b5f5f8381526020019081526020015f206007015f9054906101000a900460ff16610b18576040517f08c379a0000000000000000000000000000000000000000000000000000000008152600401610b0f90612aac565b60405180910390fd5b8015610c1e5760015f5f8481526020019081526020015f206006018190555060025f8381526020019081526020015f20604051806060016040528060405180606001604052806033815260200161326f6033913981526020014281526020013373ffffffffffffffffffffffffffffffffffffffff16815250908060018154018082558091505060019003905f5260205f2090600302015f909190919091505f820151815f019081610bca9190612c6a565b50602082015181600101556040820151816002015f6101000a81548173ffffffffffffffffffffffffffffffffffffffff021916908373ffffffffffffffffffffffffffffffffffffffff16021790555050505b5050565b823373ffffffffffffffffffffffffffffffffffffffff165f5f8381526020019081526020015f206004015f9054906101000a900473ffffffffffffffffffffffffffffffffffffffff1673ffffffffffffffffffffffffffffffffffffffff1614610cc3576040517f08c379a0000000000000000000000000000000000000000000000000000000008152600401610cba90612da9565b60405180910390fd5b5f5f8581526020019081526020015f206007015f9054906101000a900460ff16610d22576040517f08c379a0000000000000000000000000000000000000000000000000000000008152600401610d1990612aac565b60405180910390fd5b8151835114610d66576040517f08c379a0000000000000000000000000000000000000000000000000000000008152600401610d5d90612e11565b60405180910390fd5b5f5f90505b8351811015610fdc575f848281518110610d8857610d87612e2f565b5b602002602001015190505f600382604051610da39190612a4c565b90815260200160405180910390206001015414610df5576040517f08c379a0000000000000000000000000000000000000000000000000000000008152600401610dec90612ea6565b60405180910390fd5b6040518060e00160405280828152602001878152602001858481518110610e1f57610e1e612e2f565b5b602002602001015181526020015f151581526020015f73ffffffffffffffffffffffffffffffffffffffff1681526020015f815260200160405180602001604052805f815250815250600382604051610e789190612a4c565b90815260200160405180910390205f820151815f019081610e999190612c6a565b5060208201518160010155604082015181600201556060820151816003015f6101000a81548160ff02191690831515021790555060808201518160030160016101000a81548173ffffffffffffffffffffffffffffffffffffffff021916908373ffffffffffffffffffffffffffffffffffffffff16021790555060a0820151816004015560c0820151816005019081610f339190612c6a565b509050505f5f8781526020019081526020015f2060050181908060018154018082558091505060019003905f5260205f20015f909190919091509081610f799190612c6a565b50857f41329ba3d8d8457e0897226e1765aca0ae7aac66d8757909b4fcbddf283e9b4582868581518110610fb057610faf612e2f565b5b6020026020010151604051610fc6929190612ec4565b60405180910390a2508080600101915050610d6b565b5050505050565b5f60015f815480929190610ff690612f1f565b91905055505f60015490505f5f5f8381526020019081526020015f20905081815f01819055508481600101908161102d9190612c6a565b508381600201908161103f9190612c6a565b5042816003018190555033816004015f6101000a81548173ffffffffffffffffffffffffffffffffffffffff021916908373ffffffffffffffffffffffffffffffffffffffff1602179055505f81600601819055506001816007015f6101000a81548160ff02191690831515021790555060025f8381526020019081526020015f20604051806060016040528060405180606001604052806021815260200161324e6021913981526020014281526020013373ffffffffffffffffffffffffffffffffffffffff16815250908060018154018082558091505060019003905f5260205f2090600302015f909190919091505f820151815f0190816111439190612c6a565b50602082015181600101556040820151816002015f6101000a81548173ffffffffffffffffffffffffffffffffffffffff021916908373ffffffffffffffffffffffffffffffffffffffff16021790555050503373ffffffffffffffffffffffffffffffffffffffff16827f195a26ecf0c9b8fb957ecc3a7c029ce84849279de600e16f205ee789052052b6876040516111dd9190612f66565b60405180910390a3819250505092915050565b6060805f5f5f5f5f8781526020019081526020015f20604051806101000160405290815f820154815260200160018201805461122b90612954565b80601f016020809104026020016040519081016040528092919081815260200182805461125790612954565b80156112a25780601f10611279576101008083540402835291602001916112a2565b820191905f5260205f20905b81548152906001019060200180831161128557829003601f168201915b505050505081526020016002820180546112bb90612954565b80601f01602080910402602001604051908101604052809291908181526020018280546112e790612954565b80156113325780601f1061130957610100808354040283529160200191611332565b820191905f5260205f20905b81548152906001019060200180831161131557829003601f168201915b5050505050815260200160038201548152602001600482015f9054906101000a900473ffffffffffffffffffffffffffffffffffffffff1673ffffffffffffffffffffffffffffffffffffffff1673ffffffffffffffffffffffffffffffffffffffff16815260200160058201805480602002602001604051908101604052809291908181526020015f905b82821015611466578382905f5260205f200180546113db90612954565b80601f016020809104026020016040519081016040528092919081815260200182805461140790612954565b80156114525780601f1061142957610100808354040283529160200191611452565b820191905f5260205f20905b81548152906001019060200180831161143557829003601f168201915b5050505050815260200190600101906113be565b50505050815260200160068201548152602001600782015f9054906101000a900460ff16151515158152505090508060e001516114d8576040517f08c379a00000000000000000000000000000000000000000000000000000000081526004016114cf90612aac565b60405180910390fd5b8060200151816040015182608001518360c001519450945094509450509193509193565b6002602052815f5260405f208181548110611515575f80fd5b905f5260205f2090600302015f9150915050805f01805461153590612954565b80601f016020809104026020016040519081016040528092919081815260200182805461156190612954565b80156115ac5780601f10611583576101008083540402835291602001916115ac565b820191905f5260205f20905b81548152906001019060200180831161158f57829003601f168201915b505050505090806001015490806002015f9054906101000a900473ffffffffffffffffffffffffffffffffffffffff16905083565b60055f9054906101000a900473ffffffffffffffffffffffffffffffffffffffff1673ffffffffffffffffffffffffffffffffffffffff163373ffffffffffffffffffffffffffffffffffffffff1614611670576040517f08c379a0000000000000000000000000000000000000000000000000000000008152600401611667906129f4565b60405180910390fd5b5f60045f8373ffffffffffffffffffffffffffffffffffffffff1673ffffffffffffffffffffffffffffffffffffffff1681526020019081526020015f205f6101000a81548160ff02191690831515021790555050565b6004602052805f5260405f205f915054906101000a900460ff1681565b5f602052805f5260405f205f91509050805f01549080600101805461170890612954565b80601f016020809104026020016040519081016040528092919081815260200182805461173490612954565b801561177f5780601f106117565761010080835404028352916020019161177f565b820191905f5260205f20905b81548152906001019060200180831161176257829003601f168201915b50505050509080600201805461179490612954565b80601f01602080910402602001604051908101604052809291908181526020018280546117c090612954565b801561180b5780601f106117e25761010080835404028352916020019161180b565b820191905f5260205f20905b8154815290600101906020018083116117ee57829003601f168201915b505050505090806003015490806004015f9054906101000a900473ffffffffffffffffffffffffffffffffffffffff1690806006015490806007015f9054906101000a900460ff16905087565b823373ffffffffffffffffffffffffffffffffffffffff165f5f8381526020019081526020015f206004015f9054906101000a900473ffffffffffffffffffffffffffffffffffffffff1673ffffffffffffffffffffffffffffffffffffffff16146118f9576040517f08c379a00000000000000000000000000000000000000000000000000000000081526004016118f090612da9565b60405180910390fd5b5f73ffffffffffffffffffffffffffffffffffffffff168373ffffffffffffffffffffffffffffffffffffffff1603611967576040517f08c379a000000000000000000000000000000000000000000000000000000000815260040161195e90612fd0565b60405180910390fd5b5f5f5f8681526020019081526020015f206004015f9054906101000a900473ffffffffffffffffffffffffffffffffffffffff169050835f5f8781526020019081526020015f206004015f6101000a81548173ffffffffffffffffffffffffffffffffffffffff021916908373ffffffffffffffffffffffffffffffffffffffff16021790555060025f5f8781526020019081526020015f206006018190555060025f8681526020019081526020015f2060405180606001604052808581526020014281526020013373ffffffffffffffffffffffffffffffffffffffff16815250908060018154018082558091505060019003905f5260205f2090600302015f909190919091505f820151815f019081611a829190612c6a565b50602082015181600101556040820151816002015f6101000a81548173ffffffffffffffffffffffffffffffffffffffff021916908373ffffffffffffffffffffffffffffffffffffffff1602179055505050847fb9f31d1b8db0327a09cde76de6662ee23a4ecd72fbb0411cdfa7969fed7abe448286604051611b07929190612fee565b60405180910390a25050505050565b60055f9054906101000a900473ffffffffffffffffffffffffffffffffffffffff1681565b60045f3373ffffffffffffffffffffffffffffffffffffffff1673ffffffffffffffffffffffffffffffffffffffff1681526020019081526020015f205f9054906101000a900460ff16611bc4576040517f08c379a0000000000000000000000000000000000000000000000000000000008152600401611bbb90613085565b60405180910390fd5b5f600384604051611bd59190612a4c565b908152602001604051809103902090505f816001015403611c2b576040517f08c379a0000000000000000000000000000000000000000000000000000000008152600401611c2290613113565b60405180910390fd5b806003015f9054906101000a900460ff1615611c7c576040517f08c379a0000000000000000000000000000000000000000000000000000000008152600401611c73906131a1565b60405180910390fd5b806002015483604051602001611c929190612a4c565b6040516020818303038152906040528051906020012014611ce8576040517f08c379a0000000000000000000000000000000000000000000000000000000008152600401611cdf9061322f565b60405180910390fd5b6001816003015f6101000a81548160ff021916908315150217905550338160030160016101000a81548173ffffffffffffffffffffffffffffffffffffffff021916908373ffffffffffffffffffffffffffffffffffffffff16021790555042816004018190555081816005019081611d619190612c6a565b503373ffffffffffffffffffffffffffffffffffffffff1684604051611d879190612a4c565b60405180910390207fd0597de7b4841220d83e82517ef6d92df0c5edab071069f65a89c2c66ca407aa42604051611dbe9190612119565b60405180910390a350505050565b5f604051905090565b5f5ffd5b5f5ffd5b5f5ffd5b5f5ffd5b5f601f19601f8301169050919050565b7f4e487b71000000000000000000000000000000000000000000000000000000005f52604160045260245ffd5b611e2b82611de5565b810181811067ffffffffffffffff82111715611e4a57611e49611df5565b5b80604052505050565b5f611e5c611dcc565b9050611e688282611e22565b919050565b5f67ffffffffffffffff821115611e8757611e86611df5565b5b611e9082611de5565b9050602081019050919050565b828183375f83830152505050565b5f611ebd611eb884611e6d565b611e53565b905082815260208101848484011115611ed957611ed8611de1565b5b611ee4848285611e9d565b509392505050565b5f82601f830112611f0057611eff611ddd565b5b8135611f10848260208601611eab565b91505092915050565b5f60208284031215611f2e57611f2d611dd5565b5b5f82013567ffffffffffffffff811115611f4b57611f4a611dd9565b5b611f5784828501611eec565b91505092915050565b5f81519050919050565b5f82825260208201905092915050565b8281835e5f83830152505050565b5f611f9282611f60565b611f9c8185611f6a565b9350611fac818560208601611f7a565b611fb581611de5565b840191505092915050565b5f819050919050565b611fd281611fc0565b82525050565b5f819050919050565b611fea81611fd8565b82525050565b5f8115159050919050565b61200481611ff0565b82525050565b5f73ffffffffffffffffffffffffffffffffffffffff82169050919050565b5f6120338261200a565b9050919050565b61204381612029565b82525050565b5f60e0820190508181035f830152612061818a611f88565b90506120706020830189611fc9565b61207d6040830188611fe1565b61208a6060830187611ffb565b612097608083018661203a565b6120a460a0830185611fc9565b81810360c08301526120b68184611f88565b905098975050505050505050565b6120cd81612029565b81146120d7575f5ffd5b50565b5f813590506120e8816120c4565b92915050565b5f6020828403121561210357612102611dd5565b5b5f612110848285016120da565b91505092915050565b5f60208201905061212c5f830184611fc9565b92915050565b5f60a0820190506121455f830188611ffb565b81810360208301526121578187611f88565b90506121666040830186611ffb565b6121736060830185611fc9565b612180608083018461203a565b9695505050505050565b61219381611fc0565b811461219d575f5ffd5b50565b5f813590506121ae8161218a565b92915050565b5f602082840312156121c9576121c8611dd5565b5b5f6121d6848285016121a0565b91505092915050565b5f81519050919050565b5f82825260208201905092915050565b5f819050602082019050919050565b5f82825260208201905092915050565b5f61222282611f60565b61222c8185612208565b935061223c818560208601611f7a565b61224581611de5565b840191505092915050565b61225981611fc0565b82525050565b61226881612029565b82525050565b5f606083015f8301518482035f8601526122888282612218565b915050602083015161229d6020860182612250565b5060408301516122b0604086018261225f565b508091505092915050565b5f6122c6838361226e565b905092915050565b5f602082019050919050565b5f6122e4826121df565b6122ee81856121e9565b935083602082028501612300856121f9565b805f5b8581101561233b578484038952815161231c85826122bb565b9450612327836122ce565b925060208a01995050600181019050612303565b50829750879550505050505092915050565b5f6020820190508181035f83015261236581846122da565b905092915050565b61237681611ff0565b8114612380575f5ffd5b50565b5f813590506123918161236d565b92915050565b5f5f604083850312156123ad576123ac611dd5565b5b5f6123ba858286016121a0565b92505060206123cb85828601612383565b9150509250929050565b5f67ffffffffffffffff8211156123ef576123ee611df5565b5b602082029050602081019050919050565b5f5ffd5b5f612416612411846123d5565b611e53565b9050808382526020820190506020840283018581111561243957612438612400565b5b835b8181101561248057803567ffffffffffffffff81111561245e5761245d611ddd565b5b80860161246b8982611eec565b8552602085019450505060208101905061243b565b5050509392505050565b5f82601f83011261249e5761249d611ddd565b5b81356124ae848260208601612404565b91505092915050565b5f67ffffffffffffffff8211156124d1576124d0611df5565b5b602082029050602081019050919050565b6124eb81611fd8565b81146124f5575f5ffd5b50565b5f81359050612506816124e2565b92915050565b5f61251e612519846124b7565b611e53565b9050808382526020820190506020840283018581111561254157612540612400565b5b835b8181101561256a578061255688826124f8565b845260208401935050602081019050612543565b5050509392505050565b5f82601f83011261258857612587611ddd565b5b813561259884826020860161250c565b91505092915050565b5f5f5f606084860312156125b8576125b7611dd5565b5b5f6125c5868287016121a0565b935050602084013567ffffffffffffffff8111156125e6576125e5611dd9565b5b6125f28682870161248a565b925050604084013567ffffffffffffffff81111561261357612612611dd9565b5b61261f86828701612574565b9150509250925092565b5f5f6040838503121561263f5761263e611dd5565b5b5f83013567ffffffffffffffff81111561265c5761265b611dd9565b5b61266885828601611eec565b925050602083013567ffffffffffffffff81111561268957612688611dd9565b5b61269585828601611eec565b9150509250929050565b5f6080820190508181035f8301526126b78187611f88565b905081810360208301526126cb8186611f88565b90506126da604083018561203a565b6126e76060830184611fc9565b95945050505050565b5f5f6040838503121561270657612705611dd5565b5b5f612713858286016121a0565b9250506020612724858286016121a0565b9150509250929050565b5f6060820190508181035f8301526127468186611f88565b90506127556020830185611fc9565b612762604083018461203a565b949350505050565b5f60208201905061277d5f830184611ffb565b92915050565b5f60e0820190506127965f83018a611fc9565b81810360208301526127a88189611f88565b905081810360408301526127bc8188611f88565b90506127cb6060830187611fc9565b6127d8608083018661203a565b6127e560a0830185611fc9565b6127f260c0830184611ffb565b98975050505050505050565b5f5f5f6060848603121561281557612814611dd5565b5b5f612822868287016121a0565b9350506020612833868287016120da565b925050604084013567ffffffffffffffff81111561285457612853611dd9565b5b61286086828701611eec565b9150509250925092565b5f60208201905061287d5f83018461203a565b92915050565b5f5f5f6060848603121561289a57612899611dd5565b5b5f84013567ffffffffffffffff8111156128b7576128b6611dd9565b5b6128c386828701611eec565b935050602084013567ffffffffffffffff8111156128e4576128e3611dd9565b5b6128f086828701611eec565b925050604084013567ffffffffffffffff81111561291157612910611dd9565b5b61291d86828701611eec565b9150509250925092565b7f4e487b71000000000000000000000000000000000000000000000000000000005f52602260045260245ffd5b5f600282049050600182168061296b57607f821691505b60208210810361297e5761297d612927565b5b50919050565b7f4368e1bb892041646d696e206de1bb9b6920c491c6b0e1bba363207468e1bbb15f8201527f63206869e1bb876e000000000000000000000000000000000000000000000000602082015250565b5f6129de602883611f6a565b91506129e982612984565b604082019050919050565b5f6020820190508181035f830152612a0b816129d2565b9050919050565b5f81905092915050565b5f612a2682611f60565b612a308185612a12565b9350612a40818560208601611f7a565b80840191505092915050565b5f612a578284612a1c565b915081905092915050565b7f4cc3b42068c3a06e67206b68c3b46e672074e1bb936e2074e1baa169000000005f82015250565b5f612a96601c83611f6a565b9150612aa182612a62565b602082019050919050565b5f6020820190508181035f830152612ac381612a8a565b9050919050565b5f819050815f5260205f209050919050565b5f6020601f8301049050919050565b5f82821b905092915050565b5f60088302612b267fffffffffffffffffffffffffffffffffffffffffffffffffffffffffffffffff82612aeb565b612b308683612aeb565b95508019841693508086168417925050509392505050565b5f819050919050565b5f612b6b612b66612b6184611fc0565b612b48565b611fc0565b9050919050565b5f819050919050565b612b8483612b51565b612b98612b9082612b72565b848454612af7565b825550505050565b5f5f905090565b612baf612ba0565b612bba818484612b7b565b505050565b5b81811015612bdd57612bd25f82612ba7565b600181019050612bc0565b5050565b601f821115612c2257612bf381612aca565b612bfc84612adc565b81016020851015612c0b578190505b612c1f612c1785612adc565b830182612bbf565b50505b505050565b5f82821c905092915050565b5f612c425f1984600802612c27565b1980831691505092915050565b5f612c5a8383612c33565b9150826002028217905092915050565b612c7382611f60565b67ffffffffffffffff811115612c8c57612c8b611df5565b5b612c968254612954565b612ca1828285612be1565b5f60209050601f831160018114612cd2575f8415612cc0578287015190505b612cca8582612c4f565b865550612d31565b601f198416612ce086612aca565b5f5b82811015612d0757848901518255600182019150602085019450602081019050612ce2565b86831015612d245784890151612d20601f891682612c33565b8355505b6001600288020188555050505b505050505050565b7f42e1baa16e206b68c3b46e67207068e1baa369206368e1bba72073e1bb9f20685f8201527fe1bbaf75206cc3b42068c3a06e67206ec3a07900000000000000000000000000602082015250565b5f612d93603383611f6a565b9150612d9e82612d39565b604082019050919050565b5f6020820190508181035f830152612dc081612d87565b9050919050565b7f44e1bbaf206c69e1bb8775206b68c3b46e67206b68e1bb9b70000000000000005f82015250565b5f612dfb601983611f6a565b9150612e0682612dc7565b602082019050919050565b5f6020820190508181035f830152612e2881612def565b9050919050565b7f4e487b71000000000000000000000000000000000000000000000000000000005f52603260045260245ffd5b7f49442073e1baa36e207068e1baa96d20c491c3a32074e1bb936e2074e1baa1695f82015250565b5f612e90602083611f6a565b9150612e9b82612e5c565b602082019050919050565b5f6020820190508181035f830152612ebd81612e84565b9050919050565b5f6040820190508181035f830152612edc8185611f88565b9050612eeb6020830184611fe1565b9392505050565b7f4e487b71000000000000000000000000000000000000000000000000000000005f52601160045260245ffd5b5f612f2982611fc0565b91507fffffffffffffffffffffffffffffffffffffffffffffffffffffffffffffffff8203612f5b57612f5a612ef2565b5b600182019050919050565b5f6020820190508181035f830152612f7e8184611f88565b905092915050565b7fc490e1bb8b61206368e1bb89206b68c3b46e672068e1bba370206ce1bb8700005f82015250565b5f612fba601e83611f6a565b9150612fc582612f86565b602082019050919050565b5f6020820190508181035f830152612fe781612fae565b9050919050565b5f6040820190506130015f83018561203a565b61300e602083018461203a565b9392505050565b7f42e1baa16e206b68c3b46e67207068e1baa36920c491e1baa169206cc3bd20e15f8201527fbba77920717579e1bb816e000000000000000000000000000000000000000000602082015250565b5f61306f602b83611f6a565b915061307a82613015565b604082019050919050565b5f6020820190508181035f83015261309c81613063565b9050919050565b7f53e1baa36e207068e1baa96d206b68c3b46e672074e1bb936e2074e1baa169205f8201527f74726f6e672068e1bb87207468e1bb916e670000000000000000000000000000602082015250565b5f6130fd603283611f6a565b9150613108826130a3565b604082019050919050565b5f6020820190508181035f83015261312a816130f1565b9050919050565b7f53e1baa36e207068e1baa96d206ec3a07920c491c3a320c491c6b0e1bba363205f8201527f62c3a16e207472c6b0e1bb9b6320c491c3b32100000000000000000000000000602082015250565b5f61318b603383611f6a565b915061319682613131565b604082019050919050565b5f6020820190508181035f8301526131b88161317f565b9050919050565b7f4dc383204bc38d43482048e1bb8c4154204b48c3944e472048e1bba250204ce15f8201527fbb8621205068c3a174206869e1bb876e2068c3a06e67206769e1baa32e000000602082015250565b5f613219603d83611f6a565b9150613224826131bf565b604082019050919050565b5f6020820190508181035f8301526132468161320d565b905091905056fec490c3a32073e1baa36e207875e1baa5742074e1baa169206e68c3a0206dc3a179c490c3a3206b69e1bb836d20c491e1bb8b6e68206368e1baa574206cc6b0e1bba36e673a20c490e1baa05420434855e1baa84ea264697066735822122058f2eced8ec7035b8a8fdaafda8fe318ad33f4365ce30c7b400fadd6aec7d85364736f6c634300081e0033",
					"opcodes": "PUSH1 0x80 PUSH1 0x40 MSTORE CALLVALUE DUP1 ISZERO PUSH1 0xE JUMPI PUSH0 PUSH0 REVERT JUMPDEST POP CALLER PUSH1 0x5 PUSH0 PUSH2 0x100 EXP DUP2 SLOAD DUP2 PUSH20 0xFFFFFFFFFFFFFFFFFFFFFFFFFFFFFFFFFFFFFFFF MUL NOT AND SWAP1 DUP4 PUSH20 0xFFFFFFFFFFFFFFFFFFFFFFFFFFFFFFFFFFFFFFFF AND MUL OR SWAP1 SSTORE POP PUSH1 0x1 PUSH1 0x4 PUSH0 CALLER PUSH20 0xFFFFFFFFFFFFFFFFFFFFFFFFFFFFFFFFFFFFFFFF AND PUSH20 0xFFFFFFFFFFFFFFFFFFFFFFFFFFFFFFFFFFFFFFFF AND DUP2 MSTORE PUSH1 0x20 ADD SWAP1 DUP2 MSTORE PUSH1 0x20 ADD PUSH0 KECCAK256 PUSH0 PUSH2 0x100 EXP DUP2 SLOAD DUP2 PUSH1 0xFF MUL NOT AND SWAP1 DUP4 ISZERO ISZERO MUL OR SWAP1 SSTORE POP PUSH2 0x32D7 DUP1 PUSH2 0xB1 PUSH0 CODECOPY PUSH0 RETURN INVALID PUSH1 0x80 PUSH1 0x40 MSTORE CALLVALUE DUP1 ISZERO PUSH2 0xF JUMPI PUSH0 PUSH0 REVERT JUMPDEST POP PUSH1 0x4 CALLDATASIZE LT PUSH2 0xFE JUMPI PUSH0 CALLDATALOAD PUSH1 0xE0 SHR DUP1 PUSH4 0x9D47DCC0 GT PUSH2 0x95 JUMPI DUP1 PUSH4 0xB32C4D8D GT PUSH2 0x64 JUMPI DUP1 PUSH4 0xB32C4D8D EQ PUSH2 0x2EF JUMPI DUP1 PUSH4 0xC12BCAEC EQ PUSH2 0x325 JUMPI DUP1 PUSH4 0xF851A440 EQ PUSH2 0x341 JUMPI DUP1 PUSH4 0xF9E903E8 EQ PUSH2 0x35F JUMPI PUSH2 0xFE JUMP JUMPDEST DUP1 PUSH4 0x9D47DCC0 EQ PUSH2 0x23E JUMPI DUP1 PUSH4 0xA1445E0A EQ PUSH2 0x271 JUMPI DUP1 PUSH4 0xA2483A93 EQ PUSH2 0x2A3 JUMPI DUP1 PUSH4 0xA7C4AF80 EQ PUSH2 0x2BF JUMPI PUSH2 0xFE JUMP JUMPDEST DUP1 PUSH4 0x500C2557 GT PUSH2 0xD1 JUMPI DUP1 PUSH4 0x500C2557 EQ PUSH2 0x1A6 JUMPI DUP1 PUSH4 0x57A75C27 EQ PUSH2 0x1D6 JUMPI DUP1 PUSH4 0x8B142AEB EQ PUSH2 0x1F2 JUMPI DUP1 PUSH4 0x92B8F021 EQ PUSH2 0x20E JUMPI PUSH2 0xFE JUMP JUMPDEST DUP1 PUSH4 0x186A423 EQ PUSH2 0x102 JUMPI DUP1 PUSH4 0x6D6CB76 EQ PUSH2 0x138 JUMPI DUP1 PUSH4 0x6F13056 EQ PUSH2 0x154 JUMPI DUP1 PUSH4 0x21F9EEAE EQ PUSH2 0x172 JUMPI JUMPDEST PUSH0 PUSH0 REVERT JUMPDEST PUSH2 0x11C PUSH1 0x4 DUP1 CALLDATASIZE SUB DUP2 ADD SWAP1 PUSH2 0x117 SWAP2 SWAP1 PUSH2 0x1F19 JUMP JUMPDEST PUSH2 0x37B JUMP JUMPDEST PUSH1 0x40 MLOAD PUSH2 0x12F SWAP8 SWAP7 SWAP6 SWAP5 SWAP4 SWAP3 SWAP2 SWAP1 PUSH2 0x2049 JUMP JUMPDEST PUSH1 0x40 MLOAD DUP1 SWAP2 SUB SWAP1 RETURN JUMPDEST PUSH2 0x152 PUSH1 0x4 DUP1 CALLDATASIZE SUB DUP2 ADD SWAP1 PUSH2 0x14D SWAP2 SWAP1 PUSH2 0x20EE JUMP JUMPDEST PUSH2 0x509 JUMP JUMPDEST STOP JUMPDEST PUSH2 0x15C PUSH2 0x5F0 JUMP JUMPDEST PUSH1 0x40 MLOAD PUSH2 0x169 SWAP2 SWAP1 PUSH2 0x2119 JUMP JUMPDEST PUSH1 0x40 MLOAD DUP1 SWAP2 SUB SWAP1 RETURN JUMPDEST PUSH2 0x18C PUSH1 0x4 DUP1 CALLDATASIZE SUB DUP2 ADD SWAP1 PUSH2 0x187 SWAP2 SWAP1 PUSH2 0x1F19 JUMP JUMPDEST PUSH2 0x5F6 JUMP JUMPDEST PUSH1 0x40 MLOAD PUSH2 0x19D SWAP6 SWAP5 SWAP4 SWAP3 SWAP2 SWAP1 PUSH2 0x2132 JUMP JUMPDEST PUSH1 0x40 MLOAD DUP1 SWAP2 SUB SWAP1 RETURN JUMPDEST PUSH2 0x1C0 PUSH1 0x4 DUP1 CALLDATASIZE SUB DUP2 ADD SWAP1 PUSH2 0x1BB SWAP2 SWAP1 PUSH2 0x21B4 JUMP JUMPDEST PUSH2 0x8CF JUMP JUMPDEST PUSH1 0x40 MLOAD PUSH2 0x1CD SWAP2 SWAP1 PUSH2 0x234D JUMP JUMPDEST PUSH1 0x40 MLOAD DUP1 SWAP2 SUB SWAP1 RETURN JUMPDEST PUSH2 0x1F0 PUSH1 0x4 DUP1 CALLDATASIZE SUB DUP2 ADD SWAP1 PUSH2 0x1EB SWAP2 SWAP1 PUSH2 0x2397 JUMP JUMPDEST PUSH2 0xA2A JUMP JUMPDEST STOP JUMPDEST PUSH2 0x20C PUSH1 0x4 DUP1 CALLDATASIZE SUB DUP2 ADD SWAP1 PUSH2 0x207 SWAP2 SWAP1 PUSH2 0x25A1 JUMP JUMPDEST PUSH2 0xC22 JUMP JUMPDEST STOP JUMPDEST PUSH2 0x228 PUSH1 0x4 DUP1 CALLDATASIZE SUB DUP2 ADD SWAP1 PUSH2 0x223 SWAP2 SWAP1 PUSH2 0x2629 JUMP JUMPDEST PUSH2 0xFE3 JUMP JUMPDEST PUSH1 0x40 MLOAD PUSH2 0x235 SWAP2 SWAP1 PUSH2 0x2119 JUMP JUMPDEST PUSH1 0x40 MLOAD DUP1 SWAP2 SUB SWAP1 RETURN JUMPDEST PUSH2 0x258 PUSH1 0x4 DUP1 CALLDATASIZE SUB DUP2 ADD SWAP1 PUSH2 0x253 SWAP2 SWAP1 PUSH2 0x21B4 JUMP JUMPDEST PUSH2 0x11F0 JUMP JUMPDEST PUSH1 0x40 MLOAD PUSH2 0x268 SWAP5 SWAP4 SWAP3 SWAP2 SWAP1 PUSH2 0x269F JUMP JUMPDEST PUSH1 0x40 MLOAD DUP1 SWAP2 SUB SWAP1 RETURN JUMPDEST PUSH2 0x28B PUSH1 0x4 DUP1 CALLDATASIZE SUB DUP2 ADD SWAP1 PUSH2 0x286 SWAP2 SWAP1 PUSH2 0x26F0 JUMP JUMPDEST PUSH2 0x14FC JUMP JUMPDEST PUSH1 0x40 MLOAD PUSH2 0x29A SWAP4 SWAP3 SWAP2 SWAP1 PUSH2 0x272E JUMP JUMPDEST PUSH1 0x40 MLOAD DUP1 SWAP2 SUB SWAP1 RETURN JUMPDEST PUSH2 0x2BD PUSH1 0x4 DUP1 CALLDATASIZE SUB DUP2 ADD SWAP1 PUSH2 0x2B8 SWAP2 SWAP1 PUSH2 0x20EE JUMP JUMPDEST PUSH2 0x15E1 JUMP JUMPDEST STOP JUMPDEST PUSH2 0x2D9 PUSH1 0x4 DUP1 CALLDATASIZE SUB DUP2 ADD SWAP1 PUSH2 0x2D4 SWAP2 SWAP1 PUSH2 0x20EE JUMP JUMPDEST PUSH2 0x16C7 JUMP JUMPDEST PUSH1 0x40 MLOAD PUSH2 0x2E6 SWAP2 SWAP1 PUSH2 0x276A JUMP JUMPDEST PUSH1 0x40 MLOAD DUP1 SWAP2 SUB SWAP1 RETURN JUMPDEST PUSH2 0x309 PUSH1 0x4 DUP1 CALLDATASIZE SUB DUP2 ADD SWAP1 PUSH2 0x304 SWAP2 SWAP1 PUSH2 0x21B4 JUMP JUMPDEST PUSH2 0x16E4 JUMP JUMPDEST PUSH1 0x40 MLOAD PUSH2 0x31C SWAP8 SWAP7 SWAP6 SWAP5 SWAP4 SWAP3 SWAP2 SWAP1 PUSH2 0x2783 JUMP JUMPDEST PUSH1 0x40 MLOAD DUP1 SWAP2 SUB SWAP1 RETURN JUMPDEST PUSH2 0x33F PUSH1 0x4 DUP1 CALLDATASIZE SUB DUP2 ADD SWAP1 PUSH2 0x33A SWAP2 SWAP1 PUSH2 0x27FE JUMP JUMPDEST PUSH2 0x1858 JUMP JUMPDEST STOP JUMPDEST PUSH2 0x349 PUSH2 0x1B16 JUMP JUMPDEST PUSH1 0x40 MLOAD PUSH2 0x356 SWAP2 SWAP1 PUSH2 0x286A JUMP JUMPDEST PUSH1 0x40 MLOAD DUP1 SWAP2 SUB SWAP1 RETURN JUMPDEST PUSH2 0x379 PUSH1 0x4 DUP1 CALLDATASIZE SUB DUP2 ADD SWAP1 PUSH2 0x374 SWAP2 SWAP1 PUSH2 0x2883 JUMP JUMPDEST PUSH2 0x1B3B JUMP JUMPDEST STOP JUMPDEST PUSH1 0x3 DUP2 DUP1 MLOAD PUSH1 0x20 DUP2 ADD DUP3 ADD DUP1 MLOAD DUP5 DUP3 MSTORE PUSH1 0x20 DUP4 ADD PUSH1 0x20 DUP6 ADD KECCAK256 DUP2 DUP4 MSTORE DUP1 SWAP6 POP POP POP POP POP POP PUSH0 SWAP2 POP SWAP1 POP DUP1 PUSH0 ADD DUP1 SLOAD PUSH2 0x3B2 SWAP1 PUSH2 0x2954 JUMP JUMPDEST DUP1 PUSH1 0x1F ADD PUSH1 0x20 DUP1 SWAP2 DIV MUL PUSH1 0x20 ADD PUSH1 0x40 MLOAD SWAP1 DUP2 ADD PUSH1 0x40 MSTORE DUP1 SWAP3 SWAP2 SWAP1 DUP2 DUP2 MSTORE PUSH1 0x20 ADD DUP3 DUP1 SLOAD PUSH2 0x3DE SWAP1 PUSH2 0x2954 JUMP JUMPDEST DUP1 ISZERO PUSH2 0x429 JUMPI DUP1 PUSH1 0x1F LT PUSH2 0x400 JUMPI PUSH2 0x100 DUP1 DUP4 SLOAD DIV MUL DUP4 MSTORE SWAP2 PUSH1 0x20 ADD SWAP2 PUSH2 0x429 JUMP JUMPDEST DUP3 ADD SWAP2 SWAP1 PUSH0 MSTORE PUSH1 0x20 PUSH0 KECCAK256 SWAP1 JUMPDEST DUP2 SLOAD DUP2 MSTORE SWAP1 PUSH1 0x1 ADD SWAP1 PUSH1 0x20 ADD DUP1 DUP4 GT PUSH2 0x40C JUMPI DUP3 SWAP1 SUB PUSH1 0x1F AND DUP3 ADD SWAP2 JUMPDEST POP POP POP POP POP SWAP1 DUP1 PUSH1 0x1 ADD SLOAD SWAP1 DUP1 PUSH1 0x2 ADD SLOAD SWAP1 DUP1 PUSH1 0x3 ADD PUSH0 SWAP1 SLOAD SWAP1 PUSH2 0x100 EXP SWAP1 DIV PUSH1 0xFF AND SWAP1 DUP1 PUSH1 0x3 ADD PUSH1 0x1 SWAP1 SLOAD SWAP1 PUSH2 0x100 EXP SWAP1 DIV PUSH20 0xFFFFFFFFFFFFFFFFFFFFFFFFFFFFFFFFFFFFFFFF AND SWAP1 DUP1 PUSH1 0x4 ADD SLOAD SWAP1 DUP1 PUSH1 0x5 ADD DUP1 SLOAD PUSH2 0x488 SWAP1 PUSH2 0x2954 JUMP JUMPDEST DUP1 PUSH1 0x1F ADD PUSH1 0x20 DUP1 SWAP2 DIV MUL PUSH1 0x20 ADD PUSH1 0x40 MLOAD SWAP1 DUP2 ADD PUSH1 0x40 MSTORE DUP1 SWAP3 SWAP2 SWAP1 DUP2 DUP2 MSTORE PUSH1 0x20 ADD DUP3 DUP1 SLOAD PUSH2 0x4B4 SWAP1 PUSH2 0x2954 JUMP JUMPDEST DUP1 ISZERO PUSH2 0x4FF JUMPI DUP1 PUSH1 0x1F LT PUSH2 0x4D6 JUMPI PUSH2 0x100 DUP1 DUP4 SLOAD DIV MUL DUP4 MSTORE SWAP2 PUSH1 0x20 ADD SWAP2 PUSH2 0x4FF JUMP JUMPDEST DUP3 ADD SWAP2 SWAP1 PUSH0 MSTORE PUSH1 0x20 PUSH0 KECCAK256 SWAP1 JUMPDEST DUP2 SLOAD DUP2 MSTORE SWAP1 PUSH1 0x1 ADD SWAP1 PUSH1 0x20 ADD DUP1 DUP4 GT PUSH2 0x4E2 JUMPI DUP3 SWAP1 SUB PUSH1 0x1F AND DUP3 ADD SWAP2 JUMPDEST POP POP POP POP POP SWAP1 POP DUP8 JUMP JUMPDEST PUSH1 0x5 PUSH0 SWAP1 SLOAD SWAP1 PUSH2 0x100 EXP SWAP1 DIV PUSH20 0xFFFFFFFFFFFFFFFFFFFFFFFFFFFFFFFFFFFFFFFF AND PUSH20 0xFFFFFFFFFFFFFFFFFFFFFFFFFFFFFFFFFFFFFFFF AND CALLER PUSH20 0xFFFFFFFFFFFFFFFFFFFFFFFFFFFFFFFFFFFFFFFF AND EQ PUSH2 0x598 JUMPI PUSH1 0x40 MLOAD PUSH32 0x8C379A000000000000000000000000000000000000000000000000000000000 DUP2 MSTORE PUSH1 0x4 ADD PUSH2 0x58F SWAP1 PUSH2 0x29F4 JUMP JUMPDEST PUSH1 0x40 MLOAD DUP1 SWAP2 SUB SWAP1 REVERT JUMPDEST PUSH1 0x1 PUSH1 0x4 PUSH0 DUP4 PUSH20 0xFFFFFFFFFFFFFFFFFFFFFFFFFFFFFFFFFFFFFFFF AND PUSH20 0xFFFFFFFFFFFFFFFFFFFFFFFFFFFFFFFFFFFFFFFF AND DUP2 MSTORE PUSH1 0x20 ADD SWAP1 DUP2 MSTORE PUSH1 0x20 ADD PUSH0 KECCAK256 PUSH0 PUSH2 0x100 EXP DUP2 SLOAD DUP2 PUSH1 0xFF MUL NOT AND SWAP1 DUP4 ISZERO ISZERO MUL OR SWAP1 SSTORE POP POP JUMP JUMPDEST PUSH1 0x1 SLOAD DUP2 JUMP JUMPDEST PUSH0 PUSH1 0x60 PUSH0 PUSH0 PUSH0 PUSH0 PUSH1 0x3 DUP8 PUSH1 0x40 MLOAD PUSH2 0x60D SWAP2 SWAP1 PUSH2 0x2A4C JUMP JUMPDEST SWAP1 DUP2 MSTORE PUSH1 0x20 ADD PUSH1 0x40 MLOAD DUP1 SWAP2 SUB SWAP1 KECCAK256 PUSH1 0x40 MLOAD DUP1 PUSH1 0xE0 ADD PUSH1 0x40 MSTORE SWAP1 DUP2 PUSH0 DUP3 ADD DUP1 SLOAD PUSH2 0x635 SWAP1 PUSH2 0x2954 JUMP JUMPDEST DUP1 PUSH1 0x1F ADD PUSH1 0x20 DUP1 SWAP2 DIV MUL PUSH1 0x20 ADD PUSH1 0x40 MLOAD SWAP1 DUP2 ADD PUSH1 0x40 MSTORE DUP1 SWAP3 SWAP2 SWAP1 DUP2 DUP2 MSTORE PUSH1 0x20 ADD DUP3 DUP1 SLOAD PUSH2 0x661 SWAP1 PUSH2 0x2954 JUMP JUMPDEST DUP1 ISZERO PUSH2 0x6AC JUMPI DUP1 PUSH1 0x1F LT PUSH2 0x683 JUMPI PUSH2 0x100 DUP1 DUP4 SLOAD DIV MUL DUP4 MSTORE SWAP2 PUSH1 0x20 ADD SWAP2 PUSH2 0x6AC JUMP JUMPDEST DUP3 ADD SWAP2 SWAP1 PUSH0 MSTORE PUSH1 0x20 PUSH0 KECCAK256 SWAP1 JUMPDEST DUP2 SLOAD DUP2 MSTORE SWAP1 PUSH1 0x1 ADD SWAP1 PUSH1 0x20 ADD DUP1 DUP4 GT PUSH2 0x68F JUMPI DUP3 SWAP1 SUB PUSH1 0x1F AND DUP3 ADD SWAP2 JUMPDEST POP POP POP POP POP DUP2 MSTORE PUSH1 0x20 ADD PUSH1 0x1 DUP3 ADD SLOAD DUP2 MSTORE PUSH1 0x20 ADD PUSH1 0x2 DUP3 ADD SLOAD DUP2 MSTORE PUSH1 0x20 ADD PUSH1 0x3 DUP3 ADD PUSH0 SWAP1 SLOAD SWAP1 PUSH2 0x100 EXP SWAP1 DIV PUSH1 0xFF AND ISZERO ISZERO ISZERO ISZERO DUP2 MSTORE PUSH1 0x20 ADD PUSH1 0x3 DUP3 ADD PUSH1 0x1 SWAP1 SLOAD SWAP1 PUSH2 0x100 EXP SWAP1 DIV PUSH20 0xFFFFFFFFFFFFFFFFFFFFFFFFFFFFFFFFFFFFFFFF AND PUSH20 0xFFFFFFFFFFFFFFFFFFFFFFFFFFFFFFFFFFFFFFFF AND PUSH20 0xFFFFFFFFFFFFFFFFFFFFFFFFFFFFFFFFFFFFFFFF AND DUP2 MSTORE PUSH1 0x20 ADD PUSH1 0x4 DUP3 ADD SLOAD DUP2 MSTORE PUSH1 0x20 ADD PUSH1 0x5 DUP3 ADD DUP1 SLOAD PUSH2 0x753 SWAP1 PUSH2 0x2954 JUMP JUMPDEST DUP1 PUSH1 0x1F ADD PUSH1 0x20 DUP1 SWAP2 DIV MUL PUSH1 0x20 ADD PUSH1 0x40 MLOAD SWAP1 DUP2 ADD PUSH1 0x40 MSTORE DUP1 SWAP3 SWAP2 SWAP1 DUP2 DUP2 MSTORE PUSH1 0x20 ADD DUP3 DUP1 SLOAD PUSH2 0x77F SWAP1 PUSH2 0x2954 JUMP JUMPDEST DUP1 ISZERO PUSH2 0x7CA JUMPI DUP1 PUSH1 0x1F LT PUSH2 0x7A1 JUMPI PUSH2 0x100 DUP1 DUP4 SLOAD DIV MUL DUP4 MSTORE SWAP2 PUSH1 0x20 ADD SWAP2 PUSH2 0x7CA JUMP JUMPDEST DUP3 ADD SWAP2 SWAP1 PUSH0 MSTORE PUSH1 0x20 PUSH0 KECCAK256 SWAP1 JUMPDEST DUP2 SLOAD DUP2 MSTORE SWAP1 PUSH1 0x1 ADD SWAP1 PUSH1 0x20 ADD DUP1 DUP4 GT PUSH2 0x7AD JUMPI DUP3 SWAP1 SUB PUSH1 0x1F AND DUP3 ADD SWAP2 JUMPDEST POP POP POP POP POP DUP2 MSTORE POP POP SWAP1 POP PUSH0 DUP2 PUSH1 0x20 ADD MLOAD SUB PUSH2 0x806 JUMPI PUSH0 PUSH0 PUSH0 PUSH0 PUSH1 0x40 MLOAD DUP1 PUSH1 0x20 ADD PUSH1 0x40 MSTORE DUP1 PUSH0 DUP2 MSTORE POP SWAP3 SWAP2 SWAP1 SWAP6 POP SWAP6 POP SWAP6 POP SWAP6 POP SWAP6 POP POP PUSH2 0x8C6 JUMP JUMPDEST PUSH0 PUSH0 PUSH0 DUP4 PUSH1 0x20 ADD MLOAD DUP2 MSTORE PUSH1 0x20 ADD SWAP1 DUP2 MSTORE PUSH1 0x20 ADD PUSH0 KECCAK256 PUSH1 0x1 ADD DUP1 SLOAD PUSH2 0x829 SWAP1 PUSH2 0x2954 JUMP JUMPDEST DUP1 PUSH1 0x1F ADD PUSH1 0x20 DUP1 SWAP2 DIV MUL PUSH1 0x20 ADD PUSH1 0x40 MLOAD SWAP1 DUP2 ADD PUSH1 0x40 MSTORE DUP1 SWAP3 SWAP2 SWAP1 DUP2 DUP2 MSTORE PUSH1 0x20 ADD DUP3 DUP1 SLOAD PUSH2 0x855 SWAP1 PUSH2 0x2954 JUMP JUMPDEST DUP1 ISZERO PUSH2 0x8A0 JUMPI DUP1 PUSH1 0x1F LT PUSH2 0x877 JUMPI PUSH2 0x100 DUP1 DUP4 SLOAD DIV MUL DUP4 MSTORE SWAP2 PUSH1 0x20 ADD SWAP2 PUSH2 0x8A0 JUMP JUMPDEST DUP3 ADD SWAP2 SWAP1 PUSH0 MSTORE PUSH1 0x20 PUSH0 KECCAK256 SWAP1 JUMPDEST DUP2 SLOAD DUP2 MSTORE SWAP1 PUSH1 0x1 ADD SWAP1 PUSH1 0x20 ADD DUP1 DUP4 GT PUSH2 0x883 JUMPI DUP3 SWAP1 SUB PUSH1 0x1F AND DUP3 ADD SWAP2 JUMPDEST POP POP POP POP POP SWAP1 POP PUSH1 0x1 DUP2 DUP4 PUSH1 0x60 ADD MLOAD DUP5 PUSH1 0xA0 ADD MLOAD DUP6 PUSH1 0x80 ADD MLOAD SWAP7 POP SWAP7 POP SWAP7 POP SWAP7 POP SWAP7 POP POP POP JUMPDEST SWAP2 SWAP4 SWAP6 SWAP1 SWAP3 SWAP5 POP JUMP JUMPDEST PUSH1 0x60 PUSH1 0x2 PUSH0 DUP4 DUP2 MSTORE PUSH1 0x20 ADD SWAP1 DUP2 MSTORE PUSH1 0x20 ADD PUSH0 KECCAK256 DUP1 SLOAD DUP1 PUSH1 0x20 MUL PUSH1 0x20 ADD PUSH1 0x40 MLOAD SWAP1 DUP2 ADD PUSH1 0x40 MSTORE DUP1 SWAP3 SWAP2 SWAP1 DUP2 DUP2 MSTORE PUSH1 0x20 ADD PUSH0 SWAP1 JUMPDEST DUP3 DUP3 LT ISZERO PUSH2 0xA1F JUMPI DUP4 DUP3 SWAP1 PUSH0 MSTORE PUSH1 0x20 PUSH0 KECCAK256 SWAP1 PUSH1 0x3 MUL ADD PUSH1 0x40 MLOAD DUP1 PUSH1 0x60 ADD PUSH1 0x40 MSTORE SWAP1 DUP2 PUSH0 DUP3 ADD DUP1 SLOAD PUSH2 0x931 SWAP1 PUSH2 0x2954 JUMP JUMPDEST DUP1 PUSH1 0x1F ADD PUSH1 0x20 DUP1 SWAP2 DIV MUL PUSH1 0x20 ADD PUSH1 0x40 MLOAD SWAP1 DUP2 ADD PUSH1 0x40 MSTORE DUP1 SWAP3 SWAP2 SWAP1 DUP2 DUP2 MSTORE PUSH1 0x20 ADD DUP3 DUP1 SLOAD PUSH2 0x95D SWAP1 PUSH2 0x2954 JUMP JUMPDEST DUP1 ISZERO PUSH2 0x9A8 JUMPI DUP1 PUSH1 0x1F LT PUSH2 0x97F JUMPI PUSH2 0x100 DUP1 DUP4 SLOAD DIV MUL DUP4 MSTORE SWAP2 PUSH1 0x20 ADD SWAP2 PUSH2 0x9A8 JUMP JUMPDEST DUP3 ADD SWAP2 SWAP1 PUSH0 MSTORE PUSH1 0x20 PUSH0 KECCAK256 SWAP1 JUMPDEST DUP2 SLOAD DUP2 MSTORE SWAP1 PUSH1 0x1 ADD SWAP1 PUSH1 0x20 ADD DUP1 DUP4 GT PUSH2 0x98B JUMPI DUP3 SWAP1 SUB PUSH1 0x1F AND DUP3 ADD SWAP2 JUMPDEST POP POP POP POP POP DUP2 MSTORE PUSH1 0x20 ADD PUSH1 0x1 DUP3 ADD SLOAD DUP2 MSTORE PUSH1 0x20 ADD PUSH1 0x2 DUP3 ADD PUSH0 SWAP1 SLOAD SWAP1 PUSH2 0x100 EXP SWAP1 DIV PUSH20 0xFFFFFFFFFFFFFFFFFFFFFFFFFFFFFFFFFFFFFFFF AND PUSH20 0xFFFFFFFFFFFFFFFFFFFFFFFFFFFFFFFFFFFFFFFF AND PUSH20 0xFFFFFFFFFFFFFFFFFFFFFFFFFFFFFFFFFFFFFFFF AND DUP2 MSTORE POP POP DUP2 MSTORE PUSH1 0x20 ADD SWAP1 PUSH1 0x1 ADD SWAP1 PUSH2 0x901 JUMP JUMPDEST POP POP POP POP SWAP1 POP SWAP2 SWAP1 POP JUMP JUMPDEST PUSH1 0x5 PUSH0 SWAP1 SLOAD SWAP1 PUSH2 0x100 EXP SWAP1 DIV PUSH20 0xFFFFFFFFFFFFFFFFFFFFFFFFFFFFFFFFFFFFFFFF AND PUSH20 0xFFFFFFFFFFFFFFFFFFFFFFFFFFFFFFFFFFFFFFFF AND CALLER PUSH20 0xFFFFFFFFFFFFFFFFFFFFFFFFFFFFFFFFFFFFFFFF AND EQ PUSH2 0xAB9 JUMPI PUSH1 0x40 MLOAD PUSH32 0x8C379A000000000000000000000000000000000000000000000000000000000 DUP2 MSTORE PUSH1 0x4 ADD PUSH2 0xAB0 SWAP1 PUSH2 0x29F4 JUMP JUMPDEST PUSH1 0x40 MLOAD DUP1 SWAP2 SUB SWAP1 REVERT JUMPDEST PUSH0 PUSH0 DUP4 DUP2 MSTORE PUSH1 0x20 ADD SWAP1 DUP2 MSTORE PUSH1 0x20 ADD PUSH0 KECCAK256 PUSH1 0x7 ADD PUSH0 SWAP1 SLOAD SWAP1 PUSH2 0x100 EXP SWAP1 DIV PUSH1 0xFF AND PUSH2 0xB18 JUMPI PUSH1 0x40 MLOAD PUSH32 0x8C379A000000000000000000000000000000000000000000000000000000000 DUP2 MSTORE PUSH1 0x4 ADD PUSH2 0xB0F SWAP1 PUSH2 0x2AAC JUMP JUMPDEST PUSH1 0x40 MLOAD DUP1 SWAP2 SUB SWAP1 REVERT JUMPDEST DUP1 ISZERO PUSH2 0xC1E JUMPI PUSH1 0x1 PUSH0 PUSH0 DUP5 DUP2 MSTORE PUSH1 0x20 ADD SWAP1 DUP2 MSTORE PUSH1 0x20 ADD PUSH0 KECCAK256 PUSH1 0x6 ADD DUP2 SWAP1 SSTORE POP PUSH1 0x2 PUSH0 DUP4 DUP2 MSTORE PUSH1 0x20 ADD SWAP1 DUP2 MSTORE PUSH1 0x20 ADD PUSH0 KECCAK256 PUSH1 0x40 MLOAD DUP1 PUSH1 0x60 ADD PUSH1 0x40 MSTORE DUP1 PUSH1 0x40 MLOAD DUP1 PUSH1 0x60 ADD PUSH1 0x40 MSTORE DUP1 PUSH1 0x33 DUP2 MSTORE PUSH1 0x20 ADD PUSH2 0x326F PUSH1 0x33 SWAP2 CODECOPY DUP2 MSTORE PUSH1 0x20 ADD TIMESTAMP DUP2 MSTORE PUSH1 0x20 ADD CALLER PUSH20 0xFFFFFFFFFFFFFFFFFFFFFFFFFFFFFFFFFFFFFFFF AND DUP2 MSTORE POP SWAP1 DUP1 PUSH1 0x1 DUP2 SLOAD ADD DUP1 DUP3 SSTORE DUP1 SWAP2 POP POP PUSH1 0x1 SWAP1 SUB SWAP1 PUSH0 MSTORE PUSH1 0x20 PUSH0 KECCAK256 SWAP1 PUSH1 0x3 MUL ADD PUSH0 SWAP1 SWAP2 SWAP1 SWAP2 SWAP1 SWAP2 POP PUSH0 DUP3 ADD MLOAD DUP2 PUSH0 ADD SWAP1 DUP2 PUSH2 0xBCA SWAP2 SWAP1 PUSH2 0x2C6A JUMP JUMPDEST POP PUSH1 0x20 DUP3 ADD MLOAD DUP2 PUSH1 0x1 ADD SSTORE PUSH1 0x40 DUP3 ADD MLOAD DUP2 PUSH1 0x2 ADD PUSH0 PUSH2 0x100 EXP DUP2 SLOAD DUP2 PUSH20 0xFFFFFFFFFFFFFFFFFFFFFFFFFFFFFFFFFFFFFFFF MUL NOT AND SWAP1 DUP4 PUSH20 0xFFFFFFFFFFFFFFFFFFFFFFFFFFFFFFFFFFFFFFFF AND MUL OR SWAP1 SSTORE POP POP POP JUMPDEST POP POP JUMP JUMPDEST DUP3 CALLER PUSH20 0xFFFFFFFFFFFFFFFFFFFFFFFFFFFFFFFFFFFFFFFF AND PUSH0 PUSH0 DUP4 DUP2 MSTORE PUSH1 0x20 ADD SWAP1 DUP2 MSTORE PUSH1 0x20 ADD PUSH0 KECCAK256 PUSH1 0x4 ADD PUSH0 SWAP1 SLOAD SWAP1 PUSH2 0x100 EXP SWAP1 DIV PUSH20 0xFFFFFFFFFFFFFFFFFFFFFFFFFFFFFFFFFFFFFFFF AND PUSH20 0xFFFFFFFFFFFFFFFFFFFFFFFFFFFFFFFFFFFFFFFF AND EQ PUSH2 0xCC3 JUMPI PUSH1 0x40 MLOAD PUSH32 0x8C379A000000000000000000000000000000000000000000000000000000000 DUP2 MSTORE PUSH1 0x4 ADD PUSH2 0xCBA SWAP1 PUSH2 0x2DA9 JUMP JUMPDEST PUSH1 0x40 MLOAD DUP1 SWAP2 SUB SWAP1 REVERT JUMPDEST PUSH0 PUSH0 DUP6 DUP2 MSTORE PUSH1 0x20 ADD SWAP1 DUP2 MSTORE PUSH1 0x20 ADD PUSH0 KECCAK256 PUSH1 0x7 ADD PUSH0 SWAP1 SLOAD SWAP1 PUSH2 0x100 EXP SWAP1 DIV PUSH1 0xFF AND PUSH2 0xD22 JUMPI PUSH1 0x40 MLOAD PUSH32 0x8C379A000000000000000000000000000000000000000000000000000000000 DUP2 MSTORE PUSH1 0x4 ADD PUSH2 0xD19 SWAP1 PUSH2 0x2AAC JUMP JUMPDEST PUSH1 0x40 MLOAD DUP1 SWAP2 SUB SWAP1 REVERT JUMPDEST DUP2 MLOAD DUP4 MLOAD EQ PUSH2 0xD66 JUMPI PUSH1 0x40 MLOAD PUSH32 0x8C379A000000000000000000000000000000000000000000000000000000000 DUP2 MSTORE PUSH1 0x4 ADD PUSH2 0xD5D SWAP1 PUSH2 0x2E11 JUMP JUMPDEST PUSH1 0x40 MLOAD DUP1 SWAP2 SUB SWAP1 REVERT JUMPDEST PUSH0 PUSH0 SWAP1 POP JUMPDEST DUP4 MLOAD DUP2 LT ISZERO PUSH2 0xFDC JUMPI PUSH0 DUP5 DUP3 DUP2 MLOAD DUP2 LT PUSH2 0xD88 JUMPI PUSH2 0xD87 PUSH2 0x2E2F JUMP JUMPDEST JUMPDEST PUSH1 0x20 MUL PUSH1 0x20 ADD ADD MLOAD SWAP1 POP PUSH0 PUSH1 0x3 DUP3 PUSH1 0x40 MLOAD PUSH2 0xDA3 SWAP2 SWAP1 PUSH2 0x2A4C JUMP JUMPDEST SWAP1 DUP2 MSTORE PUSH1 0x20 ADD PUSH1 0x40 MLOAD DUP1 SWAP2 SUB SWAP1 KECCAK256 PUSH1 0x1 ADD SLOAD EQ PUSH2 0xDF5 JUMPI PUSH1 0x40 MLOAD PUSH32 0x8C379A000000000000000000000000000000000000000000000000000000000 DUP2 MSTORE PUSH1 0x4 ADD PUSH2 0xDEC SWAP1 PUSH2 0x2EA6 JUMP JUMPDEST PUSH1 0x40 MLOAD DUP1 SWAP2 SUB SWAP1 REVERT JUMPDEST PUSH1 0x40 MLOAD DUP1 PUSH1 0xE0 ADD PUSH1 0x40 MSTORE DUP1 DUP3 DUP2 MSTORE PUSH1 0x20 ADD DUP8 DUP2 MSTORE PUSH1 0x20 ADD DUP6 DUP5 DUP2 MLOAD DUP2 LT PUSH2 0xE1F JUMPI PUSH2 0xE1E PUSH2 0x2E2F JUMP JUMPDEST JUMPDEST PUSH1 0x20 MUL PUSH1 0x20 ADD ADD MLOAD DUP2 MSTORE PUSH1 0x20 ADD PUSH0 ISZERO ISZERO DUP2 MSTORE PUSH1 0x20 ADD PUSH0 PUSH20 0xFFFFFFFFFFFFFFFFFFFFFFFFFFFFFFFFFFFFFFFF AND DUP2 MSTORE PUSH1 0x20 ADD PUSH0 DUP2 MSTORE PUSH1 0x20 ADD PUSH1 0x40 MLOAD DUP1 PUSH1 0x20 ADD PUSH1 0x40 MSTORE DUP1 PUSH0 DUP2 MSTORE POP DUP2 MSTORE POP PUSH1 0x3 DUP3 PUSH1 0x40 MLOAD PUSH2 0xE78 SWAP2 SWAP1 PUSH2 0x2A4C JUMP JUMPDEST SWAP1 DUP2 MSTORE PUSH1 0x20 ADD PUSH1 0x40 MLOAD DUP1 SWAP2 SUB SWAP1 KECCAK256 PUSH0 DUP3 ADD MLOAD DUP2 PUSH0 ADD SWAP1 DUP2 PUSH2 0xE99 SWAP2 SWAP1 PUSH2 0x2C6A JUMP JUMPDEST POP PUSH1 0x20 DUP3 ADD MLOAD DUP2 PUSH1 0x1 ADD SSTORE PUSH1 0x40 DUP3 ADD MLOAD DUP2 PUSH1 0x2 ADD SSTORE PUSH1 0x60 DUP3 ADD MLOAD DUP2 PUSH1 0x3 ADD PUSH0 PUSH2 0x100 EXP DUP2 SLOAD DUP2 PUSH1 0xFF MUL NOT AND SWAP1 DUP4 ISZERO ISZERO MUL OR SWAP1 SSTORE POP PUSH1 0x80 DUP3 ADD MLOAD DUP2 PUSH1 0x3 ADD PUSH1 0x1 PUSH2 0x100 EXP DUP2 SLOAD DUP2 PUSH20 0xFFFFFFFFFFFFFFFFFFFFFFFFFFFFFFFFFFFFFFFF MUL NOT AND SWAP1 DUP4 PUSH20 0xFFFFFFFFFFFFFFFFFFFFFFFFFFFFFFFFFFFFFFFF AND MUL OR SWAP1 SSTORE POP PUSH1 0xA0 DUP3 ADD MLOAD DUP2 PUSH1 0x4 ADD SSTORE PUSH1 0xC0 DUP3 ADD MLOAD DUP2 PUSH1 0x5 ADD SWAP1 DUP2 PUSH2 0xF33 SWAP2 SWAP1 PUSH2 0x2C6A JUMP JUMPDEST POP SWAP1 POP POP PUSH0 PUSH0 DUP8 DUP2 MSTORE PUSH1 0x20 ADD SWAP1 DUP2 MSTORE PUSH1 0x20 ADD PUSH0 KECCAK256 PUSH1 0x5 ADD DUP2 SWAP1 DUP1 PUSH1 0x1 DUP2 SLOAD ADD DUP1 DUP3 SSTORE DUP1 SWAP2 POP POP PUSH1 0x1 SWAP1 SUB SWAP1 PUSH0 MSTORE PUSH1 0x20 PUSH0 KECCAK256 ADD PUSH0 SWAP1 SWAP2 SWAP1 SWAP2 SWAP1 SWAP2 POP SWAP1 DUP2 PUSH2 0xF79 SWAP2 SWAP1 PUSH2 0x2C6A JUMP JUMPDEST POP DUP6 PUSH32 0x41329BA3D8D8457E0897226E1765ACA0AE7AAC66D8757909B4FCBDDF283E9B45 DUP3 DUP7 DUP6 DUP2 MLOAD DUP2 LT PUSH2 0xFB0 JUMPI PUSH2 0xFAF PUSH2 0x2E2F JUMP JUMPDEST JUMPDEST PUSH1 0x20 MUL PUSH1 0x20 ADD ADD MLOAD PUSH1 0x40 MLOAD PUSH2 0xFC6 SWAP3 SWAP2 SWAP1 PUSH2 0x2EC4 JUMP JUMPDEST PUSH1 0x40 MLOAD DUP1 SWAP2 SUB SWAP1 LOG2 POP DUP1 DUP1 PUSH1 0x1 ADD SWAP2 POP POP PUSH2 0xD6B JUMP JUMPDEST POP POP POP POP POP JUMP JUMPDEST PUSH0 PUSH1 0x1 PUSH0 DUP2 SLOAD DUP1 SWAP3 SWAP2 SWAP1 PUSH2 0xFF6 SWAP1 PUSH2 0x2F1F JUMP JUMPDEST SWAP2 SWAP1 POP SSTORE POP PUSH0 PUSH1 0x1 SLOAD SWAP1 POP PUSH0 PUSH0 PUSH0 DUP4 DUP2 MSTORE PUSH1 0x20 ADD SWAP1 DUP2 MSTORE PUSH1 0x20 ADD PUSH0 KECCAK256 SWAP1 POP DUP2 DUP2 PUSH0 ADD DUP2 SWAP1 SSTORE POP DUP5 DUP2 PUSH1 0x1 ADD SWAP1 DUP2 PUSH2 0x102D SWAP2 SWAP1 PUSH2 0x2C6A JUMP JUMPDEST POP DUP4 DUP2 PUSH1 0x2 ADD SWAP1 DUP2 PUSH2 0x103F SWAP2 SWAP1 PUSH2 0x2C6A JUMP JUMPDEST POP TIMESTAMP DUP2 PUSH1 0x3 ADD DUP2 SWAP1 SSTORE POP CALLER DUP2 PUSH1 0x4 ADD PUSH0 PUSH2 0x100 EXP DUP2 SLOAD DUP2 PUSH20 0xFFFFFFFFFFFFFFFFFFFFFFFFFFFFFFFFFFFFFFFF MUL NOT AND SWAP1 DUP4 PUSH20 0xFFFFFFFFFFFFFFFFFFFFFFFFFFFFFFFFFFFFFFFF AND MUL OR SWAP1 SSTORE POP PUSH0 DUP2 PUSH1 0x6 ADD DUP2 SWAP1 SSTORE POP PUSH1 0x1 DUP2 PUSH1 0x7 ADD PUSH0 PUSH2 0x100 EXP DUP2 SLOAD DUP2 PUSH1 0xFF MUL NOT AND SWAP1 DUP4 ISZERO ISZERO MUL OR SWAP1 SSTORE POP PUSH1 0x2 PUSH0 DUP4 DUP2 MSTORE PUSH1 0x20 ADD SWAP1 DUP2 MSTORE PUSH1 0x20 ADD PUSH0 KECCAK256 PUSH1 0x40 MLOAD DUP1 PUSH1 0x60 ADD PUSH1 0x40 MSTORE DUP1 PUSH1 0x40 MLOAD DUP1 PUSH1 0x60 ADD PUSH1 0x40 MSTORE DUP1 PUSH1 0x21 DUP2 MSTORE PUSH1 0x20 ADD PUSH2 0x324E PUSH1 0x21 SWAP2 CODECOPY DUP2 MSTORE PUSH1 0x20 ADD TIMESTAMP DUP2 MSTORE PUSH1 0x20 ADD CALLER PUSH20 0xFFFFFFFFFFFFFFFFFFFFFFFFFFFFFFFFFFFFFFFF AND DUP2 MSTORE POP SWAP1 DUP1 PUSH1 0x1 DUP2 SLOAD ADD DUP1 DUP3 SSTORE DUP1 SWAP2 POP POP PUSH1 0x1 SWAP1 SUB SWAP1 PUSH0 MSTORE PUSH1 0x20 PUSH0 KECCAK256 SWAP1 PUSH1 0x3 MUL ADD PUSH0 SWAP1 SWAP2 SWAP1 SWAP2 SWAP1 SWAP2 POP PUSH0 DUP3 ADD MLOAD DUP2 PUSH0 ADD SWAP1 DUP2 PUSH2 0x1143 SWAP2 SWAP1 PUSH2 0x2C6A JUMP JUMPDEST POP PUSH1 0x20 DUP3 ADD MLOAD DUP2 PUSH1 0x1 ADD SSTORE PUSH1 0x40 DUP3 ADD MLOAD DUP2 PUSH1 0x2 ADD PUSH0 PUSH2 0x100 EXP DUP2 SLOAD DUP2 PUSH20 0xFFFFFFFFFFFFFFFFFFFFFFFFFFFFFFFFFFFFFFFF MUL NOT AND SWAP1 DUP4 PUSH20 0xFFFFFFFFFFFFFFFFFFFFFFFFFFFFFFFFFFFFFFFF AND MUL OR SWAP1 SSTORE POP POP POP CALLER PUSH20 0xFFFFFFFFFFFFFFFFFFFFFFFFFFFFFFFFFFFFFFFF AND DUP3 PUSH32 0x195A26ECF0C9B8FB957ECC3A7C029CE84849279DE600E16F205EE789052052B6 DUP8 PUSH1 0x40 MLOAD PUSH2 0x11DD SWAP2 SWAP1 PUSH2 0x2F66 JUMP JUMPDEST PUSH1 0x40 MLOAD DUP1 SWAP2 SUB SWAP1 LOG3 DUP2 SWAP3 POP POP POP SWAP3 SWAP2 POP POP JUMP JUMPDEST PUSH1 0x60 DUP1 PUSH0 PUSH0 PUSH0 PUSH0 PUSH0 DUP8 DUP2 MSTORE PUSH1 0x20 ADD SWAP1 DUP2 MSTORE PUSH1 0x20 ADD PUSH0 KECCAK256 PUSH1 0x40 MLOAD DUP1 PUSH2 0x100 ADD PUSH1 0x40 MSTORE SWAP1 DUP2 PUSH0 DUP3 ADD SLOAD DUP2 MSTORE PUSH1 0x20 ADD PUSH1 0x1 DUP3 ADD DUP1 SLOAD PUSH2 0x122B SWAP1 PUSH2 0x2954 JUMP JUMPDEST DUP1 PUSH1 0x1F ADD PUSH1 0x20 DUP1 SWAP2 DIV MUL PUSH1 0x20 ADD PUSH1 0x40 MLOAD SWAP1 DUP2 ADD PUSH1 0x40 MSTORE DUP1 SWAP3 SWAP2 SWAP1 DUP2 DUP2 MSTORE PUSH1 0x20 ADD DUP3 DUP1 SLOAD PUSH2 0x1257 SWAP1 PUSH2 0x2954 JUMP JUMPDEST DUP1 ISZERO PUSH2 0x12A2 JUMPI DUP1 PUSH1 0x1F LT PUSH2 0x1279 JUMPI PUSH2 0x100 DUP1 DUP4 SLOAD DIV MUL DUP4 MSTORE SWAP2 PUSH1 0x20 ADD SWAP2 PUSH2 0x12A2 JUMP JUMPDEST DUP3 ADD SWAP2 SWAP1 PUSH0 MSTORE PUSH1 0x20 PUSH0 KECCAK256 SWAP1 JUMPDEST DUP2 SLOAD DUP2 MSTORE SWAP1 PUSH1 0x1 ADD SWAP1 PUSH1 0x20 ADD DUP1 DUP4 GT PUSH2 0x1285 JUMPI DUP3 SWAP1 SUB PUSH1 0x1F AND DUP3 ADD SWAP2 JUMPDEST POP POP POP POP POP DUP2 MSTORE PUSH1 0x20 ADD PUSH1 0x2 DUP3 ADD DUP1 SLOAD PUSH2 0x12BB SWAP1 PUSH2 0x2954 JUMP JUMPDEST DUP1 PUSH1 0x1F ADD PUSH1 0x20 DUP1 SWAP2 DIV MUL PUSH1 0x20 ADD PUSH1 0x40 MLOAD SWAP1 DUP2 ADD PUSH1 0x40 MSTORE DUP1 SWAP3 SWAP2 SWAP1 DUP2 DUP2 MSTORE PUSH1 0x20 ADD DUP3 DUP1 SLOAD PUSH2 0x12E7 SWAP1 PUSH2 0x2954 JUMP JUMPDEST DUP1 ISZERO PUSH2 0x1332 JUMPI DUP1 PUSH1 0x1F LT PUSH2 0x1309 JUMPI PUSH2 0x100 DUP1 DUP4 SLOAD DIV MUL DUP4 MSTORE SWAP2 PUSH1 0x20 ADD SWAP2 PUSH2 0x1332 JUMP JUMPDEST DUP3 ADD SWAP2 SWAP1 PUSH0 MSTORE PUSH1 0x20 PUSH0 KECCAK256 SWAP1 JUMPDEST DUP2 SLOAD DUP2 MSTORE SWAP1 PUSH1 0x1 ADD SWAP1 PUSH1 0x20 ADD DUP1 DUP4 GT PUSH2 0x1315 JUMPI DUP3 SWAP1 SUB PUSH1 0x1F AND DUP3 ADD SWAP2 JUMPDEST POP POP POP POP POP DUP2 MSTORE PUSH1 0x20 ADD PUSH1 0x3 DUP3 ADD SLOAD DUP2 MSTORE PUSH1 0x20 ADD PUSH1 0x4 DUP3 ADD PUSH0 SWAP1 SLOAD SWAP1 PUSH2 0x100 EXP SWAP1 DIV PUSH20 0xFFFFFFFFFFFFFFFFFFFFFFFFFFFFFFFFFFFFFFFF AND PUSH20 0xFFFFFFFFFFFFFFFFFFFFFFFFFFFFFFFFFFFFFFFF AND PUSH20 0xFFFFFFFFFFFFFFFFFFFFFFFFFFFFFFFFFFFFFFFF AND DUP2 MSTORE PUSH1 0x20 ADD PUSH1 0x5 DUP3 ADD DUP1 SLOAD DUP1 PUSH1 0x20 MUL PUSH1 0x20 ADD PUSH1 0x40 MLOAD SWAP1 DUP2 ADD PUSH1 0x40 MSTORE DUP1 SWAP3 SWAP2 SWAP1 DUP2 DUP2 MSTORE PUSH1 0x20 ADD PUSH0 SWAP1 JUMPDEST DUP3 DUP3 LT ISZERO PUSH2 0x1466 JUMPI DUP4 DUP3 SWAP1 PUSH0 MSTORE PUSH1 0x20 PUSH0 KECCAK256 ADD DUP1 SLOAD PUSH2 0x13DB SWAP1 PUSH2 0x2954 JUMP JUMPDEST DUP1 PUSH1 0x1F ADD PUSH1 0x20 DUP1 SWAP2 DIV MUL PUSH1 0x20 ADD PUSH1 0x40 MLOAD SWAP1 DUP2 ADD PUSH1 0x40 MSTORE DUP1 SWAP3 SWAP2 SWAP1 DUP2 DUP2 MSTORE PUSH1 0x20 ADD DUP3 DUP1 SLOAD PUSH2 0x1407 SWAP1 PUSH2 0x2954 JUMP JUMPDEST DUP1 ISZERO PUSH2 0x1452 JUMPI DUP1 PUSH1 0x1F LT PUSH2 0x1429 JUMPI PUSH2 0x100 DUP1 DUP4 SLOAD DIV MUL DUP4 MSTORE SWAP2 PUSH1 0x20 ADD SWAP2 PUSH2 0x1452 JUMP JUMPDEST DUP3 ADD SWAP2 SWAP1 PUSH0 MSTORE PUSH1 0x20 PUSH0 KECCAK256 SWAP1 JUMPDEST DUP2 SLOAD DUP2 MSTORE SWAP1 PUSH1 0x1 ADD SWAP1 PUSH1 0x20 ADD DUP1 DUP4 GT PUSH2 0x1435 JUMPI DUP3 SWAP1 SUB PUSH1 0x1F AND DUP3 ADD SWAP2 JUMPDEST POP POP POP POP POP DUP2 MSTORE PUSH1 0x20 ADD SWAP1 PUSH1 0x1 ADD SWAP1 PUSH2 0x13BE JUMP JUMPDEST POP POP POP POP DUP2 MSTORE PUSH1 0x20 ADD PUSH1 0x6 DUP3 ADD SLOAD DUP2 MSTORE PUSH1 0x20 ADD PUSH1 0x7 DUP3 ADD PUSH0 SWAP1 SLOAD SWAP1 PUSH2 0x100 EXP SWAP1 DIV PUSH1 0xFF AND ISZERO ISZERO ISZERO ISZERO DUP2 MSTORE POP POP SWAP1 POP DUP1 PUSH1 0xE0 ADD MLOAD PUSH2 0x14D8 JUMPI PUSH1 0x40 MLOAD PUSH32 0x8C379A000000000000000000000000000000000000000000000000000000000 DUP2 MSTORE PUSH1 0x4 ADD PUSH2 0x14CF SWAP1 PUSH2 0x2AAC JUMP JUMPDEST PUSH1 0x40 MLOAD DUP1 SWAP2 SUB SWAP1 REVERT JUMPDEST DUP1 PUSH1 0x20 ADD MLOAD DUP2 PUSH1 0x40 ADD MLOAD DUP3 PUSH1 0x80 ADD MLOAD DUP4 PUSH1 0xC0 ADD MLOAD SWAP5 POP SWAP5 POP SWAP5 POP SWAP5 POP POP SWAP2 SWAP4 POP SWAP2 SWAP4 JUMP JUMPDEST PUSH1 0x2 PUSH1 0x20 MSTORE DUP2 PUSH0 MSTORE PUSH1 0x40 PUSH0 KECCAK256 DUP2 DUP2 SLOAD DUP2 LT PUSH2 0x1515 JUMPI PUSH0 DUP1 REVERT JUMPDEST SWAP1 PUSH0 MSTORE PUSH1 0x20 PUSH0 KECCAK256 SWAP1 PUSH1 0x3 MUL ADD PUSH0 SWAP2 POP SWAP2 POP POP DUP1 PUSH0 ADD DUP1 SLOAD PUSH2 0x1535 SWAP1 PUSH2 0x2954 JUMP JUMPDEST DUP1 PUSH1 0x1F ADD PUSH1 0x20 DUP1 SWAP2 DIV MUL PUSH1 0x20 ADD PUSH1 0x40 MLOAD SWAP1 DUP2 ADD PUSH1 0x40 MSTORE DUP1 SWAP3 SWAP2 SWAP1 DUP2 DUP2 MSTORE PUSH1 0x20 ADD DUP3 DUP1 SLOAD PUSH2 0x1561 SWAP1 PUSH2 0x2954 JUMP JUMPDEST DUP1 ISZERO PUSH2 0x15AC JUMPI DUP1 PUSH1 0x1F LT PUSH2 0x1583 JUMPI PUSH2 0x100 DUP1 DUP4 SLOAD DIV MUL DUP4 MSTORE SWAP2 PUSH1 0x20 ADD SWAP2 PUSH2 0x15AC JUMP JUMPDEST DUP3 ADD SWAP2 SWAP1 PUSH0 MSTORE PUSH1 0x20 PUSH0 KECCAK256 SWAP1 JUMPDEST DUP2 SLOAD DUP2 MSTORE SWAP1 PUSH1 0x1 ADD SWAP1 PUSH1 0x20 ADD DUP1 DUP4 GT PUSH2 0x158F JUMPI DUP3 SWAP1 SUB PUSH1 0x1F AND DUP3 ADD SWAP2 JUMPDEST POP POP POP POP POP SWAP1 DUP1 PUSH1 0x1 ADD SLOAD SWAP1 DUP1 PUSH1 0x2 ADD PUSH0 SWAP1 SLOAD SWAP1 PUSH2 0x100 EXP SWAP1 DIV PUSH20 0xFFFFFFFFFFFFFFFFFFFFFFFFFFFFFFFFFFFFFFFF AND SWAP1 POP DUP4 JUMP JUMPDEST PUSH1 0x5 PUSH0 SWAP1 SLOAD SWAP1 PUSH2 0x100 EXP SWAP1 DIV PUSH20 0xFFFFFFFFFFFFFFFFFFFFFFFFFFFFFFFFFFFFFFFF AND PUSH20 0xFFFFFFFFFFFFFFFFFFFFFFFFFFFFFFFFFFFFFFFF AND CALLER PUSH20 0xFFFFFFFFFFFFFFFFFFFFFFFFFFFFFFFFFFFFFFFF AND EQ PUSH2 0x1670 JUMPI PUSH1 0x40 MLOAD PUSH32 0x8C379A000000000000000000000000000000000000000000000000000000000 DUP2 MSTORE PUSH1 0x4 ADD PUSH2 0x1667 SWAP1 PUSH2 0x29F4 JUMP JUMPDEST PUSH1 0x40 MLOAD DUP1 SWAP2 SUB SWAP1 REVERT JUMPDEST PUSH0 PUSH1 0x4 PUSH0 DUP4 PUSH20 0xFFFFFFFFFFFFFFFFFFFFFFFFFFFFFFFFFFFFFFFF AND PUSH20 0xFFFFFFFFFFFFFFFFFFFFFFFFFFFFFFFFFFFFFFFF AND DUP2 MSTORE PUSH1 0x20 ADD SWAP1 DUP2 MSTORE PUSH1 0x20 ADD PUSH0 KECCAK256 PUSH0 PUSH2 0x100 EXP DUP2 SLOAD DUP2 PUSH1 0xFF MUL NOT AND SWAP1 DUP4 ISZERO ISZERO MUL OR SWAP1 SSTORE POP POP JUMP JUMPDEST PUSH1 0x4 PUSH1 0x20 MSTORE DUP1 PUSH0 MSTORE PUSH1 0x40 PUSH0 KECCAK256 PUSH0 SWAP2 POP SLOAD SWAP1 PUSH2 0x100 EXP SWAP1 DIV PUSH1 0xFF AND DUP2 JUMP JUMPDEST PUSH0 PUSH1 0x20 MSTORE DUP1 PUSH0 MSTORE PUSH1 0x40 PUSH0 KECCAK256 PUSH0 SWAP2 POP SWAP1 POP DUP1 PUSH0 ADD SLOAD SWAP1 DUP1 PUSH1 0x1 ADD DUP1 SLOAD PUSH2 0x1708 SWAP1 PUSH2 0x2954 JUMP JUMPDEST DUP1 PUSH1 0x1F ADD PUSH1 0x20 DUP1 SWAP2 DIV MUL PUSH1 0x20 ADD PUSH1 0x40 MLOAD SWAP1 DUP2 ADD PUSH1 0x40 MSTORE DUP1 SWAP3 SWAP2 SWAP1 DUP2 DUP2 MSTORE PUSH1 0x20 ADD DUP3 DUP1 SLOAD PUSH2 0x1734 SWAP1 PUSH2 0x2954 JUMP JUMPDEST DUP1 ISZERO PUSH2 0x177F JUMPI DUP1 PUSH1 0x1F LT PUSH2 0x1756 JUMPI PUSH2 0x100 DUP1 DUP4 SLOAD DIV MUL DUP4 MSTORE SWAP2 PUSH1 0x20 ADD SWAP2 PUSH2 0x177F JUMP JUMPDEST DUP3 ADD SWAP2 SWAP1 PUSH0 MSTORE PUSH1 0x20 PUSH0 KECCAK256 SWAP1 JUMPDEST DUP2 SLOAD DUP2 MSTORE SWAP1 PUSH1 0x1 ADD SWAP1 PUSH1 0x20 ADD DUP1 DUP4 GT PUSH2 0x1762 JUMPI DUP3 SWAP1 SUB PUSH1 0x1F AND DUP3 ADD SWAP2 JUMPDEST POP POP POP POP POP SWAP1 DUP1 PUSH1 0x2 ADD DUP1 SLOAD PUSH2 0x1794 SWAP1 PUSH2 0x2954 JUMP JUMPDEST DUP1 PUSH1 0x1F ADD PUSH1 0x20 DUP1 SWAP2 DIV MUL PUSH1 0x20 ADD PUSH1 0x40 MLOAD SWAP1 DUP2 ADD PUSH1 0x40 MSTORE DUP1 SWAP3 SWAP2 SWAP1 DUP2 DUP2 MSTORE PUSH1 0x20 ADD DUP3 DUP1 SLOAD PUSH2 0x17C0 SWAP1 PUSH2 0x2954 JUMP JUMPDEST DUP1 ISZERO PUSH2 0x180B JUMPI DUP1 PUSH1 0x1F LT PUSH2 0x17E2 JUMPI PUSH2 0x100 DUP1 DUP4 SLOAD DIV MUL DUP4 MSTORE SWAP2 PUSH1 0x20 ADD SWAP2 PUSH2 0x180B JUMP JUMPDEST DUP3 ADD SWAP2 SWAP1 PUSH0 MSTORE PUSH1 0x20 PUSH0 KECCAK256 SWAP1 JUMPDEST DUP2 SLOAD DUP2 MSTORE SWAP1 PUSH1 0x1 ADD SWAP1 PUSH1 0x20 ADD DUP1 DUP4 GT PUSH2 0x17EE JUMPI DUP3 SWAP1 SUB PUSH1 0x1F AND DUP3 ADD SWAP2 JUMPDEST POP POP POP POP POP SWAP1 DUP1 PUSH1 0x3 ADD SLOAD SWAP1 DUP1 PUSH1 0x4 ADD PUSH0 SWAP1 SLOAD SWAP1 PUSH2 0x100 EXP SWAP1 DIV PUSH20 0xFFFFFFFFFFFFFFFFFFFFFFFFFFFFFFFFFFFFFFFF AND SWAP1 DUP1 PUSH1 0x6 ADD SLOAD SWAP1 DUP1 PUSH1 0x7 ADD PUSH0 SWAP1 SLOAD SWAP1 PUSH2 0x100 EXP SWAP1 DIV PUSH1 0xFF AND SWAP1 POP DUP8 JUMP JUMPDEST DUP3 CALLER PUSH20 0xFFFFFFFFFFFFFFFFFFFFFFFFFFFFFFFFFFFFFFFF AND PUSH0 PUSH0 DUP4 DUP2 MSTORE PUSH1 0x20 ADD SWAP1 DUP2 MSTORE PUSH1 0x20 ADD PUSH0 KECCAK256 PUSH1 0x4 ADD PUSH0 SWAP1 SLOAD SWAP1 PUSH2 0x100 EXP SWAP1 DIV PUSH20 0xFFFFFFFFFFFFFFFFFFFFFFFFFFFFFFFFFFFFFFFF AND PUSH20 0xFFFFFFFFFFFFFFFFFFFFFFFFFFFFFFFFFFFFFFFF AND EQ PUSH2 0x18F9 JUMPI PUSH1 0x40 MLOAD PUSH32 0x8C379A000000000000000000000000000000000000000000000000000000000 DUP2 MSTORE PUSH1 0x4 ADD PUSH2 0x18F0 SWAP1 PUSH2 0x2DA9 JUMP JUMPDEST PUSH1 0x40 MLOAD DUP1 SWAP2 SUB SWAP1 REVERT JUMPDEST PUSH0 PUSH20 0xFFFFFFFFFFFFFFFFFFFFFFFFFFFFFFFFFFFFFFFF AND DUP4 PUSH20 0xFFFFFFFFFFFFFFFFFFFFFFFFFFFFFFFFFFFFFFFF AND SUB PUSH2 0x1967 JUMPI PUSH1 0x40 MLOAD PUSH32 0x8C379A000000000000000000000000000000000000000000000000000000000 DUP2 MSTORE PUSH1 0x4 ADD PUSH2 0x195E SWAP1 PUSH2 0x2FD0 JUMP JUMPDEST PUSH1 0x40 MLOAD DUP1 SWAP2 SUB SWAP1 REVERT JUMPDEST PUSH0 PUSH0 PUSH0 DUP7 DUP2 MSTORE PUSH1 0x20 ADD SWAP1 DUP2 MSTORE PUSH1 0x20 ADD PUSH0 KECCAK256 PUSH1 0x4 ADD PUSH0 SWAP1 SLOAD SWAP1 PUSH2 0x100 EXP SWAP1 DIV PUSH20 0xFFFFFFFFFFFFFFFFFFFFFFFFFFFFFFFFFFFFFFFF AND SWAP1 POP DUP4 PUSH0 PUSH0 DUP8 DUP2 MSTORE PUSH1 0x20 ADD SWAP1 DUP2 MSTORE PUSH1 0x20 ADD PUSH0 KECCAK256 PUSH1 0x4 ADD PUSH0 PUSH2 0x100 EXP DUP2 SLOAD DUP2 PUSH20 0xFFFFFFFFFFFFFFFFFFFFFFFFFFFFFFFFFFFFFFFF MUL NOT AND SWAP1 DUP4 PUSH20 0xFFFFFFFFFFFFFFFFFFFFFFFFFFFFFFFFFFFFFFFF AND MUL OR SWAP1 SSTORE POP PUSH1 0x2 PUSH0 PUSH0 DUP8 DUP2 MSTORE PUSH1 0x20 ADD SWAP1 DUP2 MSTORE PUSH1 0x20 ADD PUSH0 KECCAK256 PUSH1 0x6 ADD DUP2 SWAP1 SSTORE POP PUSH1 0x2 PUSH0 DUP7 DUP2 MSTORE PUSH1 0x20 ADD SWAP1 DUP2 MSTORE PUSH1 0x20 ADD PUSH0 KECCAK256 PUSH1 0x40 MLOAD DUP1 PUSH1 0x60 ADD PUSH1 0x40 MSTORE DUP1 DUP6 DUP2 MSTORE PUSH1 0x20 ADD TIMESTAMP DUP2 MSTORE PUSH1 0x20 ADD CALLER PUSH20 0xFFFFFFFFFFFFFFFFFFFFFFFFFFFFFFFFFFFFFFFF AND DUP2 MSTORE POP SWAP1 DUP1 PUSH1 0x1 DUP2 SLOAD ADD DUP1 DUP3 SSTORE DUP1 SWAP2 POP POP PUSH1 0x1 SWAP1 SUB SWAP1 PUSH0 MSTORE PUSH1 0x20 PUSH0 KECCAK256 SWAP1 PUSH1 0x3 MUL ADD PUSH0 SWAP1 SWAP2 SWAP1 SWAP2 SWAP1 SWAP2 POP PUSH0 DUP3 ADD MLOAD DUP2 PUSH0 ADD SWAP1 DUP2 PUSH2 0x1A82 SWAP2 SWAP1 PUSH2 0x2C6A JUMP JUMPDEST POP PUSH1 0x20 DUP3 ADD MLOAD DUP2 PUSH1 0x1 ADD SSTORE PUSH1 0x40 DUP3 ADD MLOAD DUP2 PUSH1 0x2 ADD PUSH0 PUSH2 0x100 EXP DUP2 SLOAD DUP2 PUSH20 0xFFFFFFFFFFFFFFFFFFFFFFFFFFFFFFFFFFFFFFFF MUL NOT AND SWAP1 DUP4 PUSH20 0xFFFFFFFFFFFFFFFFFFFFFFFFFFFFFFFFFFFFFFFF AND MUL OR SWAP1 SSTORE POP POP POP DUP5 PUSH32 0xB9F31D1B8DB0327A09CDE76DE6662EE23A4ECD72FBB0411CDFA7969FED7ABE44 DUP3 DUP7 PUSH1 0x40 MLOAD PUSH2 0x1B07 SWAP3 SWAP2 SWAP1 PUSH2 0x2FEE JUMP JUMPDEST PUSH1 0x40 MLOAD DUP1 SWAP2 SUB SWAP1 LOG2 POP POP POP POP POP JUMP JUMPDEST PUSH1 0x5 PUSH0 SWAP1 SLOAD SWAP1 PUSH2 0x100 EXP SWAP1 DIV PUSH20 0xFFFFFFFFFFFFFFFFFFFFFFFFFFFFFFFFFFFFFFFF AND DUP2 JUMP JUMPDEST PUSH1 0x4 PUSH0 CALLER PUSH20 0xFFFFFFFFFFFFFFFFFFFFFFFFFFFFFFFFFFFFFFFF AND PUSH20 0xFFFFFFFFFFFFFFFFFFFFFFFFFFFFFFFFFFFFFFFF AND DUP2 MSTORE PUSH1 0x20 ADD SWAP1 DUP2 MSTORE PUSH1 0x20 ADD PUSH0 KECCAK256 PUSH0 SWAP1 SLOAD SWAP1 PUSH2 0x100 EXP SWAP1 DIV PUSH1 0xFF AND PUSH2 0x1BC4 JUMPI PUSH1 0x40 MLOAD PUSH32 0x8C379A000000000000000000000000000000000000000000000000000000000 DUP2 MSTORE PUSH1 0x4 ADD PUSH2 0x1BBB SWAP1 PUSH2 0x3085 JUMP JUMPDEST PUSH1 0x40 MLOAD DUP1 SWAP2 SUB SWAP1 REVERT JUMPDEST PUSH0 PUSH1 0x3 DUP5 PUSH1 0x40 MLOAD PUSH2 0x1BD5 SWAP2 SWAP1 PUSH2 0x2A4C JUMP JUMPDEST SWAP1 DUP2 MSTORE PUSH1 0x20 ADD PUSH1 0x40 MLOAD DUP1 SWAP2 SUB SWAP1 KECCAK256 SWAP1 POP PUSH0 DUP2 PUSH1 0x1 ADD SLOAD SUB PUSH2 0x1C2B JUMPI PUSH1 0x40 MLOAD PUSH32 0x8C379A000000000000000000000000000000000000000000000000000000000 DUP2 MSTORE PUSH1 0x4 ADD PUSH2 0x1C22 SWAP1 PUSH2 0x3113 JUMP JUMPDEST PUSH1 0x40 MLOAD DUP1 SWAP2 SUB SWAP1 REVERT JUMPDEST DUP1 PUSH1 0x3 ADD PUSH0 SWAP1 SLOAD SWAP1 PUSH2 0x100 EXP SWAP1 DIV PUSH1 0xFF AND ISZERO PUSH2 0x1C7C JUMPI PUSH1 0x40 MLOAD PUSH32 0x8C379A000000000000000000000000000000000000000000000000000000000 DUP2 MSTORE PUSH1 0x4 ADD PUSH2 0x1C73 SWAP1 PUSH2 0x31A1 JUMP JUMPDEST PUSH1 0x40 MLOAD DUP1 SWAP2 SUB SWAP1 REVERT JUMPDEST DUP1 PUSH1 0x2 ADD SLOAD DUP4 PUSH1 0x40 MLOAD PUSH1 0x20 ADD PUSH2 0x1C92 SWAP2 SWAP1 PUSH2 0x2A4C JUMP JUMPDEST PUSH1 0x40 MLOAD PUSH1 0x20 DUP2 DUP4 SUB SUB DUP2 MSTORE SWAP1 PUSH1 0x40 MSTORE DUP1 MLOAD SWAP1 PUSH1 0x20 ADD KECCAK256 EQ PUSH2 0x1CE8 JUMPI PUSH1 0x40 MLOAD PUSH32 0x8C379A000000000000000000000000000000000000000000000000000000000 DUP2 MSTORE PUSH1 0x4 ADD PUSH2 0x1CDF SWAP1 PUSH2 0x322F JUMP JUMPDEST PUSH1 0x40 MLOAD DUP1 SWAP2 SUB SWAP1 REVERT JUMPDEST PUSH1 0x1 DUP2 PUSH1 0x3 ADD PUSH0 PUSH2 0x100 EXP DUP2 SLOAD DUP2 PUSH1 0xFF MUL NOT AND SWAP1 DUP4 ISZERO ISZERO MUL OR SWAP1 SSTORE POP CALLER DUP2 PUSH1 0x3 ADD PUSH1 0x1 PUSH2 0x100 EXP DUP2 SLOAD DUP2 PUSH20 0xFFFFFFFFFFFFFFFFFFFFFFFFFFFFFFFFFFFFFFFF MUL NOT AND SWAP1 DUP4 PUSH20 0xFFFFFFFFFFFFFFFFFFFFFFFFFFFFFFFFFFFFFFFF AND MUL OR SWAP1 SSTORE POP TIMESTAMP DUP2 PUSH1 0x4 ADD DUP2 SWAP1 SSTORE POP DUP2 DUP2 PUSH1 0x5 ADD SWAP1 DUP2 PUSH2 0x1D61 SWAP2 SWAP1 PUSH2 0x2C6A JUMP JUMPDEST POP CALLER PUSH20 0xFFFFFFFFFFFFFFFFFFFFFFFFFFFFFFFFFFFFFFFF AND DUP5 PUSH1 0x40 MLOAD PUSH2 0x1D87 SWAP2 SWAP1 PUSH2 0x2A4C JUMP JUMPDEST PUSH1 0x40 MLOAD DUP1 SWAP2 SUB SWAP1 KECCAK256 PUSH32 0xD0597DE7B4841220D83E82517EF6D92DF0C5EDAB071069F65A89C2C66CA407AA TIMESTAMP PUSH1 0x40 MLOAD PUSH2 0x1DBE SWAP2 SWAP1 PUSH2 0x2119 JUMP JUMPDEST PUSH1 0x40 MLOAD DUP1 SWAP2 SUB SWAP1 LOG3 POP POP POP POP JUMP JUMPDEST PUSH0 PUSH1 0x40 MLOAD SWAP1 POP SWAP1 JUMP JUMPDEST PUSH0 PUSH0 REVERT JUMPDEST PUSH0 PUSH0 REVERT JUMPDEST PUSH0 PUSH0 REVERT JUMPDEST PUSH0 PUSH0 REVERT JUMPDEST PUSH0 PUSH1 0x1F NOT PUSH1 0x1F DUP4 ADD AND SWAP1 POP SWAP2 SWAP1 POP JUMP JUMPDEST PUSH32 0x4E487B7100000000000000000000000000000000000000000000000000000000 PUSH0 MSTORE PUSH1 0x41 PUSH1 0x4 MSTORE PUSH1 0x24 PUSH0 REVERT JUMPDEST PUSH2 0x1E2B DUP3 PUSH2 0x1DE5 JUMP JUMPDEST DUP2 ADD DUP2 DUP2 LT PUSH8 0xFFFFFFFFFFFFFFFF DUP3 GT OR ISZERO PUSH2 0x1E4A JUMPI PUSH2 0x1E49 PUSH2 0x1DF5 JUMP JUMPDEST JUMPDEST DUP1 PUSH1 0x40 MSTORE POP POP POP JUMP JUMPDEST PUSH0 PUSH2 0x1E5C PUSH2 0x1DCC JUMP JUMPDEST SWAP1 POP PUSH2 0x1E68 DUP3 DUP3 PUSH2 0x1E22 JUMP JUMPDEST SWAP2 SWAP1 POP JUMP JUMPDEST PUSH0 PUSH8 0xFFFFFFFFFFFFFFFF DUP3 GT ISZERO PUSH2 0x1E87 JUMPI PUSH2 0x1E86 PUSH2 0x1DF5 JUMP JUMPDEST JUMPDEST PUSH2 0x1E90 DUP3 PUSH2 0x1DE5 JUMP JUMPDEST SWAP1 POP PUSH1 0x20 DUP2 ADD SWAP1 POP SWAP2 SWAP1 POP JUMP JUMPDEST DUP3 DUP2 DUP4 CALLDATACOPY PUSH0 DUP4 DUP4 ADD MSTORE POP POP POP JUMP JUMPDEST PUSH0 PUSH2 0x1EBD PUSH2 0x1EB8 DUP5 PUSH2 0x1E6D JUMP JUMPDEST PUSH2 0x1E53 JUMP JUMPDEST SWAP1 POP DUP3 DUP2 MSTORE PUSH1 0x20 DUP2 ADD DUP5 DUP5 DUP5 ADD GT ISZERO PUSH2 0x1ED9 JUMPI PUSH2 0x1ED8 PUSH2 0x1DE1 JUMP JUMPDEST JUMPDEST PUSH2 0x1EE4 DUP5 DUP3 DUP6 PUSH2 0x1E9D JUMP JUMPDEST POP SWAP4 SWAP3 POP POP POP JUMP JUMPDEST PUSH0 DUP3 PUSH1 0x1F DUP4 ADD SLT PUSH2 0x1F00 JUMPI PUSH2 0x1EFF PUSH2 0x1DDD JUMP JUMPDEST JUMPDEST DUP2 CALLDATALOAD PUSH2 0x1F10 DUP5 DUP3 PUSH1 0x20 DUP7 ADD PUSH2 0x1EAB JUMP JUMPDEST SWAP2 POP POP SWAP3 SWAP2 POP POP JUMP JUMPDEST PUSH0 PUSH1 0x20 DUP3 DUP5 SUB SLT ISZERO PUSH2 0x1F2E JUMPI PUSH2 0x1F2D PUSH2 0x1DD5 JUMP JUMPDEST JUMPDEST PUSH0 DUP3 ADD CALLDATALOAD PUSH8 0xFFFFFFFFFFFFFFFF DUP2 GT ISZERO PUSH2 0x1F4B JUMPI PUSH2 0x1F4A PUSH2 0x1DD9 JUMP JUMPDEST JUMPDEST PUSH2 0x1F57 DUP5 DUP3 DUP6 ADD PUSH2 0x1EEC JUMP JUMPDEST SWAP2 POP POP SWAP3 SWAP2 POP POP JUMP JUMPDEST PUSH0 DUP2 MLOAD SWAP1 POP SWAP2 SWAP1 POP JUMP JUMPDEST PUSH0 DUP3 DUP3 MSTORE PUSH1 0x20 DUP3 ADD SWAP1 POP SWAP3 SWAP2 POP POP JUMP JUMPDEST DUP3 DUP2 DUP4 MCOPY PUSH0 DUP4 DUP4 ADD MSTORE POP POP POP JUMP JUMPDEST PUSH0 PUSH2 0x1F92 DUP3 PUSH2 0x1F60 JUMP JUMPDEST PUSH2 0x1F9C DUP2 DUP6 PUSH2 0x1F6A JUMP JUMPDEST SWAP4 POP PUSH2 0x1FAC DUP2 DUP6 PUSH1 0x20 DUP7 ADD PUSH2 0x1F7A JUMP JUMPDEST PUSH2 0x1FB5 DUP2 PUSH2 0x1DE5 JUMP JUMPDEST DUP5 ADD SWAP2 POP POP SWAP3 SWAP2 POP POP JUMP JUMPDEST PUSH0 DUP2 SWAP1 POP SWAP2 SWAP1 POP JUMP JUMPDEST PUSH2 0x1FD2 DUP2 PUSH2 0x1FC0 JUMP JUMPDEST DUP3 MSTORE POP POP JUMP JUMPDEST PUSH0 DUP2 SWAP1 POP SWAP2 SWAP1 POP JUMP JUMPDEST PUSH2 0x1FEA DUP2 PUSH2 0x1FD8 JUMP JUMPDEST DUP3 MSTORE POP POP JUMP JUMPDEST PUSH0 DUP2 ISZERO ISZERO SWAP1 POP SWAP2 SWAP1 POP JUMP JUMPDEST PUSH2 0x2004 DUP2 PUSH2 0x1FF0 JUMP JUMPDEST DUP3 MSTORE POP POP JUMP JUMPDEST PUSH0 PUSH20 0xFFFFFFFFFFFFFFFFFFFFFFFFFFFFFFFFFFFFFFFF DUP3 AND SWAP1 POP SWAP2 SWAP1 POP JUMP JUMPDEST PUSH0 PUSH2 0x2033 DUP3 PUSH2 0x200A JUMP JUMPDEST SWAP1 POP SWAP2 SWAP1 POP JUMP JUMPDEST PUSH2 0x2043 DUP2 PUSH2 0x2029 JUMP JUMPDEST DUP3 MSTORE POP POP JUMP JUMPDEST PUSH0 PUSH1 0xE0 DUP3 ADD SWAP1 POP DUP2 DUP2 SUB PUSH0 DUP4 ADD MSTORE PUSH2 0x2061 DUP2 DUP11 PUSH2 0x1F88 JUMP JUMPDEST SWAP1 POP PUSH2 0x2070 PUSH1 0x20 DUP4 ADD DUP10 PUSH2 0x1FC9 JUMP JUMPDEST PUSH2 0x207D PUSH1 0x40 DUP4 ADD DUP9 PUSH2 0x1FE1 JUMP JUMPDEST PUSH2 0x208A PUSH1 0x60 DUP4 ADD DUP8 PUSH2 0x1FFB JUMP JUMPDEST PUSH2 0x2097 PUSH1 0x80 DUP4 ADD DUP7 PUSH2 0x203A JUMP JUMPDEST PUSH2 0x20A4 PUSH1 0xA0 DUP4 ADD DUP6 PUSH2 0x1FC9 JUMP JUMPDEST DUP2 DUP2 SUB PUSH1 0xC0 DUP4 ADD MSTORE PUSH2 0x20B6 DUP2 DUP5 PUSH2 0x1F88 JUMP JUMPDEST SWAP1 POP SWAP9 SWAP8 POP POP POP POP POP POP POP POP JUMP JUMPDEST PUSH2 0x20CD DUP2 PUSH2 0x2029 JUMP JUMPDEST DUP2 EQ PUSH2 0x20D7 JUMPI PUSH0 PUSH0 REVERT JUMPDEST POP JUMP JUMPDEST PUSH0 DUP2 CALLDATALOAD SWAP1 POP PUSH2 0x20E8 DUP2 PUSH2 0x20C4 JUMP JUMPDEST SWAP3 SWAP2 POP POP JUMP JUMPDEST PUSH0 PUSH1 0x20 DUP3 DUP5 SUB SLT ISZERO PUSH2 0x2103 JUMPI PUSH2 0x2102 PUSH2 0x1DD5 JUMP JUMPDEST JUMPDEST PUSH0 PUSH2 0x2110 DUP5 DUP3 DUP6 ADD PUSH2 0x20DA JUMP JUMPDEST SWAP2 POP POP SWAP3 SWAP2 POP POP JUMP JUMPDEST PUSH0 PUSH1 0x20 DUP3 ADD SWAP1 POP PUSH2 0x212C PUSH0 DUP4 ADD DUP5 PUSH2 0x1FC9 JUMP JUMPDEST SWAP3 SWAP2 POP POP JUMP JUMPDEST PUSH0 PUSH1 0xA0 DUP3 ADD SWAP1 POP PUSH2 0x2145 PUSH0 DUP4 ADD DUP9 PUSH2 0x1FFB JUMP JUMPDEST DUP2 DUP2 SUB PUSH1 0x20 DUP4 ADD MSTORE PUSH2 0x2157 DUP2 DUP8 PUSH2 0x1F88 JUMP JUMPDEST SWAP1 POP PUSH2 0x2166 PUSH1 0x40 DUP4 ADD DUP7 PUSH2 0x1FFB JUMP JUMPDEST PUSH2 0x2173 PUSH1 0x60 DUP4 ADD DUP6 PUSH2 0x1FC9 JUMP JUMPDEST PUSH2 0x2180 PUSH1 0x80 DUP4 ADD DUP5 PUSH2 0x203A JUMP JUMPDEST SWAP7 SWAP6 POP POP POP POP POP POP JUMP JUMPDEST PUSH2 0x2193 DUP2 PUSH2 0x1FC0 JUMP JUMPDEST DUP2 EQ PUSH2 0x219D JUMPI PUSH0 PUSH0 REVERT JUMPDEST POP JUMP JUMPDEST PUSH0 DUP2 CALLDATALOAD SWAP1 POP PUSH2 0x21AE DUP2 PUSH2 0x218A JUMP JUMPDEST SWAP3 SWAP2 POP POP JUMP JUMPDEST PUSH0 PUSH1 0x20 DUP3 DUP5 SUB SLT ISZERO PUSH2 0x21C9 JUMPI PUSH2 0x21C8 PUSH2 0x1DD5 JUMP JUMPDEST JUMPDEST PUSH0 PUSH2 0x21D6 DUP5 DUP3 DUP6 ADD PUSH2 0x21A0 JUMP JUMPDEST SWAP2 POP POP SWAP3 SWAP2 POP POP JUMP JUMPDEST PUSH0 DUP2 MLOAD SWAP1 POP SWAP2 SWAP1 POP JUMP JUMPDEST PUSH0 DUP3 DUP3 MSTORE PUSH1 0x20 DUP3 ADD SWAP1 POP SWAP3 SWAP2 POP POP JUMP JUMPDEST PUSH0 DUP2 SWAP1 POP PUSH1 0x20 DUP3 ADD SWAP1 POP SWAP2 SWAP1 POP JUMP JUMPDEST PUSH0 DUP3 DUP3 MSTORE PUSH1 0x20 DUP3 ADD SWAP1 POP SWAP3 SWAP2 POP POP JUMP JUMPDEST PUSH0 PUSH2 0x2222 DUP3 PUSH2 0x1F60 JUMP JUMPDEST PUSH2 0x222C DUP2 DUP6 PUSH2 0x2208 JUMP JUMPDEST SWAP4 POP PUSH2 0x223C DUP2 DUP6 PUSH1 0x20 DUP7 ADD PUSH2 0x1F7A JUMP JUMPDEST PUSH2 0x2245 DUP2 PUSH2 0x1DE5 JUMP JUMPDEST DUP5 ADD SWAP2 POP POP SWAP3 SWAP2 POP POP JUMP JUMPDEST PUSH2 0x2259 DUP2 PUSH2 0x1FC0 JUMP JUMPDEST DUP3 MSTORE POP POP JUMP JUMPDEST PUSH2 0x2268 DUP2 PUSH2 0x2029 JUMP JUMPDEST DUP3 MSTORE POP POP JUMP JUMPDEST PUSH0 PUSH1 0x60 DUP4 ADD PUSH0 DUP4 ADD MLOAD DUP5 DUP3 SUB PUSH0 DUP7 ADD MSTORE PUSH2 0x2288 DUP3 DUP3 PUSH2 0x2218 JUMP JUMPDEST SWAP2 POP POP PUSH1 0x20 DUP4 ADD MLOAD PUSH2 0x229D PUSH1 0x20 DUP7 ADD DUP3 PUSH2 0x2250 JUMP JUMPDEST POP PUSH1 0x40 DUP4 ADD MLOAD PUSH2 0x22B0 PUSH1 0x40 DUP7 ADD DUP3 PUSH2 0x225F JUMP JUMPDEST POP DUP1 SWAP2 POP POP SWAP3 SWAP2 POP POP JUMP JUMPDEST PUSH0 PUSH2 0x22C6 DUP4 DUP4 PUSH2 0x226E JUMP JUMPDEST SWAP1 POP SWAP3 SWAP2 POP POP JUMP JUMPDEST PUSH0 PUSH1 0x20 DUP3 ADD SWAP1 POP SWAP2 SWAP1 POP JUMP JUMPDEST PUSH0 PUSH2 0x22E4 DUP3 PUSH2 0x21DF JUMP JUMPDEST PUSH2 0x22EE DUP2 DUP6 PUSH2 0x21E9 JUMP JUMPDEST SWAP4 POP DUP4 PUSH1 0x20 DUP3 MUL DUP6 ADD PUSH2 0x2300 DUP6 PUSH2 0x21F9 JUMP JUMPDEST DUP1 PUSH0 JUMPDEST DUP6 DUP2 LT ISZERO PUSH2 0x233B JUMPI DUP5 DUP5 SUB DUP10 MSTORE DUP2 MLOAD PUSH2 0x231C DUP6 DUP3 PUSH2 0x22BB JUMP JUMPDEST SWAP5 POP PUSH2 0x2327 DUP4 PUSH2 0x22CE JUMP JUMPDEST SWAP3 POP PUSH1 0x20 DUP11 ADD SWAP10 POP POP PUSH1 0x1 DUP2 ADD SWAP1 POP PUSH2 0x2303 JUMP JUMPDEST POP DUP3 SWAP8 POP DUP8 SWAP6 POP POP POP POP POP POP SWAP3 SWAP2 POP POP JUMP JUMPDEST PUSH0 PUSH1 0x20 DUP3 ADD SWAP1 POP DUP2 DUP2 SUB PUSH0 DUP4 ADD MSTORE PUSH2 0x2365 DUP2 DUP5 PUSH2 0x22DA JUMP JUMPDEST SWAP1 POP SWAP3 SWAP2 POP POP JUMP JUMPDEST PUSH2 0x2376 DUP2 PUSH2 0x1FF0 JUMP JUMPDEST DUP2 EQ PUSH2 0x2380 JUMPI PUSH0 PUSH0 REVERT JUMPDEST POP JUMP JUMPDEST PUSH0 DUP2 CALLDATALOAD SWAP1 POP PUSH2 0x2391 DUP2 PUSH2 0x236D JUMP JUMPDEST SWAP3 SWAP2 POP POP JUMP JUMPDEST PUSH0 PUSH0 PUSH1 0x40 DUP4 DUP6 SUB SLT ISZERO PUSH2 0x23AD JUMPI PUSH2 0x23AC PUSH2 0x1DD5 JUMP JUMPDEST JUMPDEST PUSH0 PUSH2 0x23BA DUP6 DUP3 DUP7 ADD PUSH2 0x21A0 JUMP JUMPDEST SWAP3 POP POP PUSH1 0x20 PUSH2 0x23CB DUP6 DUP3 DUP7 ADD PUSH2 0x2383 JUMP JUMPDEST SWAP2 POP POP SWAP3 POP SWAP3 SWAP1 POP JUMP JUMPDEST PUSH0 PUSH8 0xFFFFFFFFFFFFFFFF DUP3 GT ISZERO PUSH2 0x23EF JUMPI PUSH2 0x23EE PUSH2 0x1DF5 JUMP JUMPDEST JUMPDEST PUSH1 0x20 DUP3 MUL SWAP1 POP PUSH1 0x20 DUP2 ADD SWAP1 POP SWAP2 SWAP1 POP JUMP JUMPDEST PUSH0 PUSH0 REVERT JUMPDEST PUSH0 PUSH2 0x2416 PUSH2 0x2411 DUP5 PUSH2 0x23D5 JUMP JUMPDEST PUSH2 0x1E53 JUMP JUMPDEST SWAP1 POP DUP1 DUP4 DUP3 MSTORE PUSH1 0x20 DUP3 ADD SWAP1 POP PUSH1 0x20 DUP5 MUL DUP4 ADD DUP6 DUP2 GT ISZERO PUSH2 0x2439 JUMPI PUSH2 0x2438 PUSH2 0x2400 JUMP JUMPDEST JUMPDEST DUP4 JUMPDEST DUP2 DUP2 LT ISZERO PUSH2 0x2480 JUMPI DUP1 CALLDATALOAD PUSH8 0xFFFFFFFFFFFFFFFF DUP2 GT ISZERO PUSH2 0x245E JUMPI PUSH2 0x245D PUSH2 0x1DDD JUMP JUMPDEST JUMPDEST DUP1 DUP7 ADD PUSH2 0x246B DUP10 DUP3 PUSH2 0x1EEC JUMP JUMPDEST DUP6 MSTORE PUSH1 0x20 DUP6 ADD SWAP5 POP POP POP PUSH1 0x20 DUP2 ADD SWAP1 POP PUSH2 0x243B JUMP JUMPDEST POP POP POP SWAP4 SWAP3 POP POP POP JUMP JUMPDEST PUSH0 DUP3 PUSH1 0x1F DUP4 ADD SLT PUSH2 0x249E JUMPI PUSH2 0x249D PUSH2 0x1DDD JUMP JUMPDEST JUMPDEST DUP2 CALLDATALOAD PUSH2 0x24AE DUP5 DUP3 PUSH1 0x20 DUP7 ADD PUSH2 0x2404 JUMP JUMPDEST SWAP2 POP POP SWAP3 SWAP2 POP POP JUMP JUMPDEST PUSH0 PUSH8 0xFFFFFFFFFFFFFFFF DUP3 GT ISZERO PUSH2 0x24D1 JUMPI PUSH2 0x24D0 PUSH2 0x1DF5 JUMP JUMPDEST JUMPDEST PUSH1 0x20 DUP3 MUL SWAP1 POP PUSH1 0x20 DUP2 ADD SWAP1 POP SWAP2 SWAP1 POP JUMP JUMPDEST PUSH2 0x24EB DUP2 PUSH2 0x1FD8 JUMP JUMPDEST DUP2 EQ PUSH2 0x24F5 JUMPI PUSH0 PUSH0 REVERT JUMPDEST POP JUMP JUMPDEST PUSH0 DUP2 CALLDATALOAD SWAP1 POP PUSH2 0x2506 DUP2 PUSH2 0x24E2 JUMP JUMPDEST SWAP3 SWAP2 POP POP JUMP JUMPDEST PUSH0 PUSH2 0x251E PUSH2 0x2519 DUP5 PUSH2 0x24B7 JUMP JUMPDEST PUSH2 0x1E53 JUMP JUMPDEST SWAP1 POP DUP1 DUP4 DUP3 MSTORE PUSH1 0x20 DUP3 ADD SWAP1 POP PUSH1 0x20 DUP5 MUL DUP4 ADD DUP6 DUP2 GT ISZERO PUSH2 0x2541 JUMPI PUSH2 0x2540 PUSH2 0x2400 JUMP JUMPDEST JUMPDEST DUP4 JUMPDEST DUP2 DUP2 LT ISZERO PUSH2 0x256A JUMPI DUP1 PUSH2 0x2556 DUP9 DUP3 PUSH2 0x24F8 JUMP JUMPDEST DUP5 MSTORE PUSH1 0x20 DUP5 ADD SWAP4 POP POP PUSH1 0x20 DUP2 ADD SWAP1 POP PUSH2 0x2543 JUMP JUMPDEST POP POP POP SWAP4 SWAP3 POP POP POP JUMP JUMPDEST PUSH0 DUP3 PUSH1 0x1F DUP4 ADD SLT PUSH2 0x2588 JUMPI PUSH2 0x2587 PUSH2 0x1DDD JUMP JUMPDEST JUMPDEST DUP2 CALLDATALOAD PUSH2 0x2598 DUP5 DUP3 PUSH1 0x20 DUP7 ADD PUSH2 0x250C JUMP JUMPDEST SWAP2 POP POP SWAP3 SWAP2 POP POP JUMP JUMPDEST PUSH0 PUSH0 PUSH0 PUSH1 0x60 DUP5 DUP7 SUB SLT ISZERO PUSH2 0x25B8 JUMPI PUSH2 0x25B7 PUSH2 0x1DD5 JUMP JUMPDEST JUMPDEST PUSH0 PUSH2 0x25C5 DUP7 DUP3 DUP8 ADD PUSH2 0x21A0 JUMP JUMPDEST SWAP4 POP POP PUSH1 0x20 DUP5 ADD CALLDATALOAD PUSH8 0xFFFFFFFFFFFFFFFF DUP2 GT ISZERO PUSH2 0x25E6 JUMPI PUSH2 0x25E5 PUSH2 0x1DD9 JUMP JUMPDEST JUMPDEST PUSH2 0x25F2 DUP7 DUP3 DUP8 ADD PUSH2 0x248A JUMP JUMPDEST SWAP3 POP POP PUSH1 0x40 DUP5 ADD CALLDATALOAD PUSH8 0xFFFFFFFFFFFFFFFF DUP2 GT ISZERO PUSH2 0x2613 JUMPI PUSH2 0x2612 PUSH2 0x1DD9 JUMP JUMPDEST JUMPDEST PUSH2 0x261F DUP7 DUP3 DUP8 ADD PUSH2 0x2574 JUMP JUMPDEST SWAP2 POP POP SWAP3 POP SWAP3 POP SWAP3 JUMP JUMPDEST PUSH0 PUSH0 PUSH1 0x40 DUP4 DUP6 SUB SLT ISZERO PUSH2 0x263F JUMPI PUSH2 0x263E PUSH2 0x1DD5 JUMP JUMPDEST JUMPDEST PUSH0 DUP4 ADD CALLDATALOAD PUSH8 0xFFFFFFFFFFFFFFFF DUP2 GT ISZERO PUSH2 0x265C JUMPI PUSH2 0x265B PUSH2 0x1DD9 JUMP JUMPDEST JUMPDEST PUSH2 0x2668 DUP6 DUP3 DUP7 ADD PUSH2 0x1EEC JUMP JUMPDEST SWAP3 POP POP PUSH1 0x20 DUP4 ADD CALLDATALOAD PUSH8 0xFFFFFFFFFFFFFFFF DUP2 GT ISZERO PUSH2 0x2689 JUMPI PUSH2 0x2688 PUSH2 0x1DD9 JUMP JUMPDEST JUMPDEST PUSH2 0x2695 DUP6 DUP3 DUP7 ADD PUSH2 0x1EEC JUMP JUMPDEST SWAP2 POP POP SWAP3 POP SWAP3 SWAP1 POP JUMP JUMPDEST PUSH0 PUSH1 0x80 DUP3 ADD SWAP1 POP DUP2 DUP2 SUB PUSH0 DUP4 ADD MSTORE PUSH2 0x26B7 DUP2 DUP8 PUSH2 0x1F88 JUMP JUMPDEST SWAP1 POP DUP2 DUP2 SUB PUSH1 0x20 DUP4 ADD MSTORE PUSH2 0x26CB DUP2 DUP7 PUSH2 0x1F88 JUMP JUMPDEST SWAP1 POP PUSH2 0x26DA PUSH1 0x40 DUP4 ADD DUP6 PUSH2 0x203A JUMP JUMPDEST PUSH2 0x26E7 PUSH1 0x60 DUP4 ADD DUP5 PUSH2 0x1FC9 JUMP JUMPDEST SWAP6 SWAP5 POP POP POP POP POP JUMP JUMPDEST PUSH0 PUSH0 PUSH1 0x40 DUP4 DUP6 SUB SLT ISZERO PUSH2 0x2706 JUMPI PUSH2 0x2705 PUSH2 0x1DD5 JUMP JUMPDEST JUMPDEST PUSH0 PUSH2 0x2713 DUP6 DUP3 DUP7 ADD PUSH2 0x21A0 JUMP JUMPDEST SWAP3 POP POP PUSH1 0x20 PUSH2 0x2724 DUP6 DUP3 DUP7 ADD PUSH2 0x21A0 JUMP JUMPDEST SWAP2 POP POP SWAP3 POP SWAP3 SWAP1 POP JUMP JUMPDEST PUSH0 PUSH1 0x60 DUP3 ADD SWAP1 POP DUP2 DUP2 SUB PUSH0 DUP4 ADD MSTORE PUSH2 0x2746 DUP2 DUP7 PUSH2 0x1F88 JUMP JUMPDEST SWAP1 POP PUSH2 0x2755 PUSH1 0x20 DUP4 ADD DUP6 PUSH2 0x1FC9 JUMP JUMPDEST PUSH2 0x2762 PUSH1 0x40 DUP4 ADD DUP5 PUSH2 0x203A JUMP JUMPDEST SWAP5 SWAP4 POP POP POP POP JUMP JUMPDEST PUSH0 PUSH1 0x20 DUP3 ADD SWAP1 POP PUSH2 0x277D PUSH0 DUP4 ADD DUP5 PUSH2 0x1FFB JUMP JUMPDEST SWAP3 SWAP2 POP POP JUMP JUMPDEST PUSH0 PUSH1 0xE0 DUP3 ADD SWAP1 POP PUSH2 0x2796 PUSH0 DUP4 ADD DUP11 PUSH2 0x1FC9 JUMP JUMPDEST DUP2 DUP2 SUB PUSH1 0x20 DUP4 ADD MSTORE PUSH2 0x27A8 DUP2 DUP10 PUSH2 0x1F88 JUMP JUMPDEST SWAP1 POP DUP2 DUP2 SUB PUSH1 0x40 DUP4 ADD MSTORE PUSH2 0x27BC DUP2 DUP9 PUSH2 0x1F88 JUMP JUMPDEST SWAP1 POP PUSH2 0x27CB PUSH1 0x60 DUP4 ADD DUP8 PUSH2 0x1FC9 JUMP JUMPDEST PUSH2 0x27D8 PUSH1 0x80 DUP4 ADD DUP7 PUSH2 0x203A JUMP JUMPDEST PUSH2 0x27E5 PUSH1 0xA0 DUP4 ADD DUP6 PUSH2 0x1FC9 JUMP JUMPDEST PUSH2 0x27F2 PUSH1 0xC0 DUP4 ADD DUP5 PUSH2 0x1FFB JUMP JUMPDEST SWAP9 SWAP8 POP POP POP POP POP POP POP POP JUMP JUMPDEST PUSH0 PUSH0 PUSH0 PUSH1 0x60 DUP5 DUP7 SUB SLT ISZERO PUSH2 0x2815 JUMPI PUSH2 0x2814 PUSH2 0x1DD5 JUMP JUMPDEST JUMPDEST PUSH0 PUSH2 0x2822 DUP7 DUP3 DUP8 ADD PUSH2 0x21A0 JUMP JUMPDEST SWAP4 POP POP PUSH1 0x20 PUSH2 0x2833 DUP7 DUP3 DUP8 ADD PUSH2 0x20DA JUMP JUMPDEST SWAP3 POP POP PUSH1 0x40 DUP5 ADD CALLDATALOAD PUSH8 0xFFFFFFFFFFFFFFFF DUP2 GT ISZERO PUSH2 0x2854 JUMPI PUSH2 0x2853 PUSH2 0x1DD9 JUMP JUMPDEST JUMPDEST PUSH2 0x2860 DUP7 DUP3 DUP8 ADD PUSH2 0x1EEC JUMP JUMPDEST SWAP2 POP POP SWAP3 POP SWAP3 POP SWAP3 JUMP JUMPDEST PUSH0 PUSH1 0x20 DUP3 ADD SWAP1 POP PUSH2 0x287D PUSH0 DUP4 ADD DUP5 PUSH2 0x203A JUMP JUMPDEST SWAP3 SWAP2 POP POP JUMP JUMPDEST PUSH0 PUSH0 PUSH0 PUSH1 0x60 DUP5 DUP7 SUB SLT ISZERO PUSH2 0x289A JUMPI PUSH2 0x2899 PUSH2 0x1DD5 JUMP JUMPDEST JUMPDEST PUSH0 DUP5 ADD CALLDATALOAD PUSH8 0xFFFFFFFFFFFFFFFF DUP2 GT ISZERO PUSH2 0x28B7 JUMPI PUSH2 0x28B6 PUSH2 0x1DD9 JUMP JUMPDEST JUMPDEST PUSH2 0x28C3 DUP7 DUP3 DUP8 ADD PUSH2 0x1EEC JUMP JUMPDEST SWAP4 POP POP PUSH1 0x20 DUP5 ADD CALLDATALOAD PUSH8 0xFFFFFFFFFFFFFFFF DUP2 GT ISZERO PUSH2 0x28E4 JUMPI PUSH2 0x28E3 PUSH2 0x1DD9 JUMP JUMPDEST JUMPDEST PUSH2 0x28F0 DUP7 DUP3 DUP8 ADD PUSH2 0x1EEC JUMP JUMPDEST SWAP3 POP POP PUSH1 0x40 DUP5 ADD CALLDATALOAD PUSH8 0xFFFFFFFFFFFFFFFF DUP2 GT ISZERO PUSH2 0x2911 JUMPI PUSH2 0x2910 PUSH2 0x1DD9 JUMP JUMPDEST JUMPDEST PUSH2 0x291D DUP7 DUP3 DUP8 ADD PUSH2 0x1EEC JUMP JUMPDEST SWAP2 POP POP SWAP3 POP SWAP3 POP SWAP3 JUMP JUMPDEST PUSH32 0x4E487B7100000000000000000000000000000000000000000000000000000000 PUSH0 MSTORE PUSH1 0x22 PUSH1 0x4 MSTORE PUSH1 0x24 PUSH0 REVERT JUMPDEST PUSH0 PUSH1 0x2 DUP3 DIV SWAP1 POP PUSH1 0x1 DUP3 AND DUP1 PUSH2 0x296B JUMPI PUSH1 0x7F DUP3 AND SWAP2 POP JUMPDEST PUSH1 0x20 DUP3 LT DUP2 SUB PUSH2 0x297E JUMPI PUSH2 0x297D PUSH2 0x2927 JUMP JUMPDEST JUMPDEST POP SWAP2 SWAP1 POP JUMP JUMPDEST PUSH32 0x4368E1BB892041646D696E206DE1BB9B6920C491C6B0E1BBA363207468E1BBB1 PUSH0 DUP3 ADD MSTORE PUSH32 0x63206869E1BB876E000000000000000000000000000000000000000000000000 PUSH1 0x20 DUP3 ADD MSTORE POP JUMP JUMPDEST PUSH0 PUSH2 0x29DE PUSH1 0x28 DUP4 PUSH2 0x1F6A JUMP JUMPDEST SWAP2 POP PUSH2 0x29E9 DUP3 PUSH2 0x2984 JUMP JUMPDEST PUSH1 0x40 DUP3 ADD SWAP1 POP SWAP2 SWAP1 POP JUMP JUMPDEST PUSH0 PUSH1 0x20 DUP3 ADD SWAP1 POP DUP2 DUP2 SUB PUSH0 DUP4 ADD MSTORE PUSH2 0x2A0B DUP2 PUSH2 0x29D2 JUMP JUMPDEST SWAP1 POP SWAP2 SWAP1 POP JUMP JUMPDEST PUSH0 DUP2 SWAP1 POP SWAP3 SWAP2 POP POP JUMP JUMPDEST PUSH0 PUSH2 0x2A26 DUP3 PUSH2 0x1F60 JUMP JUMPDEST PUSH2 0x2A30 DUP2 DUP6 PUSH2 0x2A12 JUMP JUMPDEST SWAP4 POP PUSH2 0x2A40 DUP2 DUP6 PUSH1 0x20 DUP7 ADD PUSH2 0x1F7A JUMP JUMPDEST DUP1 DUP5 ADD SWAP2 POP POP SWAP3 SWAP2 POP POP JUMP JUMPDEST PUSH0 PUSH2 0x2A57 DUP3 DUP5 PUSH2 0x2A1C JUMP JUMPDEST SWAP2 POP DUP2 SWAP1 POP SWAP3 SWAP2 POP POP JUMP JUMPDEST PUSH32 0x4CC3B42068C3A06E67206B68C3B46E672074E1BB936E2074E1BAA16900000000 PUSH0 DUP3 ADD MSTORE POP JUMP JUMPDEST PUSH0 PUSH2 0x2A96 PUSH1 0x1C DUP4 PUSH2 0x1F6A JUMP JUMPDEST SWAP2 POP PUSH2 0x2AA1 DUP3 PUSH2 0x2A62 JUMP JUMPDEST PUSH1 0x20 DUP3 ADD SWAP1 POP SWAP2 SWAP1 POP JUMP JUMPDEST PUSH0 PUSH1 0x20 DUP3 ADD SWAP1 POP DUP2 DUP2 SUB PUSH0 DUP4 ADD MSTORE PUSH2 0x2AC3 DUP2 PUSH2 0x2A8A JUMP JUMPDEST SWAP1 POP SWAP2 SWAP1 POP JUMP JUMPDEST PUSH0 DUP2 SWAP1 POP DUP2 PUSH0 MSTORE PUSH1 0x20 PUSH0 KECCAK256 SWAP1 POP SWAP2 SWAP1 POP JUMP JUMPDEST PUSH0 PUSH1 0x20 PUSH1 0x1F DUP4 ADD DIV SWAP1 POP SWAP2 SWAP1 POP JUMP JUMPDEST PUSH0 DUP3 DUP3 SHL SWAP1 POP SWAP3 SWAP2 POP POP JUMP JUMPDEST PUSH0 PUSH1 0x8 DUP4 MUL PUSH2 0x2B26 PUSH32 0xFFFFFFFFFFFFFFFFFFFFFFFFFFFFFFFFFFFFFFFFFFFFFFFFFFFFFFFFFFFFFFFF DUP3 PUSH2 0x2AEB JUMP JUMPDEST PUSH2 0x2B30 DUP7 DUP4 PUSH2 0x2AEB JUMP JUMPDEST SWAP6 POP DUP1 NOT DUP5 AND SWAP4 POP DUP1 DUP7 AND DUP5 OR SWAP3 POP POP POP SWAP4 SWAP3 POP POP POP JUMP JUMPDEST PUSH0 DUP2 SWAP1 POP SWAP2 SWAP1 POP JUMP JUMPDEST PUSH0 PUSH2 0x2B6B PUSH2 0x2B66 PUSH2 0x2B61 DUP5 PUSH2 0x1FC0 JUMP JUMPDEST PUSH2 0x2B48 JUMP JUMPDEST PUSH2 0x1FC0 JUMP JUMPDEST SWAP1 POP SWAP2 SWAP1 POP JUMP JUMPDEST PUSH0 DUP2 SWAP1 POP SWAP2 SWAP1 POP JUMP JUMPDEST PUSH2 0x2B84 DUP4 PUSH2 0x2B51 JUMP JUMPDEST PUSH2 0x2B98 PUSH2 0x2B90 DUP3 PUSH2 0x2B72 JUMP JUMPDEST DUP5 DUP5 SLOAD PUSH2 0x2AF7 JUMP JUMPDEST DUP3 SSTORE POP POP POP POP JUMP JUMPDEST PUSH0 PUSH0 SWAP1 POP SWAP1 JUMP JUMPDEST PUSH2 0x2BAF PUSH2 0x2BA0 JUMP JUMPDEST PUSH2 0x2BBA DUP2 DUP5 DUP5 PUSH2 0x2B7B JUMP JUMPDEST POP POP POP JUMP JUMPDEST JUMPDEST DUP2 DUP2 LT ISZERO PUSH2 0x2BDD JUMPI PUSH2 0x2BD2 PUSH0 DUP3 PUSH2 0x2BA7 JUMP JUMPDEST PUSH1 0x1 DUP2 ADD SWAP1 POP PUSH2 0x2BC0 JUMP JUMPDEST POP POP JUMP JUMPDEST PUSH1 0x1F DUP3 GT ISZERO PUSH2 0x2C22 JUMPI PUSH2 0x2BF3 DUP2 PUSH2 0x2ACA JUMP JUMPDEST PUSH2 0x2BFC DUP5 PUSH2 0x2ADC JUMP JUMPDEST DUP2 ADD PUSH1 0x20 DUP6 LT ISZERO PUSH2 0x2C0B JUMPI DUP2 SWAP1 POP JUMPDEST PUSH2 0x2C1F PUSH2 0x2C17 DUP6 PUSH2 0x2ADC JUMP JUMPDEST DUP4 ADD DUP3 PUSH2 0x2BBF JUMP JUMPDEST POP POP JUMPDEST POP POP POP JUMP JUMPDEST PUSH0 DUP3 DUP3 SHR SWAP1 POP SWAP3 SWAP2 POP POP JUMP JUMPDEST PUSH0 PUSH2 0x2C42 PUSH0 NOT DUP5 PUSH1 0x8 MUL PUSH2 0x2C27 JUMP JUMPDEST NOT DUP1 DUP4 AND SWAP2 POP POP SWAP3 SWAP2 POP POP JUMP JUMPDEST PUSH0 PUSH2 0x2C5A DUP4 DUP4 PUSH2 0x2C33 JUMP JUMPDEST SWAP2 POP DUP3 PUSH1 0x2 MUL DUP3 OR SWAP1 POP SWAP3 SWAP2 POP POP JUMP JUMPDEST PUSH2 0x2C73 DUP3 PUSH2 0x1F60 JUMP JUMPDEST PUSH8 0xFFFFFFFFFFFFFFFF DUP2 GT ISZERO PUSH2 0x2C8C JUMPI PUSH2 0x2C8B PUSH2 0x1DF5 JUMP JUMPDEST JUMPDEST PUSH2 0x2C96 DUP3 SLOAD PUSH2 0x2954 JUMP JUMPDEST PUSH2 0x2CA1 DUP3 DUP3 DUP6 PUSH2 0x2BE1 JUMP JUMPDEST PUSH0 PUSH1 0x20 SWAP1 POP PUSH1 0x1F DUP4 GT PUSH1 0x1 DUP2 EQ PUSH2 0x2CD2 JUMPI PUSH0 DUP5 ISZERO PUSH2 0x2CC0 JUMPI DUP3 DUP8 ADD MLOAD SWAP1 POP JUMPDEST PUSH2 0x2CCA DUP6 DUP3 PUSH2 0x2C4F JUMP JUMPDEST DUP7 SSTORE POP PUSH2 0x2D31 JUMP JUMPDEST PUSH1 0x1F NOT DUP5 AND PUSH2 0x2CE0 DUP7 PUSH2 0x2ACA JUMP JUMPDEST PUSH0 JUMPDEST DUP3 DUP2 LT ISZERO PUSH2 0x2D07 JUMPI DUP5 DUP10 ADD MLOAD DUP3 SSTORE PUSH1 0x1 DUP3 ADD SWAP2 POP PUSH1 0x20 DUP6 ADD SWAP5 POP PUSH1 0x20 DUP2 ADD SWAP1 POP PUSH2 0x2CE2 JUMP JUMPDEST DUP7 DUP4 LT ISZERO PUSH2 0x2D24 JUMPI DUP5 DUP10 ADD MLOAD PUSH2 0x2D20 PUSH1 0x1F DUP10 AND DUP3 PUSH2 0x2C33 JUMP JUMPDEST DUP4 SSTORE POP JUMPDEST PUSH1 0x1 PUSH1 0x2 DUP9 MUL ADD DUP9 SSTORE POP POP POP JUMPDEST POP POP POP POP POP POP JUMP JUMPDEST PUSH32 0x42E1BAA16E206B68C3B46E67207068E1BAA369206368E1BBA72073E1BB9F2068 PUSH0 DUP3 ADD MSTORE PUSH32 0xE1BBAF75206CC3B42068C3A06E67206EC3A07900000000000000000000000000 PUSH1 0x20 DUP3 ADD MSTORE POP JUMP JUMPDEST PUSH0 PUSH2 0x2D93 PUSH1 0x33 DUP4 PUSH2 0x1F6A JUMP JUMPDEST SWAP2 POP PUSH2 0x2D9E DUP3 PUSH2 0x2D39 JUMP JUMPDEST PUSH1 0x40 DUP3 ADD SWAP1 POP SWAP2 SWAP1 POP JUMP JUMPDEST PUSH0 PUSH1 0x20 DUP3 ADD SWAP1 POP DUP2 DUP2 SUB PUSH0 DUP4 ADD MSTORE PUSH2 0x2DC0 DUP2 PUSH2 0x2D87 JUMP JUMPDEST SWAP1 POP SWAP2 SWAP1 POP JUMP JUMPDEST PUSH32 0x44E1BBAF206C69E1BB8775206B68C3B46E67206B68E1BB9B7000000000000000 PUSH0 DUP3 ADD MSTORE POP JUMP JUMPDEST PUSH0 PUSH2 0x2DFB PUSH1 0x19 DUP4 PUSH2 0x1F6A JUMP JUMPDEST SWAP2 POP PUSH2 0x2E06 DUP3 PUSH2 0x2DC7 JUMP JUMPDEST PUSH1 0x20 DUP3 ADD SWAP1 POP SWAP2 SWAP1 POP JUMP JUMPDEST PUSH0 PUSH1 0x20 DUP3 ADD SWAP1 POP DUP2 DUP2 SUB PUSH0 DUP4 ADD MSTORE PUSH2 0x2E28 DUP2 PUSH2 0x2DEF JUMP JUMPDEST SWAP1 POP SWAP2 SWAP1 POP JUMP JUMPDEST PUSH32 0x4E487B7100000000000000000000000000000000000000000000000000000000 PUSH0 MSTORE PUSH1 0x32 PUSH1 0x4 MSTORE PUSH1 0x24 PUSH0 REVERT JUMPDEST PUSH32 0x49442073E1BAA36E207068E1BAA96D20C491C3A32074E1BB936E2074E1BAA169 PUSH0 DUP3 ADD MSTORE POP JUMP JUMPDEST PUSH0 PUSH2 0x2E90 PUSH1 0x20 DUP4 PUSH2 0x1F6A JUMP JUMPDEST SWAP2 POP PUSH2 0x2E9B DUP3 PUSH2 0x2E5C JUMP JUMPDEST PUSH1 0x20 DUP3 ADD SWAP1 POP SWAP2 SWAP1 POP JUMP JUMPDEST PUSH0 PUSH1 0x20 DUP3 ADD SWAP1 POP DUP2 DUP2 SUB PUSH0 DUP4 ADD MSTORE PUSH2 0x2EBD DUP2 PUSH2 0x2E84 JUMP JUMPDEST SWAP1 POP SWAP2 SWAP1 POP JUMP JUMPDEST PUSH0 PUSH1 0x40 DUP3 ADD SWAP1 POP DUP2 DUP2 SUB PUSH0 DUP4 ADD MSTORE PUSH2 0x2EDC DUP2 DUP6 PUSH2 0x1F88 JUMP JUMPDEST SWAP1 POP PUSH2 0x2EEB PUSH1 0x20 DUP4 ADD DUP5 PUSH2 0x1FE1 JUMP JUMPDEST SWAP4 SWAP3 POP POP POP JUMP JUMPDEST PUSH32 0x4E487B7100000000000000000000000000000000000000000000000000000000 PUSH0 MSTORE PUSH1 0x11 PUSH1 0x4 MSTORE PUSH1 0x24 PUSH0 REVERT JUMPDEST PUSH0 PUSH2 0x2F29 DUP3 PUSH2 0x1FC0 JUMP JUMPDEST SWAP2 POP PUSH32 0xFFFFFFFFFFFFFFFFFFFFFFFFFFFFFFFFFFFFFFFFFFFFFFFFFFFFFFFFFFFFFFFF DUP3 SUB PUSH2 0x2F5B JUMPI PUSH2 0x2F5A PUSH2 0x2EF2 JUMP JUMPDEST JUMPDEST PUSH1 0x1 DUP3 ADD SWAP1 POP SWAP2 SWAP1 POP JUMP JUMPDEST PUSH0 PUSH1 0x20 DUP3 ADD SWAP1 POP DUP2 DUP2 SUB PUSH0 DUP4 ADD MSTORE PUSH2 0x2F7E DUP2 DUP5 PUSH2 0x1F88 JUMP JUMPDEST SWAP1 POP SWAP3 SWAP2 POP POP JUMP JUMPDEST PUSH32 0xC490E1BB8B61206368E1BB89206B68C3B46E672068E1BBA370206CE1BB870000 PUSH0 DUP3 ADD MSTORE POP JUMP JUMPDEST PUSH0 PUSH2 0x2FBA PUSH1 0x1E DUP4 PUSH2 0x1F6A JUMP JUMPDEST SWAP2 POP PUSH2 0x2FC5 DUP3 PUSH2 0x2F86 JUMP JUMPDEST PUSH1 0x20 DUP3 ADD SWAP1 POP SWAP2 SWAP1 POP JUMP JUMPDEST PUSH0 PUSH1 0x20 DUP3 ADD SWAP1 POP DUP2 DUP2 SUB PUSH0 DUP4 ADD MSTORE PUSH2 0x2FE7 DUP2 PUSH2 0x2FAE JUMP JUMPDEST SWAP1 POP SWAP2 SWAP1 POP JUMP JUMPDEST PUSH0 PUSH1 0x40 DUP3 ADD SWAP1 POP PUSH2 0x3001 PUSH0 DUP4 ADD DUP6 PUSH2 0x203A JUMP JUMPDEST PUSH2 0x300E PUSH1 0x20 DUP4 ADD DUP5 PUSH2 0x203A JUMP JUMPDEST SWAP4 SWAP3 POP POP POP JUMP JUMPDEST PUSH32 0x42E1BAA16E206B68C3B46E67207068E1BAA36920C491E1BAA169206CC3BD20E1 PUSH0 DUP3 ADD MSTORE PUSH32 0xBBA77920717579E1BB816E000000000000000000000000000000000000000000 PUSH1 0x20 DUP3 ADD MSTORE POP JUMP JUMPDEST PUSH0 PUSH2 0x306F PUSH1 0x2B DUP4 PUSH2 0x1F6A JUMP JUMPDEST SWAP2 POP PUSH2 0x307A DUP3 PUSH2 0x3015 JUMP JUMPDEST PUSH1 0x40 DUP3 ADD SWAP1 POP SWAP2 SWAP1 POP JUMP JUMPDEST PUSH0 PUSH1 0x20 DUP3 ADD SWAP1 POP DUP2 DUP2 SUB PUSH0 DUP4 ADD MSTORE PUSH2 0x309C DUP2 PUSH2 0x3063 JUMP JUMPDEST SWAP1 POP SWAP2 SWAP1 POP JUMP JUMPDEST PUSH32 0x53E1BAA36E207068E1BAA96D206B68C3B46E672074E1BB936E2074E1BAA16920 PUSH0 DUP3 ADD MSTORE PUSH32 0x74726F6E672068E1BB87207468E1BB916E670000000000000000000000000000 PUSH1 0x20 DUP3 ADD MSTORE POP JUMP JUMPDEST PUSH0 PUSH2 0x30FD PUSH1 0x32 DUP4 PUSH2 0x1F6A JUMP JUMPDEST SWAP2 POP PUSH2 0x3108 DUP3 PUSH2 0x30A3 JUMP JUMPDEST PUSH1 0x40 DUP3 ADD SWAP1 POP SWAP2 SWAP1 POP JUMP JUMPDEST PUSH0 PUSH1 0x20 DUP3 ADD SWAP1 POP DUP2 DUP2 SUB PUSH0 DUP4 ADD MSTORE PUSH2 0x312A DUP2 PUSH2 0x30F1 JUMP JUMPDEST SWAP1 POP SWAP2 SWAP1 POP JUMP JUMPDEST PUSH32 0x53E1BAA36E207068E1BAA96D206EC3A07920C491C3A320C491C6B0E1BBA36320 PUSH0 DUP3 ADD MSTORE PUSH32 0x62C3A16E207472C6B0E1BB9B6320C491C3B32100000000000000000000000000 PUSH1 0x20 DUP3 ADD MSTORE POP JUMP JUMPDEST PUSH0 PUSH2 0x318B PUSH1 0x33 DUP4 PUSH2 0x1F6A JUMP JUMPDEST SWAP2 POP PUSH2 0x3196 DUP3 PUSH2 0x3131 JUMP JUMPDEST PUSH1 0x40 DUP3 ADD SWAP1 POP SWAP2 SWAP1 POP JUMP JUMPDEST PUSH0 PUSH1 0x20 DUP3 ADD SWAP1 POP DUP2 DUP2 SUB PUSH0 DUP4 ADD MSTORE PUSH2 0x31B8 DUP2 PUSH2 0x317F JUMP JUMPDEST SWAP1 POP SWAP2 SWAP1 POP JUMP JUMPDEST PUSH32 0x4DC383204BC38D43482048E1BB8C4154204B48C3944E472048E1BBA250204CE1 PUSH0 DUP3 ADD MSTORE PUSH32 0xBB8621205068C3A174206869E1BB876E2068C3A06E67206769E1BAA32E000000 PUSH1 0x20 DUP3 ADD MSTORE POP JUMP JUMPDEST PUSH0 PUSH2 0x3219 PUSH1 0x3D DUP4 PUSH2 0x1F6A JUMP JUMPDEST SWAP2 POP PUSH2 0x3224 DUP3 PUSH2 0x31BF JUMP JUMPDEST PUSH1 0x40 DUP3 ADD SWAP1 POP SWAP2 SWAP1 POP JUMP JUMPDEST PUSH0 PUSH1 0x20 DUP3 ADD SWAP1 POP DUP2 DUP2 SUB PUSH0 DUP4 ADD MSTORE PUSH2 0x3246 DUP2 PUSH2 0x320D JUMP JUMPDEST SWAP1 POP SWAP2 SWAP1 POP JUMP INVALID 0xC4 SWAP1 0xC3 LOG3 KECCAK256 PUSH20 0xE1BAA36E207875E1BAA5742074E1BAA169206E68 0xC3 LOG0 KECCAK256 PUSH14 0xC3A179C490C3A3206B69E1BB836D KECCAK256 0xC4 SWAP2 RJUMPI 0xBB8B PUSH15 0x68206368E1BAA574206CC6B0E1BBA3 PUSH15 0x673A20C490E1BAA05420434855E1BA 0xA8 0x4E LOG2 PUSH5 0x6970667358 0x22 SLT KECCAK256 PC CALLCODE EOFCREATE 0xED DUP15 0xC7 SUB JUMPDEST DUP11 DUP16 0xDA 0xAF 0xDA DUP16 CALLF 0x18AD CALLER DELEGATECALL CALLDATASIZE TLOAD CALLF 0xC7B BLOCKHASH 0xF 0xAD 0xD6 0xAE 0xC7 0xD8 MSTORE8 PUSH5 0x736F6C6343 STOP ADDMOD 0x1E STOP CALLER "
				},
				"gasEstimates": {
					"creation": {
						"codeDepositCost": "2603000",
						"executionCost": "51432",
						"totalCost": "2654432"
					},
					"external": {
						"addDealer(address)": "27018",
						"addProductsToBatch(uint256,string[],bytes32[])": "infinite",
						"admin()": "2574",
						"authorizedDealers(address)": "2922",
						"batchCount()": "2493",
						"batchTimelines(uint256,uint256)": "infinite",
						"batches(uint256)": "infinite",
						"checkProductStatus(string)": "infinite",
						"createBatch(string,string)": "infinite",
						"getBatchDetails(uint256)": "infinite",
						"getBatchTimeline(uint256)": "infinite",
						"products(string)": "infinite",
						"removeDealer(address)": "27038",
						"sellProduct(string,string,string)": "infinite",
						"transferBatch(uint256,address,string)": "infinite",
						"verifyQuality(uint256,bool)": "infinite"
					}
				},
				"methodIdentifiers": {
					"addDealer(address)": "06d6cb76",
					"addProductsToBatch(uint256,string[],bytes32[])": "8b142aeb",
					"admin()": "f851a440",
					"authorizedDealers(address)": "a7c4af80",
					"batchCount()": "06f13056",
					"batchTimelines(uint256,uint256)": "a1445e0a",
					"batches(uint256)": "b32c4d8d",
					"checkProductStatus(string)": "21f9eeae",
					"createBatch(string,string)": "92b8f021",
					"getBatchDetails(uint256)": "9d47dcc0",
					"getBatchTimeline(uint256)": "500c2557",
					"products(string)": "0186a423",
					"removeDealer(address)": "a2483a93",
					"sellProduct(string,string,string)": "f9e903e8",
					"transferBatch(uint256,address,string)": "c12bcaec",
					"verifyQuality(uint256,bool)": "57a75c27"
				}
			},
			"storageLayout": {
				"storage": [
					{
						"astId": 46,
						"contract": "MediTrack.sol:MediTrack",
						"label": "batches",
						"offset": 0,
						"slot": "0",
						"type": "t_mapping(t_uint256,t_struct(Batch)34_storage)"
					},
					{
						"astId": 48,
						"contract": "MediTrack.sol:MediTrack",
						"label": "batchCount",
						"offset": 0,
						"slot": "1",
						"type": "t_uint256"
					},
					{
						"astId": 54,
						"contract": "MediTrack.sol:MediTrack",
						"label": "batchTimelines",
						"offset": 0,
						"slot": "2",
						"type": "t_mapping(t_uint256,t_array(t_struct(TimelineEvent)41_storage)dyn_storage)"
					},
					{
						"astId": 59,
						"contract": "MediTrack.sol:MediTrack",
						"label": "products",
						"offset": 0,
						"slot": "3",
						"type": "t_mapping(t_string_memory_ptr,t_struct(Product)16_storage)"
					},
					{
						"astId": 63,
						"contract": "MediTrack.sol:MediTrack",
						"label": "authorizedDealers",
						"offset": 0,
						"slot": "4",
						"type": "t_mapping(t_address,t_bool)"
					},
					{
						"astId": 65,
						"contract": "MediTrack.sol:MediTrack",
						"label": "admin",
						"offset": 0,
						"slot": "5",
						"type": "t_address"
					}
				],
				"types": {
					"t_address": {
						"encoding": "inplace",
						"label": "address",
						"numberOfBytes": "20"
					},
					"t_array(t_string_storage)dyn_storage": {
						"base": "t_string_storage",
						"encoding": "dynamic_array",
						"label": "string[]",
						"numberOfBytes": "32"
					},
					"t_array(t_struct(TimelineEvent)41_storage)dyn_storage": {
						"base": "t_struct(TimelineEvent)41_storage",
						"encoding": "dynamic_array",
						"label": "struct MediTrack.TimelineEvent[]",
						"numberOfBytes": "32"
					},
					"t_bool": {
						"encoding": "inplace",
						"label": "bool",
						"numberOfBytes": "1"
					},
					"t_bytes32": {
						"encoding": "inplace",
						"label": "bytes32",
						"numberOfBytes": "32"
					},
					"t_mapping(t_address,t_bool)": {
						"encoding": "mapping",
						"key": "t_address",
						"label": "mapping(address => bool)",
						"numberOfBytes": "32",
						"value": "t_bool"
					},
					"t_mapping(t_string_memory_ptr,t_struct(Product)16_storage)": {
						"encoding": "mapping",
						"key": "t_string_memory_ptr",
						"label": "mapping(string => struct MediTrack.Product)",
						"numberOfBytes": "32",
						"value": "t_struct(Product)16_storage"
					},
					"t_mapping(t_uint256,t_array(t_struct(TimelineEvent)41_storage)dyn_storage)": {
						"encoding": "mapping",
						"key": "t_uint256",
						"label": "mapping(uint256 => struct MediTrack.TimelineEvent[])",
						"numberOfBytes": "32",
						"value": "t_array(t_struct(TimelineEvent)41_storage)dyn_storage"
					},
					"t_mapping(t_uint256,t_struct(Batch)34_storage)": {
						"encoding": "mapping",
						"key": "t_uint256",
						"label": "mapping(uint256 => struct MediTrack.Batch)",
						"numberOfBytes": "32",
						"value": "t_struct(Batch)34_storage"
					},
					"t_string_memory_ptr": {
						"encoding": "bytes",
						"label": "string",
						"numberOfBytes": "32"
					},
					"t_string_storage": {
						"encoding": "bytes",
						"label": "string",
						"numberOfBytes": "32"
					},
					"t_struct(Batch)34_storage": {
						"encoding": "inplace",
						"label": "struct MediTrack.Batch",
						"members": [
							{
								"astId": 18,
								"contract": "MediTrack.sol:MediTrack",
								"label": "id",
								"offset": 0,
								"slot": "0",
								"type": "t_uint256"
							},
							{
								"astId": 20,
								"contract": "MediTrack.sol:MediTrack",
								"label": "name",
								"offset": 0,
								"slot": "1",
								"type": "t_string_storage"
							},
							{
								"astId": 22,
								"contract": "MediTrack.sol:MediTrack",
								"label": "manufacturer",
								"offset": 0,
								"slot": "2",
								"type": "t_string_storage"
							},
							{
								"astId": 24,
								"contract": "MediTrack.sol:MediTrack",
								"label": "createdDate",
								"offset": 0,
								"slot": "3",
								"type": "t_uint256"
							},
							{
								"astId": 26,
								"contract": "MediTrack.sol:MediTrack",
								"label": "currentOwner",
								"offset": 0,
								"slot": "4",
								"type": "t_address"
							},
							{
								"astId": 29,
								"contract": "MediTrack.sol:MediTrack",
								"label": "productUids",
								"offset": 0,
								"slot": "5",
								"type": "t_array(t_string_storage)dyn_storage"
							},
							{
								"astId": 31,
								"contract": "MediTrack.sol:MediTrack",
								"label": "status",
								"offset": 0,
								"slot": "6",
								"type": "t_uint256"
							},
							{
								"astId": 33,
								"contract": "MediTrack.sol:MediTrack",
								"label": "isExists",
								"offset": 0,
								"slot": "7",
								"type": "t_bool"
							}
						],
						"numberOfBytes": "256"
					},
					"t_struct(Product)16_storage": {
						"encoding": "inplace",
						"label": "struct MediTrack.Product",
						"members": [
							{
								"astId": 3,
								"contract": "MediTrack.sol:MediTrack",
								"label": "uid",
								"offset": 0,
								"slot": "0",
								"type": "t_string_storage"
							},
							{
								"astId": 5,
								"contract": "MediTrack.sol:MediTrack",
								"label": "batchId",
								"offset": 0,
								"slot": "1",
								"type": "t_uint256"
							},
							{
								"astId": 7,
								"contract": "MediTrack.sol:MediTrack",
								"label": "secretHash",
								"offset": 0,
								"slot": "2",
								"type": "t_bytes32"
							},
							{
								"astId": 9,
								"contract": "MediTrack.sol:MediTrack",
								"label": "isSold",
								"offset": 0,
								"slot": "3",
								"type": "t_bool"
							},
							{
								"astId": 11,
								"contract": "MediTrack.sol:MediTrack",
								"label": "soldBy",
								"offset": 1,
								"slot": "3",
								"type": "t_address"
							},
							{
								"astId": 13,
								"contract": "MediTrack.sol:MediTrack",
								"label": "soldAt",
								"offset": 0,
								"slot": "4",
								"type": "t_uint256"
							},
							{
								"astId": 15,
								"contract": "MediTrack.sol:MediTrack",
								"label": "customerInfoHash",
								"offset": 0,
								"slot": "5",
								"type": "t_string_storage"
							}
						],
						"numberOfBytes": "192"
					},
					"t_struct(TimelineEvent)41_storage": {
						"encoding": "inplace",
						"label": "struct MediTrack.TimelineEvent",
						"members": [
							{
								"astId": 36,
								"contract": "MediTrack.sol:MediTrack",
								"label": "description",
								"offset": 0,
								"slot": "0",
								"type": "t_string_storage"
							},
							{
								"astId": 38,
								"contract": "MediTrack.sol:MediTrack",
								"label": "timestamp",
								"offset": 0,
								"slot": "1",
								"type": "t_uint256"
							},
							{
								"astId": 40,
								"contract": "MediTrack.sol:MediTrack",
								"label": "actor",
								"offset": 0,
								"slot": "2",
								"type": "t_address"
							}
						],
						"numberOfBytes": "96"
					},
					"t_uint256": {
						"encoding": "inplace",
						"label": "uint256",
						"numberOfBytes": "32"
					}
				}
			},
			"userdoc": {
				"kind": "user",
				"methods": {},
				"version": 1
			}
		}
	}
}